:020000040000fa
:080000000001040000000000f3
:020000040000fa
:100200004f3f21000079220000018800000000001b
:100210000c0007006072220001002000110007009e
:10022000000020000000e000020032000000020098
:1002300000000000ea220200000000000040da0096
:100240000000fe004440a900400020000000e00043
:100250000300320000002000a00188004440a800f4
:100260000000060091018800800078000000eb008b
:1002700015003700e280400032a0b4009101ba00be
:10028000e280400032a0b4009102ba00e280400057
:1002900032a0b4000002eb00472bde00f507b200ed
:1002a000602ce10004003a000059eb008301e900f2
:1002b000fdff3e00040037006128e100010032002c
:1002c0000082eb00040007001101ba000200e00008
:1002d000e8ff3a00000006003159ba008301e90046
:1002e0000c0032002159ba008301e90008003200f5
:1002f0000400e00003003a00e280400032a0b400b5
:10030000f5ff370011d9ba008301e900faff3a007e
:100310008100e800e180400032a0b4000000060047
:100320004c18040000000000301904000000000018
:10033000889fbe0080047800808f80000000e0006d
:1003400003003a00610007000000e0000a003500e9
:10035000808f80000900e00002003a00000478006d
:10036000060037000004780009004000570007002d
:100370000000e00001003d000084eb000800780070
:100380004f04be00000006000c02e20004003d0025
:100390000f42ab00020032000f02ab00feff320042
:1003a0000040da00feff37000a00fa0011002000ca
:1003b000b1bf9f00c0bf9f006a80570000c0da0035
:1003c0004fb897000080fa00000006000a00fa000b
:1003d00051002000b1bf9f00c0bf9f006a8057003e
:1003e00000c0da005fb897000080fa000000060045
:1003f0000a00fa0080017800e20f500028003e0059
:10040000908f8000e10f500008003200e0212000b2
:100410000000e0000500320064212000852120005a
:10042000a62120008001780004003700c4202000ad
:10043000e5202000062120004321200014409000e8
:100440000004e000040035008009eb001440900037
:100450000074a00010429800154090000028a300ee
:1004600003003a00154090000024a000904298003c
:100470008001eb0007003700154090000008a30042
:10048000fdff320063c078000000fb00000b780025
:100490008301e800828f5100f7ff3a00080037001f
:1004a00030002000b0bf9f00c3bf9f00d1bf9f009e
:1004b000e2bf9f006a80570000c0da006fb9970062
:1004c000020078000080fa0000000600800078003a
:1004d0000000e00004003a00401f2100808f8800e7
:1004e00001017800060037000081eb00403f210049
:1004f000808f500002003e00818f88000001eb00d9
:100500000200780000000600839f68000100e00000
:1005100002003d0060001000e08018000300e000d1
:1005200002003d0060011100e08119000500070094
:100530004f00e00002003b0060001000e080180067
:10054000000006006022b800060220000000d00073
:100550008180d2000482d2008582d2000000a000f7
:100560000202520083825a0003003100020242005c
:1005700083824a000000a1000603e900f3ff3a006d
:1005800000000600800078003004e000feff3a0022
:10059000010050000000e90000000600889fbe0036
:1005a0008a9fbe008c9fbe0000017800011e2100c2
:1005b0001100e0000b003a00401e2100008f88006f
:1005c000e08e8800218f8800f18e88002140900005
:1005d0000004a000a0409800614090000004a0002a
:1005e000e0409800e7004100c208de00c20cdd00d8
:1005f000f38e80004d1f2100403f21000d0550006b
:1006000022002000811f7800110009000205d80097
:1006100000067800cf007800c308dd00e4854000c4
:10062000e58e80008000eb00471f2100061e2100a0
:100630000100370080017800234090000008a300eb
:10064000020032000a003700940978001302780093
:10065000244090000008a300fbff32000981410004
:10066000820f520002003900830f51004300310015
:1006700013007800830f5000eeff3e00870f5000fc
:1006800002003900860f5000eaff3900858f5100c3
:100690004b003a00860f500049003a008100e80004
:1006a000e18f5000e3ff36008c8f540004003600c9
:1006b0008a8f5400020031000b04780012003700ca
:1006c000614ab8006151b900b0ff2f00010020005d
:1006d0000200500083805800800f5200818f5a0022
:1006e0000200350009047800070037000d8054002f
:1006f000723f210002004000110009000a80d8006a
:100700000a80b900000478000800780008ff07009c
:1007100080017800e10f400029003200e28e800065
:100720000009780064004100a2409000808f5100d1
:10073000020032000104a000010037000104a10002
:100740002141980088804100e480500081097800b0
:10075000e18e8800021e210082087800214090006e
:100760000004a000a0409800234090000004a100d5
:10077000a041980082017800a9ff3700f28e88001e
:10078000820f52000800360012007800a11d2100df
:10079000a242900085487800c08e88000409780045
:1007a0000040eb002041980082097800234090002f
:1007b0000004a000a04198006480410001003700bf
:1007c0000000eb004f06be004f05be004f04be0008
:1007d0000000060064005000f08e8800a0409000e9
:1007e0000104a1002140980000000600889fbe007f
:1007f0008a9fbe0000057800e4015000130010003d
:10080000c285de00234090000008a30004003200ef
:10081000f38e8800234090000004a100a0419800be
:10082000010078005dff0700000478000000e00090
:10083000170032008a0f50001500320060b8970090
:1008400008005000c284de00898f55000100360088
:10085000890578004259dd008a0078000800780098
:10086000130007008a0f5400090031004248dd00e0
:10087000000044008a0f5000050036000a005000b6
:1008800000004400c28e8000d38e80000288be002b
:10089000080078004f05be004f04be0000000600af
:1008a000000478000900070008007800b6fe070081
:1008b0008001eb000200370061f079008301e8005d
:1008c000828f5100fcff3a0000000600881f78006c
:1008d000a08b80000000e000010032000000010059
:1008e0008817210008007800060007006c04440007
:1008f000801d2100800f5400faff3a004f04780059
:1009000000000600889fbe008a1f7800000478005f
:10091000300090006300600024003200080078007e
:10092000300007003805900080ef2f0000006500c0
:1009300030049800280090000000e000040032001d
:10094000e804650002003a005f00070029049800ef
:100950004800900094fe0700e10f400013003200b1
:10096000b80090000102b20010003a000ac8a300cb
:1009700018003200608f80000000e0001500320097
:100980000001780081047800012a200012289000dc
:10099000880f5000070032004205b0004905b00042
:1009a000818f54000b003200f8ff37000080eb000d
:1009b000090037000200780084fe0700608f800085
:1009c000090040008000eb00112898000100780029
:1009d000010037000000eb004f0578004f04be0017
:1009e00000000600881f78000004780030009000a6
:1009f0000008a30007003200800078000120b20048
:100a000004003a0011049800a8009000010c78003e
:100a1000170037000018a300190032000098a30047
:100a200017003200a80090000100e000140032001e
:100a3000180190000200e000110032004800900010
:100a40006bfe070098009000810f500003003200f9
:100a5000380090000003b300300498000000eb0061
:100a60001004980028009000000c780038009000d6
:100a70000058a300020032000080eb0001003700a4
:100a80000000eb004f04780000000600518f80004a
:100a90000100e0000300320011007800508f880050
:100aa000030037000020200021fe070080007800ae
:100ab000e18f400002003a00906e2600708f88009f
:100ac0000100780000000600518f800001087800c6
:080ad000508f880000000600b1
:020000040000fa
:0200000401f009
:04000000e6ff000017
:020000040000fa
:0200000401f009
:04000400ff7f00007a
:020000040000fa
:0200000401f009
:040008007fff000076
:020000040000fa
:0200000401f009
:04001400ffff0000ea
:020000040000fa
:10000800c82c0000c82c0000c82c0000c82c000018
:10001800c82c0000c82c0000c82c0000c82c000008
:10002800c82c0000c82c0000c82c0000c82c0000f8
:10003800c82c0000c82c0000bc260000c82c0000fa
:10004800c82c0000262c0000c62b0000c82c00007d
:10005800c82c0000c82c0000f2140000c82c0000b6
:10006800c82c0000c82c0000c82c0000c82c0000b8
:10007800c82c0000622c0000a0280000c82c00003a
:10008800c82c0000c82c0000c82c0000c82c000098
:10009800c82c0000c82c0000c82c0000c82c000088
:1000a800c82c0000c82c0000c82c0000c82c000078
:1000b800c82c0000c82c0000c82c0000c82c000068
:1000c800c82c0000c82c0000c82c0000c82c000058
:1000d800c82c0000c82c0000c82c0000c82c000048
:1000e800c82c0000c82c0000c82c0000c82c000038
:0800f800c82c0000c82c000018
:020000040000fa
:10010800c82c0000c82c0000c82c0000c82c000017
:10011800c82c0000c82c0000c82c0000c82c000007
:10012800c82c0000c82c0000c82c0000c82c0000f7
:10013800c82c0000c82c0000bc260000c82c0000f9
:10014800c82c0000262c0000c62b0000c82c00007c
:10015800c82c0000c82c0000f2140000c82c0000b5
:10016800c82c0000c82c0000c82c0000c82c0000b7
:10017800c82c0000622c0000a0280000c82c000039
:10018800c82c0000c82c0000c82c0000c82c000097
:10019800c82c0000c82c0000c82c0000c82c000087
:1001a800c82c0000c82c0000c82c0000c82c000077
:1001b800c82c0000c82c0000c82c0000c82c000067
:1001c800c82c0000c82c0000c82c0000c82c000057
:1001d800c82c0000c82c0000c82c0000c82c000047
:1001e800c82c0000c82c0000c82c0000c82c000037
:0801f800c82c0000c82c000017
:020000040000fa
:080ad8000d0a000000000000ff
:020000040000fa
:100ae0000200fa009a1207000000eb00000f7800e5
:100af0000d0037009e00e80000c320000080400089
:100b000010407800004178009e00780000c320006b
:100b1000008040001040780080407800c0cdb300d5
:100b2000b71207001e8fe8009e007800700d2000ad
:100b3000808f5000efff3600891207000080fa0016
:100b4000000006000200fa00881f780080120700eb
:100b50000000eb00000f78000d0037001e04e800d5
:100b60009e00780000c32000008040001040780004
:100b700080407800c0cdb3007d120700804078002f
:100b800000c3200000004400014878001e8fe800e8
:100b90009e007800700d2000808f5000efff36001f
:100ba0006f1207004f0478000080fa000000060072
:100bb0000600fa00000f78001e0078002007980059
:100bc0002e009000e10f50000a0032002e0090002d
:100bd000e20f50000a0032002e0090000000e000fa
:100be0000100320009003700c0c0b30073ecb70049
:100bf0000900370080c0b30073ecb700060037006f
:100c000020c0b30073ecb700030037000080eb0096
:100c100010079800020037000000eb001007980052
:100c20001e0090000080fa00000006000400fa0098
:100c3000000f7800400420009e0f100006003200d4
:100c4000100120009e0f100003003200300320002e
:100c50009e0f100005003a001e00780063ecb700fc
:100c60000000eb0010079800020037000080eb0046
:100c7000100798001e0090000080fa000000060097
:100c80000400fa00000f78001e00e000150032009a
:100c9000000220009e0f100012003200000320000e
:100ca0009e0f10000f003200000420009e0f100065
:100cb0000c003200000520009e0f100009003200d9
:100cc000000620009e0f10000600320000062000e3
:100cd0009e0f100003003200000120009e0f100044
:100ce00005003a001e0078005decb7000000eb0044
:100cf00010079800020037000080eb0010079800f2
:100d00001e0090000080fa00000006000a00fa00b1
:100d10002007980031079800ae0090003e00900038
:100d2000808f5000030039000080eb0040079800de
:100d30001e003700be00900030382000808f500029
:100d4000030036000080eb004007980017003700d2
:100d50002e0090000000e900200798002e0090006f
:100d6000204798002e0090004800de003047980091
:100d70003e009000004f78003e0090004800de00ea
:100d8000104798003e40900039ecb7002e4090008c
:100d90003becb7001e40900041ecb7001e407800cd
:100da00043ecb7000000eb00400798004e009000b5
:100db0000080fa00000006000a00fa0020079800f0
:100dc00031079800ae0090003e009000808f5000e8
:100dd000030039000080eb00400798001b0037003b
:100de000be009000301f2000808f500003003600ae
:100df0000080eb0040079800140037002e009000a0
:100e0000204798002e0090004800de0030479800f0
:100e10003e009000004f78003e0090004800de0049
:100e2000104798003e4090003decb7002e409000e7
:100e30003fecb7001e40900045ecb7001e40780024
:100e400047ecb7000000eb00400798004e00900010
:100e50000080fa00000006000e00fa00300798003b
:100e60004107980052079800be0090004e00900085
:100e7000808f5000030039000080eb00600798006d
:100e80002b003700ce009000301f2000808f5000d4
:100e9000030036000080eb00600798002400370054
:100ea000de00900030382000808f500003003600b4
:100eb0000080eb00600798001d0037003e009000a6
:100ec000404798003e0090004800de0050479800e0
:100ed0004e009000204798004e0090004800de0031
:100ee000304798005e009000104798005e00900028
:100ef0004800de00004f78005e409000c1ecb70073
:100f00004e409000c3ecb7003e409000c5ecb700e7
:100f10002e409000c7ecb7001e407800c9ecb70027
:100f20001e409000cbecb7000000eb00600798007b
:100f30006e0090000080fa00000006000600fa0033
:100f400010079800210798001e0090000000e000a4
:100f5000060032002e0090000000e0000300320086
:100f6000a0ccb300004f78000e0037001e009000a8
:100f70000000e00003003200a0c4b300004f78007e
:100f8000080037002e0090000000e000030032004f
:100f9000a0c8b300004f780002003700a0c0b30023
:100fa000004f78001e4078005fecb7000080fa0028
:100fb000000006000600fa0020479800314798001c
:100fc0000000eb00000f7800100037009e00780052
:100fd00000c3200000804000904078002e40900028
:100fe00080cf500008003a001e00e80001c3200036
:100ff00001004000be409000014878000000eb0076
:1010000020079800070037001e8fe8009e00780038
:10101000700d2000808f5000ecff36008080eb00c8
:10102000210798002e0090000080fa0000000600c2
:101030000800fa0020479800210798000000eb0004
:10104000000f7800110037009e00780000c32000d8
:1010500000804000904078002e40900080cf5000eb
:1010600009003a009e00e80000c320000080400014
:10107000904078002e009000014878000000eb00be
:1010800030079800070037001e8fe8009e007800a8
:10109000700d2000808f5000ebff36000080eb00c9
:1010a000300798003e0090000080fa000000060023
:1010b0000200fa00004f7800114798001e4090008f
:1010c00049ecb7001e4078004becb7000080fa00f6
:1010d000000006000800fa00004f78001147980051
:1010e000224798003347980044479800f0c4b30063
:1010f0009e4f1000030036000080eb003007980080
:101100000c0037001e4078004decb7001e409000e8
:101110004fecb7002e40900051ecb7004e409000cd
:1011200053ecb7003e40900055ecb7000000eb00d8
:10113000300798003e0090000080fa000000060092
:101140000400fa00008fbe001e00be004a09dd0048
:101150004600de0000007100c608de0059ecb70052
:101160001e00be004209dd004e00de0000007100de
:10117000ce08de0057ecb7000040eb005becb70098
:101180000080fa00000006000200fa00004f78001c
:101190001e40780065ecb7000080fa0000000600f1
:1011a0000200fa00000f78001e00e0000500320087
:1011b00075ccbf0001c8b3000140700075ecb700ea
:1011c0000300370075ccbf000074a10075ecb700b8
:1011d0000080fa00000006000400fa00004f7800ca
:1011e00011479800224798001e40780079ecb7001c
:1011f0001e4090007becb7002e4090007decb700c5
:101200000080fa00000006000200fa00004f78009b
:10121000114798001e4078007f4060000045b000f4
:101220007fecb7001e40900081ecb7000080fa0010
:10123000000006000600fa001007980041479800d9
:101240004e4090000000fb00630060004500dd00a0
:101250008040780000c8b30000c0400007edb70030
:101260000000eb00000f78000d0037001e00780032
:101270000000400032052000000141001e007800ff
:10128000800078001e0090000080400090407800b0
:1012900000c3200000004100014878001e0fe80054
:1012a0001e007800e10f5000f0ff36000080fa00c9
:1012b000000006000000fa00a510070007cdbf00df
:1012c0000041780006cdbf0080407800c0cdb3005b
:1012d000cb100700a210070081c9200091407800c0
:1012e00082ccbf00020007000080fa000000060068
:1012f0000600fa0040479800514798000000eb00b4
:10130000000f7800921007000000eb001007980013
:101310001f0037009e00900000c3200000804000a6
:10132000904078004e40900080cf5000150039006a
:101330009e00900000c32000008040009040780094
:101340005e40900080cf50000e003e001e009000d6
:101350008000e80000c320000080400010407800ba
:10136000004178009e00900000c3200000804000f3
:101370001040780080407800c0cdb300a010070076
:101380001e0fe8001e0090000080e8001007980083
:101390009e009000700d2000808f5000ddff360011
:1013a0006f1007001e0078000080fa0000000600a1
:1013b0000400fa00100798000000eb00000f78000e
:1013c0000d0037001e00780000004000b20620002b
:1013d000000141001e007800800078001e0090008f
:1013e000008040009040780000c3200000004100d1
:1013f000014878001e0fe8001e007800e10f500041
:10140000f0ff36000080fa00000006000200fa003b
:10141000004f7800114798001e407800adecb700ef
:101420001e409000afecb7000080fa0000000600fc
:101430000200fa00004f7800114798001e40780023
:10144000b1ecb7001e409000b3ecb7000080fa008a
:10145000000006000200fa00004f780011479800d3
:101460001e407800b5ecb7001e409000b7ecb70006
:101470000080fa00000006000200fa00004f780029
:101480001e80fb004400dd006f404000cdecb70043
:101490000080fa00000006000200fa00004f780009
:1014a000114798001e80fb004400dd00804078005a
:1014b0001e4090006f40600000c04000cfecb700bd
:1014c0000080fa00000006000200fa00004f7800d9
:1014d000114798001e4090000080fb004400dd0092
:1014e000804078001e4078006f40600000c04000df
:1014f000d1ecb7000080fa00000006000400fa00fa
:10150000008fbe001e00be004088de00cf80de00df
:10151000d3ecb7001e00be004809dd004800de0025
:1015200000007100c888de00d5ecb7001e0078000e
:10153000d7ecb7000080fa00000006000200fa00b5
:10154000004f78001e407800d9ecb7000080fa0008
:10155000000006000400fa00000f78001107980050
:101560001e0078004800de00dfecb7001e007800a7
:10157000e1ecb7001e0090004800de00e3ecb7008d
:101580001e009000e5ecb7000080fa0000000600a5
:101590000600fa00004f7800114798002247980093
:1015a0003347980044479800554798002e409000d4
:1015b000e7ecb7003e409000e9ecb7001e40780031
:1015c000ebecb7001e409000edecb7004e409000f1
:1015d000efecb7005e409000f1ecb7000080fa003d
:1015e000000006000a00fa00000f780011079800ba
:1015f0002207980033079800200d20001e0f40009e
:101600001e009000200db000100798002e009000e2
:1016100067004000200798003e00900067004000ef
:10162000300798009e00900020352000808f5000e9
:10163000030036000080eb004007980039003700b7
:10164000be009000701e2000808f50000300360006
:101650000080eb0040079800320037001e00900029
:101660009e0f100004003100ae0090003e0090007c
:10167000808f5000030039000080eb004007980085
:1016800028003700501a20009e0f10000c00360072
:101690009e00900090272000808f500008003e00a0
:1016a000ae009000700a2000808f500004003600c9
:1016b000be00900060142000808f500003003600b0
:1016c0000080eb0040079800160037001e007800ed
:1016d0004800de00f3ecb7001e007800f5ecb70020
:1016e0001e0090004800de00f7ecb7001e009000de
:1016f000f9ecb7002e0090004800de00fbecb700cc
:101700002e009000fdecb7003e0090004800de0087
:10171000ffecb7003e00900001edb7000000eb00c9
:10172000400798004e0090000080fa00000006007c
:101730000600fa0010079800210798001e0090008c
:101740000000e000060032002e0090000000e000e3
:1017500003003200c0c3b300004f78000e00370012
:101760001e0090000000e00003003200c0c2b30081
:10177000004f7800080037002e0090000000e000c5
:1017800003003200c0c1b300004f780002003700f0
:10179000c0c0b300004f78001e40780003edb700d2
:1017a0000080fa00000006000200fa00000f780036
:1017b0001e00e0000500320067ccbf00f1c7b30097
:1017c0000140600067ecb7000400370067ccbf0041
:1017d00001c8b3000140700067ecb7000080fa0058
:1017e000000006000400fa00000f780011079800be
:1017f0001e00e0000500320067ccbf00f1cbb30053
:101800000140600067ecb7000400370067ccbf0000
:1018100001c4b3000140700067ecb7001e009000e7
:101820000000e0000500320067ccbf00f1cdb3003e
:101830000140600067ecb7000400370067ccbf00d0
:1018400001c2b3000140700067ecb7000080fa00ed
:10185000000006000a00fa005dccbf000080fb001b
:101860004007980000032000ce009000808f5000b9
:101870003100320000032000ce009000808f500025
:101880000b003c004e009000f00f50002200320090
:1018900000022000ce009000808f50002200320015
:1018a0004e0090000000e0001700320036003700c4
:1018b00000052000ce009000808f500026003200ee
:1018c00000052000ce009000808f500005003c00f5
:1018d00000042000ce009000808f50001a003200db
:1018e0002900370000062000ce009000808f5000b5
:1018f0001d00320000072000ce009000808f5000b5
:101900001d003200200037000000280001072000e1
:10191000008fbe0020003700000020006109200079
:10192000008fbe001c00370000002400810320004f
:10193000008fbe001800370000002200c101200007
:10194000008fbe001400370000002100e1002000dd
:10195000008fbe00100037000080200071002000c2
:10196000008fbe000c00370000402800310020002e
:10197000008fbe000800370000202c00110020005e
:10198000008fbe00040037006000b80020079800f8
:10199000310798000a00370073ccbf00ec4f5000ad
:1019a00004003a001e00be00000040008180480094
:1019b000008fbe001e00be0020079800310798006f
:1019c0002e009000be0090000080fa00000006008b
:1019d0001000fa002007980031079800420798008d
:1019e00053079800640798005e0090000000e00034
:1019f000030035005e009000e30f50000300340048
:101a00000080eb00700798004e0037006e009000d9
:101a10000000e000030035006e009000e30f50006e
:101a2000030034000080eb00700798004500370089
:101a300088ff07000002be0084007800606a200072
:101a4000000bb8006020b9000701780000014100d8
:101a5000606a200000a8b9000001410082037800fc
:101a60002e0090006101b9000600be00a6fa070032
:101a70001007980077ff07000002be00840078007e
:101a8000606a2000000bb8006020b90007017800f0
:101a900000014100606a200000a8b9000001410077
:101aa000820378003e0090006101b9000600be008c
:101ab00095fa0700000f78001e0090004800de0035
:101ac0006becb7001e0090006decb7001e007800b4
:101ad0004800de006fecb7001e00780071ecb70024
:101ae0004e0090000000e0000400320067ccbf0010
:101af0000044a00067ecb7000400370067ccbf00cb
:101b0000f1ceb3000140600067ecb7006e009000ba
:101b1000e34060005e009000630060004200dd0072
:101b200000c1400067ccbf008040780000cfb30008
:101b300000c060000040410067ecb7000000eb000f
:101b4000700798007e0090000080fa0000000600f8
:101b50000600fa00000f7800110798001e007800b8
:101b6000200798002e009000e30f5000670032001d
:101b70002e009000e30f500007003e002e00900062
:101b8000e10f50002e0032002e009000e10f5000b7
:101b900041003e000d0037002e009000e50f500080
:101ba000940032002e009000e50f500074003900c0
:101bb0002e009000e60f5000ab0032002e00900087
:101bc000e70f5000c5003200da0037001e00900019
:101bd000e10f50000f003600c4c2bf000080fb00c0
:101be0004600de00614060000004a2006140600029
:101bf000614060004601dd00412c200091407800ea
:101c0000f0cbb30000c0600002407000c4e2b70037
:101c10008a0137001e009000614060006140600052
:101c20004601dd00412c200091407800f0cbb3004c
:101c300000c0600002407000c4e2b7007f013700be
:101c40001e009000e10f50000b003600c4c2bf0020
:101c50000080fb004700de000004a200614060003d
:101c6000c700dd00c4c2bf000074a10001407000c5
:101c7000c4e2b700710137001e00900061406000af
:101c8000c700dd00c4c2bf000074a10001407000a5
:101c9000c4e2b700690137001e009000e10f500058
:101ca0000f003600c5c2bf000080fb000000d1005d
:101cb000614060000004a20061406000614060007b
:101cc00000414000512c200091407800d0cfb3005b
:101cd00000c0600002407000c5e2b7005701370045
:101ce0001e009000614060006140600000414000c3
:101cf000512c200091407800d0cfb30000c060008c
:101d000002407000c5e2b7004c0137001e00900091
:101d1000e10f50000f003600c5c2bf000080fb007d
:101d20004400de00614060000004a20061406000e9
:101d3000614060004401dd00512c2000914078009a
:101d4000f0ceb30000c0600002407000c5e2b700f2
:101d50003a0137001e009000614060006140600061
:101d60004401dd00512c200091407800f0ceb300fa
:101d700000c0600002407000c5e2b7002f013700cc
:101d80001e009000e10f50000f003600c5c2bf00da
:101d90000080fb004200de00614060000004a20001
:101da00061406000614060004201dd00512c200074
:101db00091407800b0cfb30000c0600002407000d6
:101dc000c5e2b7001d0137001e00900061406000b1
:101dd000614060004201dd00512c200091407800fc
:101de000b0cfb30000c0600002407000c5e2b70091
:101df000120137001e009000e10f50000f00360066
:101e0000c5c2bf000080fb004500de0061406000ed
:101e10000004a20061406000614060004501dd00f7
:101e2000512c200091407800f0cdb30000c060003c
:101e300002407000c5e2b700000137001e009000ac
:101e400061406000614060004501dd00512c2000d0
:101e500091407800f0cdb30000c0600002407000f7
:101e6000c5e2b700f50037001e009000e10f5000fa
:101e70000f003600c5c2bf000080fb004600de0038
:101e8000614060000004a2006140600061406000a9
:101e90004601dd00512c200091407800f0cbb300ca
:101ea00000c0600002407000c5e2b700e3003700e8
:101eb0001e00900061406000614060004601dd004e
:101ec000512c200091407800f0cbb30000c060009e
:101ed00002407000c5e2b700d80037001e00900035
:101ee000e10f50000b003600c5c2bf000080fb00b0
:101ef0004700de000004a20061406000c700dd0072
:101f0000c5c2bf000074a10001407000c5e2b70067
:101f1000ca0037001e00900061406000c700dd006d
:101f2000c5c2bf000074a10001407000c5e2b70047
:101f3000c20037001e009000e10f5000690036001b
:101f4000c4c2bf000080fb004600de0061406000ac
:101f50000004a20061406000614060004601dd00b5
:101f6000412c200091407800f0cbb30000c060000d
:101f700002407000c4e2b700c4c2bf000080fb0092
:101f80004700de000004a20061406000c700dd00e1
:101f9000c4c2bf000074a10001407000c4e2b700d9
:101fa000c5c2bf000080fb000000d100614060009e
:101fb0000004a200614060006140600000414000f8
:101fc000512c200091407800d0cfb30000c06000b9
:101fd00002407000c5e2b700c5c2bf000080fb0030
:101fe0004400de00614060000004a2006140600027
:101ff000614060004401dd00512c200091407800d8
:10200000f0ceb30000c0600002407000c5e2b7002f
:10201000c5c2bf000080fb004200de0061406000de
:102020000004a20061406000614060004201dd00e8
:10203000512c200091407800b0cfb30000c0600068
:1020400002407000c5e2b700c5c2bf000080fb00bf
:102050004500de00614060000004a20061406000b5
:10206000614060004501dd00512c20009140780066
:10207000f0cdb30000c0600002407000c5e2b700c0
:10208000c5c2bf000080fb004600de00614060006a
:102090000004a20061406000614060004601dd0074
:1020a000512c200091407800f0cbb30000c06000bc
:1020b00002407000c5e2b700c5c2bf000080fb004f
:1020c0004700de000004a20061406000c700dd00a0
:1020d000c5c2bf000074a10001407000c5e2b70096
:1020e000560037001e00900061406000c700dd0010
:1020f000c5c2bf000074a10001407000c5e2b70076
:10210000c5c2bf000080fb004700de0061406000e8
:102110004601dd00512c200091407800f0cbb30047
:1021200000c0600002407000c5e2b700c5c2bf0039
:102130000080fb004600de006140600061406000fe
:102140004501dd00512c200091407800f0cdb30016
:1021500000c0600002407000c5e2b700c5c2bf0009
:102160000080fb004500de006140600061406000cf
:102170004201dd00512c200091407800b0cfb30027
:1021800000c0600002407000c5e2b700c5c2bf00d9
:102190000080fb004200de006140600061406000a2
:1021a0004401dd00512c200091407800f0ceb300b6
:1021b00000c0600002407000c5e2b700c5c2bf00a9
:1021c0000080fb004400de00614060006140600070
:1021d00000414000512c200091407800d0cfb30046
:1021e00000c0600002407000c5e2b700c5c2bf0079
:1021f0000080fb000000d10061406000c700dd00ee
:10220000c4c2bf000074a10001407000c4e2b70066
:10221000c4c2bf000080fb004700de0061406000d8
:102220004601dd00412c200091407800f0cbb30046
:1022300000c0600002407000c4e2b7000080fa00f5
:10224000000006000200fa00000f780010002000d5
:102250009e0f10000f003600d0c2bf000080fb00b0
:102260004200de00614060000004a20061406000a6
:10227000614060004201dd00012d200091407800a6
:10228000b0cfb30000c0600002407000d0e2b700e1
:102290000a0037001e007800614060006140600065
:1022a0004201dd00012d200091407800b0cfb30045
:1022b00000c0600002407000d0e2b7000080fa0069
:1022c000000006000200fa00000f78001000200055
:1022d0009e0f10000f003600d0c2bf000080fb0030
:1022e0000000d100614060000004a2006140600075
:1022f0006140600000414000012d200091407800c5
:10230000d0cfb30000c0600002407000d0e2b70040
:102310000a0037001e0078006140600061406000e4
:1023200000414000012d200091407800d0cfb30043
:1023300000c0600002407000d0e2b7000080fa00e8
:10234000000006000000fa00c4c2a900c4e2a9000f
:10235000c522a900c582a900c542a900c5a2a9003d
:10236000c5c2a900c5e2a9000080fa00000006006d
:102370000000fa000000370006c2bf0061406000a4
:102380000004e000fcff3a0006c2bf0064406000a9
:102390000004e000f8ff3a0006c2bf006840600099
:1023a0000004e000f4ff3a0006c2bf007040600085
:1023b0000004e000f0ff3a0009c2bf000044b20090
:1023c0000004e000ecff3a000080fa000000060084
:1023d0000400fa00600920002010880007e2a9002c
:1023e00007e2a80085c0a90085a0a900b1092000c6
:1023f0009140780080cfb30000c060005040b3002f
:102400009be0b7008da0a900007122000100200010
:10241000008fbe00040037000080eb008080eb00de
:102420001e0f40005e9748001e00be00e00f5000e7
:10243000e08f5800f8ff3a00100020000080fa00fa
:10244000000006000400fa006000b800008fbe0023
:1024500007e2a90085c0a90085a0a9008da0a90058
:102460000071220001002000008fbe000400370030
:102470000080eb008080eb001e0f40005e9748005c
:102480001e00be00e00f5000e08f5800f8ff3a0039
:10249000cfff07000f00070000712200010020009d
:1024a000008fbe00040037000080eb008080eb004e
:1024b0001e0f40005e9748001e00be00e00f500057
:1024c000e08f5800f8ff3a00100020000080fa006a
:1024d000000006000000fa0085c0a9008dc0a80019
:1024e000100020000080fa00000006000000fa0042
:1024f00085c0a9008dc0a900100020000080fa004e
:10250000000006000600fa0010c0b3005cedb70042
:1025100008c2bf00704060000004e00016003200f6
:102520000602a8000071220001002000008fbe00fa
:102530000a0037005ccdbf000004e00003003a0051
:1025400010002000200798000d0037000080eb00ed
:102550008080eb001e0f40005e9748001e00be000a
:10256000e00f5000e08f5800f2ff3a008000eb00cf
:1025700021079800020037000000eb0020079800b8
:102580002e0090000080fa00000006000600fa000d
:1025900060c0b3005cedb70008c2bf0068406000d7
:1025a0000004e000160032000622a800007122009c
:1025b00001002000008fbe000a0037005ccdbf0084
:1025c0000004e00003003a001000200020079800fb
:1025d0000d0037000080eb008080eb001e0f4000f4
:1025e0005e9748001e00be00e00f5000e08f5800cc
:1025f000f2ff3a008000eb0021079800020037004c
:102600000000eb00200798002e0090000080fa00e8
:10261000000006000600fa0050c0b3005cedb700f1
:102620000642a8000071220001002000008fbe00b9
:102630000a0037005ccdbf000004e00003003a0050
:1026400010002000200798000a0037000080eb00ef
:102650008080eb001e0f40005e9748001e00be0009
:10266000e00f5000e08f5800f2ff3a008000eb00ce
:10267000210798002e0090000080fa00000006005c
:102680000600fa0030c0b3005cedb70006c2bf0020
:10269000614060000004e00010003a0006c2bf0084
:1026a000644060000004e0000c003a0006c2bf0075
:1026b000684060000004e00008003a0006c2bf0065
:1026c000704060000004e00004003a0006c2bf0051
:1026d000624060000004e000030032000000eb00f4
:1026e000200798001600370006a2a9000682a8005d
:1026f0000071220001002000008fbe000a00370098
:102700005ccdbf000004e00003003a00110020008f
:10271000210798000a0037000080eb008080eb0062
:102720001e0f40005e9748001e00be00e00f5000e4
:10273000e08f5800f2ff3a008000eb00210798007c
:102740002e0090000080fa00000006000600fa004b
:1027500030c0b3005cedb70006c2bf00614060004e
:102760000004e00010003a0006c2bf0064406000b0
:102770000004e0000c003a0006c2bf0068406000a0
:102780000004e00008003a0006c2bf00704060008c
:102790000004e00004003a0006c2bf00624060008e
:1027a0000004e000030032000000eb002007980066
:1027b0001600370006a2a8000682a80000712200b9
:1027c00001002000008fbe000a0037005ccdbf0072
:1027d0000004e00003003a001100200021079800e7
:1027e0000a0037000080eb008080eb001e0f4000e5
:1027f0005e9748001e00be00e00f5000e08f5800ba
:10280000f2ff3a008000eb00210798002e009000b4
:102810000080fa00000006000a00fa003007980065
:102820000071220001002000100798002107980085
:102830000040eb00004f780040c0b3005cedb700f3
:102840000071220001002000100798002107980065
:102850001d00370006c2bf00614060000004e000b8
:1028600013003a0006c2bf00644060000004e000ac
:102870000f003a0006c2bf00684060000004e0009c
:102880000b003a0006c2bf00704060000004e00088
:1028900007003a0009c2bf000044b2000004e00093
:1028a00003003a0010c0b300004f78000b0037005f
:1028b0001e009000ae00900061005000e0805800c3
:1028c00010079800210798001e009000ae009000ad
:1028d000e00f5000e08f5800deff3a001e04e000d9
:1028e00003003a000000eb00400798001d0037008d
:1028f0000662a800006a2800110020001007980056
:1029000021079800100037005ccdbf000004e000f4
:1029100007003a0000c2bf00804078003e009000ef
:102920000148780010002000400798000d00370093
:102930001e009000ae00900061005000e080580042
:1029400010079800210798001e009000ae0090002c
:10295000e00f5000e08f5800ebff3a000000eb0062
:10296000400798004e0090000080fa00000006002a
:102970000800fa004047980020c0b3005cedb700a3
:102980004e40900002e2b7000071220001002000da
:10299000008fbe000a0037005ccdbf000004e000dd
:1029a00003003a0010002000300798000a003700aa
:1029b0000080eb008080eb001e0f40005e97480017
:1029c0001e00be00e00f5000e08f5800f2ff3a00fa
:1029d0008000eb00310798003e0090000080fa0074
:1029e00000000600801f78003400f800000020007e
:1029f000a00188000000fa0085c0a9000040eb009b
:102a00005cedb7000080fa003400f9004f00780058
:102a1000004006000200fa00004f7800cc0a0700d0
:102a20001e41780031c0b300c0cdb300f40a0700e6
:102a3000cb0a07000080fa00000006000400fa003c
:102a4000004f780011479800224798001e407800f8
:102a5000f0ff0700be0a07002e4190009e40900044
:102a6000c0cdb300e60a0700bd0a07000080fa00e7
:102a7000000006000400fa00204798003147980043
:102a80002e409000e3ff0700b10a0700be4090000f
:102a9000c0cdb300b60a0700004f7800b00a0700a7
:102aa0001e80fb000080fa00000006000200fa0011
:102ab000004f78001e41780011c9b3000040eb00c0
:102ac000deff07000080fa00000006000200fa00a6
:102ad000004f78001e41780081c6b30010c0b300db
:102ae000d6ff07000080fa00000006000600fa008a
:102af000004f78001e80fb00200798000004200093
:102b0000ae009000808f50001a00320000082000b4
:102b1000ae009000808f500027003200000220009d
:102b2000ae009000808f500001003200330037006b
:102b300010c0b300e5ff07001e41780001c8b300d4
:102b400010c0b300bdff07001e41780011c8b300dc
:102b500010c0b300b9ff070012c0b30021c8b30012
:102b600010c0b300b5ff07000000eb00100798008d
:102b70002400370030c0b300d4ff07001e417800a6
:102b800001c8b30010c0b300acff07001e417800bd
:102b900011c8b30010c0b300a8ff070012c0b300f3
:102ba00021c8b30010c0b300a4ff07008000eb00f1
:102bb000110798001300370070c0b300c3ff07006f
:102bc0001e41780001c8b30010c0b3009bff07008e
:102bd0001e41780011c8b30010c0b30097ff070072
:102be00012c0b30021c8b30010c0b30093ff0700a8
:102bf0000000eb0010079800020037008080eb0017
:102c0000110798001e0090000080fa0000000600e6
:102c10000600fa00004f78001e80fb002007980095
:102c200000042000ae009000808f50001a00320097
:102c300000082000ae009000808f50002700320076
:102c400000022000ae009000808f50000100320092
:102c5000330037000040eb009cff07001e41780066
:102c600001c8b30010c0b30074ff07001e41780014
:102c700011c8b30010c0b30070ff070012c0b3004a
:102c800021c8b30010c0b3006cff07000000eb00c8
:102c9000100798002400370010c0b3008bff070016
:102ca0001e41780001c8b30010c0b30063ff0700e5
:102cb0001e41780011c8b30010c0b3005fff0700c9
:102cc00012c0b30021c8b30010c0b3005bff0700ff
:102cd0008000eb00110798001300370030c0b300ec
:102ce0007aff07001e41780001c8b30010c0b3008e
:102cf00052ff07001e41780011c8b30010c0b30096
:102d00004eff070012c0b30021c8b30010c0b300cb
:102d10004aff07000000eb00100798000200370090
:102d20008080eb00110798001e0090000080fa00e0
:102d3000000006000600fa00004f780011479800d6
:102d40001e80fb00200798002e009000e10f50002d
:102d50000f0032002e009000e20f500014003200ed
:102d60002e0090000000e000010032001800370043
:102d7000d2c0b30081c3b30010c0b3002fff07005f
:102d80001e40900059ff07001007980012003700fe
:102d900082c0b30081c3b30010c0b30027ff070097
:102da0001e4090009aff0700100798000a003700a5
:102db00022c0b30081c3b30010c0b3001fff0700df
:102dc0001e40900092ff0700100798000200370095
:102dd0000080eb00100798001e0090000080fa00b1
:102de000000006000a00fa0020079800310798004a
:102df000ae0090003e009000808f5000030039002c
:102e00000080eb00400798001e003700be009000d5
:102e1000f0312000808f5000030036000080eb006e
:102e200040079800170037002e0090000000e900ce
:102e3000200798002e009000204798002e00900058
:102e40004800de00304798003e009000004f7800b8
:102e50003e0090004800de00104798002e41900090
:102e600011c5b30010c0b300f4fe07003e4190004e
:102e700001c5b30010c0b300f0fe07000000eb0076
:102e8000400798004e0090000080fa000000060005
:102e90000800fa0020079800310798000000eb00b6
:102ea0000080fa00000006000a00fa0020079800df
:102eb00031079800ae0090003e009000808f5000d7
:102ec000030039000080eb00400798002300370022
:102ed000be009000301f2000808f5000030036009d
:102ee0000080eb00400798001c0037002e00900087
:102ef000204798002e0090004800de0030479800e0
:102f00003e009000004f78003e0090004800de0038
:102f1000104798003e41900001c6b30010c0b300b6
:102f2000c6fe07002e41900011c6b30010c0b300ca
:102f3000c2fe07001e41900021c6b30010c0b300be
:102f4000befe07001e41780031c6b30010c0b300ba
:102f5000bafe07000000eb00400798004e0090000a
:102f60000080fa00000006000200fa00000f78005e
:102f700012c0b300a1c5b30020c0b300affe07006c
:102f800012c4b30021c3b30010c0b300abfe0700ee
:102f90001e00e00011003a0000c1eb0081c8b30040
:102fa00010c0b300a5fe070000c1eb0091c8b3003c
:102fb00010c0b300a1fe070082c0b300a1c8b300d7
:102fc00010c0b3009dfe070000c1eb00b1c8b30004
:102fd00010c0b30099fe07001000370002c2b30012
:102fe00081c8b30010c0b30094fe070002c8b3004c
:102ff00091c8b30010c0b30090fe070082c0b300b8
:10300000a1c8b30010c0b3008cfe070000c1eb00e4
:10301000b1c8b30010c0b30088fe07000080fa00fa
:10302000000006000600fa0010079800210798002b
:1030300001c9b3000040eb008efe0700004f78008e
:103040001e0090000000e0000300320000c8b30042
:103050001e4f700002003700f0c7b3001e4f600023
:103060002e0090000000e0000300320000c4b30016
:103070001e4f700002003700f0cbb3001e4f6000ff
:103080001e41780001c9b3000040eb006bfe070051
:103090000080fa00000006000400fa00c06a800008
:1030a0000000e0001f003200616a800080da2f001b
:1030b000808f50001b003500616a80008025200051
:1030c000808f500017003c00d602a900d622a9002c
:1030d000d642a900d662a9000000eb00c06a8800b1
:1030e000606a800000017800120798001e019000bd
:1030f0000200e00003003d001e0190000201ea0012
:1031000012079800007122001e01900011000900b2
:103110000200d800ef005000c0842100ad06070077
:103120004d003700606a80000000e0000c003400b1
:10313000a06a80000000e800a06a8800806a800021
:103140000000e900806a8800806a80000000e000da
:103150000e003d0030002000806a88000b00370020
:10316000a06a80000000e900a06a8800806a8000f0
:103170000000e800806a8800806a8000e30f500049
:10318000020034000000eb00806a8800806a800042
:10319000000f78001e017800e10f5100130032008b
:1031a0001e007800e10f500004003c001e01780072
:1031b0000200e000080032001a0037001e0078000c
:1031c000e20f50000e0032001e017800e30f5100a4
:1031d0001000320013003700d602a900d622a80042
:1031e000d642a900d662a8000e003700d602a90078
:1031f000d622a800d642a800d662a900090037004e
:10320000d602a800d622a900d642a800d662a900fc
:1032100004003700d602a800d622a900d642a90091
:10322000d662a800616a800080da2f00808f50008b
:1032300009003500616a800080252000808f5000e1
:1032400005003c0010002000c06a8800f10020004a
:10325000c08421005f0607000080fa00000006001d
:103260000400fa00d06a80000000e0001f00320075
:10327000716a800080da2f00808f50001b003500bb
:10328000716a800080252000808f500017003c006c
:10329000d682a900d6a2a900d6c2a900d6e2a9006a
:1032a0000000eb00d06a8800706a8000000178009e
:1032b000120798001e0190000200e00003003d008c
:1032c0001e0190000201ea0012079800007122001e
:1032d0001e019000110009000200d800ef0050000c
:1032e000009321003b0607004d003700706a800004
:1032f0000000e0000c003d00b06a80000000e90022
:10330000b06a8800906a80000000e900906a880036
:10331000906a80000000e0000e003d0030002000b8
:10332000906a88000b003700b06a80000000e80057
:10333000b06a8800906a80000000e800906a880007
:10334000906a8000e30f5000020034000000eb00a0
:10335000906a8800906a8000000f78001e01780053
:10336000e10f5100130032001e007800e10f500001
:1033700004003c001e0178000200e000080032005a
:103380001a0037001e007800e20f50000e003200d5
:103390001e017800e30f51001000320013003700c7
:1033a000d682a900d6a2a800d6c2a900d6e2a8005b
:1033b0000e003700d682a900d6a2a800d6c2a80067
:1033c000d6e2a90009003700d682a800d6a2a9003b
:1033d000d6c2a800d6e2a90004003700d682a80011
:1033e000d6a2a900d6c2a900d6e2a800716a8000c0
:1033f00080da2f00808f500009003500716a80004c
:1034000080252000808f500005003c001000200027
:10341000d06a8800f100200000932100ed0507002c
:103420000080fa00000006000000fa008000eb00b7
:10343000c08421008f0507008000eb00009321006d
:103440008c0507000080fa00000006000200fa0068
:10345000000f78001e00e0000a003a000000eb00b8
:10346000606a88008000eb00c0842100d905070055
:10347000d602a900d622a900d642a900d662a90088
:103480002d00370080c12f009e0f10000a003d0064
:1034900080c12f00606a8800626a8000008f2d0062
:1034a000110009000200d80080007800c0842100cb
:1034b000c805070020003700803e20009e0f100046
:1034c0000a003400803e2000606a8800626a800042
:1034d00000712200110009000200d800800078006d
:1034e000c0842100bb050700130037001e007800d0
:1034f000606a88001e00e00008003d00008f2d007b
:103500001e017800110009000200d8008000780038
:10351000c0842100af0507000700370000712200ba
:103520001e017800110009000200d8008000780018
:10353000c0842100a70507000080fa0000000600f3
:103540000200fa00000f78001e00e0000a003a00b6
:103550000000eb00706a88008000eb0000932100ff
:103560009c050700d682a900d6a2a900d6c2a90050
:10357000d6e2a9002d00370080c12f009e0f100059
:103580000a003d0080c12f00706a8800726a8000c6
:10359000008f2d00110009000200d8008000780083
:1035a000009321008b05070020003700803e20009b
:1035b0009e0f10000a003400803e2000706a8800d0
:1035c000726a800000712200110009000200d80018
:1035d00080007800009321007e050700130037006b
:1035e0001e007800706a88001e00e00008003d00a0
:1035f000008f2d001e017800110009000200d80084
:103600008000780000932100720507000700370052
:10361000007122001e017800110009000200d8008c
:1036200080007800009321006a0507000080fa00fe
:10363000000006000800fa00000f7800110798004b
:103640001e007800300798003e0190000200e00064
:1036500003003d003e0090000000ea0030079800a3
:103660001e019000220798002e0090000000e0004c
:1036700003003d002e0190000201ea00220798009d
:103680003e0090002e01900082004000803e20000d
:10369000808f500006003c001e0090001e001000ad
:1036a0006aff07001e0090001e004000a4ff0700f4
:1036b0000080fa00000006000000fa00a06a800006
:1036c0000080fa00000006000200fa00000f7800f7
:1036d0001e007800a06a88000080fa000000060042
:1036e0000000fa00b06a80000080fa0000000600c6
:1036f0000200fa00000f78001e007800b06a88000f
:103700000080fa00000006002400fa00000f980074
:10371000110f9800220f9800330f9800440f980063
:10372000550f9800660f98000e089000700040003a
:10373000000f98001e08900068004000100f9800cd
:103740005e0890000000e000030032004e08900088
:103750000000e00003003a000080eb00700f9800ca
:103760001f0137008e0890002e08900080804000d6
:10377000002d2000808f5000030036008080eb0079
:10378000710f9800160137009e0890003e089000c7
:1037900080804000801e2000808f50000300360093
:1037a0000080eb00700f98000d0137002e0890008c
:1037b0004e099000110009000280d8008000fd0031
:1037c0000000e000030032008080eb00710f9800e1
:1037d000030137003e0890005e09900011000900c7
:1037e0000280d8008000fd000000e00003003200ed
:1037f0000080eb00700f9800f90037005e08900021
:10380000630060000000e00039003a004e089000bc
:10381000630060000000e00011003a000008200092
:10382000000f780040002000100798005e0890000c
:103830004200de00300798004e0890004200de0093
:10384000200798001e08900064005000100f980098
:103850000e08900064005000000f98005a003700d6
:103860004e089000610060000000e00011003a0086
:1038700000042000000f78002000200010079800ae
:103880005e0890000000d100300798004e089000bc
:103890000000d100200798001e0890000080e90079
:1038a000100f98000e0890000080e900000f9800ab
:1038b0004500370000022000000f780010002000b3
:1038c00010079800de089000310798004e0890001d
:1038d000200798001e0890000000e900100f9800d3
:1038e0000e0890000000e900000f98003600370035
:1038f0005e089000610060000000e00024003a00d3
:103900004e089000610060000000e00011003a00e5
:1039100000042000000f780020002000100798000d
:103920005e0890000000d100300798004e0890001b
:103930000000d100200798001e0890000080e900d8
:10394000100f98000e0890000080e900000f98000a
:103950001d00370000022000000f7800100020003a
:1039600010079800de089000310798004e0890007c
:10397000200798001e0890000000e900100f980032
:103980000e0890000000e900000f98000e003700bc
:10399000100020001007980000022000000f78009f
:1039a000ce089000210798005e089000300798002c
:1039b0001e0890000000e900100f98000e0890000b
:1039c0000000e900000f98002e0090000000e900c0
:1039d000600798003e0090000000e9007007980022
:1039e0002e0890004e099000110009000280d800b6
:1039f000500798003e0890005e09900011000900f1
:103a00000280d80040079800102d20001e01900071
:103a1000110009000200d800800078001e0190000b
:103a20000e089000811f7800110009000280d80064
:103a300001017800cf007800eafc07000000e000f8
:103a4000030032008080eb00710f980064003700a3
:103a5000901e20001e019000110009000200d800f5
:103a6000800078001e0190001e089000811f7800e1
:103a7000110009000280d80001017800cf00780011
:103a800003fd07000000e000030032000080eb00af
:103a9000700f980052003700811e20001e08900011
:103aa00001fd07000000e000030032008080eb0011
:103ab000710f98004a0037006e0890000000e00087
:103ac00018003a001e00780000179800000420003b
:103ad0008e109000808f50000c00320000082000f3
:103ae0008e109000808f50000b00320000022000ea
:103af0008e109000808f50000100320020003700af
:103b000000c9b300e9fb07001d00370000c5b30082
:103b1000e6fb07001a00370000c1b300e3fb070013
:103b2000170037001e0078001017980000042000ce
:103b30009e109000808f50000c0032000008200082
:103b40009e109000808f50000b0032000002200079
:103b50009e109000808f5000010032000800370056
:103b600000cbb300d1fb07000500370000c9b3004c
:103b7000cefb07000200370000c5b300cbfb0700f7
:103b80001e007800804078006e08900069fc0700f5
:103b90000000e000030032000080eb00700f98008e
:103ba0000f0037006e089000100007000001780039
:103bb0007e029000ee019000de0090004e0090002a
:103bc000900507000000e000030032008080eb0059
:103bd000710f9800020037000000eb00700f980092
:103be0007e0890000080fa00000006000600fa003f
:103bf000000f78001e007800200798002e0090002b
:103c0000e10f50000a0032002e009000e20f500039
:103c10000a0032002e0090000000e0000100320097
:103c20000900370010002000100798000800370036
:103c30002000200010079800050037002000200019
:103c400010079800020037001000200010079800ad
:103c50001e0090000080fa00000006002200fa001a
:103c600070079800010f9800120f9800230f98001a
:103c7000340f9800450f9800560f98007e00900072
:103c8000200db000700798000e08900067004000fb
:103c9000000f98004e0890000000e0000300320082
:103ca0003e0890000000e00003003a000080eb00b6
:103cb000600f980004013700fe0090001e0890007d
:103cc0008080400020352000808f500003003600a7
:103cd0008080eb00610f9800fb0037008e08900099
:103ce0002e08900080804000701e2000808f5000c1
:103cf000030036000080eb00600f9800f2003700f0
:103d00001e0890003e099000110009000280d800b2
:103d10008000fd000000e000030032008080eb0026
:103d2000610f9800e80037002e0890004e099000bf
:103d3000110009000280d8008000fd000000e000b2
:103d4000030032000080eb00600f9800de003700b7
:103d50004e089000630060000000e00033003a006d
:103d60003e089000630060000000e0000f003a0091
:103d700030032000000f78004e0890004200de0063
:103d8000200798003e0890004200de0010079800cf
:103d90000e08900064005000000f98007e00900014
:103da0006400500070079800500037003e089000f3
:103db000610060000000e0000f003a0010012000e8
:103dc000000f78004e0890000000d10020079800f6
:103dd0003e0890000000d100100798000e089000e7
:103de0000080e900000f98007e0090000080e9004c
:103df000700798003d00370040042000000f780055
:103e0000ce089000210798003e0890001007980007
:103e10000e0890000000e900000f98007e0090005e
:103e20000000e90070079800300037004e0890004d
:103e3000610060000000e00020003a003e089000b1
:103e4000610060000000e0000f003a001001200057
:103e5000000f78004e0890000000d1002007980065
:103e60003e0890000000d100100798000e08900056
:103e70000080e900000f98007e0090000080e900bb
:103e8000700798001900370040042000000f7800e8
:103e9000ce089000210798003e0890001007980077
:103ea0000e0890000000e900000f98007e009000ce
:103eb0000000e900700798000c0037004004200063
:103ec000000f7800be089000110798004e0890007f
:103ed000200798000e0890000000e900000f9800ed
:103ee0007e0090000000e900700798001e0090001e
:103ef0000000e900500798002e0090000000e90043
:103f0000600798001e0890003e099000110009000b
:103f10000280d800400798002e0890004e099000bb
:103f2000110009000280d800300798005e08900058
:103f30001ff307000000e000030032008080eb0068
:103f4000610f9800600037001e00780037f307000b
:103f50000000e000030032000080eb00600f9800da
:103f6000590037005e0890000000e00017003a009a
:103f70009e007800710f980030032000fe0890002a
:103f8000808f50000e00320040042000fe08900098
:103f9000808f5000040032007e089000f10f500026
:103fa000040032001f0037000003200034f3070034
:103fb0001c0037000002200031f307001900370011
:103fc0000000eb002ef30700160037009e0078007b
:103fd00001179800300320008e109000808f500051
:103fe0000e003200400420008e109000808f5000a0
:103ff000040032000e109000f10f50000400320057
:1040000008003700000420001df3070005003700fa
:10401000000320001af3070002003700000220000e
:1040200017f30700313520007e00900037f30700ba
:104030000000e000030032008080eb00610f980078
:1040400021003700811e20000e0890005af307005f
:104050000000e000030032000080eb00600f9800d9
:10406000190037007e0090000001e800711e20005a
:104070000e08900078f307000000e0000300320013
:104080008080eb00610f98000f0037005e08900001
:1040900010000700000178006e029000de01900021
:1040a000ce0090003e009000560407000000e000a3
:1040b000030032000080eb00600f98000200370020
:1040c0008000eb00610f98006e0890000080fa00fd
:1040d000000006000600fa00000f78001e007800bd
:1040e000200798002e009000e10f50000a003200d7
:1040f0002e009000e20f50000a0032002e009000c7
:104100000000e0000100320009003700100020002c
:1041100010079800080037002000200010079800c2
:10412000050037002000200010079800020037002b
:1041300010002000100798001e0090000080fa0078
:10414000000006000000fa0010c0b30027000700be
:104150000000280001002000500007000041eb0093
:1041600051c5b30020c0b30034fa07000041eb0092
:1041700061c5b30020c0b30030fa070010c0b3001f
:10418000b100070022c0b30061cab30010c0b30081
:104190002afa0700b2c9b30091cab30010c0b30035
:1041a00026fa0700c2c8b300a1cab30010c0b3000a
:1041b00022fa070002c4b30041cab30020c0b30012
:1041c0001efa070002c4b30051cab30020c0b300f6
:1041d0001afa070002c4b30061cab30020c0b300da
:1041e00016fa07000080fa00000006000400fa003a
:1041f0002047980041c0b30020c0b3001dfa07005b
:10420000004f78002e4090000004e00003003a00c8
:10421000c0cfb3001e4f60001a0037002e40900040
:10422000e14f500006003a009e407800c0cfb30036
:1042300000c060000004a000004f780011003700ab
:104240002e409000e24f500006003a009e40780059
:10425000c0cfb30000c060000014a000004f780081
:10426000080037002e409000e34f500005003a0050
:104270009e407800c0cfb30000c060003040b30063
:10428000004f78001e41780041c0b30020c0b30049
:10429000eaf907000080fa00000006001000fa00aa
:1042a000008fbe000000200001f02f009e0178006a
:1042b0001e02900000017800010078000281610078
:1042c000000062006102b8002407980035079800da
:1042d0002e009000be009000c000dd000000200015
:1042e00020079800310798002e009000be00900033
:1042f0006112b80024079800350798002e0190003d
:10430000be01900002007000838070004808de004b
:104310000100200000417800c1c2b30020c0b300fa
:10432000c6f9070000002000f10f20009e01780070
:104330001e029000000178000100780002816100f7
:10434000000062006102b800440798005507980019
:104350004e009000de009000c000dd000000200054
:1043600040079800510798004e009000de00900032
:104370006112b80044079800550798004e0190005c
:10438000de01900002007000838070004008de00b3
:104390000100200000417800d1c2b30020c0b3006a
:1043a000a6f9070000f02f00010020009e01780010
:1043b0001e02900000017800010078000281610077
:1043c000000062006102b800640798007507980059
:1043d0006e009000fe009000c000dd000000200094
:1043e00060079800710798006e009000fe00900032
:1043f0006112b80064079800750798006e0190007c
:10440000fe0190000200700083807000c809dd008a
:104410004800de0000807100c808de00004178001e
:10442000e1c2b30020c0b30084f907001e00780089
:1044300000417800f1c2b30020c0b3007ff907004b
:104440000080fa00000006000400fa0020479800ef
:1044500041c0b30020c0b30086f90700004f7800c8
:104460002e4090000004e00003003a00b0cfb300fb
:104470001e4f6000080037002e409000e14f5000b2
:1044800005003a009e407800b0cfb30000c0600045
:104490000024a000004f78001e41780041c0b30006
:1044a00020c0b30065f907000080fa000000060094
:1044b0000400fa002047980051c0b30020c0b300a8
:1044c0006cf90700004f78002e4090000004e000d7
:1044d00003003a00b0cfb3001e4f60000800370061
:1044e0002e409000e14f500005003a009e407800b9
:1044f000b0cfb30000c060000024a000004f7800df
:104500001e41780051c0b30020c0b3004bf9070032
:104510000080fa00000006000000fa00881f780002
:10452000a1c6b30020c0b30052f907000080fb0011
:104530004804dd00b1c6b30020c0b3004df9070048
:104540000080fb00000074004f0478000080fa0037
:10455000000006000000fa000040eb006aedb70022
:10456000170037006000b800606b8800716b88002e
:1045700006003700606b8000716b800061004000b6
:10458000e0804800606b8800716b8800626b80007f
:10459000736b8000f0082d0031002000800f510067
:1045a000818f5900f3ff340021002000800020009b
:1045b00067f507006acdbf000040e8006aedb7006c
:1045c0006acdbf00e74f5000e6ff34000080fa00dc
:1045d000000006000a00fa00881f780092fb07001e
:1045e00025040700d3040700d5030700d9ff0700ff
:1045f00040c7bf00614060000004e00002003200dc
:104600004007a9000000fe001000200040079800ad
:1046100000052000300798001000200020079800b7
:104620008000200010079800be0090002e0090002f
:104630000088b90000004000000f780090030700d8
:104640009e0190001e029000ae0090001e0090009f
:104650000088b90080037800be0090001e00900022
:104660000088b90000047800be0090001e00900091
:104670000088b90080007800002820000100500068
:1046800022002000110009000200d8004e03900013
:10469000830278008701780008017800810c2000ef
:1046a0002b0307000000e00004003200110020008e
:1046b0000000eb0026f50700ffff3700a1fe070012
:1046c00066030700d600070000822000c102070031
:1046d000000037001a0307000000e000fdff320071
:1046e0000000eb00e04088000b003700e240800053
:1046f000e14080000082200000804000904078006f
:10470000c09420000000410001487800e040800093
:104710000000e800e0408800e1408000b012200086
:10472000808f5000f1ff360000822000a9020700b0
:104730000000eb0050408800e18020000000eb000a
:10474000b0009800e0802000b0009000e0802000e1
:1047500021009800e0802000a0009000e080200070
:1047600011009800e080200090009000e080200080
:10477000010878000000eb00f04088003a003700a4
:10478000f1408000c094200000804000104078007c
:104790008080fb00800f2000008060004380de00ee
:1047a00000004000d040880002c8bf00e44f500025
:1047b00002003a000040eb0002e8b70002c8bf0068
:1047c0000081fb00d040800080017800e180200063
:1047d000020041000100400003087800e080200052
:1047e00090007800e0802000100090008080400061
:1047f000e08020002000900080804000e0802000c9
:1048000030009000008040006040880061408000df
:1048100050408000808f50000500340060408000d0
:1048200050408800f04080000080e900404088004f
:1048300002c8bf000040e80002e8b7005040800016
:10484000e90f500003003c001000200020408800c9
:10485000020037000000eb0020408800f04080009c
:104860000080e800f0408800f04080009e0f50007b
:10487000c3ff3500204080000000e0000d00320042
:10488000304080000000e0000500320080da2f0098
:104890002bfb070080252000ecfa07002f003700d3
:1048a0008025200026fb070080da2f00e7fa0700aa
:1048b0002a00370040408000ea0040001e007800d7
:1048c0000080d100808f500007003d00c0f92f000c
:1048d0001bfb070040062000dcfa07001000200048
:1048e000304088001d00370040408000ea00500042
:1048f0001e0078000080d100808f50000700340037
:10490000400620000efb0700c0f92f00cffa070079
:104910000000eb003040880010003700404080006d
:10492000ea0040001e0078000080d100808f500017
:104930000a00350040408000ea0050001e00780068
:104940000080d100808f500004003c00401f2000f8
:10495000fbfa0700401f2000bcfa07000000eb0034
:104960000040880021003700014080004040800066
:10497000808f50000d003a0081a7200000c3b300d3
:10498000804878000040eb009040980080a720000d
:10499000fcee07008000780080a720009d03070040
:1049a000a80307000000e000fdff3a0081a72000f7
:1049b00010c3b300804878000040eb00904098009e
:1049c00080a72000efee07008000780080a720007d
:1049d000900307009b0307000000e000fdff3a0082
:1049e000004080000080e800004088000040800017
:1049f0009e0f5000dcff3500920307000000e0002e
:104a0000fdff3a0021002000c05628008103070066
:104a100021002000600020004df407002dff37002a
:104a20000000fa000000eb0080088800011120005f
:104a300091407800f0ccb30000c0600010e1b700f6
:104a40000000eb0030088800205c2000600888002f
:104a500084c0a9008cc0a80011e1a8000080fa0061
:104a6000000006000000fa0011e1a9000080fa0031
:104a7000000006000800fa001007980021079800bf
:104a8000906b8000000f78000b0037001e0078004c
:104a9000b00090001e009000808f500003003a008c
:104aa00011002000310798001f0037001e00780019
:104ab000c0009000010f78001e00e000f3ff3a00f4
:104ac000a0002000b5ee0700000f78001e00e000f7
:104ad00002003a001000200071ef0700ae009000c5
:104ae0001e007800010878009e0078000000eb00ae
:104af000900098009e00780010c0b300c04098005d
:104b00001e0078009e00900031009800916b80009c
:104b10001e007800410098001e007800906b88000d
:104b200011002000310798003e0090000080fa003c
:104b3000000006000800fa00200798000000eb00c3
:104b400010079800906b8000000f78001a00370063
:104b50001e007800b00090002e009000808f500062
:104b600010003a001e0090000000e0000500320036
:104b70001e007800c00090001e00900041009800c8
:104b8000030037001e00780040009000906b880002
:104b90001e0078000fef0700110020003107980079
:104ba000090037001e007800100798001e007800ea
:104bb000c0009000010f78001e00e000e4ff3a0002
:104bc00020002000300798003e0090000080fa008e
:104bd000000006000800fa0010079800210798005e
:104be000906b8000000f78000e0037001e007800e8
:104bf000b00090001e009000808f500006003a0028
:104c0000ae0090001e00780001087800110020001e
:104c100031079800070037001e007800c0009000a0
:104c2000010f78001e00e000f0ff3a002000200095
:104c3000300798003e0090000080fa000000060057
:104c40000600fa0010079800906b8000000f7800b3
:104c50000e0037001e007800b00090001e0090008b
:104c6000808f500006003a009e0078000000eb00a4
:104c700090009800110020002107980007003700dd
:104c80001e007800c0009000010f78001e00e000b8
:104c9000f0ff3a0020002000200798002e0090002e
:104ca0000080fa00000006000600fa0010079800d5
:104cb000906b8000000f78000e0037001e00780017
:104cc000b00090001e009000808f500006003a0057
:104cd0009e0078000040eb00c040980011002000ca
:104ce00021079800070037001e007800c0009000e0
:104cf000010f78001e00e000f0ff3a0020002000c5
:104d0000200798002e0090000080fa0000000600a6
:104d10000600fa0010079800906b8000000f7800e2
:104d20000e0037001e007800b00090001e009000ba
:104d3000808f500006003a009e00780010c0b3003b
:104d4000c04098001100200021079800070037009c
:104d50001e007800c0009000010f78001e00e000e7
:104d6000f0ff3a0020002000200798002e0090005d
:104d70000080fa00000006003600f800809fbe00a8
:104d8000829fbe00849fbe00869fbe003400f80054
:104d900000002000a00188000200fa00906b800053
:104da000000f780084c0a9001e0037001e007800a4
:104db00040409000e14f500017003a001e0078007c
:104dc000100078000000e000130032001e007800a0
:104dd000100090008000e8001e007800110098008c
:104de0001e00780010009000800078001e007800ff
:104df000100078000000e900808f500006003600a7
:104e00001e00780030009000000001009e00780035
:104e10000000eb00900098001e007800c000900099
:104e2000010f78001e00e000e0ff3a000080fa0069
:104e30003400f9004f03be004f02be004f01be0018
:0c4e40004f00be003600f90000400600e4
:020000040000fa
:104e4c0000080000dc02000000000000080d00005b
:104e5c004400000002000000000000000000000000
:104e6c000000000000000000000000000000000036
:104e7c000000000000000000000000000000000026
:104e8c000000000000000000000000000000000016
:104e9c000000000000000000000000000000000006
:104eac0000000000000000000000000000000000f6
:104ebc0000000000640d000006000000020000006d
:104ecc0000000000000000005c0d00000800000065
:104edc0000000000700d0000020000000000000047
:104eec00300c0000d8000000020000000403050094
:104efc0053060300075308000009d1000a000b00f9
:104f0c00070c03000d510e00010fe70012021300f5
:104f1c0002151000164017004018400019401a00e6
:104f2c00031be6001c001d00701e0a001f1b200046
:104f3c00443b000046804800604996004a004b0004
:104f4c007d4c00004e084f000a50700059005a006a
:104f5c00005b00005cac5d0002760000771a780004
:104f6c002a7937007a427b00567c68007d877e0068
:104f7c00a37fbc0080d48100ea8e38008fa59000fe
:104f8c000d919300922d93000694830095aa9600a0
:104f9c004d97250098259b00009c96009f80a000b3
:104fac0080a1b600a29da300aba48000a500a60022
:104fbc0007a70100a8e7a90000aa0100ad9fae0059
:104fcc0022af8c00b007b100ccb20000b370b900b6
:104fdc0003bae600bb07bc00ccbd0000be0cc10090
:104fec0010c2e000c310c400e0c58000c680c7003a
:104ffc0001c8a500c902ca007acb0000cca7cd001d
:10500c0001ce4700d43cd50001d88000dc0a00005a
:10501c0054010000000000004c0d000010000000c6
:10502c0000000000720d00000200000000000000f3
:10503c006a0d00000600000000000000d8110000fe
:10504c00100000000000000076110000620000005b
:10505c0002000000781174000f000000740f0900aa
:10506c0000000000000274000d000000740d0a0026
:10507c000301000000020000000000000000060018
:10508c000202000000000000000000000000000010
:10509c000000000000000000000000000000000004
:1050ac0000000000000000000000000000000000f4
:1050bc0000000000000000000000000000000000e4
:1050cc0000000000000000000000000000000000d4
:1050dc000000000000000000740d0000020400003d
:1050ec0000000000e81100000200000000000000b9
:1050fc00ea1100000200000000000000ec110000aa
:10510c000200000000000000ee1100000200000090
:10511c0000000000f0110000020000000000000080
:10512c00f21100000200000002000000010000006b
:04513c00000000006f
:020000040000fa
:105140003400f800881f780008002000a8018800bb
:105150004f0478000000fa0086c0a9001fe1a800f3
:1051600021e1a9000080fa003400f90000400600a7
:105170000000fa0020002000000988000000eb0079
:10518000c008880010002000e008880086c0a90040
:105190008ec0a80021e1a8000080fa0000000600ef
:1051a0000000fa0020002000f0088800e05680008f
:1051b000a0088800e05680000000e800d0088800c1
:1051c00086a0a9001fe1a9008ea0a8000080fa0017
:1051d000000006000200fa00000f78000000eb005b
:1051e000105788001e007800f05688000000eb0081
:1051f00000578800eaff0700ddff07000080fa0083
:10520000000006001200fa003007980041079800dd
:105210005207980063079800740798000000eb009d
:1052200010079800ce0090005e0090000088b90042
:10523000800078006e0090000000e8000088b9004f
:105240000000e80080007800a0142000808f50004b
:10525000030036000080eb00000f98003500370097
:105260000000eb0020079800230037000000eb004f
:10527000000f7800090037009e00900060ae20000b
:105280008080400010c0b300804878001e0090006d
:105290000000e800100798001e0fe8005e00900074
:1052a0009e0f1000f4ff35000000eb00000f7800a7
:1052b000090037009e00900060ae20008080400012
:1052c0000040eb00804878001e0090000000e800dd
:1052d000100798001e0fe800ee0090005e0090009e
:1052e0000088b9009e0f5000f2ff3c002e00900095
:1052f0000000e80020079800ae0090004e009000eb
:10530000808f5000d9ff35009e00900060ae2000d5
:105310008080400020c0b300804878007e0090006c
:10532000e05688003e009000205788000000eb0007
:10533000000f98000e0890000080fa0000000600a0
:105340000000fa00005780000080fa00000006000c
:105350001200fa00000f7800110798002207980049
:10536000330798004407980055079800660798008f
:10537000806b8000000f9800000323008e089000cf
:10538000808f500005003200000326008e08900038
:10539000808f50000b003200140037006e03900025
:1053a000de0290004e029000be0190002e0190009f
:1053b0009e0090001e00780028fa070070079800f1
:1053c0000c0037006e039000de0290004e02900049
:1053d000be0190002e0190009e0090001e007800fb
:1053e000c9f8070070079800020037000080eb0042
:1053f000700798007e0090000080fa000000060010
:105400000600fa00000f780011079800806b8000fa
:105410002007980000032300ae009000808f50000a
:105420000500320000032600ae009000808f50007f
:1054300005003200070037009e0090001e00780033
:10544000beee0700030037009e0090001e007800ab
:10545000f4f607000080fa00000006000000fa00e1
:10546000816b800000032300808f50000100320018
:10547000010037009aed07000080fa0000000600e6
:105480000400fa007c0007002d000700d1a2a9004b
:1054900040062000100798000400370000000000bc
:1054a0001e0090000000e900100798001e00900008
:1054b0000000e000f9ff3a00d1a2a8004006200059
:1054c0001007980004003700000000001e00900044
:1054d0000000e900100798001e0090000000e000a6
:1054e000f9ff3a0081e0a900f1048000f0002f00ec
:1054f000808060000066200000804000f00488008a
:105500008040eb00c0cdb3001900070010479800a1
:1055100011c0b300c0cdb30015000700004f7800e4
:105520001e4090000080fb00c800dd001e80fb00d4
:1055300000807000806b88000080fa000000060088
:105540000000fa00a2f307000080fa000000060045
:105550000000fa00dff307000080fa0000000600f8
:105560000000fa00e1f307000080fa0000000600e6
:105570000400fa0020479800314798000040eb00f3
:10558000004f78001800370010c0b300004f7800bb
:10559000dcf307001e4f60002e409000f4f407007b
:1055a0001e4f60003e409000f1f407001e4f600067
:1055b000f6f307001e4f60002e4090000040e80008
:1055c000ebf407001e4f60000e00e80092f40700a5
:1055d0001e4f60005df407000ef407001e04e0009b
:1055e00003003a0097f307001e04e000e6ff3200d4
:1055f0001e4090000000fb000080fa000000060042
:105600000600fa002047980031479800424798006a
:105610000040eb00004f78001200370010c0b300cc
:10562000004f7800b7f307001e4f60002e40900037
:10563000cff407001e4f60003e409000ccf40700fe
:105640001e4f60004e409000c9f407001e4f6000de
:10565000f0f307001e4f60001e04e00003003a0054
:1056600078f307001e04e000ecff32001e00fb0090
:105670000080fa00000006000000fa00c4c2a90081
:10568000c4e2a900c522a900c582a900c542a9009b
:10569000c5a2a900c5c2a900c5e2a900c0c2a9004f
:1056a000c0e2a900c122a900c182a900c142a9008b
:1056b000c1a2a900c1c2a900c1e2a900d022a900cb
:1056c000cc22a900d042a900cc42a900e2e2a90064
:1056d000e302a900e802a900e822a900dee2a9008d
:1056e000df02a900e402a900e422a900e202a90065
:1056f000de02a900d602a900d622a900d642a9003e
:10570000d662a900d682a900d6a2a900d6c2a90055
:10571000d6e2a900d202a900d222a900d242a90051
:10572000d262a900d282a900d2a2a900d2c2a90045
:10573000d2e2a900d1a2a900cda2a900e842a90005
:10574000e862a900e442a900e462a900de22a80000
:10575000dec2a800e4c2a800e4e2a800e502a800b6
:10576000e522a800d302a800d322a800d342a800b3
:10577000d362a800d382a800d3a2a800d3c2a800f5
:10578000d3e2a8000080fa00000006008540a900ce
:10579000809fbe00821f7800680de2001500320075
:1057a000640de20016003200660de20014003200c3
:1057b000216b8000420020000f22af00feff370067
:1057c000306b80000000e000070032000000e900bc
:1057d00066adb7003140780010e2b7000201e90081
:1057e000f5ff3a0002003700642def00010037009a
:1057f000216b88004f0178004f00be00004006007a
:1058000000002000406b88004f0178004f00be0070
:1058100000400600680de200feff3a008d40a9003e
:105820008100e900316b8800b04078008110880069
:10583000206b880011002000416b88008d40a8007b
:1058400000000600406b800000000600809fbe0044
:105850008520a900406a8000f003b20081d02000ba
:10586000810040000000eb0012c2bf0080487800b9
:10587000482dec004f00be0000400600406a80004a
:10588000516a80000100500000000600416a80005b
:10589000526a80000208e10008003200f203b20000
:1058a00081d02000028140009240780001487800b9
:1058b0004a2dec0010002000000006000000eb0064
:1058c0000000060000a0fe0086a0a9001421ef0041
:1058d00000000000f156800062ae2000130020009e
:1058e000321ce10005003200080035000000000015
:1058f0000000000000000000f9ff3700a016800043
:105900004800de0080587800f5ff3700f156880027
:10591000e22aec0010578000e40ae30003003a009a
:1059200010002000005788001fe1a9000080fe0041
:10593000004006000c22ef000e22ef000ee2a9004c
:105940000ec2a9008520a9008d20a8000de2a800a4
:1059500070002000a01088008540a9008d40a8009c
:1059600081e0a900c0048000f1002f0000806000e9
:105970000155200000804000c00488000fe2a8000c
:105980000f42a800482def004a2def00000006004e
:020000040000fa
:045990000000fe0015
:00000001FF
