:020000040000fa
:080000000001040000000000f3
:020000040000fa
:10000800b8020000b8020000b8020000b802000000
:10001800b8020000b8020000b8020000b8020000f0
:10002800b8020000b8020000b8020000b8020000e0
:10003800b8020000b802000028310000b802000031
:10004800b8020000de3c00007e3c0000e819000019
:10005800b8020000b80200004e240000b8020000f8
:10006800b8020000b8020000b8020000b8020000a0
:10007800b80200001a3d0000a6010000b802000006
:10008800b8020000b8020000b8020000b802000080
:10009800b8020000b8020000b8020000b802000070
:1000a800b8020000b8020000b8020000b802000060
:1000b800b8020000b8020000b8020000b802000050
:1000c800b8020000b8020000b8020000b802000040
:1000d800b8020000b8020000b8020000b802000030
:1000e800b8020000b8020000b8020000b802000020
:0800f800b8020000b80200008c
:020000040000fa
:10010800b8020000b8020000b8020000b8020000ff
:10011800b8020000b8020000b8020000b8020000ef
:10012800b8020000b8020000b8020000b8020000df
:10013800b8020000b802000028310000b802000030
:10014800b8020000de3c00007e3c0000e819000018
:10015800b8020000b80200004e240000b8020000f7
:10016800b8020000b8020000b8020000b80200009f
:10017800b80200001a3d0000a6010000b802000005
:10018800b8020000b8020000b8020000b80200007f
:10019800b8020000b8020000b8020000b80200006f
:1001a800b8020000b8020000b8020000b80200005f
:1001b800b8020000b8020000b8020000b80200004f
:1001c800b8020000b8020000b8020000b80200003f
:1001d800b8020000b8020000b8020000b80200002f
:1001e800b8020000b8020000b8020000b80200001f
:0801f800b8020000b80200008b
:020000040000fa
:100200004f7d21000e7f22000e01880000000000bb
:10021000000020000000e000020032000001200089
:10022000200288000c000700e08523000100200068
:1002300011000700000020000000e0000200320072
:100240000000020000000000643b0200000000000b
:100250000040da000000fe004440a9000000200039
:100260000000e0000300320000002000a001880030
:100270004440a8000000060091018800800078003a
:100280000000eb0015003700e280400032a0b4000f
:100290009101ba00e280400032a0b4009102ba009d
:1002a000e280400032a0b4000002eb00472bde00e9
:1002b000f507b200602ce10004003a000059eb00a1
:1002c0008301e900fdff3e00040037006128e100e2
:1002d000010032000082eb00040007001101ba00a7
:1002e0000200e000e8ff3a00000006003159ba00c1
:1002f0008301e9000c0032002159ba008301e900b2
:10030000080032000400e00003003a00e2804000f0
:1003100032a0b400f5ff370011d9ba008301e9001b
:10032000faff3a008100e800e180400032a0b4000a
:1003300000000600a8140400000000006c24040063
:10034000000000003a25040000000000801f780033
:100350003400f80000002000a00188000000fa002e
:1003600086c0a9001fe1a80021e1a9000080fa00d1
:100370003400f9004f007800004006000000fa0049
:1003800024002000040988000002eb00c408880053
:1003900014002000e408880086c0a9008ec0a800d0
:1003a00021e1a8000080fa00000006000000fa0029
:1003b00024002000f4088800b4908000a40888007d
:1003c000b49080000402e800d408880086a0a90048
:1003d0001fe1a9008ea0a8000080fa00000006001e
:1003e0000200fa00000f78000002eb00c4908800c1
:1003f0001e027800949088000002eb00a490880010
:10040000eaff0700ddff07000080fa000000060099
:100410001000fa0030079800410798005207980032
:1004200063079800740798000002eb001407980017
:10043000ce0290005e02900004aab9008402780007
:100440006e0290000402e80004aab90004027800d9
:100450000402e80084027800a4142000848f520073
:10046000020036000082eb00390037000002eb008a
:10047000040f7800280037000002eb0024079800e2
:100480000b0037009e029000c421210084824200ac
:1004900014c0b300844a78001e0290000402e800f1
:1004a000140798002e0290000402e8002407980028
:1004b000ae0290005e029000848f5200f1ff350082
:1004c0000002eb00240798000b0037009e0290000a
:1004d000c4212100848242000042eb00844a78005b
:1004e0001e0290000402e800140798002e029000fb
:1004f0000402e80024079800ee0290005e029000db
:1005000004aab900840278002e029000848f520061
:10051000eeff3c001e0fe8004e0290009e027800a5
:10052000848f5200d4ff35009e029000c421210028
:100530008482420024c0b300844a78007e02900086
:10054000b49088003e029000d49088000002eb0036
:10055000040078000080fa00000006000000fa00a5
:10056000a4908000040078000080fa0000000600db
:100570000040da000000fe0064108000e00f52002e
:1005800006003d0004402000751080000502620056
:10059000020032000f02ab00feff32000040da0022
:1005a000feff3700889fbe008004780090ae800078
:1005b000e00f500004003a000e0007000084eb003a
:1005c000e00f50000800350098ae8000e08f540026
:1005d000050032000900440006000700e00f50004b
:1005e00001003d000084eb00080078004f04be00cd
:1005f00000000600e00f500004003a00445d2100b6
:1006000094ae880000027800060037000082eb00fc
:10061000457d2100850f500002003e0090ae88000d
:100620000002eb00040078000000060003f0a200c6
:10063000889fbe008a9fbe008c1f78000d010700b6
:10064000140133006450e1004f0032006420e100e7
:100650005200320003826c0007003b000905d00005
:100660000306d000820f54000c065d000200390022
:100670000200320089017800030678008582550067
:1006800004003d000003fd008103fd008502ea0037
:100690008b854200840f720002003b006000100056
:1006a000e08018006011b8000005eb007a28e10036
:1006b0000a00390006007800c75ddd00f707b200c8
:1006c000878075002d003700828171000a01780053
:1006d000610560008180d1000080d3008502e900bf
:1006e000f9ff3b00060440008784480002003b00fd
:1006f00060041400e0841c000988a3000700320095
:100700008a81710082817100610164008904d100d5
:100710000884d3008b05e800170037000978a30090
:1007200013003a000b00e000130034008b05e900d1
:100730000804440089844c000a4474000978a3002a
:100740000d003a000b00e000070034008b05e900c3
:100750000804440089844c0001003a000b0020008a
:100760000978a300f7ff32000001eb000200370018
:10077000828171000a017800830007000cf0a70055
:1007800001f0a000cc0037006420e10002003a0034
:10079000838f6c00cc0033000801be000200be0055
:1007a000c5003700889fbe008a9fbe008c1f78005e
:1007b000b0000700b700330003866c006450e1000e
:1007c0002e0032006420e100330032006150e1006d
:1007d0002f0032006120e100310032008585550094
:1007e000eb07b000090020000804200005003700d6
:1007f0000804440089844c000a00310006034300c9
:1008000087834b000001530081815b00f8ff3300b8
:100810000203be000800a0000804440089844c00c4
:10082000f6ff3900c639dd00830173000100320094
:10083000130020008904d1000884d3000998a30084
:10084000050032000800a7000300a0008904d100c1
:100850000884d3008b05e8008904d1000884d30004
:100860000001eb000281d2004700070001f0a10067
:100870000cf0a70001f0a0008f0037006420e10019
:10088000910032000801be000200be00f7ff3700f1
:100890006120e1008c0032006000b800f3ff3700f7
:1008a0000000200001f82700f0ff3700839f680058
:1008b0000100e00002003d0060001000e080180030
:1008c0000300e00002003d0060011100e08119001a
:1008d000b40007004f00e00002003b006000100081
:1008e000e08018000000060014002000bd00370062
:1008f000f4ff2f00bb0037000001be0048000700d6
:100900000470a70003f0a1006509b10016003200d1
:100910000d0035006828e10006003500f0ff2f00cb
:10092000f1ff27000300e00013003b000100280056
:100930000000050000004000818048008502e900b9
:10094000fcff3a0008003700f88f420002003c002c
:100950008000eb00000005008100d1000080d30082
:100960008502e800fcff3a000300e00002003b00c3
:1009700060001000e0801800000006004f89de00d3
:1009800082017800b20037008100200061805500ac
:100990000b003d000b00200061fe2f000100e10074
:1009a0001d00340082817100610164008904d1005e
:1009b0000884d3000000e800faff3a00710020002c
:1009c0006100640003007000020060000900320052
:1009d00061044400e0844c000988a5000500320051
:1009e0008b05e8006808e10002003a008904d100a4
:1009f0000884d300f20f20000258e10005003d00fa
:100a0000c75ddd00f907b200898075000800780035
:100a1000000006000bf827008b007800000005009e
:100a2000c70ade00f107b200f50fb200080032007d
:100a3000e1cf4200020032000170a0002400050056
:100a4000810f700001003200040805004400050019
:100a5000810f700002003a00140005008502e900d1
:100a60000000400081c04800fcff3b000170a00076
:100a7000240005000004be00e9ff07000003be00db
:100a80000405be000200be00e5ff0700844f7500ac
:100a9000000006000200be006450e10005003600c0
:100aa0006420e100020036000968a30001003a005a
:100ab0000800be000160a0004f0678004f05be0090
:100ac0004f04be0000000600f0ff2f00f1ff2700da
:100ad000f9ff3700889fbe008a9fbe008c1f7800f8
:100ae000e4ff0700ebff330003866c006450e10075
:100af000240032006420e100270032006150e10050
:100b0000220032006120e100210032008b8542008a
:100b1000eb07b1000134b800003ab8000804420005
:100b200089844a00013ab8000030b800888040004b
:100b300009014a00040033000000400081804800a1
:100b4000020149008b05e900c909dd00830170003d
:100b50000100320013002000c814de004814dd003c
:100b60004709de001200b200c808de0008847000e9
:100b700085ff070001f0a1000cf0a70001f0a00024
:100b8000cdff37006120e100cfff32000801be0039
:100b90000200be00f7ff37006150e100fcff3a00a1
:100ba000c9ff37006022b800060220000000d00014
:100bb0008180d2000482d2008582d2000000a00091
:100bc0000202520083825a000300310002024200f6
:100bd00083824a000000a1000603e900f3ff3a0007
:100be00000000600889fbe008a9fbe00841f780018
:100bf000a0ff07004f00780011003300f0ff2f0026
:100c0000838f6c0006003b00040565000a00a70006
:100c10000800370009f0a600100020000800370087
:100c2000820f5400838f5c00030039001000200005
:100c300001003e000000200009f0a7000000ea00cb
:100c40004f05be004f04be000000e000000006009b
:100c5000881f7800030478000300e00007003d00cf
:100c600060001000e080180060011900e0811900a8
:100c700002003b0001f02d000300370004000700d4
:100c800008f0a70001f0a0004f0478000000060063
:100c9000889fbe008a9fbe0000827000040271001f
:100ca00004827100260032000004be000200be0073
:100cb0006011b8006b092000950220000182cf006e
:100cc0000a0039000541b1000082cf000700390059
:100cd0000541b1000982cf00040039000541b1008f
:100ce0000882cf00010039000541b10005425200e1
:100cf000120032000a003b00828171006101640031
:100d00008100d1000080d3008984d3000884d300ff
:100d10008b05e8000442e800f7ff3a0007003700bf
:100d20000804440089844c00000048008180480089
:100d30008b05e9000442e900f9ff3a0012ff0700c1
:100d40004f05be004f04be00000006000200fa007e
:100d5000f0bf9f00fc0007007fb8970006fe070069
:100d6000a45b2100e4874700d5ad8000889fbe00ca
:100d70008a9fbe008c9fbe008e1f7800e08f5200bd
:100d80000b003a0024029800e402420014ae8800ee
:100d9000d5ad880025ae8800a44290000504a000cf
:100da00025429800e44290000504a00065429800a6
:100db00067044000445d2100250020004244de001d
:100dc000497d21004244dd0084845400050744002d
:100dd000110009008504d8007c7d210012ae80003e
:100de0000406560080bf9f000e0747000003eb007b
:100df000e405440008064600020037001600200003
:100e00000d0178002242900061026200020032006f
:100e10000a003700150978009202780025429000f8
:100e200061026200fbff320008024100848f520021
:100e300002003900e00f54003f003d0092067800a8
:100e40000d00a100828f5600edff3e00e10f530020
:100e5000eaff3a000fba9700840f540002003600f0
:100e6000890f540010003900614ab900b0ff2f000b
:100e7000010020006143b800040250008582580040
:100e8000840f5300858f5b00020035000b0578004e
:100e900006003700110009000986d8000982b90050
:100ea00004057800010037000e0578000a0078007c
:100eb000bcfd0700e10f400005003a000b0578007b
:100ec0000b007800b7fd0700e10f40002b00320057
:100ed00024ae8000000a780024ae80006403420043
:100ee000a4429000860f5000020032000504a000ca
:100ef000010037000504a100254298006405550053
:100f0000a45b21000a0540000a0878002aae880088
:100f1000040d780025ae80000003eb002542900010
:100f20000404a000a4429800204290000404a10000
:100f300024409800b2ff370014ae8800848f52001e
:100f4000070036001403be008042eb0036ae880076
:100f500047ae8800120a780014ae8000254298003f
:100f60002242900017ae80000404a0000709780018
:100f70002441980064004100010037000000eb00ac
:100f80004f0778004f06be004f05be004f04be005d
:100f90004f00b10000000600e00f500008003200d2
:100fa0006400500014ae8000840f50000100310036
:100fb00010ae8800204290000404a1002440980054
:100fc00000000600889fbe00000478008a9fbe00d3
:100fd00081047800e08f540005003a00e00f5400cf
:100fe0003200320008007800ebff070030003700c5
:100ff000e00f540004003a000900780058ff070091
:10100000800478002a0037006402540094057800b8
:1010100068fa97006102620002003200080078005e
:10102000ddff0700090078004dff0700800478000d
:10103000e08f54001e003200888f54001b003200e5
:1010400069bd97008885550009055500c2ddde00a1
:1010500042d5de000a0178008b0f550001003600f2
:101060000b0178004211dd0088007800090078004b
:1010700013000700888f54000d0031004255dd0039
:101080000a854400880f5500090036000804550001
:1010900034ae800045ae800042c4de004244dd0034
:1010a00008844400048cbe000100370088047800e6
:1010b000090078004f05be004f04be000000060086
:1010c0000002780002003700315a78000201e9007e
:1010d000e00f5100fcff3a000000060015c0b3000d
:1010e00001002000a45c210060ae880071ae880081
:1010f000054a780000000600a45c21008042eb0055
:1011000094cf120002003a0010002000f3ff070005
:1011100060ae800071ae8000d2e62400631c240023
:101120000a0007009403230005002000000242008b
:1011300081824a0064ae880075ae880005007800a0
:1011400000f0a1000000060000000600020ab9003d
:10115000001bb9000200b80081004200810043007a
:041160000000060085
:020000040000fa
:101164000200fa00f71807000002eb00040f7800f1
:101174000d0037009e02e80064452100048242000d
:101184001442780084427800644521001e02420023
:10119400144278000541780084407800c0cdb30043
:1011a400201907001e8fe8009e027800740d2000ad
:1011b400848f5200efff3600e61807000080fa0023
:1011c400000006000200fa00881f7800dd180700fe
:1011d4000002eb00040f78000c0037001e04e80046
:1011e400644521001e0242001442780084407800c5
:1011f400c0cdb300db18070000427800654521002c
:1012040085024400844a78001e8fe8009e0278001c
:10121400740d2000848f5200f0ff3600cd180700b3
:101224004f0478000080fa00000006000200fa0073
:10123400000f78001e027800e10f5200090032000e
:10124400e20f52000c003200e00f52000f003a008f
:10125400c4c0b3000002fd0099f4b7000002fd0011
:101264000c00370084c0b3000002fd0099f4b700fd
:101274000002fd000700370024c0b3000002fd0097
:1012840099f4b7000002fd00020037000082eb0071
:10129400010037000002eb00040078000080fa002f
:1012a400000006000200fa00000f78004404200049
:1012b4009e027800848f5200070032001e027800dc
:1012c400f10f520004003200340320009e02780023
:1012d400848f520007003a001e027800044278000e
:1012e4000002fd0089f4b7000002fd000002eb00db
:1012f400010037000082eb00040078000080fa004f
:10130400000006000200fa00000f78001e027800b8
:10131400e00f52001b003200040220009e027800fd
:10132400848f520017003200040320009e027800cc
:10133400848f520013003200040420009e027800bf
:10134400848f52000f003200040520009e027800b2
:10135400848f52000b003200040620009e027800a5
:10136400848f520007003200040620009e02780099
:10137400848f5200030032001e027800f00f5200e6
:1013840007003a001e027800044278000002fd00c3
:1013940083f4b7000002fd000002eb0001003700f7
:1013a4000082eb00040078000080fa0000000600d0
:1013b4000800fa002007980031079800ae02900058
:1013c4003e029000848f5200020039000082eb003c
:1013d4001c003700be02900034382000848f520075
:1013e400020036000082eb00160037002e02900047
:1013f4000402e900240798002e029000044f7800ac
:101404002e0290004822de00144798003e0290000d
:10141400244798003e0290004822de00344798009a
:101424001e4090005ff4b7001e40780061f4b700de
:101434003e40900067f4b7002e40900069f4b70076
:101444000002eb00040078000080fa0000000600af
:101454000800fa002007980031079800ae029000b7
:101464003e029000848f5200020039000082eb009b
:1014740019003700be029000341f2000848f5200f0
:10148400020036000082eb00130037002e029000a9
:10149400044f78002e0290004822de001447980082
:1014a4003e029000244798003e0290004822de004d
:1014b400344798001e40900063f4b7001e40780043
:1014c40065f4b7003e4090006bf4b7002e409000e6
:1014d4006df4b7000002eb00040078000080fa000d
:1014e400000006000c00fa0030079800410798003d
:1014f40052079800be0290004e029000848f520062
:10150400020039000082eb0028003700ce02900070
:10151400341f2000848f5200020036000082eb004a
:1015240022003700de02900034382000848f5200fd
:10153400020036000082eb001c0037003e029000df
:10154400044f78003e0290004822de0014479800c1
:101554004e029000244798004e0290004822de007c
:10156400344798005e029000444798005e02900061
:101574004822de00544798001e409000e7f4b7006c
:101584001e407800e9f4b7003e409000ebf4b70049
:101594002e409000edf4b7005e409000eff4b700e9
:1015a4004e409000f1f4b7000002eb000400780014
:1015b4000080fa00000006000600fa0010079800f8
:1015c400210798001e029000e00f5200060032002e
:1015d4002e029000e00f520003003200a4ccb300ae
:1015e400044f78000e0037001e029000e00f5200f6
:1015f40003003200a4c4b300044f7800080037008d
:101604002e029000e00f520003003200a4c8b30081
:10161400044f780002003700a4c0b300044f7800e0
:101624001e4278000400780085f4b7000080fa00b8
:10163400000006000400fa00204798003147980093
:101644000002eb00040f78000e003700644521000f
:101654001e024200944278002e42900084cf520031
:1016640007003a009e02e80064452100048242001b
:10167400be429000054a78000002eb0006003700e5
:101684001e8fe8009e027800740d2000848f5200a3
:10169400eeff36000082eb00040078000080fa00c0
:1016a400000006000600fa00204798002107980071
:1016b4000002eb00040f78000f003700644521009e
:1016c4001e024200944278002e42900084cf5200c1
:1016d40008003a009e02e8006445210004824200aa
:1016e40014427800ae029000844a78000002eb00b5
:1016f400060037001e8fe8009e027800740d20005b
:10170400848f5200edff36000082eb000400780065
:101714000080fa00000006000200fa00004f780082
:10172400114798001e4090006ff4b7001e407800e7
:1017340071f4b7000080fa00000006000600fa0009
:10174400004f7800114798002247980033479800cb
:1017540044479800f4c4b3009e42780084cf5200fa
:10176400020036000082eb000b0037001e407800b8
:1017740073f4b7001e40900075f4b7002e4090003b
:1017840077f4b7004e40900079f4b7003e409000e3
:101794007bf4b7000002eb00040078000080fa003c
:1017a400000006000400fa00008fbe001e02be0006
:1017b4004a2bdd004622de0004027300c62ade0046
:1017c40004427800040078007ff4b7001e02be00d3
:1017d400422bdd004e22de0004027300ce2ade001e
:1017e40004427800040078007df4b7000042eb0066
:1017f4000400780081f4b7000080fa0000000600bd
:101804000200fa00004f78001e4078008bf4b70005
:101814000080fa00000006000200fa00000f7800c1
:101824001e027800e00f520008003200b549210082
:101834009542780004c8b30004c272000002fd009f
:101844009bf4b7000002fd0005003700b4492100f5
:10185400144278000474a100040078009bf4b700db
:101864000080fa00000006000400fa00004f78002f
:1018740011479800224798001e4078009ff4b70053
:101884001e409000a1f4b7002e409000a3f4b700ce
:101894000080fa00000006000200fa00004f780001
:1018a400114798001e4078007f4260000445b00054
:1018b40004007800a5f4b7001e409000a7f4b70018
:1018c4000080fa00000006000600fa0010079800e5
:1018d400414798004e429000634262005500200048
:1018e4008522dd0004c8b30004c242000002fd00ea
:1018f4002df5b7000002fd000002eb00040f780094
:101904000c0037001e027800040242003605200055
:10191400040343001e0278009e02900004824200e9
:10192400144278006545210085024300844a78000a
:101934001e0fe8001e027800e10f5200f1ff36008e
:101944000080fa00000006000000fa00fd160700ff
:10195400d45221001442780084427800c4522100f9
:10196400144278000541780084407800c0cdb3006b
:101974002c170700f7160700e54b21009542780065
:10198400844a21001442780085407800044078009d
:10199400020007000080fa00000006000600fa00ba
:1019a40040479800514798000002eb001407980044
:1019b400e41607000002eb00040f78001c00370057
:1019c400644521001e024200944278004e42900079
:1019d40084cf520015003900644521001e024200e4
:1019e400944278005e42900084cf52000f003e0083
:1019f4009e02e800644521000482420014427800fb
:101a040084427800644521001e024200144278009a
:101a14000541780084407800c0cdb3000117070069
:101a24001e0290000402e800140798001e8fe800cc
:101a34009e027800740d2000848f5200e0ff36006f
:101a4400c41607001e029000040078000080fa000b
:101a5400000006000400fa00100798000002eb00e2
:101a6400040f78000c0037001e02780004024200c4
:101a7400b6062000040343001e0278009e02900074
:101a84000482420014427800654521008502430027
:101a9400844a78001e0fe8001e027800e10f52000d
:101aa400f1ff36000080fa00000006000200fa0090
:101ab400004f7800114798001e407800d3f4b70017
:101ac4001e409000d5f4b7000080fa000000060024
:101ad4000200fa00004f7800114798001e40780079
:101ae400d7f4b7001e409000d9f4b7000080fa0084
:101af400000006000200fa00004f78001147980029
:101b04001e407800dbf4b7001e409000ddf4b700ff
:101b14000080fa00000006000200fa00004f78007e
:101b24001e427800450020000522dd006f4242007d
:101b340004007800f3f4b7000080fa000000060007
:101b44000200fa00004f7800114798001e42780006
:101b5400450020008522dd001e4290006f42620095
:101b640004c2420004007800f5f4b7000080fa00d3
:101b7400000006000200fa00004f780011479800a8
:101b84001e429000450020008522dd001e4378009f
:101b94006f42630004c2420004007800f7f4b70007
:101ba4000080fa00000006000400fa00008fbe0066
:101bb4001e02be0040aade00cfa2de00044278006e
:101bc40004007800f9f4b7001e02be00482bdd00c3
:101bd4004822de0004027300c8aade000442780032
:101be40004007800fbf4b7001e0278000442780079
:101bf40004007800fdf4b7000080fa00000006003d
:101c04000200fa00004f78001e407800fff4b7008d
:101c14000080fa00000006000400fa00000f7800bb
:101c2400110798001e0278004822de000442780062
:101c34000400780005f5b7001e027800044278001d
:101c44000400780007f5b7001e0290004822de0069
:101c5400044278000400780009f5b7001e029000e1
:101c640004427800040078000bf5b7000080fa0005
:101c7400000006000600fa00004f780011479800a3
:101c840022479800334798004447980055479800e6
:101c94002e4090000df5b7003e4090000ff5b700c0
:101ca4001e40780011f5b7001e40900013f5b700f0
:101cb4004e40900015f5b7005e40900017f5b70050
:101cc4000080fa00000006000800fa00000f780007
:101cd400110798002207980033079800240d20006c
:101ce4001e0f42001e029000240db000140798003d
:101cf4002e02900067024200240798003e029000e2
:101d040067024200340798009e02900024352000a8
:101d1400848f5200020036000082eb004700370037
:101d2400be029000741e2000848f52000200360010
:101d34000082eb00410037001e0290009e027800f2
:101d4400848f520004003100ae0290003e029000e5
:101d5400848f5200020039000082eb003700370004
:101d6400541a20009e027800848f52000c00360022
:101d74009e02900094272000848f520008003e00a9
:101d8400ae029000740a2000848f520004003600d2
:101d9400be02900064142000848f520002003600ba
:101da4000082eb00250037001e0278004822de0086
:101db400044278000400780019f5b7001e02780088
:101dc40004427800040078001bf5b7001e0290005e
:101dd4004822de0004427800040078001df5b700b4
:101de4001e02900004427800040078001ff5b7003a
:101df4002e0290004822de0004427800040078009d
:101e040021f5b7002e029000044278000400780007
:101e140023f5b7003e0290004822de000442780019
:101e24000400780025f5b7003e02900004427800d3
:101e34000400780027f5b7000002eb0004007800e6
:101e44000080fa00000006000600fa00100798005f
:101e5400210798001e029000e00f52000600320095
:101e64002e029000e00f520003003200c4c3b300fe
:101e7400044f78000e0037001e029000e00f52005d
:101e840003003200c4c2b300044f780008003700d6
:101e94002e029000e00f520003003200c4c1b300d0
:101ea400044f780002003700c4c0b300044f780028
:101eb4001e4278000400780029f5b7000080fa007b
:101ec400000006000200fa00000f78001e027800ed
:101ed400e00f520007003200d44821001442780079
:101ee4000474a1000002fd008df4b7000002fd009f
:101ef40006003700d54821009542780004c8b30095
:101f040004c27200040078008df4b7000080fa0067
:101f1400000006000400fa00000f78001107980082
:101f24001e027800e00f520008003200d54821005c
:101f340095427800f4cbb30004c262000002fd00b5
:101f44008df4b7000002fd0007003700d5482100da
:101f54009542780004c4b30004c272000002fd007c
:101f64008df4b7000002fd001e029000e00f520045
:101f740008003200d548210095427800f4cdb30022
:101f840004c262000002fd008df4b7000002fd00ef
:101f940006003700d54821009542780004c2b300fa
:101fa40004c27200040078008df4b7000080fa00c7
:101fb400000006000400fa003448210014427800ae
:101fc4000482fb0005032000850f52002800320024
:101fd40005032000850f520008003c00f00f52005a
:101fe4001b00320005022000850f52001c00320045
:101ff400e00f5200120032003100370005052000c6
:10200400850f52002200320005052000850f520082
:1020140004003c0005042000850f52001800320023
:102024002700370005062000850f52001c003200ef
:1020340005072000850f52001d00320020003700e4
:102044000400280005072000048fbe001e0037008e
:102054000400200065092000048fbe001a00370028
:102064000400240085032000048fbe0016003700fe
:1020740004002200c5012000048fbe0012003700b6
:1020840004002100e5002000048fbe000e0037008c
:102094000480200075002000048fbe000a00370071
:1020a4000440280035002000048fbe0006003700dd
:1020b40004202c0015002000048fbe00020037000d
:1020c4006022b800090037009449210014427800c6
:1020d400ec4f520004003a001e02be00040242000b
:1020e40085824a00048fbe001e02be000400be00aa
:1020f4000080fa00000006000e00fa002007980095
:102104003107980042079800530798006407980025
:102114005e029000e00f5200030035005e02900062
:10212400e30f5200020034000082eb006700370026
:102134006e029000e00f5200030035006e02900022
:10214400e30f5200020034000082eb005f0037000e
:1021540098ff07000002be00666a200006abb900c3
:10216400060378006020b900800378000703430069
:1021740084027800646a2000042ab800050343003e
:10218400860278002e039000cfb3de000601be0065
:102194000400be00c4f907000002be00040f78006a
:1021a40084ff07000002be00666a200006abb90087
:1021b400060378006020b900800378000703430019
:1021c40084027800646a2000042ab80005034300ee
:1021d400860278003e039000cfb3de000601be0005
:1021e4000400be00b0f907000002be001407980006
:1021f4001e0278004822de00044278000002fd003e
:1022040091f4b7000002fd001e0278000442780039
:102214000002fd0093f4b7000002fd001e029000ce
:102224004822de00044278000002fd0095f4b70065
:102234000002fd001e029000044278000002fd002e
:1022440097f4b7000002fd004e029000e00f520028
:1022540007003200d4482100144278000444a0004e
:102264000002fd008df4b7000002fd0006003700f7
:10227400d548210095427800f4ceb30004c2620030
:10228400040078008df4b7006e02900004427800d8
:10229400e34262005e0290000442780063426200fe
:1022a400260020000622dd0084c24200d648210018
:1022b4001643780004cfb3000442630004c2420012
:1022c400040078008df4b7000002eb0004007800ed
:1022d4000080fa00000006000400fa00000f7800f5
:1022e400110798001e0278000500200076002000e7
:1022f40007002000860f5200878f5a00ef003e002f
:102304000460010007003700230037003f00370056
:102314005b0037007700370093003700af003700c9
:10232400cb0037001e029000e10f52000e00360071
:10233400241680004622de00614262000404a200ea
:10234400614262000482fb00610262004622dd00f9
:1023540026168000f5fb2f0085026300050272003b
:10236400241688002c0137001e02900004427800d5
:10237400614262000482fb00610262004622dd00c9
:1023840026168000f5fb2f0085026300050272000b
:1023940024168800200137001e029000e10f52002d
:1023a4000e003600241680004722de0061426200df
:1023b4000404a200614262000482fb006102620024
:1023c4004722dd0026168000f5f72f008502630002
:1023d40005027200241688000f0137001e029000c7
:1023e40004427800614262000482fb0061026200e0
:1023f4004722dd0026168000f5f72f0085026300d2
:102404000502720024168800030137001e029000a2
:10241400e10f52000e003600241680004922de002f
:10242400614262000404a200614262000482fb0073
:10243400610262004922dd0026168000f5df2f00cc
:10244400850263000502720024168800f20037003a
:102454001e02900004427800614262000482fb0084
:10246400610262004922dd0026168000f5df2f009c
:10247400850263000502720024168800e600370016
:102484001e029000e10f52000e0036002416800058
:102494004c22de00614262000404a2006142620038
:1024a4000482fb00610262004c22dd0026168000db
:1024b400f5ff2e00850263000502720024168800d1
:1024c400d50037001e029000044278006142620089
:1024d4000482fb00610262004c22dd0026168000ab
:1024e400f5ff2e00850263000502720024168800a1
:1024f400c90037001e029000e10f52000e003600a2
:10250400241680004a22de00614262000404a20014
:10251400614262000482fb00610262004a22dd0023
:1025240026168000f5bf2f008502630005027200a5
:1025340024168800b80037001e0290000442780078
:10254400614262000482fb00610262004a22dd00f3
:1025540026168000f5bf2f00850263000502720075
:1025640024168800ac0037001e029000e10f5200d0
:102574000e003600241680004d22de006142620007
:102584000404a200614262000482fb006102620052
:102594004d22dd0026168000f5ff2d008502630024
:1025a40005027200241688009b0037001e0290006a
:1025b40004427800614262000482fb00610262000e
:1025c4004d22dd0026168000f5ff2d0085026300f4
:1025d40005027200241688008f0037001e02900046
:1025e400e10f52000e003600241680004e22de0059
:1025f400614262000404a200614262000482fb00a2
:10260400610262004e22dd0026168000f5ff2b00d9
:102614008502630005027200241688007e003700dc
:102624001e02900004427800614262000482fb00b2
:10263400610262004e22dd0026168000f5ff2b00a9
:1026440085026300050272002416880072003700b8
:102654001e029000e10f52000d0036002416800087
:102664004f22de00044278000404a20061426200aa
:102674000482fb004f22dd0026168000f5ff2700b0
:102684008502630005027200241688006200370088
:102694001e02900004427800614262000482fb0042
:1026a4004f22dd0026168000f5ff27008502630017
:1026b4000502720024168800570037001e0290009d
:1026c40004427800614262000482fb004f22dd0074
:1026d40026168000f5ff27008502630005027200bc
:1026e40024168800241680004f22de00044278005d
:1026f4000482fb00610262004e22dd002616800087
:10270400f5ff2b0085026300050272002416880081
:10271400241680004e22de00614262000482fb0027
:10272400610262004d22dd0026168000f5ff2d00b7
:1027340085026300050272002416880024168000b6
:102744004d22de00614262000482fb0061026200ed
:102754004a22dd0026168000f5bf2f0085026300a3
:102764000502720024168800241680004a22de0026
:10277400614262000482fb00610262004c22dd00bf
:1027840026168000f5ff2e00850263000502720004
:1027940024168800241680004c22de006142620068
:1027a4000482fb00610262004922dd0026168000db
:1027b400f5df2f00850263000502720024168800ed
:1027c400241680004922de00614262000482fb007c
:1027d400610262004722dd0026168000f5f72f0013
:1027e4008502630005027200241688002416800006
:1027f4004722de00614262000482fb006102620043
:102804004622dd0026168000f5fb2f0085026300ba
:1028140005027200241688000080fa0000000600f9
:102824000000fa00c4c2a900c4e2a900c522a9009c
:10283400c582a900c542a900c5a2a900c5c2a900b4
:10284400c5e2a9000080fa00000006000200fa00b8
:10285400000f78001e027800e10f52000e003600cf
:10286400841680004222de00614262000404a20059
:10287400614262000482fb00610262004222dd00c8
:1028840086168000b5ff2f008502630005027200e2
:10289400841688000b0037001e027800044278007a
:1028a400614262000482fb00610262004222dd0098
:1028b40086168000b5ff2f008502630005027200b2
:1028c400841688000080fa00000006000200fa0066
:1028d400000f78001e027800e10f52000e0036004f
:1028e400841680000402d100614262000404a20044
:1028f400614262000482fb00610262000402420041
:1029040086168000d5ff2f00850263000502720041
:10291400841688000b0037001e02780004427800f9
:10292400614262000482fb00610262000402420010
:1029340086168000d5ff2f00850263000502720011
:10294400841688000080fa00000006000000fa00e7
:10295400241680004622de006142620004c2ea00be
:10296400614262000482fb00610262004622dd00d3
:1029740026168000f5fb2f00850263000502720015
:1029840024168800241680004722de00614262007b
:1029940004c2ea00614262000482fb006102620038
:1029a4004722dd0026168000f5f72f00850263001c
:1029b4000502720024168800241680004922de00d5
:1029c4006142620004c2ea00614262000482fb00c8
:1029d400610262004922dd0026168000f5df2f0027
:1029e4008502630005027200241688002416800004
:1029f4004c22de006142620004c2ea0061426200cd
:102a04000482fb00610262004c22dd002616800075
:102a1400f5ff2e008502630005027200241688006b
:102a2400241680004a22de006142620004c2ea00e9
:102a3400614262000482fb00610262004a22dd00fe
:102a440026168000f5bf2f00850263000502720080
:102a540024168800241680004d22de0061426200a4
:102a640004c2ea00614262000482fb006102620067
:102a74004d22dd0026168000f5ff2d00850263003f
:102a84000502720024168800241680004e22de00ff
:102a94006142620004c2ea00614262000482fb00f7
:102aa400610262004e22dd0026168000f5ff2b0035
:102ab4008502630005027200241688002416800033
:102ac4004f22de000442780004c2ea006142620040
:102ad4000482fb004f22dd0026168000f5ff27004c
:102ae4008502630005027200241688000080fa0043
:102af400000006000000fa00241680004622de00d2
:102b04006142620004c2ea00614262000482fb0086
:102b1400610262004622dd0026168000f5fb2f00cc
:102b24008502630005027200241688000080fa0002
:102b3400000006000000fa00241680004722de0090
:102b44006142620004c2ea00614262000482fb0046
:102b5400610262004722dd0026168000f5f72f008f
:102b64008502630005027200241688000080fa00c2
:102b7400000006000000fa00241680004922de004e
:102b84006142620004c2ea00614262000482fb0006
:102b9400610262004922dd0026168000f5df2f0065
:102ba4008502630005027200241688000080fa0082
:102bb400000006000000fa00241680004c22de000b
:102bc4006142620004c2ea00614262000482fb00c6
:102bd400610262004c22dd0026168000f5ff2e0003
:102be4008502630005027200241688000080fa0042
:102bf400000006000000fa00241680004a22de00cd
:102c04006142620004c2ea00614262000482fb0085
:102c1400610262004a22dd0026168000f5bf2f0003
:102c24008502630005027200241688000080fa0001
:102c3400000006000000fa00241680004d22de0089
:102c44006142620004c2ea00614262000482fb0045
:102c5400610262004d22dd0026168000f5ff2d0082
:102c64008502630005027200241688000080fa00c1
:102c7400000006000000fa00241680004e22de0048
:102c84006142620004c2ea00614262000482fb0005
:102c9400610262004e22dd0026168000f5ff2b0043
:102ca4008502630005027200241688000080fa0081
:102cb400000006000000fa00241680004f22de0007
:102cc4000442780004c2ea00614262000482fb000c
:102cd4004f22dd0026168000f5ff270085026300e1
:102ce40005027200241688000080fa000000060025
:102cf4000200fa00000f78009e007800804a21004c
:102d0400950c07000080fa00000006000000fa009d
:102d1400804a2100c10c07000080fa000000060070
:102d24000200fa00000f78001e027800e00f520043
:102d3400030035009e007800804a2100de0c070065
:102d44000080fa00000006000000fa00e4592100a7
:102d540014427800e04f520010003a008000eb006b
:102d6400700020005cfd0700e45921001442780043
:102d74000482fb00110020000400780056fd0700c7
:102d8400e4592100144278000442e8000002fd00e6
:102d94009ef5b7000002fd0028003700e459210029
:102da40014427800e74f520012003a00e45921001f
:102db400144278000482fb000402e9008000eb0066
:102dc4000400780044fd0700e4592100144278000f
:102dd4000482fb0011002000040078003efd07007f
:102de4000042eb000002fd009ef5b7000002fd006a
:102df40012003700e4592100144278000482fb00d9
:102e04000402e9008000eb000400780032fd0700b2
:102e1400e4592100144278000482fb0011002000d0
:102e2400040078002cfd0700e459210014427800c6
:102e34000442e800040078009ef5b7000080fa0020
:102e4400000006000000fa00d45921001442780062
:102e54000482fb00cfa2de00460020000700200011
:102e6400860f5200878f5a0023003e000460010041
:102e740004003700070037000d0037001300370047
:102e840019003700210020000000eb0012fd0700ac
:102e94001900370021002000100020000efd07005b
:102ea40021002000700020000bfd070012003700f5
:102eb400210020002000200007fd07002100200041
:102ec4006000200004fd07000b00370021002000f3
:102ed4003000200000fd07002100200050002000e9
:102ee400fdfc070004003700210020004000200002
:102ef400f9fc070000000000d459210014427800b6
:102f0400e34f520007003e00d459210014427800d8
:102f14000442e8000002fd009df5b7000002fd0038
:102f2400030037000042eb00040078009df5b70071
:102f34000080fa00000006000000fa00c4592100d5
:102f440014427800e04f520015003a00245b21003f
:102f540014427800e04f52001100320014c0b30054
:102f6400040078009cf5b7008000eb000000eb0043
:102f7400d9fc0700c4592100144278000482fb00e4
:102f84001100200004007800d3fc07000042eb008d
:102f94000002fd00b2f5b7000002fd003a00370060
:102fa400c459210014427800e04f520015003a0041
:102fb400245b210014427800e04f520011003a00d3
:102fc40074c0b300040078009cf5b7008000eb00e7
:102fd4000000eb00c0fc0700c45921001442780033
:102fe4000482fb001100200004007800bafc0700f2
:102ff40014c0b3000002fd00b2f5b7000002fd00ea
:1030040021003700c459210014427800e74f5200d0
:103014000d003a000042eb00040078009cf5b70074
:103024008000eb0070002000abfc0700c4592100b5
:10303400144278000482fb00110020000400780090
:10304400a5fc070010003700c45921001442780081
:10305400e14f52000c003a000042eb0004007800fb
:103064009cf5b7008000eb00100020009afc0700dc
:10307400c4592100144278000482fb00110020008e
:103084000400780094fc07000080fa0000000600a9
:103094000000fa00b4592100144278000482fb00b5
:1030a400cfa2de003600200007002000860f520069
:1030b400878f5a0018003e000460010003003700a7
:1030c400090037000f0037001200370021002000ec
:1030d4000000eb0080fc07002100200040002000dd
:1030e4007dfc07000c0037002100200010002000a8
:1030f40079fc0700210020003000200076fc070046
:1031040005003700210020002000200072fc070089
:1031140001003700c2fd0700b459210014427800b1
:10312400e24f520007003e00b459210014427800d7
:103134000442e8000002fd009bf5b7000002fd0018
:10314400030037000042eb00040078009bf5b70051
:103154000080fa00000006000000fa00a4592100d3
:10316400144278000482fb00cfa2de003600200067
:1031740007002000860f5200878f5a0018003e0077
:103184000460010003003700090037000f00370016
:1031940012003700210020000000eb004efc070065
:1031a40021002000400020004bfc07000c003700e9
:1031b400210020007000200047fc070021002000af
:1031c4005000200044fc07000500370021002000c7
:1031d4006000200040fc07000100370090fd07005c
:1031e400a459210014427800e24f520007003e0027
:1031f400a4592100144278000442e8000002fd00b2
:103204009af5b7000002fd00030037000042eb000e
:10321400040078009af5b7000080fa000000060068
:103224000200fa00004f78001e427800e14f52007d
:1032340005003a0014c0b3000002fd0052efb700cd
:103244000002fd00040037000042eb000002fd0014
:1032540052efb7000002fd000002eb0004158800e5
:103264000002eb00141588000002eb00241588000e
:103274000002eb0034158800a802a800a822a800c8
:10328400a842a900a862a900a882a900a8a2a9002e
:10329400a8c2a900a8e2a900a902a900a922a9001c
:1032a400a942a900a962a900a982a900a9a2a9000a
:1032b400a9c2a900a9e2a900aa02a900aa22a900f8
:1032c400aa42a800aa62a800aa82a800aaa2a900e9
:1032d400aac2a900aae2a900ab02a900ab22a900d4
:1032e400ab42a900ab62a900ab82a900aba2a900c2
:1032f400abc2a900abe2a900041580000480a100c0
:103304000490a10004158800a042a80004158000c0
:103314000450a0000460a0000470a00004158800fc
:10332400141580000420a1000430a0000440a10072
:103334000450a10014158800a342a800251580009c
:10334400f40f2e0084826200041020000502720033
:103354002415880024f5200014427800e04f520020
:10336400060032002515800004fc2f000482620050
:103374003401b300241588000600370025158000a9
:1033840004fc2f0084826200740220000502720093
:10339400241588008560a9008d60a800a1e2a8001a
:1033a40024f5200014427800e04f520005003a0052
:1033b400000000007579800004032000848f52000f
:1033c400fbff36000080fa0000000600801f780032
:1033d400849fbe00869fbe003400f80000002000d9
:1033e400a00188000200fa000042eb000002fd0088
:1033f40050efb7000002fd000042eb000002fd00a8
:1034040051efb7000002fd008560a90024f52000fb
:1034140014427800e04f52002a00320004282000b1
:10342400040f7800647980009e0278009502780089
:10343400040342000480200004024300050a7800cb
:103444001e8fe800647980009e027800950278005f
:103454000410b0000403420004802000040243006e
:10346400050a78001e8fe800647980009e027800c7
:10347400950278000420b000040342000480200078
:1034840004024300050a78001e8fe8006479800076
:103494000402e8006479880065798000f40f200054
:1034a400848f52005a0136000002eb0064798800d0
:1034b40014c0b3000002fd0051efb7000002fd008c
:1034c40053013700c40120005415880014158000ee
:1034d4000420a1000430a0000440a1000450a10075
:1034e400141588002515800004fc2f0084826200d6
:1034f40074022000050272002415880035f52000ae
:1035040095427800d4c3b30084cf52000e003a0031
:10351400c40f200054158800141580000420a00056
:103524000430a1000440a0000450a1001415880038
:103534002515800004fc2f00048262003401b300ce
:10354400241588005500370035f520009542780091
:10355400e4c3b30084cf520026003a00141580005f
:103564000420a1000430a1000440a0000450a100e4
:10357400141588002515800004fc2f0004826200c5
:103584007401b3002415880044f520001442780027
:103594000482fb00cfa2de003600200007002000da
:1035a400860f5200878f5a003b003e0004600100e2
:1035b4000300370005003700070037000a00370012
:1035c400c41121005415880034003700c42122009e
:1035d4005415880031003700c44124005415880074
:1035e400000000002d003700c48128005415880015
:1035f4002a00370034f5200014427800e24f5200cc
:1036040026003a00141580000420a1000430a10013
:103614000440a0000450a100141588002515800062
:1036240004fc2f00048262007401b3002415880096
:1036340044f52000144278000482fb00cfa2de008f
:103644003600200007002000860f5200878f5a00a2
:1036540012003e000460010003003700050037003b
:103664000700370009003700c411210054158800f1
:103674000a003700c42122005415880007003700cf
:10368400c44124005415880004003700c481280074
:1036940054158800010037000000000004282000b1
:1036a400040f7800647980009e0278009502780007
:1036b400040342000480200004024300050a780049
:1036c4001e8fe800647980009e02780095027800dd
:1036d4000410b000040342000480200004024300ec
:1036e400050a78001e8fe800647980009e02780045
:1036f400950278000420b0000403420004802000f6
:1037040004024300050a78001e8fe80064798000f3
:103714000402e8006479880065798000f40f2000d1
:10372400848f5200020036000002eb0064798800a6
:1037340035f5200095427800e4c3b30084cf5200ed
:1037440023003a00747980000402e8007479880048
:103754007579800014032000848f52000200360023
:103764000002eb0074798800747980009e0278006e
:10377400950278000403420004e0200004024300a0
:10378400050a78001e8fe800747980009e02780094
:10379400950278002403b0000403420004e02000f2
:1037a40004024300050a78001e8fe8007479800043
:1037b4009e027800950278004406b000040342009b
:1037c40004e0200004024300050a78007f0037006b
:1037d40035f5200095427800f4c3b30084cf52003d
:1037e40033003a0044f52000144278000482fb00c0
:1037f400cfa2de003600200007002000860f520012
:10380400878f5a0070003e000460010003003700f7
:103814000b003700130037001c0037001e0278002d
:1038240014027800847988001e8fe8001e02780054
:1038340014027800c4798800e2e2a800630037002b
:103844001e02780014027800947988001e8fe80024
:103854001e02780014027800d4798800e302a800dc
:103864005a0037001e02780014027800a4798800f8
:103874001e8fe8001e02780014027800e4798800a4
:10388400e802a80000000000500037001e02780083
:1038940014027800b47988001e8fe8001e027800b4
:1038a40014027800f4798800e822a8004700370061
:1038b40034f5200014427800e34f520043003a00ec
:1038c40044f52000144278000482fb00cfa2de00fd
:1038d4003600200007002000860f5200878f5a0010
:1038e4003a003e0004600100030037000f00370077
:1038f4001b003700270037001e02780014027800ee
:10390400047a88001e8fe8001e02780014027800f2
:10391400447a8800e2e2a90014c0b3000002fd006a
:1039240054efb7000002fd00280037001e027800a3
:1039340014027800147a88001e8fe8001e027800b2
:1039440014027800547a8800e302a90024c0b3006a
:103954000002fd0054efb7000002fd001b00370019
:103964001e02780014027800247a88001e8fe80072
:103974001e02780014027800647a8800e802a90024
:1039840034c0b3000002fd0054efb7000002fd0094
:103994000e0037001e02780014027800347a880082
:1039a4001e8fe8001e02780014027800747a8800e2
:1039b400e822a9000042eb000002fd0054efb7002a
:1039c4000002fd00010037000000000035f5200072
:1039d400954278008583fb0014c0b300f6032000f1
:1039e400868f530001003c000042eb008542e80052
:1039f4008002fd0053efb7008002fd00e04f52004b
:103a0400030032000042eb000400780053efb700db
:103a140014c0b3000400780050efb7000080fa002f
:103a24003400f9004f03be004f02be004f0078007f
:103a3400004006000000fa0004f52000144278005b
:103a4400044078000080fa00000006000000fa003c
:103a540014f5200014427800044078000080fa0035
:103a6400000006000000fa00a1e2a8000080fa00ad
:103a7400000006000000fa00a1e2a9000080fa009c
:103a8400000006000800fa0020079800310798009b
:103a94006022b800048fbe00040037001400200028
:103aa400050020001e0f42005e974a002e0290007f
:103ab400be0290001e03be00840f5300858f5b007e
:103ac400f6ff35000080fa00000006000800fa0046
:103ad40020079800310798006022b800048fbe00c8
:103ae4000400370014002000050020001e0f4200cf
:103af4005e974a00be029000c45d200004aab9008b
:103b0400040378002e0290006022b90004027800b9
:103b140004034300ae029000c45d2000042ab800f0
:103b24000503430086027800be0f5200ae8f5a0090
:103b3400ecff3c000080fa00000006000000fa00e0
:103b4400341780004622de00614262008482fb005a
:103b5400341780004822de00614262000483fb00c7
:103b6400341780004922de00614262000482fb00b7
:103b740004024200040243000402420004037800e9
:103b8400341780004722de00614262000482fb0099
:103b9400040243000402420004824200040078004c
:103ba4000080fa00000006000400fa00000f78000c
:103bb400110798001e027800e00f52000b003a0033
:103bc4001e02900004427800614262000482fb00fd
:103bd400610262004622dd0026168000f5fb2f00fc
:103be4008502630005027200241688001e02780014
:103bf400e10f52000b003a001e02900004427800cc
:103c0400614262000482fb00610262004722dd001f
:103c140026168000f5f72f00850263000502720066
:103c2400241688001e027800e20f52000b003a00ae
:103c34001e02900004427800614262000482fb008c
:103c4400610262004922dd0026168000f5df2f00a4
:103c54008502630005027200241688001e027800a3
:103c6400e30f52000b003a001e0290000442780059
:103c7400614262000482fb00610262004c22dd00aa
:103c840026168000f5ff2e008502630005027200ef
:103c9400241688001e027800e40f52000b003a003c
:103ca4001e02900004427800614262000482fb001c
:103cb400610262004a22dd0026168000f5bf2f0053
:103cc4008502630005027200241688001e02780033
:103cd400e50f52000b003a001e02900004427800e7
:103ce400614262000482fb00610262004d22dd0039
:103cf40026168000f5ff2d00850263000502720080
:103d0400241688001e027800e60f52000b003a00c9
:103d14001e02900004427800614262000482fb00ab
:103d2400610262004e22dd0026168000f5ff2b00a2
:103d34008502630005027200241688001e027800c2
:103d4400e70f52000a003a001e0290000442780075
:103d5400614262000482fb004f22dd0026168000cf
:103d6400f5ff27008502630005027200241688000f
:103d74000080fa00000006000200fa00000f78003c
:103d84001e027800b4ad88000080fa00000006002e
:103d94001000fa00889fbe00600798007107980021
:103da400d4f4070080027800b4ad8000040242001d
:103db400110009008402d80001027800840278000e
:103dc400b4ad800004825200cfa2de000400be0025
:103dd400e9f207000002be0002002000832c240048
:103de4000400be006ef207000002be00048fbe0095
:103df4006e029000cfa2de000400be00def20700d7
:103e04000004be000200200003f823001e00be00d0
:103e140006f207000002be000401be000800be0056
:103e24002bf307000002be000400be00b1f207003d
:103e34000002be0024079800aef407008002780058
:103e4400b4ad800004024200110009008402d800cd
:103e54000102780084027800b4ad8000048252002c
:103e6400cfa2de000400be00c3f207000002be00c1
:103e740002002000832c24000400be0048f2070046
:103e84000002be0034079800450798007e029000a7
:103e9400cfa2de000400be00b7f207000004be009b
:103ea4000200200003f823003e009000ce009000a2
:103eb400def107000002be000401be000800be00df
:103ec40003f307000002be000400be0089f20700ed
:103ed4000002be00540798002e009000540307000f
:103ee4005e009000970307004f04be000080fa00b4
:103ef400000006000600fa00100798002107980049
:103f04001e029000cfa2de000400be009af2070059
:103f14000002be00b2032700830f24000400be0089
:103f2400ebf207000002be000400be0071f20700bd
:103f34000002be00040f78000000eb00e503070058
:103f44000000eb00ee030700ae0090002e0090008e
:103f54008fff070000000000d9030700000278006b
:103f64009e0f5200fbff35008000eb000000eb00c9
:103f740087ff07000080fa00000006000600fa0030
:103f840010079800210798001e029000cfa2de00bf
:103f94000400be0078f207000002be000400be0068
:103fa40054f207000002be0004027800cfa2de0033
:103fb4000400be0070f207000002be00b203270036
:103fc400830f24000400be00c1f207000002be00fb
:103fd4000400be0047f207000002be00040f780090
:103fe4000000eb00bb0307000000eb00c403070064
:103ff4001e029000e00f520009003400ae00900051
:104004002e00900062ff070000000000ac030700d0
:10401400000278009e0f5200fbff35000c003700b1
:104024002e0290008402ea002e0290000402ea00ac
:10403400850078000400780055ff070000000000a8
:104044009f030700000278009e0f5200fbff3c0014
:104054008000eb000000eb004dff07000080fa0039
:10406400000006000800fa00881f78001007980076
:104074002107980032079800d2cc2c00c3052400f5
:104084001e009000ae00900091f207000002be00f6
:104094000400be0017f207000002be00040f7800ff
:1040a4000000eb008b0307000000eb009403070003
:1040b40018c0b3006011b8001e009000ae0090005c
:1040c4000af2070000027800e00f520001003c00f1
:1040d4000044eb00e04f54000b0032003e0290001d
:1040e4000402ea00be0090000400780028ff0700e4
:1040f400000000007d030700000278009e0f5200bc
:10410400fbff35001500370018c0b3006011b8007c
:104114001e009000ae009000f2f10700000278004b
:10412400e00f5200010035000044eb00e04f540062
:104134000a0032003e0290000402ea008400780083
:104144003e00900012ff0700000000006703070014
:10415400000278009e0f5200fbff3c008000eb0041
:104164000000eb000aff07004f0478000080fa000b
:10417400000006000000fa00c4c2a900c4e2a900bd
:10418400c522a900c582a900c542a900c5a2a900eb
:10419400c5c2a900c5e2a9000080fa00000006001b
:1041a4000000fa00c4c2a800c4e2a800c522a80006
:1041b400c582a800c542a800c5a2a800c5c2a8001f
:1041c400c5e2a8000080fa00000006000600fa001c
:1041d4006402470004007800070e07006022b8005c
:1041e400048fbe000500370000000000140020000a
:1041f400050020001e0f42005e974a00f4232400ad
:10420400f50020001e03be00840f5300858f5b0061
:10421400f5ff34004e429000044078000080fa001c
:10422400000006000000fa000000000034108000c6
:1042340061026200e00f5200fcff3a00341080007b
:1042440064026200e00f5200f8ff3a00341080006c
:1042540068026200e00f5200f4ff3a00341080005c
:1042640070026200e00f5200f0ff3a004510800037
:104274000400240004826200e00f5200ebff3a00c5
:104284000080fa00000006000400fa00640920001f
:104294002410880007e2a90007e2a80085c0a9004d
:1042a40085a0a900d40480000480a0000490a1008b
:1042b40004a0a000d40488008da0a90004712200e9
:1042c40005002000048fbe00040037000082eb00cc
:1042d4008082eb001e0f42005e974a001e02be0061
:1042e400e00f5200e08f5a00f8ff3a0014c0b30008
:1042f400044078000080fa00000006000400fa0080
:104304006022b800048fbe0007e2a90085c0a9009e
:1043140085a0a9008da0a900047122000500200039
:10432400048fbe00040037000082eb008082eb00a3
:104334001e0f42005e974a001e02be00e00f5200ac
:10434400e08f5a00f8ff3a00cfff07001000070083
:104354000471220005002000048fbe000400370011
:104364000082eb008082eb001e0f42005e974a0041
:104374001e02be00e00f5200e08f5a00f8ff3a0020
:1043840014c0b300044078000080fa000000060066
:104394000000fa0085c0a9008dc0a80014c0b300b5
:1043a400044078000080fa00000006000000fa00d3
:1043b40085c0a9008dc0a90014c0b30004407800d2
:1043c4000080fa00000006000400fa0014c0b300e4
:1043d4000002fd0092f5b7000002fd0044108000c9
:1043e40070026200e00f5200150032000602a800bd
:1043f4000471220005002000048fbe000a0037006b
:104404002459210014427800e04f520002003a007f
:1044140014c0b3000b0037000082eb008082eb0075
:104424001e0f42005e974a001e02be00e00f5200bb
:10443400e08f5a00f2ff3a000042eb00010037001f
:104444000042eb00044078000080fa0000000600ff
:104454000400fa0064c0b3000002fd0092f5b70046
:104464000002fd004410800068026200e00f520068
:10447400150032000622a800047122000500200065
:10448400048fbe000a00370024592100144278002a
:10449400e04f520002003a0014c0b3000b00370092
:1044a4000082eb008082eb001e0f42005e974a0000
:1044b4001e02be00e00f5200e08f5a00f2ff3a00e5
:1044c4000042eb00010037000042eb00044078009a
:1044d4000080fa00000006000400fa0054c0b30093
:1044e4000002fd0092f5b7000002fd000642a8009c
:1044f4000471220005002000048fbe000a0037006a
:104504002459210014427800e04f520002003a007e
:1045140014c0b300090037000082eb008082eb0076
:104524001e0f42005e974a001e02be00e00f5200ba
:10453400e08f5a00f2ff3a000042eb00044078009a
:104544000080fa00000006000400fa0034c0b30042
:104554000002fd0092f5b7000002fd003410800057
:1045640061026200e00f520010003a003410800033
:1045740064026200e00f52000c003a003410800024
:1045840068026200e00f520008003a003410800014
:1045940070026200e00f520004003a003410800000
:1045a40062026200e00f5200020032000042eb009f
:1045b4001500370006a2a9000682a8000471220093
:1045c40005002000048fbe000a0037002459210092
:1045d40014427800e04f520002003a0014c0b300c5
:1045e400090037000082eb008082eb001e0f4200be
:1045f4005e974a001e02be00e00f5200e08f5a0090
:10460400f2ff3a000042eb00044078000080fa0018
:10461400000006000400fa0034c0b3000002fd00ec
:1046240092f5b7000002fd003410800061026200c0
:10463400e00f520010003a0034108000640262005f
:10464400e00f52000c003a0034108000680262004f
:10465400e00f520008003a0034108000700262003b
:10466400e00f520004003a0034108000620262003d
:10467400e00f5200020032000042eb001500370048
:1046840006a2a8000682a8000471220005002000ea
:10469400048fbe000a003700245921001442780018
:1046a400e04f520002003a0014c0b3000900370082
:1046b4000082eb008082eb001e0f42005e974a00ee
:1046c4001e02be00e00f5200e08f5a00f2ff3a00d3
:1046d4000042eb00044078000080fa00000006006d
:1046e4000800fa0030079800047122000500200039
:1046f400048fbe000042eb004447980044c0b3005e
:104704000002fd0092f5b7000002fd0004712200d2
:1047140005002000048fbe001c0037003410800008
:1047240061026200e00f520014003a00341080006d
:1047340064026200e00f520010003a00341080005e
:1047440068026200e00f52000c003a00341080004e
:1047540070026200e00f520008003a004510800029
:104764000400240004826200e00f520003003a00b7
:1047740014c0b30044479800080037000082eb00df
:104784008082eb001e0f42005e974a001e02be00ac
:10479400e00f5200e08f5a00e0ff3a004e429000d2
:1047a400e04f520002003a000042eb0018003700cc
:1047b4000662a800046a280015002000048fbe00c9
:1047c4000e0037002459210014427800e04f5200b3
:1047d40006003a000410800004427800be029000f3
:1047e400844a780014c0b300090037000082eb004b
:1047f4008082eb001e0f42005e974a001e02be003c
:10480400e00f5200e08f5a00eeff3a000042eb0046
:10481400044078000080fa00000006000600fa0058
:104824004047980024c0b3000002fd0092f5b70091
:104834000002fd004e4290000402fb0014108800a8
:104844000471220005002000048fbe000a00370016
:104854002459210014427800e04f520002003a002b
:1048640014c0b300090037000082eb008082eb0023
:104874001e0f42005e974a001e02be00e00f520067
:10488400e08f5a00f2ff3a000042eb000440780047
:104894000080fa0000000600801f7800841f780062
:1048a4003400f80000002000a00188000000fa0095
:1048b40085c0a9000042eb000400780092f5b7001f
:1048c4000080fa003400f9004f0278004f007800ad
:1048d400004006000000fa0004ac8000e00f520023
:1048e4001a00320095ab800084da2f00848f5200c6
:1048f4001600350095ab800084252000848f52007b
:1049040012003c00d602a900d622a900d642a90072
:10491400d662a9000002eb0004ac880094ab8000ce
:1049240004f0a7000402ea00057122001100090046
:104934008402d800000278006f02520084007800dc
:10494400c0462200dc0507004700370094ab800016
:10495400e00f52000c003400d4ab80000402e800e5
:10496400d4ab8800b4ab80000402e900b4ab880087
:10497400b4ab8000e00f52000e003d003400200074
:10498400b4ab88000b003700d4ab80000402e9000c
:10499400d4ab8800b4ab80000402e800b4ab880058
:1049a400b4ab8000e30f5200020034000002eb00bd
:1049b400b4ab8800b4ab8000cfa2de003600200088
:1049c40007002000860f5200878f5a0019003e000e
:1049d4000460010003003700070037000b003700b4
:1049e4000f003700d602a900d622a800d642a9009b
:1049f400d662a8000f003700d602a900d622a8006c
:104a0400d642a800d662a9000a003700d602a80040
:104a1400d622a900d642a800d662a9000500370014
:104a2400d602a800d622a900d642a900d662a800c0
:104a34000000000095ab800084da2f00848f5200c0
:104a44000900350095ab800084252000848f520036
:104a540005003c001400200004ac8800f100200094
:104a6400c0462200940507000080fa0000000600fa
:104a74000000fa00f4ab8000e00f52001a0032008c
:104a8400a5ab800084da2f00848f52001600350015
:104a9400a5ab800084252000848f520012003c00c6
:104aa400d682a900d6a2a900d6c2a900d6e2a9003e
:104ab4000002eb00f4ab8800a4ab800004f0a70074
:104ac4000402ea0005712200110009008402d800e2
:104ad400000278006f02520084007800a053220084
:104ae4007505070047003700a4ab8000e00f5200b3
:104af4000c003d00e4ab80000402e900e4ab880054
:104b0400c4ab80000402e900c4ab8800c4ab8000dd
:104b1400e00f52000e003d0034002000c4ab8800ba
:104b24000b003700e4ab80000402e800e4ab88002b
:104b3400c4ab80000402e800c4ab8800c4ab8000ae
:104b4400e30f5200020034000002eb00c4ab880003
:104b5400c4ab8000cfa2de00360020000700200096
:104b6400860f5200878f5a0019003e00046001002e
:104b740003003700070037000b0037000f00370031
:104b8400d682a900d6a2a800d6c2a900d6e2a8005f
:104b94000f003700d682a900d6a2a800d6c2a8006a
:104ba400d6e2a9000a003700d682a800d6a2a9003e
:104bb400d6c2a800d6e2a90005003700d682a80014
:104bc400d6a2a900d6c2a900d6e2a800000000001f
:104bd400a5ab800084da2f00848f520009003500d1
:104be400a5ab800084252000848f520005003c0082
:104bf40014002000f4ab8800f1002000a053220030
:104c04002d0507000080fa00000006000000fa00ed
:104c14008000eb00c0462200cf0407008000eb00b8
:104c2400a0532200cc0407000080fa000000060014
:104c34000200fa00000f78001e027800e00f520014
:104c44000a003a000002eb0094ab88008000eb00fd
:104c5400c046220018050700d602a900d622a900e2
:104c6400d642a900d662a9003400370084c12f00bf
:104c74009e027800848f52000b003d0084c12f00f7
:104c840094ab880094ab8000058f2d0011000900bf
:104c94008402d8000002780084007800c046220014
:104ca4000505070025003700843e20009e02780099
:104cb400848f52000b003400843e200094ab8800a3
:104cc40094ab800005712200110009008402d80011
:104cd4000002780084007800c0462200f604070031
:104ce400160037001e02780094ab88001e0278007c
:104cf400e00f520009003d00058f2d001e027800d0
:104d0400110009008402d8000002780084007800b1
:104d1400c0462200e804070008003700057122009d
:104d24001e027800110009008402d80000027800f5
:104d340084007800c0462200df0407000080fa00e7
:104d4400000006000200fa00000f78001e0278003e
:104d5400e00f52000a003a000002eb00a4ab880006
:104d64008000eb00a0532200d3040700d682a900e0
:104d7400d6a2a900d6c2a900d6e2a9003400370001
:104d840084c12f009e027800848f52000b003d00e6
:104d940084c12f00a4ab8800a4ab8000058f2d0034
:104da400110009008402d800000278008400780011
:104db400a0532200c004070025003700843e2000d1
:104dc4009e027800848f52000b003400843e200041
:104dd400a4ab8800a4ab8000057122001100090077
:104de4008402d8000002780084007800a0532200d6
:104df400b1040700160037001e027800a4ab880037
:104e04001e027800e00f520009003d00058f2d00be
:104e14001e027800110009008402d8000002780004
:104e240084007800a0532200a30407000800370080
:104e3400057122001e027800110009008402d800c6
:104e44000002780084007800a05322009a0407002e
:104e54000080fa00000006000400fa00000f780049
:104e6400110798001e0278008402780005f0a7005c
:104e74008502ea001e02900004f0a7000402ea0082
:104e840084824200843e2000848f520009003c004a
:104e94001e0290001e0212000400780064ff070046
:104ea4001e0290001e02420004007800a5ff0700c5
:104eb40001003700000000000080fa000000060036
:104ec4000000fa00d4ab8000040078000080fa00ef
:104ed400000006000200fa00000f78001e027800ad
:104ee400d4ab88000080fa00000006000000fa003d
:104ef400e4ab8000040078000080fa0000000600a3
:104f04000200fa00000f78001e027800e4ab88006b
:104f14000080fa00000006000200fa00004f78004a
:104f2400880907001e4278000441780031c0b300ac
:104f3400c0cdb300bb090700860907000080fa0052
:104f4400000006000400fa00004f780011479800a2
:104f5400224798001e407800efff070079090700f8
:104f6400ae4290001e4290000541780084407800d3
:104f7400c0cdb300ab090700760907000080fa0032
:104f8400000006000400fa0020479800314798000a
:104f94002e409000e0ff07006a0907003e4290009f
:104fa40084407800c0cdb3006e0907000042780049
:104fb400044f7800670907001e4278000440780017
:104fc4000080fa00000006000200fa00004f78009a
:104fd4001e41780011c9b3000040eb00d9ff07005f
:104fe4000080fa00000006000200fa00004f78007a
:104ff4001e41780081c6b30010c0b300d1ff070082
:105004000080fa00000006000200fa00004f780059
:105014009e4278000582fb0005042000850f5200a3
:105024001600320005082000850f520023003200cc
:1050340005022000850f520030003a0010c0b30072
:10504400e9ff07001e41780001c8b30010c0b30097
:10505400bcff07001e41780011c8b30010c0b300a4
:10506400b8ff070012c0b30021c8b30010c0b300da
:10507400b4ff07000002eb002100370030c0b3008a
:10508400d9ff07001e41780001c8b30010c0b30067
:10509400acff07001e41780011c8b30010c0b30074
:1050a400a8ff070012c0b30021c8b30010c0b300aa
:1050b400a4ff07000002eb001100370070c0b3002a
:1050c400c9ff07001e41780001c8b30010c0b30037
:1050d4009cff07001e41780011c8b30010c0b30044
:1050e40098ff070012c0b30021c8b30010c0b3007a
:1050f40094ff07000002eb00010037000082eb0080
:10510400040078000080fa00000006000200fa00a3
:10511400004f78009e4278000582fb0005042000c1
:10512400850f52001600320005082000850f52003a
:105134002300320005022000850f520030003a009f
:105144000040eb00a8ff07001e41780001c8b3002f
:1051540010c0b3007bff07001e41780011c8b300e4
:1051640010c0b30077ff070012c0b30021c8b3001a
:1051740010c0b30073ff07000002eb0021003700ea
:1051840010c0b30098ff07001e41780001c8b300a7
:1051940010c0b3006bff07001e41780011c8b300b4
:1051a40010c0b30067ff070012c0b30021c8b300ea
:1051b40010c0b30063ff07000002eb0011003700ca
:1051c40030c0b30088ff07001e41780001c8b30057
:1051d40010c0b3005bff07001e41780011c8b30084
:1051e40010c0b30057ff070012c0b30021c8b300ba
:1051f40010c0b30053ff07000002eb0001003700aa
:105204000082eb00040078000080fa000000060031
:105214000200fa00004f7800114798009e4278007f
:105224000582fb00e10f52000c003200e20f520035
:1052340012003200e00f520018003a00d2c0b3004e
:1052440081c3b30010c0b3003eff07001e409000ae
:105254006dff0700000278001100370082c0b30020
:1052640081c3b30010c0b30036ff07001e40900096
:10527400a6ff0700000278000900370022c0b3002f
:1052840081c3b30010c0b3002eff07001e4090007e
:105294009eff070000027800010037000082eb0047
:1052a400040078000080fa00000006000800fa00fc
:1052b4002007980031079800ae0290003e0290004b
:1052c400848f5200020039000082eb001c0037007a
:1052d400be029000f4312000848f52000200360098
:1052e4000082eb00160037002e0290000402e90051
:1052f400240798002e029000044f78002e0290009c
:105304004822de00144798003e029000244798008b
:105314003e0290004822de00344798001e41780087
:1053240011c5b30010c0b30006ff07001e41900072
:1053340001c5b30010c0b30002ff07000002eb0078
:10534400040078000080fa00000006000400fa005f
:10535400000f7800110798000002eb0004007800a9
:105364000080fa00000006000800fa0020079800f8
:1053740031079800ae0290003e029000848f5200e4
:10538400020039000082eb0021003700be029000c9
:10539400341f2000848f5200020036000082eb008c
:1053a4001b0037002e029000044f78002e0290005c
:1053b4004822de00144798003e02900024479800db
:1053c4003e0290004822de00344798001e419000bf
:1053d40001c6b30010c0b300dafe07001e41780016
:1053e40011c6b30010c0b300d6fe07003e419000c2
:1053f40021c6b30010c0b300d2fe07002e419000b6
:1054040031c6b30010c0b300cefe07000002eb00ab
:10541400040078000080fa00000006000200fa0090
:10542400000f780012c0b300a1c5b30020c0b300c0
:10543400c4fe070012c4b30021c3b30010c0b300fc
:10544400c0fe07001e027800e00f520011003a006f
:1054540000c1eb0081c8b30010c0b300b9fe07005f
:1054640000c1eb0091c8b30010c0b300b5fe070043
:1054740082c0b300a1c8b30010c0b300b1fe0700de
:1054840000c1eb00b1c8b30010c0b300adfe07000b
:105494001000370002c2b30081c8b30010c0b300cb
:1054a400a8fe070002c8b30091c8b30010c0b3003f
:1054b400a4fe070082c0b300a1c8b30010c0b300ab
:1054c400a0fe070000c1eb00b1c8b30010c0b300d8
:1054d4009cfe07000080fa00000006000600fa00a7
:1054e400100798002107980001c9b3000040eb00a1
:1054f400a4fe070000427800044f78001e029000ca
:10550400e00f52000300320004c8b3001e4f7200c3
:10551400010037001e74a1002e029000e00f52001b
:105524000300320004c4b3001e4f720002003700af
:10553400f4cbb3001e4f62001e41780001c9b300d2
:105544000040eb007ffe07000080fa000000060028
:105554001e00fa00000f9800110f9800220f980007
:10556400330f9800440f9800550f9800660f980069
:105574000e0a900070024200040f98001e0a900068
:1055840068024200140f98005e0a9000e00f520077
:10559400030032004e0a9000e00f520002003a006d
:1055a4000082eb001a0137008e0a90002e0a900048
:1055b40084824200042d2000848f520002003600b1
:1055c4000082eb00120137009e0a90003e0a900010
:1055d40084824200841e2000848f52000200360020
:1055e4000082eb000a013700ae0a90004e0a9000d8
:1055f400110009008482d80001027800e00f5200f3
:10560400020032000082eb0001013700be0a900064
:105614005e0a9000110009008482d800010278001b
:10562400e00f5200020032000082eb00f800370065
:105634005e0a900063026200e00f520039003a00f3
:105644004e0a900063026200e00f520011003a001b
:105654000408200034079800440020002407980020
:105664005e0a90004222de00040f78004e0a900089
:105674004222de00140798001e0a900064025200c1
:10568400140f98000e0a900064025200040f980050
:105694005a0037004e0a900061026200e00f520087
:1056a40011003a000404200034079800240020006c
:1056b400240798005e0a90000402d100040f7800c9
:1056c4004e0a90000402d100140798001e0a9000ac
:1056d4000482e900140f98000e0a90000482e90085
:1056e400040f980045003700040220003407980096
:1056f40014002000240798005e0a9000040f78002c
:105704004e089000100798001e0a90000402e90059
:10571400140f98000e0a90000402e900040f980088
:10572400360037005e0a900061026200e00f52000a
:1057340024003a004e0a900061026200e00f520019
:1057440011003a00040420003407980024002000cb
:10575400240798005e0a90000402d100040f780028
:105764004e0a90000402d100140798001e0a90000b
:105774000482e900140f98000e0a90000482e900e4
:10578400040f98001d00370004022000340798001d
:105794001400200024079800de089000010f780010
:1057a4004e0a9000140798001e0a90000402e900b3
:1057b400140f98000e0a90000402e900040f9800e8
:1057c4000e00370014002000240798000402200073
:1057d400340798004e08900010079800de089000e7
:1057e400010f78001e0a90000402e900140f9800cb
:1057f4000e0a90000402e900040f98001e029000b3
:105804000402e900440798001e02e90054079800c6
:10581400ae0a90004e0a9000110009008482d8005c
:105824000002780064079800be0a90005e0a9000a7
:10583400110009008482d8000002780074079800df
:10584400152d20002e029000110009008402d800ba
:1058540000027800840278002e0290000e0b900063
:10586400110009000483d800000278008500780044
:10587400040078008dfe070000027800e00f52005b
:10588400020032000082eb0061003700951e200008
:105894002e029000110009008402d8000002780052
:1058a400840278002e0290001e0b90001100090063
:1058b4000483d80000027800850078000400780092
:1058c400a2fe070000027800e00f5200020032003e
:1058d4000082eb004e003700811e20001e0890005d
:1058e400a1fe070000027800e00f5200020032001f
:1058f4000082eb00460037006e0a9000e00f520071
:1059040014003a003e02900005042000850f520066
:105914000900320005082000850f52000a003200f9
:1059240005022000850f52001d003a0000c9b30093
:10593400a5fd07001b00370000c5b300a2fd07004a
:10594400000000001700370000c1b3009efd0700ef
:10595400140037003e02900005042000850f520019
:105964000900320005082000850f520009003200aa
:1059740005022000850f52000a003a0000cbb30054
:1059840091fd07000700370000c9b3008efd070032
:105994000400370000c5b3008bfd07000100370089
:1059a400000000003e029000844278006e0a9000dd
:1059b40004427800854078000440780014fe070013
:1059c40000027800e00f5200020032000082eb0077
:1059d4000f0037006e089000100007008002780066
:1059e4005e029000ce01900005017800ee00900068
:1059f4007e00900085ea070000027800e00f520064
:105a0400020032000082eb00010037000002eb00cc
:105a1400040078000080fa00000006000200fa008a
:105a2400000f78001e027800e10f520006003200d9
:105a3400e20f520006003200e00f520006003a0066
:105a44001400200005003700240020000300370064
:105a54002400200001003700140020000400780016
:105a64000080fa00000006001c00fa00700798008d
:105a7400010f9800120f9800230f9800340f98001c
:105a8400450f9800560f98007e029000240db00038
:105a9400740798000e0a900067024200040f9800f1
:105aa4004e0a9000e00f5200030032003e0a9000bc
:105ab400e00f520002003a000082eb00fc003700c5
