:020000040000fa
:080000000001040000000000f3
:020000040000fa
:10000800a6030000a6030000a6030000a603000044
:10001800a6030000a6030000a6030000a603000034
:10002800704a0000a6030000a60300004046000036
:10003800a6030000a6030000f6490000a60300007e
:10004800a60300006c500000ac4f0000a60300009f
:10005800a6030000a6030000fe420000a60300005d
:10006800a6030000a6030000a6030000a6030000e4
:10007800a60300002e020000a2010000a603000053
:10008800a85000000c500000a6030000a6030000c2
:10009800a6030000a6030000a6030000a6030000b4
:1000a800a6030000a6030000a6030000a6030000a4
:1000b800a6030000a6030000a6030000a603000094
:1000c800a6030000a6030000a6030000a603000084
:1000d800a6030000a6030000a6030000a603000074
:1000e800a6030000a6030000a6030000a603000064
:0800f800a6030000a6030000ae
:020000040000fa
:10010800a6030000a6030000a6030000a603000043
:10011800a6030000a6030000a6030000a603000033
:10012800704a0000a6030000a60300004046000035
:10013800a6030000a6030000f6490000a60300007d
:10014800a60300006c500000ac4f0000a60300009e
:10015800a6030000a6030000fe420000a60300005c
:10016800a6030000a6030000a6030000a6030000e3
:10017800a60300002e020000a2010000a603000052
:10018800a85000000c500000a6030000a6030000c1
:10019800a6030000a6030000a6030000a6030000b3
:1001a800a6030000a6030000a6030000a6030000a3
:1001b800a6030000a6030000a6030000a603000093
:1001c800a6030000a6030000a6030000a603000083
:1001d800a6030000a6030000a6030000a603000073
:1001e800a6030000a6030000a6030000a603000063
:0801f800a6030000a6030000ad
:020000040000fa
:100200000fff20000e7f22000e018800000000007a
:10021000000020000000e000020032000001200089
:10022000200288000c000700c031240001002000db
:1002300011000700000020000000e0000200320072
:100240000000020000000000164c02000000000048
:100250000040da000000fe004440a90080002000b9
:100260000000e0000300320000002000a001880030
:100270004440a8000000060091018800800078003a
:100280000000eb0015003700e280400032a0b4000f
:100290009101ba00e280400032a0b4009102ba009d
:1002a000e280400032a0b4000002eb00472bde00e9
:1002b000f507b200602ce10004003a000059eb00a1
:1002c0008301e900fdff3e00040037006128e100e2
:1002d000010032000082eb00040007001101ba00a7
:1002e0000200e000e8ff3a00000006003159ba00c1
:1002f0008301e9000c0032002159ba008301e900b2
:10030000080032000400e00003003a00e2804000f0
:1003100032a0b400f5ff370011d9ba008301e9001b
:10032000faff3a008100e800e180400032a0b4000a
:1003300000000600de32040000000000b04a0400a5
:1003400000000000849fbe00869fbe003400f800bd
:1003500004002000a40188000000fa0086c0a90063
:10036000545a8000e00f52000c003400745a800090
:100370000402e800745a8800a45a80000402e900cc
:10038000a45a8800a45a8000e00f52000e003d00dd
:1003900034002000a45a88000b003700745a8000f3
:1003a0000402e900745a8800a45a80000402e8009c
:1003b000a45a8800a45a8000e30f520002003400bf
:1003c0000002eb00a45a8800a45a8000cfa2de00ed
:1003d0003600200007002000860f5200878f5a0049
:1003e00019003e00046001000300370007003700d9
:1003f0000b0037000f003700d602a900d622a80054
:10040000d642a900d662a8000f003700d602a90084
:10041000d622a800d642a800d662a9000a0037005a
:10042000d602a800d622a900d642a800d662a9000a
:1004300005003700d602a800d622a900d642a9009e
:10044000d662a800000000000080fa003400f90025
:100450004f03be004f02be0000400600849fbe0056
:10046000869fbe003400f80004002000a40188002c
:100470000000fa0086a0a900645a8000e00f520034
:100480000c003d00845a80000402e900845a880070
:10049000945a80000402e900945a8800945a80001b
:1004a000e00f52000e003d0034002000945a8800f6
:1004b0000b003700845a80000402e800845a880048
:1004c000945a80000402e800945a8800945a8000ec
:1004d000e30f5200020034000002eb00945a88003f
:1004e000945a8000cfa2de003600200007002000d2
:1004f000860f5200878f5a0019003e0004600100e9
:1005000003003700070037000b0037000f003700eb
:10051000d682a900d6a2a800d6c2a900d6e2a80019
:100520000f003700d682a900d6a2a800d6c2a80024
:10053000d6e2a9000a003700d682a800d6a2a900f8
:10054000d6c2a800d6e2a90005003700d682a800ce
:10055000d6a2a900d6c2a900d6e2a80000000000d9
:100560000080fa003400f9004f03be004f02be00c5
:10057000004006000000fa00f62507000080fa009f
:10058000000006000200fa00000f78001e0278004a
:10059000e00f520006003a0021e1a900d602a900ae
:1005a000d622a900d642a900d662a9001f003700b2
:1005b00021e1a9001e027800545a88000002eb00d5
:1005c00004098800040980000440a0000450a00031
:1005d000040988000002eb00c40888001e027800ad
:1005e00004f0a7000402ea00cfa2de000400be006f
:1005f000190207000002be000401be000000200036
:1006000011762400920107000002be000400be0023
:10061000f60107000002be0004027800e40888002a
:1006200086c0a9008ec0a80021e1a8000080fa00c1
:10063000000006000200fa00000f78001e02780099
:10064000e00f520006003a001fe1a900d682a9007f
:10065000d6a2a900d6c2a900d6e2a9001f00370081
:100660001fe1a9001e027800645a88000002eb0016
:10067000f4088800f40880000440a0000450a000a2
:10068000f40888000002eb00a40888001e0278002d
:1006900004f0a7000402ea00cfa2de000400be00be
:1006a000ed0107000002be000401be0000002000b2
:1006b00011762400660107000002be000400be009f
:1006c000ca0107000002be0004027800d4088800b6
:1006d00086a0a9008ea0a8001fe1a8000080fa0053
:1006e000000006000000fa00745a80000400780040
:1006f0000080fa00000006000200fa00000f7800f7
:100700001027fc001e027800745a88000200fc00ca
:100710000080fa00000006000000fa00845a800001
:10072000040078000080fa00000006000200fa00d1
:10073000000f78001027fc001e027800845a880001
:100740000200fc000080fa00000006000040da0011
:100750000000fe0064108000e00f520006003d0023
:100760000440200075108000050262000200320083
:100770000f02ab00feff32000040da00feff370040
:100780000a00fa00e20f500022003e00646f800071
:10079000e10f520006003200e7212000a6212000d0
:1007a0008421200065212000e08f530004003a00de
:1007b0004721200006212000e4202000c520200041
:1007c000000028001500600003003a00800b78004c
:1007d00007002800958a730005402000948262007b
:1007e00001003a0014a0a000820278000600370041
:1007f000940378000710b200fdff3200b103fb0044
:10080000070b78008502e900e08f5200f8ff3a00fc
:100810000800370034002000c0bf9f00e2bf9f00e7
:10082000b4bf9f00d1bf9f006a805700d50b07005f
:100830006fb99700020078000080fa0000000600ff
:10084000889fbe0080047800706f8000e00f500029
:1008500004003a000e0007000084eb00e00f500097
:1008600008003500786f8000e08f540005003200ea
:100870000900440006000700e00f500001003d00a1
:100880000084eb00080078004f04be000000060062
:10089000e00f500004003a0004df2000746f88006d
:1008a00000027800060037000082eb0005ff200000
:1008b000850f500002003e00706f88000002eb00c0
:1008c000040078000000060003f0a200889fbe002c
:1008d0008a9fbe008c1f78009f010700a60133008d
:1008e0006450e1004f0032006420e1005200320009
:1008f00003826c0007003b000905d0000306d0000e
:10090000820f54000c065d00020039000200320024
:1009100089017800030678008582550004003d00b7
:100920000003fd008103fd008502ea008b85420083
:10093000840f720002003b0060001000e08018008d
:100940006011b8000005eb007a28e1000a003900c8
:1009500006007800c75ddd00f707b20087807500ec
:100960002d003700828171000a0178006105600066
:100970008180d1000080d3008502e900f9ff3b00af
:10098000060440008784480002003b006004140015
:10099000e0841c000988a300070032008a817100ee
:1009a00082817100610164008904d1000884d30050
:1009b0008b05e800170037000978a30013003a0000
:1009c0000b00e000130034008b05e900080444002c
:1009d00089844c000a4474000978a3000d003a0091
:1009e0000b00e000070034008b05e9000804440018
:1009f00089844c0001003a000b0020000978a30014
:100a0000f7ff32000001eb00020037008281710025
:100a10000a017800150107000cf0a70001f0a00002
:100a20005e0137006420e10002003a00838f6c0011
:100a30005e0133000801be000200be00570137000e
:100a4000889fbe008a9fbe008c1f7800420107006d
:100a50001002200002003b00e05b880046013700e6
:100a60008a0062006408e10002003a00e05b88004e
:100a70004e0137006108e100fcff32000800be00b3
:100a8000030478007200070001f0a10009000700cc
:100a900008f0a600040037000001be009104240005
:100aa000b0fd200088ff070009f0a70001f0a200b8
:100ab0003a013700889fbe008a9fbe008c9fbe000f
:100ac0000004be000f0107000800be008906780080
:100ad0006420e10008003900040032000160a00039
:100ae00012022000e25b88005300370091fc2300d3
:100af000b0fd20004e0037000006eb0009f0a10019
:100b000003f82300020020000800be009200070046
:100b10000600340001f82300000020000801be0098
:100b20004b0007000004be002c0020000800be009f
:100b300093e82300320a23008700070012003400e4
:100b40000801be00d1fd2300703d2b005fff0700b0
:100b50000005be00b3f32300f27a26000800be00b1
:100b60001501070003f823000200200056ff0700cc
:100b70000801be0055ff07000a01be00340007004f
:100b80000004be000c06e8000800be0001f0a10051
:100b900002002000039823006f0007000800be0039
:100ba000160035000801be00030107000005be0065
:100bb00032cd2c0043fb230044ff0700809fbe0082
:100bc0001269280003d52b000a00be00fa000700b6
:100bd000620f210013ef2b003cff07000a01be004b
:100be000f50007004f01be00190007000801be0014
:100bf000f10007000801be0034ff07000c00e00010
:100c00000b0032000c10a70001f0a200b2fd200082
:100c100093fc23006260e1000400320022a920005e
:100c200063f023000c10a70063f8230027ff0700e0
:100c30000df0a70001f0a2004f06be004f05be0058
:100c40004f04be00000006000081eb000e013700db
:100c5000889fbe008a9fbe008c1f7800be000700e0
:100c6000c500330003866c006450e1002e003200a2
:100c70006420e100330032006150e1002f003200b7
:100c80006120e1003100320085855500eb07b0009e
:100c90000900200008042000050037000804440073
:100ca00089844c000a0031000603430087834b000f
:100cb0000001530081815b00f8ff33000203be0096
:100cc0000800a0000804440089844c00f6ff3900a5
:100cd000c639dd00830173000100320013002000db
:100ce0008904d1000884d3000998a30005003200cc
:100cf0000800a7000300a0008904d1000884d300e5
:100d00008b05e8008904d1000884d3000001eb00c2
:100d10000281d2005500070001f0a1000cf0a700ed
:100d200001f0a0009d0037006420e1009f00320028
:100d30000801be000200be00f7ff37006120e1009d
:100d40009a0032006000b800f3ff37000000200076
:100d500001f82700f0ff3700140020006801370079
:100d6000f4ff2f00660137000001be006500070098
:100d70000470a70003f0a1006509b100160032005d
:100d80000d0035006828e10006003500f0ff2f0057
:100d9000f1ff27000300e00013003b0001002800e2
:100da0000000050000004000818048008502e90045
:100db000fcff3a0008003700f88f420002003c00b8
:100dc0008000eb00000005008100d1000080d3000e
:100dd0008502e800fcff3a000300e00002003b004f
:100de00060001000e0801800000006000001be0056
:100df000440007000470a70003f0a10003f8a3005b
:100e000013003a006509b1001000320009003500f6
:100e10006928e100020035000100280000000500fb
:100e200000004000818048008502e900fcff3a0094
:100e300000000600f88f4200050035008100d10057
:100e40000080d3008502e800fcff3a0000000600a5
:100e50008000eb00000005004f89de008201780071
:100e6000420137006011b8005001370081002000b6
:100e7000618055000b003d000b00200061fe2f003b
:100e80000100e1001d0034008281710061016400f5
:100e90008904d1000884d3000000e800faff3a007a
:100ea0007100200061006400030070000200600017
:100eb0000900320061044400e0844c000988a50068
:100ec000050032008b05e8006808e10002003a00e6
:100ed0008904d1000884d300f20f20000258e100f9
:100ee00005003d00c75ddd00f907b200898075008f
:100ef00008007800000006000bf827008b0078003f
:100f000000000500c70ade00f107b200f50fb200cd
:100f100008003200e1cf4200020032000170a00060
:100f200024000500810f7000010032000408050054
:100f300044000500810f700002003a001400050013
:100f40008502e9000000400081c04800fcff3b0032
:100f50000170a000240005000004be00e9ff0700a6
:100f60000003be000405be000200be00e5ff07004e
:100f7000844f7500000006000200be006450e100ce
:100f8000050036006420e100020036000968a30075
:100f900001003a000800be000160a0004f06780082
:100fa0004f05be004f04be0000000600f0ff2f00fa
:100fb000f1ff2700f9ff3700889fbe008a9fbe001f
:100fc0008c1f7800e4ff0700ebff330003866c0002
:100fd0006450e100240032006420e1002700320068
:100fe0006150e100220032006120e1002100320066
:100ff0008b854200eb07b1000134b800003ab8001d
:101000000804420089844a00013ab8000030b80060
:101010008880400009014a000400330000004000bd
:1010200081804800020149008b05e900c909dd0003
:10103000830170000100320013002000c814de009c
:101040004814dd004709de001200b200c808de00c7
:101050000884700085ff070001f0a1000cf0a700d4
:1010600001f0a000cdff37006120e100cfff32008a
:101070000801be000200be00f7ff37006150e1002a
:10108000fcff3a00c9ff3700889fbe008a9fbe0060
:101090008c9fbe00820578000004be0099ff070007
:1010a0000800be006420e1000700390002003a0099
:1010b000f1ff2700f0ff2f000160a00012022000c6
:1010c000e25b8800550037006120e10003003a0030
:1010d0000b00a70001f823005000370001f0a10029
:1010e00002002100936424001bff07000800be00db
:1010f00004003500b2fd2000930c2400da00070044
:101100000004be000005eb000b00a6004f0dde0042
:1011100001f0a1000004be0032982f0023ea230052
:10112000a5ff07000001eb0003f023000b00a70060
:1011300003f82300e5fd07000bff07000000a700f0
:101140000a00a20044ff07000b00e0000300320089
:101150000200200003f02300dbfd070001f0a200e5
:101160000006be00020020009304240092ff070046
:101170000801be00d5fd0700809fbe000c00be0028
:1011800022a22a00d3a723008bff07004f01be0035
:10119000cefd07000004be0001f0a1000200200007
:1011a00003982300ecfe07000800be00190035007c
:1011b0000001be0080ff07000006be00b2c5290086
:1011c000e36223007cff070022222b00f3942b0014
:1011d000befd07000c01be0077ff0700e273280088
:1011e00083c02300b9fd07000c01be0072ff070099
:1011f00042aa2a00a3e22b00b4fd07000c01be00a6
:101200006dff07000801be006bff07000801be006c
:10121000aefd07000a00a70001f0a2004f06be00c5
:101220004f05be004f04be0000000600889fbe00b0
:101230008a9fbe008c1f78000004be0031ff0700ab
:101240000478a30026003a006120e1002500320066
:1012500009f8a30025003a006420e10021003200d3
:10126000f507b1000508a3000200320000004000ad
:10127000818048006044b800031020000200200074
:1012800000004000818048000805440089854c002a
:101290000a0541008b8549000a0550008b855800de
:1012a000030033000a00be0002047400838474004b
:1012b0008301d1000281d300830f7100f0ff3a0057
:1012c0008904d1000884d3006001490082017800bc
:1012d000c1adde00fb07b000e4fe07002fff3700c2
:1012e0000960a0000800be002cff37001202200099
:1012f000e25b8800f0ff2f00f1ff270027ff370097
:10130000889fbe008a9fbe00841f780012ff0700de
:101310004f00780011003300f0ff2f00838f6c0026
:1013200006003b00040565000a00a700080037001e
:1013300009f0a6001000200008003700820f5400ba
:10134000838f5c00030039001000200001003e0084
:101350000000200009f0a7000000ea004f05be00d1
:101360004f04be000000e00000000600881f780067
:10137000030478000300e00007003d006000100057
:10138000e080180060011900e081190002003b00b4
:1013900001f02d00030037000400070008f0a7004b
:1013a00001f0a0004f04780000000600889fbe00f6
:1013b0008a9fbe00008270000402710004827100e6
:1013c000260032000004be000200be006011b8001a
:1013d0006b092000950220000182cf000a0039002d
:1013e0000541b1000082cf00070039000541b1007e
:1013f0000982cf00040039000541b1000882cf0006
:10140000010039000541b1000542520012003200ce
:101410000a003b0082817100610164008100d100fb
:101420000080d3008984d3000884d3008b05e800b2
:101430000442e800f7ff3a000700370008044400c0
:1014400089844c0000004800818048008b05e90039
:101450000442e900f9ff3a0084fe07004f05be0090
:101460004f04be000000060004002000000037000a
:10147000889fbe008a9fbe008c1f78004f26dd002b
:10148000b5fe0700bcfe33006120e10043003200de
:101490006250e10041003e003e0039006420e1005e
:1014a0003c003200058255000f003b000402e800ba
:1014b00038003a00800f5300818f5b003500340004
:1014c0000800be0003f0a10001f0a60003f0a00098
:1014d0000cf0a700fdfc0700b0fe37000603430038
:1014e00087834b000c4646000005530081855b0056
:1014f000020033000a03be000c00a0000402e90051
:10150000f6ff3b00850578000602430087824b000a
:1015100004003a006000b80009f0a70001f0a00044
:101520009efe37000002520081825a000704e0004c
:10153000040033000603430087834b008b05e9005a
:10154000faff3700090578000604be000203be005a
:101550006011b80045fe0700e00f5200e08f5a000e
:101560000700350002003c000c08a3000400320014
:101570000601be0003f0a0000cf0a700d3fc07009a
:101580000a85680001f0a1000af0a70001f0a000a0
:1015900082fe37000800be0080fe370010022000e7
:1015a0000cf0a600e05b880080fe370006c2b300a6
:1015b0000002780004007800b042780086cf520024
:1015c000fbff3200e9cf5200f9ff3200d6c2b30070
:1015d00086cf520003003a000002780016c0b30024
:1015e000050037000043eb00b7c2b30087cf5200bd
:1015f00001003a00000278000000eb000200370012
:101600006a00b90000804200b402fb000503b1008b
:10161000e98f5200faff3600e04f5300010032001c
:101620000000ea00000006000200fa00f0bf9f0080
:10163000fc0007007fb8970046fc0700e4dc2000b0
:10164000e4874700756e8000889fbe008a9fbe00b9
:101650008c9fbe008e1f7800e08f52000b003a0076
:1016600024029800e4024200b46e8800756e88007f
:10167000c56e8800a44290000504a0002542980091
:10168000e44290000504a000654298006704400011
:1016900004df2000250020004244de0009ff200076
:1016a0004244dd0084845400050744001100090011
:1016b0008504d8003cff2000b26e8000040656006e
:1016c00080bf9f000e0747000003eb00e4054400c5
:1016d0000806460002003700160020000d017800c1
:1016e0002242900061026200020032000a003700cc
:1016f000150978009202780025429000610262008c
:10170000fbff320008024100848f520002003900c2
:10171000e00f54003f003d00920678000d00a1004c
:10172000828f5600edff3e00e10f5300eaff3a00c2
:101730000fba9700840f540002003600890f54003e
:1017400010003900614ab900b0ff2f0001002000ed
:101750006143b8000402500085825800840f530092
:10176000858f5b00020035000b057800060037000e
:10177000110009000986d8000982b9000405780023
:10178000010037000e0578000a0078002cfc0700e5
:10179000e10f400005003a000b0578000b007800cf
:1017a00027fc0700e10f40002b003200c46e8000d0
:1017b000000a7800c46e800064034200a4429000d6
:1017c000860f5000020032000504a000010037001f
:1017d0000504a1002542980064055500e4dc2000c2
:1017e0000a0540000a087800ca6e8800040d7800d7
:1017f000c56e80000003eb00254290000404a000a9
:10180000a4429800204290000404a10024409800c3
:10181000b2ff3700b46e8800848f52000700360094
:101820001403be008042eb00d66e8800e76e88008d
:10183000120a7800b46e800025429800224290007f
:10184000b76e80000404a0000709780024419800c6
:1018500064004100010037000000eb004f077800f2
:101860004f06be004f05be004f04be004f00b10042
:1018700000000600e00f5000080032006400500035
:10188000b46e8000840f500001003100b06e8800fb
:10189000204290000404a1002440980000000600ab
:1018a000889fbe00000478008a9fbe0081047800f3
:1018b000e08f540005003a00e00f5400320032007f
:1018c00008007800ebff070030003700e00f5400fd
:1018d00004003a000900780058ff070080047800ef
:1018e0002a003700640254009405780068fa9700d3
:1018f000610262000200320008007800ddff07008c
:10190000090078004dff070080047800e08f540044
:101910001e003200888f54001b00320069bd970002
:101920008885550009055500c2ddde0042d5de0080
:101930000a0178008b0f5500010036000b0178007a
:101940004211dd00880078000900780013000700cc
:10195000888f54000d0031004255dd000a85440097
:10196000880f55000900360008045500d46e800029
:10197000e56e800042c4de004244dd00088444007d
:10198000048cbe000100370088047800090078004c
:101990004f05be004f04be000000060000027800a4
:1019a00002003700315a78000201e900e00f5100cf
:1019b000fcff3a000000060015c0b3000100200043
:1019c000e4dd2000006f8800116f8800054a780070
:1019d00000000600e4dd20008042eb0094cf1200fe
:1019e00002003a0010002000f3ff0700006f8000a3
:1019f000116f8000d2e62400631c2400ad090700ab
:101a000094032300050020000002420081824a0066
:101a1000046f8800156f88000500780000f0a100b1
:101a20000000060000000600000278008042eb0083
:101a3000b4cf1200fdff3a000080ea00000042002f
:101a4000000006000c00fa00889fbe00f4ff27008b
:101a500000047800d4bf9f008004eb0088bf9f0083
:101a600099bf9f00a8bf9f00240c200078815700d9
:101a7000b4bf9f00cfb0970070805700c40007002c
:101a80000fba9700094a78000fba97000800520071
:101a90004f04be000080fa0000000600d4c6b30068
:101aa0000800fa00889fbe000084fb008a9fbe00e9
:101ab000844f500034003600e9c220004b0620005d
:101ac000110009000b84d800720040004300dd00c3
:101ad00000804400810578006022b80006002000e4
:101ae00007fe2300aa0020005001be004000be00f7
:101af000e90807000002be00110009008a85d8002d
:101b000080057800e9854500c35ddd008b854400d4
:101b10000203be0084bf9f0095bf9f00a6bf9f0029
:101b2000b7bf9f003b02be002b03be000fb897005b
:101b30009fb897002fb99700bfb99700d608070044
:101b40000002be00110009000a84d80001047800d8
:101b50004344dd00888444000203be0084bf9f002c
:101b600095bf9f00a6bf9f00b7bf9f003902be0070
:101b70002903be000fb897009fb897002fb99700b0
:101b8000bfb997001d003700ea4f50001300360020
:101b9000aa002000e9c22000110009000a84d80030
:101ba00001057800690440004355dd004344dd0031
:101bb000088444008a8444006022b80006002000a3
:101bc00007fe23003800be002801be00b20807004f
:101bd0003902be002903be0008003700e4c220001d
:101be0004344dd00080442006022b80006002000e3
:101bf00007fe23003800be002801be00a60807002b
:101c00004f05be004f04be000080fa000000060031
:101c1000d4c6b3000800fa00889fbe008a9fbe00a9
:101c2000e04f500022003d000040ea000004fb00ad
:101c3000844f50000a00340044062000a900200010
:101c4000110009000404d800eac2200011000900b4
:101c50008900d800e9004000c308dd0020003700fb
:101c6000ea4f50000f003400a400200011000900ca
:101c70000404d800e4c22000690040004300dd00f5
:101c800000004200430cdd00080242005001be008b
:101c90004000be005403be004402be007e080700a0
:101ca000370037004344dd00e4c220003100370034
:101cb0000004fb00844f5000230034004406200041
:101cc000a9002000110009000404d800eab7200090
:101cd000110009008900d800e9004000c308dd00b8
:101ce000810045008b0920008a8545003102be0035
:101cf0002103be003b00be002b01be0066080700aa
:101d00000002be00110009000904d8000104780097
:101d10004344dd00080545000203be0084bf9f0068
:101d200095bf9f00a6bf9f00b7bf9f003a02be00ad
:101d30002a03be000fb897009fb897002fb99700ed
:101d4000bfb99700d5ff3700ea4f500007003400b5
:101d5000a4002000110009000404d800e4b720000a
:101d6000690040004300dd00c5ff37004344dd004b
:101d7000e4b72000080442003800be002801be007d
:101d80004f05be004f04be000080fa0000000600b0
:101d9000ef05b000889fbe008a9fbe008c9fbe00ea
:101da000000678008e1f78000007eb00e19f9f007f
:101db00082af9f006000b8006011b80080a79f004c
:101dc00091a79f00a2a79f00b3a79f00db05370044
:101dd000ef98970054c2b3008100e800e19f9f0094
:101de000844f500006003a00010378008006eb00a3
:101df00007c3b30000c2b300b1c2b3000e00370086
:101e00003c0290000404b200040032001c0278007e
:101e1000004a7800040ee800050037000000fb00cf
:101e20008c007800d1050700e10f4000c3053200a7
:101e30000e07e800c105370006027800d2c2b300e1
:101e4000b642780082cf52000900320005003c0003
:101e500080cf52000800320081cf52000c003a00bf
:101e60000700370087cf520009003a00060037000c
:101e70000d30a000f0ff37000d00a000eeff37008e
:101e80000d10a000ecff37000d20a000eaff370086
:101e900062836600010032000d00a10068836600c5
:101ea000010032000d20a1000503fb000603b10074
:101eb000e90f53000e003e008001eb008402780021
:101ec000830378003502fb006a3bb9000403b100cc
:101ed000860342001503fb00050278000603b100eb
:101ee000e90f5300f7ff360097b79f000a0037004d
:101ef0000003eb0096b79f00a6c2b30086cf520046
:101f000005003a008fab97000402e8004700780014
:101f100087af9f0090b79f00e5c2b30094cf120037
:101f200018003a000de0a000e4c25200d4cf120025
:101f3000040032008000eb00840278008103780006
:101f4000090037000fa997000402e800c2017800d9
:101f500082af9f00d3af9f00c6c6b3000d0037000d
:101f60006a38b90080034300050278003503fb009e
:101f70000603b100e90f5300f9ff3600d7af9f0009
:101f8000f5ff37008002eb000dc0a000d5af9f0029
:101f9000f1ff370084037800b74278000702780029
:101fa00086cf52002d003200e79f9f00c4c6b300c9
:101fb00084cf520014003c006842520084cf52008b
:101fc0002400320009003c006c42520084cf5200d1
:101fd0002f0032006b42420084cf52009a00320040
:101fe000e0cf52005a053200b800370064c6b30093
:101ff00084cf5200200032006342420084cf52005e
:10200000b2003a001300370034c7b30084cf520047
:102010002300320007003c006442520084cf52008b
:10202000180032000442e80084cf5200a7003a00b2
:102030001700370054c7b30084cf5200a800320005
:102040006342420084cf5200a0003a00e5579f004f
:1020500011003700e5579f00a3003700f0836600aa
:102060000501200001003200050028008d82720069
:1020700085067800c7ff3700e5579f000da0a00038
:1020800099003700e5579f000d60a00096003700cb
:10209000e5579f000d50a0000d70a0009200370082
:1020a0000fab9700e5579f004602780086af9f0070
:1020b00004047800e00f520001003a0008d020002c
:1020c000880278000002eb00010037000402e800fb
:1020d00065437a00e04f5300fcff3a008404780027
:1020e000dfab9700e08f530003003200898f53006d
:1020f00001003100870478000002eb001fb0970058
:10210000890f50000100360009025000e886660081
:10211000ddaf9f008d007800e08f50002d003a0069
:102120008406780004c2b30010003700bc0290009f
:102130000504b200040032009c027800844a780052
:10214000050ee8000700370084bf9f008c00780070
:1021500000022000050507000fba9700e10f4000bc
:10216000010032000e07e8008d06e900e08f5600fe
:10217000eeff3a000082eb0016003700bc02900030
:102180000504b20009003200880278009c03780040
:1021900035437800864b780005047800070ee80088
:1021a000e04f53000a003a000a0037008802780026
:1021b0008c0078003500fb0084bf9f000504780088
:1021c000ea0407000fba9700e10f40000100320057
:1021d0000e07e800890278008504e900e08f5200cc
:1021e000e6ff3a005fa99700e00f5100d3043200e8
:1021f0008406780004c2b30010003700bc029000cf
:102200000504b200040032009c027800844a780081
:10221000050ee8000700370084bf9f008c0078009f
:1022200000022000d10407000fba9700e10f400020
:10223000010032000e07e8008d06e900e08f56002d
:10224000eeff3a00bd0437008fa99700f0826600c8
:102250004302780083af9f0004007800cf80de0047
:10226000010178008201780090af9f00a1af9f002c
:10227000b2af9f00c3af9f004800de00480add00f8
:1022800000007200e0579f00e08f5200090032000a
:10229000e04f500007003200e14f400005003200df
:1022a000afd29700f0579f00855f9f002900200064
:1022b000030037002fd3970019002000f6579f0026
:1022c00078f92f000f04440085ff3700e5579f0081
:1022d00068f92f000f0444001900200080ff370028
:1022e000e5579f000d0cb3000470200004826600c7
:1022f0006502320004002100048266000200320000
:1023000067002000d7af9f0070826600090032008e
:102310000faa97004401be004400be0084af9f0096
:1023200090af9f00a1af9f00b2af9f00c3af9f00cf
:102330000a0037008faa97004500be0085af9f00b6
:102340003d0607000002be000203be0094af9f00de
:10235000a5af9f00b6af9f00c7af9f006022b80037
:102360006033b8001fa89700afa897003fa9970057
:10237000cfa9970082050700e00f50000a003d003a
:102380001fa89700afa897003fa99700cfa9970073
:1023900003f0a20090af9f00a1af9f00b2af9f00db
:1023a000c3af9f003d00b3000002eb001fa89700e1
:1023b000afa897003fa99700cfa99700d48f9f009f
:1023c0006022b8006033b800d1050700e00f50006c
:1023d00034003200a4f92f000f0242001fa897001a
:1023e000afa897003fa99700cfa997008d060700d7
:1023f0005f889700a40020000000e9006300b90096
:10240000110009000400d800d08f9f00e00f500099
:1024100002003d000000e900d08f9f005f8c970014
:102420000840ea00fafd07001faa9700afaa97002c
:102430003fab9700cfab9700970607000002be00a6
:102440000203be0084a79f0095a79f00a6a79f0038
:10245000b7a79f006022b8000600200007ff2300f6
:1024600047050700e00f500002003d000804e900a6
:102470000b0037006022b80006002000470224004d
:102480000fa097009fa097002fa19700bfa19700d2
:1024900040050700e00f5000020035000804e80086
:1024a000d88f9f00dfaa9700f88f52000f003c00e2
:1024b0000540780079fd07000002be000203be005f
:1024c0001fa89700afa897003fa99700cfa9970032
:1024d000ae0407000002be000203be0094af9f00de
:1024e000a5af9f00b6af9f00c7af9f005f8c97005e
:1024f000e90f540015003c006022b8006033b800ba
:102500001fa89700afa897003fa99700cfa99700f1
:102510007f050700e00f5000320032001fa897002f
:10252000afa897003fa99700cfa99700e105070042
:10253000e00f5000e08f5800e00f5900e08f590085
:1025400028003a00e10f5400260034000400200067
:1025500005002e00b6e02200170124000fa097000e
:102560009fa097002fa19700bfa197000405070027
:10257000e00f500002003d007304540001003700da
:1025800072045400d88f9f002f589700a0fd0700b9
:102590000002be000203be001fa89700afa897006c
:1025a0003fa99700cfa9970084a79f0095a79f00f8
:1025b000a6a79f00b7a79f00fb040700bd05070063
:1025c0000205be000004be006000b8006011b80043
:1025d00090af9f00a1af9f00b2af9f00c3af9f001d
:1025e000170037001fa89700afa897003fa99700d2
:1025f000cfa99700af0507000205be000004be008a
:10260000dd0507000002be000203be001fa8970000
:10261000afa897003fa99700cfa99700930607009e
:102620000002be000203be0094af9f00a5af9f0052
:10263000b6af9f00c7af9f000002eb00d48f9f0092
:1026400001d1200010c0b300080037003102be00e5
:102650003103be000440e10005c8e10006d0e100fe
:1026600007d8e100030039000040e800f44f5000b3
:10267000f6ff3a009fb29700e0579f005f8a9700ed
:102680005fab9700048252000000fb00060252007c
:102690000000520090b79f00e00f5300020032008c
:1026a0000000e90090b79f006382660003003200db
:1026b0009fb397008703e90097b79f006482660085
:1026c0004500320062826600e1826600e00f52003f
:1026d000110032003c0290000404b20008003200f5
:1026e0001c037800b4c2b300e08f52000100320036
:1026f00004c2e800044b7800060ee800150037001d
:10270000b0022000e08f5200010032000080e8009b
:102710008c0078000c003700e08f5200200032005f
:102720003c0290000404b200050032009c027800d4
:1027300004c2b300844a7800050ee80005003700a3
:102740008c0078000002200088030700e10f4000a1
:10275000130032000e07e800110037003c02900021
:102760000404b200040032001c027800054a78001c
:10277000040ee80007003700f5b79f008c007800d2
:102780000003200079030700ffb29700e10f40002b
:10279000010032000e07e8008904e9000600370056
:1027a000c8a79f00d9a79f00eaa79f00fba79f008b
:1027b0009fb4970005c3b300e08f5400e7ff3c00cf
:1027c00099b79f004fa49700dfa497006fa59700cb
:1027d000ffa597006e003700688266001f003a0070
:1027e000110037003c0290000404b20004003200e3
:1027f0001c027800054a7800040ee8000700370044
:10280000f5b79f008c0078000002200057030700f6
:10281000ffb29700e10f4000010032000e07e80010
:102820008904e90006003700c8a79f00d9a79f00c8
:10283000eaa79f00fba79f009fb4970005c2b300c3
:10284000e08f5400e7ff3c0099b79f004fa497002a
:10285000dfa497006fa59700ffa59700628266002e
:10286000e1826600e00f5200110032003c0290004d
:102870000404b200080032001c037800b4c2b300a4
:10288000e08f52000100320004c2e800044b7800df
:10289000060ee8003d003700b0022000e08f520035
:1028a000010032000080e8008c007800340037001e
:1028b000e08f5200360032003c0290000404b20067
:1028c000050032009c02780004c2b300844a7800fc
:1028d000050ee8002d0037008c0078000002200073
:1028e000270037003c0290008502fb000404b20080
:1028f0001300320082d02000c32add00850241008f
:102900009c0078005503be004502be00c1a79f0091
:102910000800be000a01be0097060700a4002000c0
:10292000050020006033b8009a0607004fa2970008
:1029300005c3b300054a4000040ee8001300370049
:1029400086d02000c32add00850243000800be00b7
:102950000a01be005503be004502be008606070000
:10296000a4002000050020006033b800890607009d
:102970008c0078000403200000024200040078006c
:10298000fa020700e10f4000010032000e07e800e4
:102990006f5297008442e900e5579f00e04f5200d4
:1029a000d0ff3a00110037003c0290000404b2004e
:1029b000040032001c027800084a7800040ee80087
:1029c000050037008c00780000032000e7020700b4
:1029d000e10f4000010032000e07e8005f8a970017
:1029e0000402e900d48f9f000100370008c3b30040
:1029f0005f8a9700e00f5200ebff3c00dfab9700cf
:102a0000f28f53000300340024c1b300e4579f0049
:102a1000020037002fd89700e0579f006f529700b1
:102a2000dfa897008402fb0085825000c5a79f00a5
:102a3000e04f52000e0032003c0290000404b2004d
:102a4000050032001c027800e5c2b300054a780098
:102a5000040ee800050037008c007800e00220003a
:102a6000c2020700e10f4000010032000e07e8003b
:102a70006f50970066fc07000002be000203be0014
:102a80001fa89700afa897003fa99700cfa997006c
:102a90000105070087040700350037003c0290005d
:102aa0008502fb000404b2001300320083d0200032
:102ab000c32add00858241001c0178005503be0059
:102ac0004502be00d2af9f000800be000a01be0052
:102ad00029060700a4002000050020006033b8008c
:102ae0002c0607005faa970005c3b300054a400003
:102af000040ee8001300370086d02000c32add0052
:102b0000850243000800be000a01be005503be0056
:102b10004502be0018060700a400200005002000a2
:102b20006033b8001b0607008c0078000403200007
:102b300000024200040078008c020700e10f400010
:102b4000010032000e07e800ef53970080d020000c
:102b50000702fb004322dd00040240000800be0023
:102b60000a01be005403be004402be00090607006d
:102b70006f5297000205be000004be008442e900c7
:102b8000e5579f00e04f5200c4ff3a0011003700a4
:102b9000bc0290000504b200040032009c027800e0
:102ba000844a7800050ee8000700370084bf9f00c4
:102bb0008c007800000320006c0207000fba970019
:102bc000e10f4000010032000e07e8008904e9002f
:102bd00006003700cfa49700d0af9f00e1af9f0061
:102be000f2af9f0083b79f0004c3b300e08f54008f
:102bf000e7ff3a005fac9700efac97007fad97001e
:102c00008fb59700e88666004c0232009fb09700af
:102c1000e08f5000490234000802be000a03be00e3
:102c20000dc2b300810478003c0090000004b200a3
:102c3000040032001c0078000d487800000ee80007
:102c40000d00370084bf9f00f5b79f00d6b79f00e7
:102c5000e7b79f008c0078000002200043020700c5
:102c60000fba9700ffb297005fb39700efb39700da
:102c7000e10f4000010032000e07e8008904e9007e
:102c8000e9ff3a002d0237008d027800050cb200f2
:102c90002a003a00e08f560005003d000fa997007a
:102ca0004205be004204be0082af9f0016003700fe
:102cb000708266000e0032000fab97004602be0025
:102cc000c4979f00d5979f0086af9f001602900083
:102cd0004fa2de00e4979f00f4979f004f94970067
:102ce000df9497006f959700ff95970006003700d7
:102cf0000fa897004004780080af9f00cfc4de008b
:102d0000090578008a057800e00f5400e08f5c0028
:102d1000e00f5d00e08f5d0023003d006022b80001
:102d20006033b8003d00b3000804520089845a00a3
:102d30000a055b008b855b001b003700e08f5600a7
:102d400005003d008fa897004105be004104be006c
:102d500081af9f0014003700f08266000c00320043
:102d60008faa97004501be00a4979f0082979f00fd
:102d700093979f00b4979f0085af9f000f94970093
:102d80009f9497002f959700bf95970006003700f6
:102d90008fab97004704780087af9f0009002000a1
:102da0000a0020000b0020005fa89700e00f5000f1
:102db00009003a0011002000d1af9f00e00f54003d
:102dc000e08f5c00e00f5d00e08f5d0002003200ec
:102dd0000001eb00d2af9f008d01780004042000b9
:102de000030cb20093af9f00848f51002c0032007f
:102df00003003c00e08f5100080032003c00370027
:102e0000040820009faa9700848f5200100032000f
:102e1000040c2000848f520035003a0005d12000b8
:102e200014c0b3003500be003501be000040e10013
:102e300001c8e10002d0e10003d8e1002b00390015
:102e40000442e800f44f5200f6ff3a002700370032
:102e500014c0b30000012000010020006011b80080
:102e60000040e10001c8e10002d0e10003d8e10028
:102e70001e003900460020000000d0008180d200f2
:102e80000281d2008381d2000603e900faff3a00f2
:102e90000442e800f04f5200f1ff3a0013003700ff
:102ea00014c0b30080002000010020006011b800b1
:102eb0000040e10001c8e10002d0e10003d8e100d8
:102ec0000a003900370020000000d0008180d200c5
:102ed0000281d2008381d2008703e900faff3a0021
:102ee0000442e800f54f5200f1ff3a00e4579f001a
:102ef0006f509700dfa897000002fb00810f52007f
:102f000002003d00e1579f00040037005fa99700d1
:102f1000840f510001003d00d4af9f009fb1970086
:102f2000e08f51000400320063826600020032002c
:102f30008301e90093b79f00040024000482660027
:102f4000090032001fb29700dfaa9700850f5200d8
:102f5000030034000502520094b79f0002003700be
:102f60000003eb0096b79f00ef5397000000eb00c3
:102f70000702fb00c0a79f009fb09700848f5000fe
:102f80000200340004825000c4a79f0064826600df
:102f900045003200e282660061826600e08f5200e6
:102fa00011003200bc0290000504b200080032009b
:102fb0009c027800b6c2b300e00f5200010032005c
:102fc00006c3e800864a7800050ee80015003700c1
:102fd000b0022000e00f5200010032000080e80043
:102fe0008c0078000c003700e00f52000e00320019
:102ff0003c0290000404b200050032001c0278007c
:1030000005c2b300054a7800040ee8000500370049
:103010008c0078000002200054010700e10f4000fe
:10302000010032000e07e8004fa19700e00f5100a9
:103030006300320098b79f00a9b79f00bab79f00fe
:10304000cbb79f00cfa4970004c3b300bc0290008d
:103050000504b200040032009c027800844a780023
:10306000050ee8000700370084bf9f008c00780041
:10307000000320003d0107000fba9700e10f400058
:10308000010032000e07e8008904e900efff3a0072
:10309000c9a79f001fb49700afb497003fb5970032
:1030a000cfb5970046003700cfa09700e08f5000c3
:1030b0001e003200688266001c003a0098b79f002c
:1030c000a9b79f00bab79f00cbb79f00cfa49700c6
:1030d00004c2b300bc0290000504b2000400320038
:1030e0009c027800844a7800050ee800070037004b
:1030f00084bf9f008c007800000220001b010700a5
:103100000fba9700e10f4000010032000e07e800ff
:103110008904e900efff3a00c9a79f001fb4970098
:10312000afb497003fb59700cfb59700e282660035
:1031300061826600e08f520011003200bc029000f4
:103140000504b200080032009c027800b6c2b30049
:10315000e00f52000100320006c3e800864a780002
:10316000050ee80015003700b0022000e00f520005
:10317000010032000080e8008c0078000c0037006d
:10318000e00f52000e0032003c0290000404b20036
:10319000050032001c02780005c2b300054a780021
:1031a000040ee800050037008c00780000022000c3
:1031b000ee000700e10f4000010032000e07e800ba
:1031c000dfa8970085d020000102e90098b79f0092
:1031d000a9b79f00bab79f00cbb79f004221dd007f
:1031e0006323b900929f9f004322dd00860178008f
:1031f00085024200839f9f00f59f9f0070826600ba
:103200008d027800f48f9f000502b200e58f9f00c9
:10321000a3003700dfa897001fa997008100e900ed
:1032200003042000d1af9f00830f510073003200d0
:1032300003003c00e00f5100080032007e00370020
:10324000040820009faa9700848f52005600320085
:10325000040c2000848f520077003a00e08f560063
:103260001f003d007f9b97001fb09700afb09700f5
:103270003fb19700cfb197003604be002605be00cf
:103280000802be000a03be003b0407000802be009d
:103290000a03be00e0579f000000fb00cf80de0065
:1032a00001017800820178009c0407001fb297009a
:1032b000afb297003fb39700cfb397000002520020
:1032c00081825a0002035b0083835b0094b79f00f6
:1032d000a5b79f00b6b79f00c7b79f002e00370065
:1032e000ff8a9700e08f5200220032007f9b9700f8
:1032f0001fb29700afb297003604be002605be008d
:103300000400be0084bf9f00f5b79f000801be0007
:10331000580307000801be00e0579f000000fb00b3
:10332000cf80de00630307000fba9700ffb297005b
:103330000001520081815a000002eb00a29f9f0011
:10334000b39f9f00d49f9f008001eb00c39f9f000d
:103350002f989700bf9897004f999700df99970093
:1033600090b79f00a1b79f00b2b79f00c3b79f005f
:1033700009003700ff9897001fb1970011027800ed
:10338000110009000481d800a400200011000900e8
:103390000480d800e1579f00ef5197000343b0002d
:1033a000e3579f0024003700f4ce2000ef8a9700f7
:1033b000e08f520001003200e4cd20001fb09700e2
:1033c000afb097003fb19700cfb197001f9b970018
:1033d0000603e900050033008301d1000281d30018
:1033e0008180d3000080d300f9ff37006f006000b8
:1033f00064407800e0579f000f0037001fb297002d
:10340000afb297003fb39700cfb397000f989700e4
:103410000000e900050033008703d1000683d300d4
:103420008582d3000482d300f9ff3700674262002f
:103430000443b000e4579f003c0290000404b20033
:10344000070032009c0278006f529700844a78008f
:10345000050ee800e04f520007003a000700370071
:10346000ef5097000100fb008c0078003f00070040
:10347000e10f4000010032000e07e8001f9997009d
:103480008f9997007f9a970064015100e381510062
:1034900068025200929f9f00839f9f00f49f9f00ad
:1034a000dfaa9700e08f52005aff3a001fb497003e
:1034b000afb497003fb59700cfb59700e886660098
:1034c0001e0032004fa39700e00f53001b00340092
:1034d0000802be000a03be00cfa497000dc2b300cd
:1034e0003c0090000004b200040032001c00780090
:1034f0000d487800000ee8000d00370084bf9f00e3
:10350000f5b79f00d6b79f00e7b79f008c00780003
:1035100000022000150007000fba9700ffb29700c5
:103520005fb39700efb39700e10f40000100320056
:103530000e07e8008904e900e9ff3a00ef9b9700d5
:1035400017407800e0579f00e04f500020fa3a0003
:103550000e0078004f0778004f06be004f05be00f2
:103560004f04be00ef05b10000000600889fbe00ba
:10357000010478008084eb0038029000e2026200cf
:103580003b00320004037800980290000620b2004d
:1035900002003a00e08f520035003a000490a0008b
:1035a0008004780034049800f90fb200e08f5200d4
:1035b00002003a00a8029000050c7800ea8f54003f
:1035c00005003a000408b20003003a0088007800c1
:1035d000d0002000e5ff070018029000d8029000fc
:1035e000850f52000b0032000402e80015c0b30042
:1035f0001404980018027800094a7800040ce800c6
:1036000044de2000054a7800ea8f540018003a0092
:10361000050037000940780088007800170007008f
:103620008004780012003700380290000410b200c5
:103630000f00320018019000a80090004800900090
:103640004ff4070018029000840f5000040032006d
:10365000380290000403b300340498008084eb0027
:103660000002eb001404980028029000040c78007b
:10367000090078004f04be00000006000200fa00b6
:10368000889fbe0001047800a0ff9f0038029000d0
:10369000840278000504b200020032000000fb0042
:1036a00035003700e202620005003a000403b3006f
:1036b00015049800340498000080eb002e003700b9
:1036c000d8049000e08f540006003a001200200059
:1036d000e68057004800900029f40700190498007c
:1036e00023003700a8029000e08f520008003a0043
:1036f00075de20000430a00025049800050c780039
:103700003404980025002000550498001504980002
:1037100018019000a80090004800900018f40700dd
:10372000280290008082eb0015049800affa970001
:10373000054a7800040ce8002ffa9700ea4f52007f
:103740000b003a00380290000410b200080032006a
:1037500018019000a80090004800900008f40700ad
:103760000002eb00a802900014049800050c7800f9
:103770002ffa97000400fb004f04be000080fa00ff
:103780000000060000c0da00000006002800fa0071
:10379000889fbe008a9fbe008c9fbe0007067800ef
:1037a000878669000c003b000304780087047800da
:1037b00008f0a10009f0a100840f5000858f580087
:1037c000860f5900890f5c00030033000cf0a20043
:1037d00001003a000cf0a100fe0007006400e100c7
:1037e0005f003200780147006408e10061003200a8
:1037f0006c014700748557003200be001201be0004
:103800003a04be001a05be001e039000be0a9000d6
:103810008503530006003d000004fd008104fd0007
:103820000205fd008305fd008703ea00050378001b
:103830000df8a3000400320060041400e0841c00b2
:1038400060051d00e0851d006022b8007d0320009a
:103850000d38e1008006eb000b0039004433dd0039
:10386000f300b200830173003900370084827200d4
:103870000d027800e10664008b85d1000a85d30033
:103880008984d3000884d3008703e900f7ff3b0055
:1038900008004000898048000a0149008b814900e6
:1038a00004003b0060001000e08018006001190077
:1038b000e08119000358a300090032008d827200d4
:1038c00084827200610260008301d1000281d30012
:1038d0008180d3000080d3000603e8001b0037007e
:1038e0000348a30017003a000600e0001700340068
:1038f0000603e9000d00a300000048008180480095
:1039000002014900838149000348a3000f003a00e7
:103910000600e000090034000603e9000000400052
:1039200081804800020149008381490001003a007a
:103930000003eb000348a300f5ff32006022b8004b
:103940000200370084827200618266007500070001
:1039500003f0a1000cf0a70003f0a000b1003700b5
:10396000640147006408e10002003a000df8a3007a
:10397000a9003a003200be001201be00a9003700c3
:103980008f1fd1000e0307008f87e9000000e000c1
:1039900000000600809feb00090307008f87e90005
:1039a0000000e000000006002800fa00889fbe002a
:1039b0008a9fbe008c9fbe0003866b0085000700b7
:1039c0006400e100440032006408e1004a00320073
:1039d0006100e100460032006108e1004900320068
:1039e000ec0647006000b8003d02be003d03be008b
:1039f000f48657006011b8003d04be003d05be00ce
:103a00007d0320000b0037000000a0008d06e900b8
:103a1000130032000402420085824a0006034b0074
:103a200087834b000000400081804800020149006c
:103a3000838149000802520089825a000a035b0010
:103a40008b835b00f0ff3b000802420089824a0042
:103a50000a034b008b834b008d06e900edff3a0013
:103a60008482720086827200f707b2008782720039
:103a700001003200150020001e0490003e0b900053
:103a800006035400e63fb0000368a30007003200bd
:103a90000000a7000500a0008301d1000281d3002f
:103aa0008180d3000080d3000603e8008301d100a9
:103ab0000281d3008180d3000080d3000002eb009c
:103ac0000482d2001700070003f0a1000cf0a70049
:103ad00003f0a00053003700640247006408e100cf
:103ae0004d0032003400be003401be00f6ff370046
:103af0006108e100480032006011b8006000b800c1
:103b0000f1ff370003ff270002002000fbff370012
:103b1000801feb00aa0207008f87e9000000e00089
:103b20000000060018002000570020000804530081
:103b30000d003d000600200097fc2f000740e1002b
:103b40001e00340084827200610260008301d10093
:103b50000281d3008180d3000080d3000804e800f4
:103b6000f8ff3a004700200061046000050474007b
:103b7000040464000d00320061004000e080480051
:103b800060014900e081490003b8a5000700320048
:103b90000603e8006538e10004003a008301d10023
:103ba0000281d3008180d3000080d300f87f200001
:103bb0000830e10003003500080378006000b80019
:103bc0006011b8004433dd00f300b20083017300dc
:103bd00000000600680447000294be000094be0086
:103be000fc0447008694be008494be00090078005f
:103bf000bc02070008007800ba02070099007800ac
:103c0000814f70000b003b000800be0095020700ca
:103c10004f00b10003003700f3ff2700f2ff2f0031
:103c20006110b9004f06be004f05be004f04be0034
:103c30000080fa000000060081037800b1f407005c
:103c40000001be006000b8000478a30013003a0031
:103c50006220e10015003e000d0039008301d10013
:103c60000281d3008180d3008301d1000281d3007f
:103c70008180d3008301d1000281d3008180d300f1
:103c80000538b000c42add00f300b2008381720061
:103c900007f0a70003f0a00000000600f3ff2700d4
:103ca000f2ff2f006110b900fbff370003ff270070
:103cb000f7ff37001400fa00889fbe008a9fbe00fd
:103cc0008c9fbe000004be000205be0068004700d5
:103cd0000a90be000890be00820207000070a70094
:103ce0000bf0a1000bf8a30020003a009e09900001
:103cf0000e099000fe0090006e0090009e02900061
:103d00003443200084825200c6ff32000a003c0087
:103d1000b4fc2f000428e100140034008301d1001a
:103d20000281d3008180d3000080d3008502e800a7
:103d3000faff3a00bbff3700b40020000428e1007e
:103d400007003c000000400081804800020149005b
:103d5000838149008502e900faff3a00b1ff37008c
:103d60000300280002002000010037006011b800a5
:103d70006000b800abff3700889fbe000082700073
:103d800004027100048271002400320036432000d6
:103d9000c50020008383cf000a0039000541b1002f
:103da0008283cf00070039000541b1008183cf0035
:103db000040039000541b1008083cf0001003900c3
:103dc0000541b10085c353006022b80012003200e3
:103dd0000a003b0084827200610260008301d1000e
:103de0000281d3008180d3000080d3000603e80065
:103df0008743e800f7ff3a00070037000000400063
:103e00008180480002014900838149000603e900de
:103e10008743e900f9ff3a0042ff07004f04be0064
:103e2000000006001400fa00889fbe008a9fbe00b2
:103e30008c9fbe00040678000004be000205be0090
:103e4000680047000a90be000890be0025020700e7
:103e50006200e1000800be000a01be00040020006c
:103e60000b003a001e029000e43fb1006e0090008b
:103e7000fe0090000e0990009e099000f300b20031
:103e800005fe2300858171000bf0a70003f0a00060
:103e9000040e780063ff37002800fa00889fbe00f8
:103ea0008a9fbe008c9fbe0003866b0049ff0700ff
:103eb0000028a30064003a000128a30067003a002c
:103ec0000008a30062003a000108a30065003a0060
:103ed0001e009000be08900081064000ed3fb1003a
:103ee000f4805700ee019000111ab8008e0990007e
:103ef000311bb8009e099000311cb800511db8005c
:103f0000f485570046000700fe0190003a000700c4
:103f10008b85e8003e0007008e09900040000700f6
:103f2000ee019000340007008b85e80038000700a0
:103f30008e099000400007009e0990001b18b800f1
:103f4000890440000a854800fe0190003400070003
:103f50008b85e80038000700ee0190003000070074
:103f60008e0990001b18b800890440000a8548009b
:103f70000a98a30008003a000402420085824a0021
:103f800006034b0087834b0008044c0089844c00d7
:103f90000a054d008d06e9008482720085027300d7
:103fa0004c3add008502720001003200150020004d
:103fb000443ade001400b2004538de00cb45dd0097
:103fc0000b007000c540de00cb4ddd008b80700023
:103fd0004549de00cb55dd000b017100c551de0007
:103fe0000d037800cffe070003f0a1000cf0a7003e
:103ff00003f0a0000bff37001b18b800850240003b
:1040000006834800e0834b0060044c000700370043
:104010001b18b8000603400087834800faff3700ea
:104020001b18b8008703400008844800e0844c0057
:1040300060054d00000006001b18b8000804400091
:1040400089844800faff37000108a300f2fe3a0015
:104050005800be005801be00e3ff37000008a3006f
:10406000edfe3a0009047800f9ff370007f0a200de
:10407000c6fd37006022b800060220000000d00014
:104080008180d2000482d2008582d2000000a0008c
:104090000202520083825a000300310002024200f1
:1040a00083824a000000a1000603e900f3ff3a0002
:1040b00000000600020ab900001bb9000200b800a7
:1040c000810042008100430000000600889fbe007e
:1040d0008a9fbe003004be002005be0004044400d8
:1040e00085844c0006054d0087854d000898be006c
:1040f0000a90be000440e10005c8e10006d0e100de
:1041000007d8e10002003100680040001008e80014
:104110004f05be004f04be00000006001000fa006c
:10412000889fbe008a9fbe00110020000605be00c9
:104130000404be003002be002003be00c4b79f00ce
:10414000d5b79f00e6b79f00f7b79f00080252005f
:1041500089825a000a035b008b835b0084bf9f0047
:1041600095bf9f00a6bf9f00b7bf9f000498be00e9
:104170000698be004fb29700dfb297006fb397006a
:10418000ffb397000820e10009a8e1000ab0e100b0
:104190000bb8e100010039008000eb004f05be00c4
:1041a000108810004f04be000080fa0000000600d6
:1041b0001400fa00889fbe008a9fbe008c9fbe003c
:1041c0000006eb003e000700ccb79f00bcb79f0085
:1041d000acb79f009cb79f008cb79f000605be0040
:1041e0000404be000d0420004fb39700bfb2970037
:1041f000860343002fb29700e00f530004003d00f8
:104200003d0007000f004000b0ff0700030037002b
:10421000390007000f004000c0ff0700cfb2970031
:1042200095bf9f00e08f5200090035002b0007006a
:1042300014002000050020006033b8000000720068
:104240008180720002017300838173001c000700eb
:104250000c06e8008d0f5600e3ff3a001fba9700e6
:10426000e00f520005003d000802be000a03be0038
:1042700000fe2f000f00400094ff07004faa970098
:10428000e00f520008003a000fb497009fb4970067
:104290002fb59700bfb59700d8b79f00e9b79f002b
:1042a000fab79f008bbf9f000c0007004f06be00af
:1042b0004f05be004f04be000080fa00000006005b
:1042c000010007000000060090b79f00a1b79f0003
:1042d000b2b79f00c3b79f000000060001000700af
:1042e000000006001fb09700afb097003fb19700e5
:1042f000cfb19700000006004f2bde00f9ff07004a
:1043000086837300858242004f23de00a7b79f009b
:10431000868272000402420095b79f00ffaa9700b0
:104320004f2bde00858242000602720084b79f0098
:104330006faa97004f23de000402420086827200bb
:10434000f5af9f004f18de0000027200e5ff070086
:10435000e4af9f0000004000818048000201490056
:10436000838149000802be000a03be00d6ff070091
:1043700000fe2f0000000600881f780018002000b3
:10438000881f78008aff07008f87e9004f047800b4
:1043900000000600801feb0085ff07008f87e90003
:1043a00000000600889fbe008a9fbe00e00f5000fc
:1043b000e08f5800e00f5900e08f59000c003d00dd
:1043c0006044b8006055b8000000540081805c0073
:1043d00002015d0083815d001800200015000700c8
:1043e00008003d00180007000004eb00050037003e
:1043f0000004eb000f00070002003d001200070060
:1044000018002000dcff0700e00f54000600320017
:104410006022b8006033b8000000520081805a006a
:1044200002015b0083815b004f05be004f04be00ac
:1044300000000600e00f5200e08f5a00e00f5b0022
:10444000e08f5b00000006006044b8006055b800d3
:104450000402540085825c0006035d0087835d00d2
:1044600000000600889fbe008a9fbe008c1f780057
:10447000e00f5000e08f5800e00f5900e08f590026
:104480000d003d006044b8006055b8001c002000dd
:104490000000540081805c0002015d0083815d00aa
:1044a0000820e10009a8e1000ab0e1000bb8e10032
:1044b0000d003d00080037000006eb00e00f520041
:1044c000e08f5a00e00f5b00e08f5b0006003d00cc
:1044d0006044b8006055b8000402540085825c0056
:1044e00006035d0087835d00aaff0700e00f56000a
:1044f000060032006022b8006033b80000005200ad
:1045000081805a0002015b0083815b004f067800c6
:104510004f05be004f04be0000000600889fbe008d
:104520008a9fbe008c1f78000006eb00e00f500051
:10453000e08f5800e00f5900e08f590007003d0060
:104540006044b8006055b8001c0020000000540012
:1045500081805c0002015d0083815d00e00f5200fc
:10456000e08f5a00e00f5b00e08f5b0007003d002a
:104570006044b8006055b8000c00a200040254006a
:1045800085825c0006035d0087835d007c00070078
:10459000e00f5600060032006022b8006033b80019
:1045a0000000520081805a0002015b0083815b00a1
:1045b0004f0678004f05be004f04be000000060005
:1045c000889fbe008a9fbe008c9fbe000404be0070
:1045d0000605be00809fbe00829fbe002f00070020
:1045e000040678000800be000a01be002b00070088
:1045f000840678004f03be004f02be008d4f760048
:104600007fb0970013003300f0ff2f008b8f6b00fb
:1046100006003b000d0666000c00a7000a003700ec
:1046200007f0a600100020000a003700880f520093
:10463000898f5a008a0f5b008b8f5b000300390063
:104640001000200001003e000000200007f0a7003d
:104650000000ea004f06be004f05be004f04be003a
:1046600000000600e48240001078a300070032003a
:10467000640240001178a3003400be001401be00a3
:10468000040032000330a700000006003500be0021
:104690001501be000330a0000000060005ff270042
:1046a00005826100070032000428e10001003200a9
:1046b000240005000600070001003a004400050040
:1046c0000408050002000700f9ff3a001400050085
:1046d0006f826100810270008502710085027200a4
:1046e00000000600800078005002be005003be00ab
:1046f0004439de00f700b200f37f200003016100bf
:10470000090032000218e10016003a00850172002b
:1047100083017300838173000008200015003a00b4
:1047200040002000130037008501720083017300f0
:104730008381730005003a0004a8be0006a8be00ed
:10474000100020000b0037000201e90004024200c3
:1047500085824a0006034b0087834b000748a3006d
:10476000f9ff32000740a00004a8be0006a8be0062
:1047700020002000800098009200980000000600b1
:10478000889fbe008a9fbe008c9fbe000404b800b4
:104790000506b8008904460060854e000606b8008c
:1047a0000a054600e0854e000706b8008b05460066
:1047b000040eb800890446000a854e00e0854d00cd
:1047c000050eb8000a0546008b854e00060eb8009f
:1047d0008b0546000416b8000a0546008b854e007e
:1047e0000516b8008b054600041eb8008b05460070
:1047f0000800be000a01be004f06be004f05be0005
:084800004f04be000000060099
:020000040000fa
:10480800256c000064000000256c000066000000b4
:020000040000fa
:104818000800fa000002eb00040f78000083200073
:10482800f802070000027800340798000002eb0045
:1048380014079800b30037001e0290007d22b900cb
:1048480004027800e6024200048320000482420049
:10485800144278000482fb000402e9004f22de00c3
:10486800044378001e0290007d22b90004027800fb
:10487800e7024200048320000482420014427800c8
:104888000482fb000402e9004f22de0004427800a3
:10489800044263000483fb001e0290007d22b900dd
:1048a80004027800e80242000483200004824200e7
:1048b800144278000482fb000402e9004f22de0063
:1048c800040363001e0290007d22b90004027800f0
:1048d800e50242000483200004824200144278006a
:1048e8000434a2000482fb000402e9004f22de0027
:1048f80004026300e00f52007f0032001e029000a5
:104908007d22b900840278000483200004824200da
:10491800040078003b0307001e0290007d22b900c6
:1049280004027800e8024200148320000482420056
:104938009442780054c6b30084c26a000582fb0022
:104948000402e9004f22de00844278001e02900033
:104958007d23b90006027800690342001483200011
:104968000402430014437800d4c2b30004426b002d
:104978000482fb000402e9004f22de0004427800b2
:1049880004c262000483fb001e0290007d22b9006d
:1049980004027800ea0242001483200004824200e4
:1049a8009442780004c7b30004c26a000482fb0082
:1049b8000402e9004f22de0004026300e00f520007
:1049c8004d0032000002eb00240798002600370053
:1049d8001e0290007d22b900840278002e02900009
:1049e8008482420004832000048242001443780039
:1049f8001e0278006b22b900840278002e02900013
:104a0800848242002495200004824200064a7800ed
:104a18002e029000670342001e0290007d22b9001a
:104a28000402780006024200e802420014832000d3
:104a38000482420014427800044378001e02780081
:104a48006b22b900840278002e0290008482420012
:104a58008495200004824200064a78002e029000c5
:104a68000402e800240798002e029000e30f520089
:104a7800d7ff34001e0278006b22b9008402780048
:104a8800c4952000848242000042eb00844a7800ea
:104a98004400200024079800130037001e029000ed
:104aa8007d22b900840278002e02900084824200a0
:104ab8000483200004824200144378001e02780018
:104ac8006b22b900840278002e0290008482420092
:104ad8002495200004824200064a78002e029000a5
:104ae8000402e800240798002e029000e50f520007
:104af800eaff34001e0fe8001e0290000402e800de
:104b0800140798009e0290003e029000848f520085
:104b180049ff35001e027800040078000080fa0082
:104b2800000006000400fa00009c2000ed000700c9
:104b380037ff070000027800040f78001e02780093
:104b4800e00f52000c003200849520000400780029
:104b58007301070024952000040078000303070070
:104b68000042780024479800009c20006c01070050
:104b78002e4290000100370034c6b300044078008c
:104b88000080fa00000006002e00fa0024c0b300de
:104b98003447980024c5b3004447980064c2b30062
:104ba800544798000042eb00644798000042eb002d
:104bb8007447980084c7b300044f980034c0b3000a
:104bc800144f980063024700710020000400780029
:104bd800011507000002eb00040f78000042eb000b
:104be800244798001e027800ea0247000482420027
:104bf800040078004615070000027800e00f520014
:104c0800050032006a0247001e0242009442780002
:104c1800254798001e0fe8002e429000e34f5200ef
:104c2800f0ff3a005e4a90000402fb006602420070
:104c38009e0f5200ebff3c006a0247009e024200b2
:104c48000042eb00844a78000002eb00040f780071
:104c5800090037009e02780067824200040247007c
:104c6800244a9000850220008e8242009e824200e3
:104c7800844a78001e0fe8000e5290000402fb00e0
:104c88009e0f5200f3ff3c00840220000e024200f7
:104c98009e0242000042eb00844a78008402200011
:104ca8000e024200040078003ef20700000278007d
:104cb800040078000080fa00000006001600fa00e0
:104cc80024c0b3003447980024c5b3004447980073
:104cd800a4c1b300544798000042eb006447980011
:104ce8000042eb0074479800c4c6b300044f980014
:104cf80034c0b300144f98006302470071002000cd
:104d080004007800b41407000002eb00040f7800d8
:104d18000042eb00244798001e027800eb0247008f
:104d28000482420004007800f914070000027800a9
:104d3800e00f5200050032006b0247001e024200dd
:104d480094427800254798001e0fe8002e429000f4
:104d5800e34f5200f0ff3a006e4a90000402fb0055
:104d6800660242009e0f5200ebff3c006b024700b8
:104d78009e0242000042eb00844a78001e529000d6
:104d8800044078000080fa00000006001600fa00cf
:104d980024c0b3003447980024c5b30044479800a2
:104da80014c1b3005447980014c0b3006447980076
:104db8000042eb007447980044c6b300044f9800c3
:104dc80014c0b300144f980034c0b300244f9800a7
:104dd8006302470081002000040078007e14070069
:104de8000002eb00040f78000042eb002447980013
:104df8001e027800eb02470004824200040078009b
:104e0800c314070000027800e00f520005003200ca
:104e18006b0247001e024200944278002547980022
:104e28001e0fe8002e429000e34f5200f0ff3a00b8
:104e38006e4a90000402fb00660242009e0f520078
:104e4800ebff3c006b0247009e0242000042eb0071
:104e5800844a78001e529000044078000080fa00ce
:104e6800000006000400fa00881f78000de2a9007f
:104e7800de62a900e262a9006022b800048fbe00c9
:104e88000400370014002000050020001e0f420017
:104e98005e974a001e00be00edef07000002be004c
:104ea80018c0b30062662600636624000400be00d2
:104eb800a7ef070000027800e00f5200010035005c
:104ec8000044eb00e04f5400eeff3a00e262a80015
:104ed800de62a800ba1407004f0478000080fa00c8
:104ee800000006002a00fa004017980024c0b3000a
:104ef8003447980024c5b3004447980064c1b30000
:104f0800544798000042eb00644798000042eb00c9
:104f18007447980084c6b300044f980034c0b300a7
:104f2800144f9800630247007100200004007800c5
:104f3800291407000002eb00040f78000042eb0080
:104f480024479800ea0247001e02780004824200c3
:104f5800040078006e14070000027800e00f520089
:104f6800050032006a0247001e024200144278001f
:104f7800244798001e0fe8002e429000e34f52008d
:104f8800f0ff3a005e4a90000482fb00660242008d
:104f98009e0f5200ebff3c006a0247009e0242004f
:104fa8000042eb00844a78000002eb00040f78000e
:104fb800090037001e027800ce1290008482420059
:104fc8001e0378006802430004024700244a900048
:104fd800844a78001e0fe8001e5290000482fb00ed
:104fe8009e0f5200f3ff3c001e027800ce12900084
:104ff800848242000042eb00844a78000e529000fe
:10500800044078000080fa00000006003400fa002e
:10501800101f980024c0b3003447980024c5b3007b
:105028004447980034c0b300544798000042eb004e
:10503800644798000042eb007447980054c5b300d9
:10504800044f980034c0b300144f9800630247001f
:105058007100200004007800df1307000002eb0055
:10506800040f78000042eb00244798001e027800e5
:10507800ea02470004824200040078002414070072
:1050880000027800e00f5200050032006a02470073
:105098001e02420094427800254798001e0fe8003f
:1050a8002e429000e34f5200f0ff3a005e4a900013
:1050b8000402fb00660242009e0f5200ebff3c0018
:1050c8006a0247009e0242000042eb00844a7800d0
:1050d8000002eb00040f7800090037001e02780078
:1050e8009e1a9000848242001e03780068024300e2
:1050f80004024700244a9000844a78001e0fe80002
:105108001e5290000402fb009e0f5200f3ff3c0069
:105118000e529000044078000080fa00000006005b
:105128003000fa00701798007e1090003cf20700db
:10513800000278002407980024c0b3006447980050
:1051480024c5b3007447980074c1b300044f980095
:105158002e029000044278000442e800144f9800a0
:105168000042eb00244f98007e4290008442780071
:105178000e4a900084c242001e4a900004c24200b7
:10518800344f98002e02900004427800444f980053
:105198000002eb00040f7800090037001e027800b7
:1051a800e70242001e0278007e13900004024300ca
:1051b8001442780085024700e44298001e0fe80078
:1051c8002e0290009e027800848f5200f3ff350073
:1051d8002e029000670242008402470034c0b300e8
:1051e800e44298002e029000e8024200660247005e
:1051f8008500780004007800771307000002eb00b0
:10520800040f78000042eb00244798001e02780043
:10521800450220008e824200048242000400780089
:10522800bb13070000027800e00f520006003200ae
:10523800440220000e0242001e02420094427800fe
:10524800254798001e0fe8002e429000e34f5200b9
:10525800eeff3a007e6290000402fb006602420004
:105268009e0f5200e9ff3c00440220000e0242005b
:105278009e0242000042eb00844a78002e6a9000a9
:10528800044078000080fa00000006003a00fa00a6
:10529800401f98004e189000e1f1070000027800c6
:1052a800240798002e0290000402e80024079800c2
:1052b80024c0b3006447980024c5b300744798001d
:1052c80044c0b300044f98002e02900004427800b6
:1052d8000442e800144f98000042eb00244f980065
:1052e8007e429000844278000e4a900084c24200b8
:1052f8001e4a900004c24200344f98002e029000cb
:1053080004427800444f98000002eb00040f780034
:10531800090037001e027800e70242001e027800ea
:105328004e1b900004024300144278008502470097
:10533800e44298001e0fe8002e0290009e027800ba
:10534800848f5200f3ff35002e029000670242005e
:105358008402470034c0b300e44298002e02900053
:10536800e8024200660247008500780004007800e1
:10537800191307000002eb00040f78000042eb004d
:10538800244798001e027800e50220008e82420021
:1053980004824200040078005d13070000027800d0
:1053a800e00f520006003200e40220000e02420024
:1053b8001e02420094427800254798001e0fe8001c
:1053c8002e429000e34f5200eeff3a001e7290000a
:1053d8000402fb00660242009e0f5200e9ff3c00f7
:1053e800e40220000e0242009e0242000042eb004e
:1053f800844a78004e729000044078000080fa00d9
:10540800000006004600fa002027980024c0b300d8
:10541800044f980024c5b300144f98000042eb00d5
:10542800244f980034c0b300344f98000042eb007a
:10543800444f980054c5b300544f980054c0b3006b
:10544800644f9800a4c0b300744f98000042eb006a
:105458000457980034c0b3001457980068024700f6
:10546800a100200004007800db1207000002eb0016
:10547800040f78000002eb00340798003e02900009
:10548800140798000042eb00444798000002eb0024
:10549800140798001e029000f2024700048242009e
:1054a800040078001a13070000027800e00f520089
:1054b80008003200f20247001e02900004824200f7
:1054c80094427800454798001e0290000402e800c4
:1054d800140798004e429000e34f5200edff3a0047
:1054e8005e5290000402fb00e60242001e02900099
:1054f800848f5200e7ff3c00be52900094c6b30070
:1055080084cf52002c003a000002eb0014079800e8
:105518000f0037001e0278007d22b90004027800cf
:10552800ae229000048342001e02900066024200f0
:1055380004024700245290009e0290008502430016
:10554800844a78001e0290000402e80014079800bc
:105558001e029000e50f5200eeff34000002eb003f
:1055680014079800100037001e0278007d22b90049
:1055780004027800ae229000048342001e029000cc
:105588006c02420004024700245290009e029000e0
:1055980085024300e6824200844a78001e02900099
:1055a8000402e800140798001e029000e20f52005f
:1055b800edff34001e0fe800be52900034c4b30063
:1055c80004c26a000482fb000402ea004f22de00e3
:1055d80004427800ce5290008582fb008502ea00e2
:1055e800cf2ade008542780005426200e04f520073
:1055f800a6ff3a001e027800040078000080fa0036
:10560800000006004400fa001027980024c0b300e8
:105618003447980024c5b3004447980024c0b30019
:105628005447980064c0b300644798000042eb00f8
:1056380074479800a4c5b300044f98001e22900038
:1056480014427800144f98001e22900014429000d3
:10565800244f98001e22900024429000344f980056
:105668001e22900034429000444f98001e22900061
:1056780044429000544f98001e22900054429000db
:10568800644f980034c0b300744f98006302470019
:10569800d1002000040078004f1207000002eb0040
:1056a800040f78000042eb00244798001e0278009f
:1056b800f0024700048242000400780094120700b8
:1056c80000027800e00f5200050032007002470027
:1056d8001e02420094427800254798001e0fe800f9
:1056e8002e429000e34f5200f0ff3a003e529000e5
:1056f8000402fb00660242009e0f5200ebff3c00d2
:10570800700247009e0242000042eb00844a780083
:105718006e529000e04f520010003a000002eb0079
:10572800040f7800090037009e0278006e8242005c
:1057380004024700045290009e2290009e8242007c
:10574800e9824200844a78001e0fe8005e5a900001
:105758000402fb009e0f5200f3ff3c006e529000c3
:10576800044078000080fa00000006004600fa00b5
:105778002027980024c0b3003447980024c5b300fc
:1057880044479800a4c0b3005447980084c0b300ad
:10579800644798000042eb007447980044c6b30081
:1057a800044f980014c0b300144f98002e229000a4
:1057b80014427800244f98002e2290000402e8003a
:1057c80014427800344f98002e2290000482e8009a
:1057d80014427800444f98002e2290006302420041
:1057e80014427800544f98002e2290006402420020
:1057f80014427800644f98002e22900065024200ff
:1058080014427800744f980014c0b30004579800ed
:1058180034c0b3001457980063024700f100200019
:1058280004007800ec1107000002eb00040f780078
:105838000042eb00244798000002eb00040f7800b8
:105848001e027800f2024700048242000400780039
:105858002f12070000027800e00f52000500320006
:10586800720247001e0242009442780025479800c1
:105878001e0fe8002e429000e34f5200f0ff3a005e
:105888005e5290000402fb00660242009e0f520026
:10589800ebff3c00ce52900094c6b30084c26a006d
:1058a8000582fb000402ea004f22de0084427800f1
:1058b8004e529000b4c0b2000482fb000402ea0019
:1058c8004f22de000442780004c26200e04f52001a
:1058d800d9ff3a000e5a9000044078000080fa0080
:1058e800000006001600fa0024c0b30034479800f0
:1058f80024c5b30044479800d4c0b3005447980067
:1059080014c0b300644798000042eb007447980045
:1059180004c6b300044f980014c0b300144f980095
:1059280034c0b300244f9800630247008100200070
:1059380004007800a81107000002eb00040f7800ab
:105948000042eb00244798001e027800eb02470053
:105958000482420004007800ed110700000278007c
:10596800e00f5200050032006b0247001e024200a1
:1059780094427800254798001e0fe8002e429000b8
:10598800e34f5200f0ff3a006e4a90000402fb0019
:10599800660242009e0f5200ebff3c006b0247007c
:1059a8009e0242000042eb00844a78005e4a900062
:1059b800d4c0b2000482fb000402e9004f22de00da
:1059c800044278009e5290008582fb008502ea001e
:1059d800cf2ade008542780005426200e04f52007f
:1059e800020032001e529000290037000002eb002e
:1059f800040f78001e027800eb0247000482420080
:105a080004007800c211070000027800e00f52007d
:105a1800050032006b0247001e02420094427800e3
:105a2800254798001e0fe8002e429000e34f5200d1
:105a3800f0ff3a006e4a90000402fb006602420042
:105a48009e0f5200ebff3c00ce4a900094c6b30074
:105a580084c26a000582fb000402ea004f22de00cd
:105a6800844278005e4b900014c5b30004426b007a
:105a78000482fb000402ea004f22de0004427800a0
:105a880004c26200e04f5200d8ff3a001e52900054
:105a9800044078000080fa00000006008a00fa003e
:105aa80030879800014f990024c0b300344798000c
