:020000040000fa
:080000000001040000000000f3
:020000040000fa
:10000800a6010000a6010000a6010000a60100004c
:10001800a6010000a6010000a6010000a60100003c
:10002800a6010000a6010000a6010000a60100002c
:10003800a6010000a6010000d64a0000a6010000a3
:10004800a6010000d6530000bc520000b6300000e4
:10005800a6010000a6010000ac3a0000a6010000bd
:10006800a6010000a6010000a6010000a6010000ec
:10007800a6010000a6010000204e0000a601000015
:10008800125400001c530000a6010000a601000045
:10009800a6010000a6010000a6010000a6010000bc
:1000a800a6010000a6010000a6010000a6010000ac
:1000b800a6010000a6010000a6010000a60100009c
:1000c800a6010000a6010000a6010000a60100008c
:1000d800a6010000a6010000a6010000a60100007c
:1000e800a6010000a6010000a6010000a60100006c
:0800f800a6010000a6010000b2
:020000040000fa
:10010800a6010000a6010000a6010000a60100004b
:10011800a6010000a6010000a6010000a60100003b
:10012800a6010000a6010000a6010000a60100002b
:10013800a6010000a6010000d64a0000a6010000a2
:10014800a6010000d6530000bc520000b6300000e3
:10015800a6010000a6010000ac3a0000a6010000bc
:10016800a6010000a6010000a6010000a6010000eb
:10017800a6010000a6010000204e0000a601000014
:10018800125400001c530000a6010000a601000044
:10019800a6010000a6010000a6010000a6010000bb
:1001a800a6010000a6010000a6010000a6010000ab
:1001b800a6010000a6010000a6010000a60100009b
:1001c800a6010000a6010000a6010000a60100008b
:1001d800a6010000a6010000a6010000a60100007b
:1001e800a6010000a6010000a6010000a60100006b
:0801f800a6010000a6010000b1
:020000040000fa
:100200000f0322000e7f22000e0188000000000074
:10021000000020000000e000020032000001200089
:10022000200288000c00070060e02300010020008d
:1002300011000700000020000000e0000200320072
:10024000000002000000000020500200000000003a
:100250000040da000000fe004440a900c00a20006f
:100260000000e0000300320000002000a001880030
:100270004440a8000000060091018800800078003a
:100280000000eb0015003700e280400032a0b4000f
:100290009101ba00e280400032a0b4009102ba009d
:1002a000e280400032a0b4000002eb00472bde00e9
:1002b000f507b200602ce10004003a000059eb00a1
:1002c0008301e900fdff3e00040037006128e100e2
:1002d000010032000082eb00040007001101ba00a7
:1002e0000200e000e8ff3a00000006003159ba00c1
:1002f0008301e9000c0032002159ba008301e900b2
:10030000080032000400e00003003a00e2804000f0
:1003100032a0b400f5ff370011d9ba008301e9001b
:10032000faff3a008100e800e180400032a0b4000a
:10033000000006001a34040000000000023504002a
:100340000000000038200400000000000040da0037
:100350000000fe00889fbe0080047800e00081005d
:10036000e00f500004003a004b0007000084eb004f
:10037000e00f500008003500e8008100e08f5400d5
:10038000050032000900440043000700e00f500060
:1003900001003d000084eb00080078004f04be001f
:1003a0000000060064108000e00f520006003d00cf
:1003b0000440200075108000050262000200320037
:1003c0000f02ab00feff32000040da00feff3700f4
:1003d00000c0da00000006000a00fa00e20f500038
:1003e00022003e00f4008100e10f520006003200be
:1003f000e7212000a6212000842120006521200083
:10040000e08f530004003a0047212000062120001d
:10041000e4202000c5202000000028001500600016
:1004200003003a00800b780007002800958a7300cb
:10043000054020009482620001003a0014a0a00050
:100440008202780006003700940378000710b2009b
:10045000fdff3200b103fb00070b78008502e900c5
:10046000e08f5200f8ff3a00080037003400200007
:10047000c0bf9f00e2bf9f00b4bf9f00d1bf9f00dd
:100480006a805700d2ff07006fb99700020078001a
:100490000080fa0000000600e00f500004003a005f
:1004a00004022200e4008900000278000600370000
:1004b0000082eb0005032200850f500002003e0081
:1004c000e00089000002eb00040078000000060054
:1004d000839f68000100e00002003d006000100002
:1004e000e08018000300e00002003d006001110000
:1004f000e0811900550107004f00e00002003b00b9
:1005000060001000e0801800000006004f89de0047
:10051000820178005d013700889fbe008a9fbe007f
:100520008c1f78000004be00680107000478a30057
:1005300026003a006120e1002500320009f8a300fe
:1005400025003a006420e10021003200f507b100e7
:100550000508a3000200320000004000818048002e
:100560006044b8000310200002002000000040009a
:10057000818048000805440089854c000a05410037
:100580008b8549000a0550008b8558000300330015
:100590000a00be0002047400838474008301d10049
:1005a0000281d300830f7100f0ff3a008904d1006b
:1005b0000884d3006001490082017800c1adde00eb
:1005c000fb07b00056010700840137000960a00056
:1005d0000800be00810137001202200092f8880056
:1005e000f0ff2f00f1ff27007c013700889fbe003d
:1005f0008a9fbe008c1f78007f0107001002200038
:1006000002003b0090f888006b0137008a0062000e
:100610006408e10002003a0090f888007301370096
:100620006108e100fcff32000800be00030478000e
:10063000c400070001f0a1007701070008f0a60040
:10064000040037000001be0091042400b0fd20002a
:100650003700070009f0a70001f0a2005f01370092
:10066000889fbe008a9fbe008c1f78006201070031
:100670005101330003866c006450e1002400320015
:100680006420e100270032006150e10022003200c6
:100690006120e100210032008b854200eb07b100b0
:1006a0000134b800003ab8000804420089844a00c6
:1006b000013ab8000030b8008880400009014a00c3
:1006c000040033000000400081804800020149001e
:1006d0008b05e900c909dd008301700001003200cb
:1006e00013002000c814de004814dd004709de00b6
:1006f0001200b200c808de0008847000080107007c
:1007000001f0a1000cf0a70001f0a00033013700b8
:100710006120e100350132000801be000200be0088
:10072000f7ff37006150e100fcff3a002f0137006e
:1007300003f0a200889fbe008a9fbe008c1f780035
:100740002d0107001c0133006450e1004f0032000e
:100750006420e1005200320003826c0007003b007d
:100760000905d0000306d000820f54000c065d007e
:100770000200390002003200890178000306780087
:100780008582550004003d000003fd008103fd004b
:100790008502ea008b854200840f720002003b0054
:1007a00060001000e08018006011b8000005eb0048
:1007b0007a28e1000a00390006007800c75ddd00f4
:1007c000f707b200878075002d0037008281710025
:1007d0000a017800610560008180d1000080d300ab
:1007e0008502e900f9ff3b000604400087844800c9
:1007f00002003b0060041400e0841c000988a30090
:10080000070032008a8171008281710061016400f9
:100810008904d1000884d3008b05e8001700370055
:100820000978a30013003a000b00e0001300340025
:100830008b05e9000804440089844c000a447400d4
:100840000978a3000d003a000b00e0000700340017
:100850008b05e9000804440089844c0001003a003b
:100860000b0020000978a300f7ff32000001eb0025
:1008700002003700828171000a017800a800070099
:100880000cf0a70001f0a000d40037006420e100c4
:1008900002003a00838f6c00d40033000801be00d0
:1008a0000200be00cd003700140020003f013700d9
:1008b0000001be00850007000470a70003f0a1003e
:1008c0006509b100160032000d0035006828e1000e
:1008d00006003500f0ff2f00f1ff27000300e000c5
:1008e00013003b000100280000000500000040004c
:1008f000818048008502e900fcff3a0008003700cb
:10090000f88f420002003c008000eb000000050070
:100910008100d1000080d3008502e800fcff3a008e
:100920000300e00002003b0060001000e0801800bf
:1009300000000600f4ff2f001c0137000400200017
:100940001a013700889fbe008a9fbe008c1f780066
:10095000a90007009800330003866c006450e10092
:100960002e0032006420e100330032006150e100cb
:100970002f0032006120e1003100320085855500f2
:10098000eb07b00009002000080420000500370034
:100990000804440089844c000a0031000603430027
:1009a00087834b000001530081815b00f8ff330017
:1009b0000203be000800a0000804440089844c0023
:1009c000f6ff3900c639dd008301730001003200f3
:1009d000130020008904d1000884d3000998a300e3
:1009e000050032000800a7000300a0008904d10020
:1009f0000884d3008b05e8008904d1000884d30063
:100a00000001eb000281d2004500070001f0a100c7
:100a10000cf0a70001f0a000700037006420e10096
:100a2000720032000801be000200be00f7ff37006e
:100a30006120e1006d0032006000b800f3ff370074
:100a40000000200001f82700f0ff37006022b80006
:100a5000060220000000d0008180d2000482d20073
:100a60008582d2000000a0000202520083825a0058
:100a7000030031000202420083824a000000a1000c
:100a80000603e900f3ff3a0000000600881f780023
:100a9000030478000300e00007003d006000100040
:100aa000e080180060011900e081190002003b009d
:100ab00001f02d0003003700d700070008f0a70061
:100ac00001f0a0004f04780000000600c70ade0015
:100ad000f107b200f50fb20008003200e1cf42008a
:100ae000020032000170a00024000500810f700098
:100af000010032000408050044000500810f700069
:100b000002003a00140005008502e90000004000e0
:100b100081c04800fcff3b000170a00024000500dc
:100b200081002000618055000b003d000b0020007b
:100b300061fe2f000100e1001d0034008281710080
:100b4000610164008904d1000884d3000000e8003a
:100b5000faff3a0071002000610064000300700099
:100b6000020060000900320061044400e0844c008f
:100b70000988a500050032008b05e8006808e1003f
:100b800002003a008904d1000884d300f20f20004b
:100b90000258e10005003d00c75ddd00f907b20025
:100ba0008980750008007800000006000bf8270017
:100bb0008b007800000005000200be006450e100d8
:100bc000050036006420e100020036000968a30039
:100bd00001003a000800be000160a0004f06780046
:100be0004f05be004f04be0000000600f0ff2f00be
:100bf000f1ff2700f9ff37000004be00b3ff070034
:100c00000003be000405be000200be00afff0700e7
:100c1000844f750000000600889fbe008a9fbe00ba
:100c20008c9fbe000004be00a8ff07000800be00a5
:100c3000890678006420e1000800390004003200d1
:100c40000160a0001202200092f8880053003700d3
:100c500091fc2300b0fd20004e0037000006eb00a1
:100c600009f0a10003f82300020020000800be00e4
:100c70000dff07000600340001f8230000002000eb
:100c80000801be002fff07000004be002c0020005a
:100c90000800be0093e82300320a230002ff070089
:100ca000120034000801be00d1fd2300703d2b006e
:100cb000a0fe07000005be00b3f32300f27a260071
:100cc0000800be0066fe070003f8230002002000b3
:100cd00097fe07000801be0096fe07000a01be004d
:100ce00018ff07000004be000c06e8000800be0064
:100cf00001f0a1000200200003982300eafe070093
:100d00000800be00160035000801be0054fe0700b2
:100d10000005be0032cd2c0043fb230085fe0700fa
:100d2000809fbe001269280003d52b000a00be0078
:100d30004bfe0700620f210013ef2b007dfe070022
:100d40000a01be0046fe07004f01be00fdfe07007f
:100d50000801be0042fe07000801be0075fe070044
:100d60000c00e0000b0032000c10a70001f0a20004
:100d7000b2fd200093fc23006260e1000400320019
:100d800022a9200063f023000c10a70063f82300c1
:100d900068fe07000df0a70001f0a2004f06be009c
:100da0004f05be004f04be0000000600889fbe0035
:100db0008a9fbe00841f78008fff07004f007800d5
:100dc00011003300f0ff2f00838f6c0006003b0002
:100dd000040565000a00a7000800370009f0a60016
:100de0001000200008003700820f5400838f5c0041
:100df000030039001000200001003e000000200028
:100e000009f0a7000000ea004f05be004f04be0035
:100e10000000e00000000600889fbe008a9fbe0020
:100e2000008270000402710004827100260032000a
:100e30000004be000200be006011b8006b09200073
:100e4000950220000182cf000a0039000541b1005f
:100e50000082cf00070039000541b1000982cf00b0
:100e6000040039000541b1000882cf0001003900bb
:100e70000541b10005425200120032000a003b0059
:100e800082817100610164008100d1000080d30083
:100e90008984d3000884d3008b05e8000442e8006d
:100ea000f7ff3a00070037000804440089844c002b
:100eb00000004800818048008b05e9000442e900f9
:100ec000f9ff3a0016ff07004f05be004f04be00b1
:100ed00000000600889fbe008a9fbe003004be004e
:100ee0002005be000404440085844c0006054d0026
:100ef00087854d000898be000a90be000440e100be
:100f000005c8e10006d0e10007d8e1000200310089
:100f1000680040001008e8004f05be004f04be0006
:100f2000000006001000fa00889fbe008a9fbe00e5
:100f3000110020000605be000404be003002be0001
:100f40002003be00c4b79f00d5b79f00e6b79f003f
:100f5000f7b79f000802520089825a000a035b001b
:100f60008b835b0084bf9f0095bf9f00a6bf9f003f
:100f7000b7bf9f000498be000698be004fb297000e
:100f8000dfb297006fb39700ffb39700b000070080
:100f9000010039008000eb004f05be0010881000f2
:100fa0004f04be000080fa00000006001400fa00a2
:100fb000889fbe008a9fbe008c9fbe000006eb008b
:100fc00079000700ccb79f00bcb79f00acb79f006b
:100fd0009cb79f008cb79f000605be000404be00ae
:100fe0000d0420004fb39700bfb297008603430063
:100ff0002fb29700e00f530004003d009900070056
:101000000f004000b3ff0700030037009500070002
:101010000f004000c3ff0700cfb2970095bf9f00ad
:10102000e08f520009003500660007001400200020
:10103000050020006033b80000007200818072005b
:101040000201730083817300570007000c06e8005b
:101050008d0f5600e3ff3a001fba9700e00f5200d1
:1010600005003d000802be000a03be0000fe2f007e
:101070000f00400097ff07004faa9700e00f5200b3
:1010800008003a000fb497009fb497002fb597005f
:10109000bfb59700d8b79f00e9b79f00fab79f0088
:1010a0008bbf9f00470007004f06be004f05be00e4
:1010b0004f04be000080fa0000000600881f780080
:1010c00018002000881f7800b8ff07008f87e9000c
:1010d0004f04780000000600801feb00b3ff0700fc
:1010e0008f87e90000000600889fbe008a9fbe002f
:1010f0004100070008003d007a0007004300070098
:10110000180020004600070008003d002f000700df
:101110000004eb00050037000004eb00400007006e
:1011200002003d002900070018002000e3ff07002f
:10113000e00f5400010032003e0007004f05be00e2
:101140004f04be0000000600889fbe008a9fbe00bc
:101150008c1f78002800070006003d006100070092
:101160001c002000290007003900070006003d0090
:10117000040037000006eb002900070002003d00d4
:101180005800070012000700d3ff0700e00f5600c9
:1011900001003200270007004f0678004f05be000f
:1011a0004f04be000000060001000700000006001a
:1011b00090b79f00a1b79f00b2b79f00c3b79f0031
:1011c00000000600070007000000060045000700b9
:1011d0000402540085825c0006035d0087835d0085
:1011e000000006001fb09700afb097003fb1970016
:1011f000cfb1970000000600e00f5000e08f5800cc
:10120000e00f5900e08f5900000006000000540074
:1012100081805c0002015d0083815d0000000600aa
:10122000e00f5200e08f5a00e00f5b00e08f5b00a0
:10123000000006006022b8006033b80000005200d1
:1012400081805a0002015b0083815b000000060080
:101250000820e10009a8e1000ab0e1000bb8e100b4
:10126000000006004f2bde00deff070086837300c0
:10127000858242004f23de00a7b79f00868272005e
:101280000402420095b79f00ffaa97004f2bde0093
:10129000858242000602720084b79f006faa970001
:1012a0004f23de000402420086827200f5af9f00e9
:1012b0004f18de0000027200caff0700e4af9f0073
:1012c00000004000818048000201490083814900fc
:1012d0000802be000a03be00b5ff070000fe2f0093
:1012e000000006006044b8006055b8000000060029
:1012f000889fbe008a9fbe008c1f78000006eb000e
:10130000e00f5000e08f5800e00f5900e08f5900c7
:1013100007003d006044b8006055b8001c00200084
:101320000000540081805c0002015d0083815d004b
:10133000e00f5200e08f5a00e00f5b00e08f5b008f
:1013400007003d006044b8006055b8000c00a200e2
:101350000402540085825c0006035d0087835d0003
:1013600012000700e00f5600060032006022b800ad
:101370006033b8000000520081805a0002015b0017
:1013800083815b004f0678004f05be004f04be000e
:1013900000000600020ab900001bb9000200b800f4
:1013a000810042008100430000000600889fbe00cb
:1013b0008a9fbe008c9fbe000404b8000506b800da
:1013c0008904460060854e000606b8000a054600fe
:1013d000e0854e000706b8008b054600040eb800f5
:1013e000890446000a854e00e0854d00050eb800d0
:1013f0000a0546008b854e00060eb8008b05460098
:101400000416b8000a0546008b854e000516b80084
:101410008b054600041eb8008b0546000800be0080
:101420000a01be004f06be004f05be004f04be00bd
:10143000000006000c00fa00889fbe00f4ff2700a1
:1014400000047800d4bf9f008004eb0088bf9f0099
:1014500099bf9f00a8bf9f00240c200078815700ef
:10146000b4bf9f00cfb0970070805700f200070014
:101470000fba9700094a78000fba97000800520087
:101480004f04be000080fa00000006000002780051
:101490008042eb00b4cf1200fdff3a000080ea006a
:1014a0000000420000000600000278000200370041
:1014b000315a78000201e900e00f5100fcff3a00c8
:1014c0000000060044002200e48747002500810058
:1014d000889fbe008a9fbe008c9fbe008e1f780032
:1014e000e08f52000b003a0024029800e402420010
:1014f000640089002500890075008900a4429000dd
:101500000504a00025429800e44290000504a000d4
:101510006542980067044000040222002500200074
:101520004244de00090322004244dd00848454006a
:1015300005074400110009008504d8003c0322007f
:10154000620081000406560080bf9f000e0747001e
:101550000003eb00e40544000806460002003700e3
:10156000160020000d017800224290006102620006
:10157000020032000a003700150978009202780054
:101580002542900061026200fbff32000802410028
:10159000848f520002003900e00f54003f003d00ec
:1015a000920678000d00a100828f5600edff3e00ec
:1015b000e10f5300eaff3a000fba9700840f54007e
:1015c00002003600890f540010003900614ab9004a
:1015d000b0ff2f00010020006143b800040250005a
:1015e00085825800840f5300858f5b000200350010
:1015f0000b05780006003700110009000986d800a5
:101600000982b90004057800010037000e05780052
:101610000a0078004ffb0700e10f400005003a0088
:101620000b0578000b0078004afb0700e10f400033
:101630002b00320074008100000a780074008100e1
:1016400064034200a4429000860f50000200320062
:101650000504a000010037000504a1002542980000
:1016600064055500440022000a0540000a0878007d
:101670007a008900040d7800750081000003eb00fa
:10168000254290000404a000a4429800204290004b
:101690000404a10024409800b2ff370064008900d0
:1016a000848f5200070036001403be008042eb0016
:1016b0008600890097008900120a78006400810082
:1016c0002542980022429000670081000404a00097
:1016d00007097800244198006400410001003700a8
:1016e0000000eb004f0778004f06be004f05be001c
:1016f0004f04be004f00b10000000600e00f500094
:10170000080032006400500064008100840f500023
:101710000100310060008900204290000404a10013
:101720002440980000000600889fbe000004780056
:101730008a9fbe0081047800e08f540005003a00c3
:10174000e00f54003200320008007800ebff070081
:1017500030003700e00f540004003a000900780020
:1017600058ff0700800478002a0037006402540004
:101770009405780068fa9700610262000200320066
:1017800008007800ddff0700090078004dff070022
:1017900080047800e08f54001e003200888f5400cf
:1017a0001b00320069bd970088855500090555006a
:1017b000c2ddde0042d5de000a0178008b0f550045
:1017c000010036000b0178004211dd00880078002e
:1017d0000900780034ff0700888f54000d003100a5
:1017e0004255dd000a854400880f55000900360087
:1017f00008045500840081009500810042c4de0089
:101800004244dd0008844400048cbe00010037001f
:1018100088047800090078004f05be004f04be0020
:10182000000006000200fa00f0bf9f007d030700e1
:101830007fb89700dbfa0700ef03b000889fbe0077
:101840008a9fbe008c9fbe00800678008e1f7800a5
:101850000007eb00d1af9f00a2b79f0065033700e0
:10186000dfa8970054c2b3008100e800d1af9f0009
:10187000844f500006003a00010278000006eb0099
:1018800001c3b30000c2b300b7c2b3000e003700fb
:101890003d0290000404b200040032001d027800f2
:1018a000004a7800840ee800050037000000fb00c5
:1018b0008d0078005c030700e10f40004d0332000b
:1018c0000e07e8004b03370084027800d2c2b30051
:1018d00034437800824f53000900320005003c0079
:1018e000804f530008003200874f53000c003a002d
:1018f00007003700814f530009003a000600370007
:101900000c30a000f0ff37000c00a000eeff370005
:101910000c10a000ecff37000c20a000eaff3700fd
:1019200062026600010032000c00a100680266003d
:10193000010032000c20a1000602fb000403b100ec
:10194000e90f52000c003e00050378000002eb0096
:10195000b603fb006a22b9000703b10086027800d3
:10196000048243009603fb000703b100e98f530094
:10197000f7ff3600080037000002eb00a7c2b300f3
:10198000874f530004003a00afb197008502e8008a
:1019900043027800a3b79f000003eb0096b79f00b7
:1019a000e6c2b300954f13000c003a000ce0a00013
:1019b00064435300d54f1300030032000503780041
:1019c0000000eb0009003700afb397008502e80084
:1019d00047047800a7b79f0098b79f0005037800d9
:1019e000090037006a00b9000080430086027800d1
:1019f000b603fb000703b100e98f5300f9ff36007f
:101a000090b79f00f5ff3700b6427800cac6b30012
:101a1000d6af9f008acf5200250032000f003c0055
:101a200036c6b30086cf52009d00320004003c0051
:101a3000e0cf5200f40232006b4353000f00370036
:101a400046c6b30086cf52001700320065434300fc
:101a500086cf5200b1003a001300370036c7b300fa
:101a600086cf52002000320007003c006443530040
:101a700086cf5200150032000643e80086cf5200a0
:101a8000a6003a001400370056c7b30086cf5200b4
:101a9000a90032006343430086cf52009f003a0002
:101aa000e5779f000e003700e5779f00a400370020
:101ab000f003660005012000010032000500280047
:101ac0008c82720005067800cfff3700e5779f0013
:101ad0000c60a0009a003700e5779f000c50a00032
:101ae0000c70a00096003700afb59700e5779f0017
:101af000cb027800abb79f00b5b79f00e08f5200d4
:101b000002003a0061f32100b1b79f003fb3970094
:101b10008002eb00010037008502e800e6c37a008e
:101b2000e0cf5300fcff3a00c5b79f001fb19700fc
:101b3000e00f510005003200cfb19700830f510034
:101b40000200310082027800c5b79f00cfb2970033
:101b50000004eb00850f520001003600050452001e
:101b60006806660009c2b3000f0032002900370082
:101b70003d0290000404b200040032001d0278000f
:101b8000094a7800840ee800050037008d007800cf
:101b900000022000a4020700e10f40000100320013
:101ba0000e07e8000804e900e00f5400f0ff3a00d7
:101bb0000084eb0017003700bd0290000504b2005e
:101bc00009003200880278009d03780035437800d0
:101bd000864b780005047800870ee800e04f53003c
:101be0000a003a0010003700880278008d00780063
:101bf0003500fb0084bf9f00050478008a020700bf
:101c00000fba9700e10f4000070032000e07e8000e
:101c100005003700080278003fb49700cfb4970062
:101c20005fb59700efb59700890278008504e90059
:101c3000e08f5200e0ff3a00b8b79f00c9b79f009d
:101c4000dab79f00ebb79f000404780009c2b30025
:101c5000e00f56000f003a00660237003d02900088
:101c60000404b200040032001d027800094a780022
:101c7000840ee800050037008d0078000002200087
:101c800069020700e10f4000010032000e07e80082
:101c90000804e900e00f5400f0ff3a005502370055
:101ca000afb097007003660041047800a1b79f00b1
:101cb000cfc4de00090578008a0578000800be0060
:101cc0000a01be004800de00c80add000080720084
:101cd000e0779f00e00f530009003200e04f500012
:101ce00007003200e14f40000500320026002000ce
:101cf000f0779f00887f9f00c6b79f0003003700e2
:101d000017002000c7b79f00f8779f0078fb2f00cf
:101d100008844700b8b79f0084ff370069fb2f0095
:101d20001a00200089844700e5779f00b9b79f001b
:101d3000cab79f007dff3700e5779f000c0cb3000a
:101d40008c027800050cb2003b003a00e00f560010
:101d500005003d00afb297004501be004500be0042
:101d6000a5b79f000f003700f00266001200320096
:101d70002fb497004803be00f69f9f0087a79f00df
:101d8000a8b79f0098029000cfaade0095a79f00f9
:101d9000a5a79f007f9897008fa097001fa197008d
:101da000afa19700b0b79f00c1b79f00d2b79f0007
:101db000e3b79f000b003700afb09700c102780077
:101dc00005047800cfc4de00090578008a05780094
:101dd000a1b79f00b8b79f00c9b79f00dab79f00af
:101de000ebb79f003fb09700cfb097005fb197006f
:101df000efb19700e00f5000e08f5800e00f59005e
:101e0000e08f590032003d006000b8006011b8005a
:101e10003fb49700cfb497005fb59700efb5970038
:101e20003c00b30008045000898458000a0559009a
:101e30008b85590022003700e00f560005003d0059
:101e4000afb297004501be004500be00a5b79f0098
:101e50000f003700f0026600120032002fb4970026
:101e60008004eb004803be000005eb0096af9f0026
:101e7000a7af9f00b9af9f00caaf9f001fa89700f0
:101e8000afa897003fa99700cfa99700a8b79f00d8
:101e9000b0b79f00c1b79f00d2b79f00e3b79f00c4
:101ea0000b003700afb09700c1027800a1b79f00c8
:101eb00005047800090020000a0020000b00200023
:101ec000b8b79f00c9b79f00dab79f00ebb79f0074
:101ed0009fb49700e08f54000d003a001a002000d4
:101ee0003fb09700cfb097005fb19700efb1970078
:101ef0009ab79f00e00f5000e08f5800e00f5900a4
:101f0000e08f5900020032008000eb0091b79f0083
:101f10000c01780005042000020cb20082b79f007b
:101f2000850f51003400320003003c00e00f5100e7
:101f30000800320048003700050820008fb19700e4
:101f4000858f510014003200050c2000858f510050
:101f500041003a0066f4210015c0b3003600be000f
:101f60003601be003fb49700cfb497005fb597002d
:101f7000efb597000040e10001c8e10002d0e100a8
:101f800003d8e100330039008542e800f4cf520065
:101f9000f2ff3a002f00370015c0b3000001200007
:101fa000010020006011b8003fb49700cfb4970043
:101fb0005fb59700efb597000040e10001c8e10070
:101fc00002d0e10003d8e1002200390049002000de
:101fd0000000d0008180d2000281d2008381d20033
:101fe0008904e900faff3a008542e800f0cf520088
:101ff000edff3a001700370015c0b3008000200045
:10200000010020006011b8003fb49700cfb49700e2
:102010005fb59700efb597000040e10001c8e1000f
:1020200002d0e10003d8e1000a00390039002000a5
:102030000000d0008180d2000281d2008381d200d2
:102040008904e900faff3a008542e800f5cf520022
:10205000edff3a00e5779f006f7597009fb59700f9
:102060008a02fb008b8f520002003d00eb779f003d
:10207000040037001fb09700850f500001003d009d
:1020800095b79f00e00f520003003200e3026600a4
:10209000010032000402e900050024008502660008
:1020a000060032009fb09700810f520002003400fa
:1020b00001025200010037000002eb006f7197002f
:1020c0008001eb008202fb00f3af9f00850f5200fe
:1020d0000200340085025200f5af9f0064026600e2
:1020e0003b003200e202660061026600e08f5200af
:1020f00011003200bd0290000504b2000800320059
:102100009d027800b6c2b300e00f52000100320019
:1021100006c3e800864a7800850ee80015003700ff
:10212000b0022000e00f5200010032000080e80001
:102130008d0078000c003700e00f52000e003200d6
:102140003d0290000404b200050032001d02780038
:1021500005c2b300054a7800840ee8000500370088
:102160008d007800000220002f010700e10f4000e1
:10217000010032000e07e8007faa9700e00f52002e
:102180004f00320008c3b300840478003d02900081
:102190000404b200040032001d027800084a7800ee
:1021a000840ee800050037008d0078000003200051
:1021b0001d010700e10f4000010032000e07e8009a
:1021c0008904e900f1ff3a00f9af9f003c003700b5
:1021d000ffaa9700e08f52001400320068026600e8
:1021e00012003a0008c2b300850478003d02900056
:1021f0000404b200040032001d027800084a78008e
:10220000840ee800050037008d00780000022000f1
:1022100005010700e10f4000010032000e07e80051
:102220008904e900f1ff3a00f9af9f00e20266007d
:1022300061026600e08f520011003200bd02900082
:102240000504b200080032009d027800b6c2b30057
:10225000e00f52000100320006c3e800864a780011
:10226000850ee80015003700b0022000e00f520094
:10227000010032000080e8008d0078000c0037007b
:10228000e00f52000e0032003d0290000404b20044
:10229000050032001d02780005c2b300054a78002f
:1022a000840ee800050037008d0078000002200051
:1022b000dd000700e10f4000010032000e07e800da
:1022c0001fb39700e5f321000602e900f004660061
:1022d000c223dd000c057800c7a79f000a02b200e8
:1022e0006323b900e99f9f00060478004322dd00c4
:1022f000b8a79f0085024200da9f9f00e5af9f00cc
:10230000a30037009fb597000fb097008b05e90039
:10231000010420009bb79f00810f50007300320022
:1023200003003c00e00f5000080032007e00370040
:10233000040820000fb19700840f510056003200ae
:10234000040c2000840f510077003a00e00f560083
:102350001f003d00efa997003304be002305be0017
:102360003fb09700cfb097005fb19700efb19700f3
:102370000802be000a03be0050fb07000802be00b0
:102380000a03be00e0779f000000fb00cf80de0064
:102390000101780082017800d5fb07003fb2970069
:1023a000cfb297005fb39700efb3970000025200df
:1023b00081825a0002035b0083835b00b4b79f00f5
:1023c000c5b79f00d6b79f00e7b79f002e00370024
:1023d000ef9a9700e08f5200220032006fab970017
:1023e0003fb29700cfb297003604be002605be006c
:1023f0000400be000801be0084bf9f00f5b79f0027
:102400000005eb0091f907000801be00e0779f008e
:102410000000fb00cf80de00defb07000fba970054
:10242000ffb297008aaf9f000004520081845a00d7
:10243000d8a79f00e9a79f008004eb00f9a79f00a1
:102440005fa09700efa097007fa197008fa997004a
:10245000b0b79f00c1b79f00d2b79f00e3b79f00fe
:1024600009003700efa897003fb1970011027800ec
:10247000110009000481d800a40020001100090007
:102480000480d800e1779f00ef7197000343b0000c
:10249000e3779f002400370054f22100df9a970071
:1024a000e08f52000100320044f121003fb097005c
:1024b000cfb097005fb19700efb197004fa397009f
:1024c0000603e900050033008301d1000281d30037
:1024d0008180d3000080d300f9ff37006f006000d7
:1024e00064407800e0779f000f0037003fb297000c
:1024f000cfb297005fb39700efb397003fa4970068
:102500000804e900050033008703d1000683d300e7
:102510008582d3000482d300f9ff3700674262004e
:102520000443b000e4779f003d0290000404b20031
:10253000070032009d0278006f729700844a78008d
:10254000850ee800e04f520007003a000700370010
:10255000ef7497008d0078000900fb00320007003f
:10256000e10f4000010032000e07e8004fa5970080
:10257000bfa597006fa8970064055500e385550037
:1025800068005000caa79f00bba79f00e0af9f0054
:102590009fb09700e08f50005aff3a00680666002f
:1025a000140032007fa99700e00f510011003400a1
:1025b00008c2b300820478003d0290000404b20017
:1025c000040032001d027800084a7800840ee800fa
:1025d000050037008d00780000022000120007007f
:1025e000e10f4000010032000e07e8008904e90015
:1025f000f1ff3a00dfa9970013407800e0779f00d1
:10260000e04f500096fc3a000e0078004f0778002b
:102610004f06be004f05be004f04be00ef03b100e1
:102620000000060000000600889fbe00010478003c
:102630008084eb0038029000e20262003b0032002e
:1026400004037800980290000620b20002003a00cd
:10265000e08f520035003a000490a000800478001a
:1026600034049800f90fb200e08f520002003a00e3
:10267000a8029000050c7800ea8f540005003a008b
:102680000408b20003003a0088007800d00020005f
:10269000e5ff070018029000d8029000850f520055
:1026a0000b0032000402e80015c0b30014049800c7
:1026b00018027800094a7800040ce800440122005e
:1026c000054a7800ea8f540018003a0005003700e8
:1026d000094078008800780017000700800478001f
:1026e00012003700380290000410b2000f003200d0
:1026f00018019000a80090004800900036f70700ed
:1027000018029000840f500004003200380290003c
:102710000403b300340498008084eb000002eb0053
:102720001404980028029000040c78000900780036
:102730004f04be00000006000200fa00889fbe00a1
:1027400001047800a0ff9f00380290008402780006
:102750000504b200020032000000fb003500370023
:10276000e202620005003a000403b3001504980079
:10277000340498000080eb002e003700d80490004d
:10278000e08f540006003a0012002000e680570057
:102790004800900010f70700190498002300370044
:1027a000a8029000e08f520008003a007501220054
:1027b0000430a00025049800050c7800340498002b
:1027c0002500200055049800150498001801900079
:1027d000a800900048009000fff607002802900033
:1027e0008082eb0015049800affa9700054a780044
:1027f000040ce8002ffa9700ea4f52000b003a0051
:10280000380290000410b200080032001801900055
:10281000a800900048009000eff607000002eb00cf
:10282000a802900014049800050c78002ffa970075
:102830000400fb004f04be000080fa000000060008
:020000040000fa
:102840006c6500006674000020250000752c0000f7
:1028500020720000696700006874000020250000f5
:10286000752c0000206c000069670000687400008f
:102870006573000074200000257500002c20000006
:102880006c69000067680000745000006f730000fe
:1028900020250000750d00000a00000043610000c3
:1028a0006d2000006c690000676800007420000063
:1028b000256c0000750d00000a0000002564000072
:1028c0002c2000000073000065740000737000008d
:1028d00065650000642000002564000020250000dc
:1028e000640d00000a0000007370000069720000af
:1028f000616c000020250000750d00000a0000003a
:10290000f6ff0000f6ff0000fbff000000000000e3
:1029100000000000050000000a0000000a0000009e
:102920000a0000000a00000005000000000000008e
:1029300000000000fbff0000f6ff0000f6ff0000b3
:10294000256400002c2000000020000063610000ce
:102950006c6900006272000061740000696f000021
:102960006e200000646f00006e6500000d0a00001c
:1029700000000000536500006c65000063740000f7
:102980006f720000207000006f73000020250000af
:08299000640d00000a000000c4
:020000040000fa
:102998000200fa00671e07000000eb00000f780035
:1029a8000d0037009e00e80080d221000080400022
:1029b80010407800004178009e00780080d2210005
:1029c800008040001040780080407800c0cdb300ff
:1029d800841e07001e8fe8009e007800700d2000fe
:1029e800808f5000efff3600561e07000080fa0067
:1029f800000006000200fa00881f78004d1e07003c
:102a08000000eb00000f78000d0037001e04e800fe
:102a18009e00780080d2210000804000104078009d
:102a280080407800c0cdb3004a1e0700804078007f
:102a380080d2210000004400014878001e8fe80081
:102a48009e007800700d2000808f5000efff360048
:102a58003c1e07004f0478000080fa0000000600c2
:102a68000600fa00000f78001e0078002007980082
:102a78002e009000e10f50000a0032002e00900056
:102a8800e20f50000a0032002e0090000000e00023
:102a98000100320009003700c0c0b3006bfdb70069
:102aa8000900370080c0b3006bfdb700060037008f
:102ab80020c0b3006bfdb700030037000080eb00b7
:102ac80010079800020037000000eb00100798007c
:102ad8001e0090000080fa00000006000400fa00c2
:102ae800000f7800400420009e0f100006003200fe
:102af800100120009e0f1000030032003003200058
:102b08009e0f100005003a001e0078005bfdb7001c
:102b18000000eb0010079800020037000080eb006f
:102b2800100798001e0090000080fa0000000600c0
:102b38000400fa00000f78001e00e00015003200c3
:102b4800000220009e0f1000120032000003200037
:102b58009e0f10000f003200000420009e0f10008e
:102b68000c003200000520009e0f10000900320002
:102b7800000620009e0f100006003200000620000c
:102b88009e0f100003003200000120009e0f10006d
:102b980005003a001e00780055fdb7000000eb0064
:102ba80010079800020037000080eb00100798001b
:102bb8001e0090000080fa00000006000a00fa00db
:102bc8002007980031079800ae0090003e00900062
:102bd800808f5000030039000080eb004007980008
:102be8001e003700be00900030382000808f500053
:102bf800030036000080eb004007980017003700fc
:102c08002e0090000000e900200798002e00900098
:102c1800204798002e0090004800de0030479800ba
:102c28003e009000004f78003e0090004800de0013
:102c3800104798003e40900031fdb7002e409000ac
:102c480033fdb7001e40900039fdb7001e407800e4
:102c58003bfdb7000000eb00400798004e009000d5
:102c68000080fa00000006000a00fa002007980019
:102c780031079800ae0090003e009000808f500011
:102c8800030039000080eb00400798001b00370064
:102c9800be009000301f2000808f500003003600d7
:102ca8000080eb0040079800140037002e009000c9
:102cb800204798002e0090004800de00304798001a
:102cc8003e009000004f78003e0090004800de0073
:102cd800104798003e40900035fdb7002e40900008
:102ce80037fdb7001e4090003dfdb7001e4078003c
:102cf8003ffdb7000000eb00400798004e00900031
:102d08000080fa00000006000e00fa003007980064
:102d18004107980052079800be0090004e009000ae
:102d2800808f5000030039000080eb006007980096
:102d38002b003700ce009000301f2000808f5000fd
:102d4800030036000080eb0060079800240037007d
:102d5800de00900030382000808f500003003600dd
:102d68000080eb00600798001d0037003e009000cf
:102d7800404798003e0090004800de005047980009
:102d88004e009000204798004e0090004800de005a
:102d9800304798005e009000104798005e00900051
:102da8004800de00004f78005e409000b9fdb70093
:102db8004e409000bbfdb7003e409000bdfdb700ff
:102dc8002e409000bffdb7001e407800c1fdb7003f
:102dd8001e409000c3fdb7000000eb00600798009c
:102de8006e0090000080fa00000006000600fa005d
:102df80010079800210798001e0090000000e000ce
:102e0800060032002e0090000000e00003003200af
:102e1800a0ccb300004f78000e0037001e009000d1
:102e28000000e00003003200a0c4b300004f7800a7
:102e3800080037002e0090000000e0000300320078
:102e4800a0c8b300004f780002003700a0c0b3004c
:102e5800004f78001e40780057fdb7000080fa0048
:102e6800000006000600fa00204798003147980045
:102e78000000eb00000f7800100037009e0078007b
:102e880080d2210000804000904078002e409000c1
:102e980080cf500008003a001e00e80081d22100cf
:102ea80001004000be409000014878000000eb009f
:102eb80020079800070037001e8fe8009e00780062
:102ec800700d2000808f5000ecff36008080eb00f2
:102ed800210798002e0090000080fa0000000600ec
:102ee8000800fa0020479800210798000000eb002e
:102ef800000f7800110037009e00780080d2210072
:102f080000804000904078002e40900080cf500014
:102f180009003a009e00e80080d2210000804000ad
:102f2800904078002e009000014878000000eb00e7
:102f380030079800070037001e8fe8009e007800d1
:102f4800700d2000808f5000ebff36000080eb00f2
:102f5800300798003e0090000080fa00000006004c
:102f68000200fa00004f7800114798001e409000b8
:102f780041fdb7001e40780043fdb7000080fa000d
:102f8800000006000800fa00004f7800114798007a
:102f9800224798003347980044479800f0c4b3008c
:102fa8009e4f1000030036000080eb0030079800a9
:102fb8000c0037001e40780045fdb7001e40900009
:102fc80047fdb7002e40900049fdb7004e409000e5
:102fd8004bfdb7003e4090004dfdb7000000eb00f0
:102fe800300798003e0090000080fa0000000600bc
:102ff8000400fa00008fbe001e00be004a09dd0072
:103008004600de0000007100c608de0051fdb70072
:103018001e00be004209dd004e00de000000710007
:10302800ce08de004ffdb7000040eb0053fdb700af
:103038000080fa00000006000200fa00004f780045
:103048001e4078005dfdb7000080fa000000060011
:103058000200fa00000f78001e00e00005003200b0
:103068006dddbf0001c8b300014070006dfdb70001
:10307800030037006dddbf000074a1006dfdb700cf
:103088000080fa00000006000400fa00004f7800f3
:1030980011479800224798001e40780071fdb7003c
:1030a8001e40900073fdb7002e40900075fdb700dc
:1030b8000080fa00000006000200fa00004f7800c5
:1030c800114798001e4078007f4060000045b0001e
:1030d80077fdb7001e40900079fdb7000080fa0028
:1030e800000006000600fa00100798004147980003
:1030f8004e4090000000fb00630060004500dd00ca
:103108008040780000c8b30000c04000fffdb70051
:103118000000eb00000f78000d0037001e0078005b
:103128000000400032052000000141001e00780028
:10313800800078001e0090000080400090407800d9
:1031480080d2210000004100014878001e0fe800ed
:103158001e007800e10f5000f0ff36000080fa00f2
:10316800000006000000fa00721c0700ffddbf0027
:1031780000417800feddbf0080407800c0cdb3007c
:10318800981c07006f1c070001d9210091407800a6
:103198007addbf00020007000080fa000000060088
:1031a8000600fa0040479800514798000000eb00dd
:1031b800000f78005f1c07000000eb001007980064
:1031c8001f0037009e00900080d221000080400040
:1031d800904078004e40900080cf50001500390094
:1031e8009e00900080d2210000804000904078002e
:1031f8005e40900080cf50000e003e001e00900000
:103208008000e80080d22100008040001040780053
:10321800004178009e00900080d22100008040008c
:103228001040780080407800c0cdb3006d1c0700c6
:103238001e0fe8001e0090000080e80010079800ac
:103248009e009000700d2000808f5000ddff36003a
:103258003c1c07001e0078000080fa0000000600f1
:103268000400fa00100798000000eb00000f780037
:103278000d0037001e00780000004000b206200054
:10328800000141001e007800800078001e009000b8
:10329800008040009040780080d22100000041006a
:1032a800014878001e0fe8001e007800e10f50006a
:1032b800f0ff36000080fa00000006000200fa0065
:1032c800004f7800114798001e407800a5fdb70010
:1032d8001e409000a7fdb7000080fa00000006001d
:1032e8000200fa00004f7800114798001e4078004d
:1032f800a9fdb7001e409000abfdb7000080fa00a2
:10330800000006000200fa00004f780011479800fc
:103318001e407800adfdb7001e409000affdb7001d
:103328000080fa00000006000200fa00004f780052
:103338001e80fb004400dd006f404000c5fdb70063
:103348000080fa00000006000200fa00004f780032
:10335800114798001e80fb004400dd008040780083
:103368001e4090006f40600000c04000c7fdb700dd
:103378000080fa00000006000200fa00004f780002
:10338800114798001e4090000080fb004400dd00bb
:10339800804078001e4078006f40600000c0400008
:1033a800c9fdb7000080fa00000006000400fa001a
:1033b800008fbe001e00be004088de00cf80de0009
:1033c800cbfdb7001e00be004809dd004800de0046
:1033d80000007100c888de00cdfdb7001e0078002f
:1033e800cffdb7000080fa00000006000200fa00d6
:1033f800004f78001e407800d1fdb7000080fa0029
:10340800000006000400fa00000f78001107980079
:103418001e0078004800de00d7fdb7001e007800c7
:10342800d9fdb7001e0090004800de00dbfdb700a4
:103438001e009000ddfdb7000080fa0000000600c5
:103448000600fa00004f78001147980022479800bc
:103458003347980044479800554798002e409000fd
:10346800dffdb7003e409000e1fdb7001e40780048
:10347800e3fdb7001e409000e5fdb7004e40900008
:10348800e7fdb7005e409000e9fdb7000080fa0054
:10349800000006000a00fa00000f780011079800e3
:1034a8002207980033079800200d20001e0f4000c7
:1034b8001e009000200db000100798002e0090000c
:1034c80067004000200798003e0090006700400019
:1034d800300798009e00900020352000808f500013
:1034e800030036000080eb004007980039003700e1
:1034f800be009000701e2000808f50000300360030
:103508000080eb0040079800320037001e00900052
:103518009e0f100004003100ae0090003e009000a5
:10352800808f5000030039000080eb0040079800ae
:1035380028003700501a20009e0f10000c0036009b
:103548009e00900090272000808f500008003e00c9
:10355800ae009000700a2000808f500004003600f2
:10356800be00900060142000808f500003003600d9
:103578000080eb0040079800160037001e00780016
:103588004800de00ebfdb7001e007800edfdb70037
:103598001e0090004800de00effdb7001e009000fe
:1035a800f1fdb7002e0090004800de00f3fdb700e3
:1035b8002e009000f5fdb7003e0090004800de00a8
:1035c800f7fdb7003e009000f9fdb7000000eb00e2
:1035d800400798004e0090000080fa0000000600a6
:1035e8000600fa0010079800210798001e009000b6
:1035f8000000e000060032002e0090000000e0000d
:1036080003003200c0c3b300004f78000e0037003b
:103618001e0090000000e00003003200c0c2b300aa
:10362800004f7800080037002e0090000000e000ee
:1036380003003200c0c1b300004f78000200370019
:10364800c0c0b300004f78001e407800fbfdb700f3
:103658000080fa00000006000200fa00000f78005f
:103668001e00e000050032005fddbf00f1c7b300b7
:10367800014060005ffdb700040037005fddbf0058
:1036880001c8b300014070005ffdb7000080fa0078
:10369800000006000400fa00000f780011079800e7
:1036a8001e00e000050032005fddbf00f1cbb30073
:1036b800014060005ffdb700040037005fddbf0018
:1036c80001c4b300014070005ffdb7001e00900008
:1036d8000000e000050032005fddbf00f1cdb3005f
:1036e800014060005ffdb700040037005fddbf00e8
:1036f80001c2b300014070005ffdb7000080fa000e
:10370800000006000a00fa0055ddbf000080fb003b
:103718004007980000032000ce009000808f5000e2
:103728003100320000032000ce009000808f50004e
:103738000b003c004e009000f00f500022003200b9
:1037480000022000ce009000808f5000220032003e
:103758004e0090000000e0001700320036003700ed
:1037680000052000ce009000808f50002600320017
:1037780000052000ce009000808f500005003c001e
:1037880000042000ce009000808f50001a00320004
:103798002900370000062000ce009000808f5000de
:1037a8001d00320000072000ce009000808f5000de
:1037b8001d0032002000370000002800010720000b
:1037c800008fbe00200037000000200061092000a3
:1037d800008fbe001c003700000024008103200079
:1037e800008fbe001800370000002200c101200031
:1037f800008fbe001400370000002100e100200007
:10380800008fbe00100037000080200071002000eb
:10381800008fbe000c003700004028003100200057
:10382800008fbe000800370000202c001100200087
:10383800008fbe00040037006000b8002007980021
:10384800310798000a0037006bddbf00ec4f5000cd
:1038580004003a001e00be000000400081804800bd
:10386800008fbe001e00be00200798003107980098
:103878002e009000be0090000080fa0000000600b4
:103888001000fa00200798003107980042079800b6
:1038980053079800640798005e0090000000e0005d
:1038a800030035005e009000e30f50000300340071
:1038b8000080eb00700798004c0037006e00900005
:1038c8000000e000030035006e009000e30f500098
:1038d800030034000080eb007007980043003700b5
:1038e80088ff07000001be00606a20000013b800ce
:1038f8006010b9000702780000024200606a2000e8
:103908000098b90000024200840378002e0090005d
:103918006101b9000600be00ebf20700100798002d
:1039280078ff07000001be00606a20000013b8009d
:103938006010b9000702780000024200606a2000a7
:103948000098b90000024200840378003e0090000d
:103958006101b9000600be00dbf20700000f780025
:103968001e0090004800de0063fdb7001e009000b6
:1039780065fdb7001e0078004800de0067fdb7004f
:103988001e00780069fdb7004e0090000000e000be
:10399800040032005fddbf000044a0005ffdb700f7
:1039a800040037005fddbf00f1ceb30001406000c6
:1039b8005ffdb7006e009000e34060005e0090007d
:1039c800630060004200dd0000c140005fddbf0011
:1039d8008040780000cfb30000c060000040410084
:1039e8005ffdb7000000eb00700798007e009000b4
:1039f8000080fa00000006000600fa00000f7800b8
:103a0800110798001e007800200798002e009000eb
:103a1800e30f5000670032002e009000e30f5000c3
:103a280007003e002e009000e10f50002e003200eb
:103a38002e009000e10f500041003e000d003700bd
:103a48002e009000e50f5000940032002e009000e8
:103a5800e50f5000740039002e009000e60f50006a
:103a6800ab0032002e009000e70f5000c500320076
:103a7800da0037001e009000e10f50000f003600fa
:103a8800c4c2bf000080fb004600de006140600049
:103a98000004a20061406000614060004601dd0052
:103aa800412c200091407800f0cbb30000c06000aa
:103ab80002407000c4e2b7001e0137001e009000eb
:103ac80061406000614060004601dd00412c20003b
:103ad80091407800f0cbb30000c060000240700055
:103ae800c4e2b700130137001e009000e10f500038
:103af8000b003600c4c2bf000080fb004700de0098
:103b08000004a20061406000c700dd00c4c2bf001d
:103b18000074a10001407000c4e2b700050137003d
:103b28001e00900061406000c700dd00c4c2bf00f5
:103b38000074a10001407000c4e2b700fd00370026
:103b48001e009000e10f50000f003600c5c2bf00f4
:103b58000080fb000000d100614060000004a2006a
:103b6800614060006140600000414000512c20002d
:103b780091407800d0cfb30000c0600002407000d0
:103b8800c5e2b700eb0037001e00900061406000fe
:103b98006140600000414000512c200091407800b5
:103ba800d0cfb30000c0600002407000c5e2b7008b
:103bb800e00037001e009000e10f50000f003600b3
:103bc800c5c2bf000080fb004400de006140600009
:103bd8000004a20061406000614060004401dd0013
:103be800512c200091407800f0ceb30000c0600056
:103bf80002407000c5e2b700ce0037001e009000fa
:103c080061406000614060004401dd00512c2000eb
:103c180091407800f0ceb30000c060000240700010
:103c2800c5e2b700c30037001e009000e10f500046
:103c38000f003600c5c2bf000080fb004200de0056
:103c4800614060000004a2006140600061406000c3
:103c58004201dd00512c200091407800b0cfb30024
:103c680000c0600002407000c5e2b700b100370034
:103c78001e00900061406000614060004201dd006c
:103c8800512c200091407800b0cfb30000c06000f4
:103c980002407000c5e2b700a60037001e00900081
:103ca800e10f50000f003600c5c2bf000080fb00c6
:103cb8004500de00614060000004a2006140600031
:103cc800614060004501dd00512c200091407800e2
:103cd800f0cdb30000c0600002407000c5e2b7003c
:103ce800940037001e009000614060006140600051
:103cf8004501dd00512c200091407800f0cdb30043
:103d080000c0600002407000c5e2b70089003700bb
:103d18001e009000e10f50000f003600c5c2bf0022
:103d28000080fb004600de00614060000004a20045
:103d380061406000614060004601dd00512c2000b8
:103d480091407800f0cbb30000c0600002407000e2
:103d5800c5e2b700770037001e00900061406000a0
:103d6800614060004601dd00512c20009140780040
:103d7800f0cbb30000c0600002407000c5e2b7009d
:103d88006c0037001e009000e10f50000b00360059
:103d9800c5c2bf000080fb004700de000004a2008f
:103da80061406000c700dd00c5c2bf000074a1000b
:103db80001407000c5e2b7005e0037001e009000a9
:103dc80061406000c700dd00c5c2bf000074a100eb
:103dd80001407000c5e2b700560037001e00900091
:103de80061406000c700dd00c5c2bf000074a100cb
:103df80001407000c5e2b700c5c2bf000080fb00eb
:103e08004700de00614060004601dd00512c2000c3
:103e180091407800f0cbb30000c060000240700011
:103e2800c5e2b700c5c2bf000080fb004600de0047
:103e380061406000614060004501dd00512c2000b8
:103e480091407800f0cdb30000c0600002407000df
:103e5800c5e2b700c5c2bf000080fb004500de0018
:103e680061406000614060004201dd00512c20008b
:103e780091407800b0cfb30000c0600002407000ed
:103e8800c5e2b700c5c2bf000080fb004200de00eb
:103e980061406000614060004401dd00512c200059
:103ea80091407800f0ceb30000c06000024070007e
:103eb800c5e2b700c5c2bf000080fb004400de00b9
:103ec800614060006140600000414000512c2000ca
:103ed80091407800d0cfb30000c06000024070006d
:103ee800c5e2b700c5c2bf000080fb000000d100da
:103ef80061406000c700dd00c4c2bf000074a100bb
:103f080001407000c4e2b700c4c2bf000080fb00db
:103f18004700de00614060004601dd00412c2000c2
:103f280091407800f0cbb30000c060000240700000
:103f3800c4e2b7000080fa00000006000000fa00a2
:103f4800c4c2a900c4e2a900c522a900c582a9006b
:103f5800c542a900c5a2a900c5c2a900c5e2a90019
:103f68000080fa00000006000200fa00000f780046
:103f7800100020009e0f10000f003600d0c2bf00b6
:103f88000080fb004200de00614060000004a200e7
:103f980061406000614060004201dd00012d2000a9
:103fa80091407800b0cfb30000c0600002407000bc
:103fb800d0e2b7000a0037001e00780061406000b8
:103fc800614060004201dd00012d20009140780031
:103fd800b0cfb30000c0600002407000d0e2b7006c
:103fe8000080fa00000006000200fa00000f7800c6
:103ff800100020009e0f10000f003600d0c2bf0036
:104008000080fb000000d100614060000004a200b5
:10401800614060006140600000414000012d2000c7
:1040280091407800d0cfb30000c06000024070001b
:10403800d0e2b7000a0037001e0078006140600037
:104048006140600000414000012d2000914078004f
:10405800d0cfb30000c0600002407000d0e2b700cb
:104068000080fa00000006000000fa00c4c2bf0089
:104078000080fb004600de006140600000c0ea00ee
:1040880061406000614060004601dd00412c200075
:1040980091407800f0cbb30000c06000024070008f
:1040a800c4e2b700c4c2bf000080fb004700de00c6
:1040b80000c0ea0061406000c700dd00c4c2bf0064
:1040c8000074a10001407000c4e2b700c5c2bf007f
:1040d8000080fb000000d1006140600000c0ea00e1
:1040e800614060006140600000414000512c2000a8
:1040f80091407800d0cfb30000c06000024070004b
:10410800c5e2b700c5c2bf000080fb004400de0066
:104118006140600000c0ea006140600061406000ea
:104128004401dd00512c200091407800f0ceb3000e
:1041380000c0600002407000c5e2b700c5c2bf0001
:104148000080fb004200de006140600000c0ea0021
:1041580061406000614060004201dd00512c200098
:1041680091407800b0cfb30000c0600002407000fa
:10417800c5e2b700c5c2bf000080fb004500de00f5
:104188006140600000c0ea0061406000614060007a
:104198004501dd00512c200091407800f0cdb3009e
:1041a80000c0600002407000c5e2b700c5c2bf0091
:1041b8000080fb004600de006140600000c0ea00ad
:1041c80061406000614060004601dd00512c200024
:1041d80091407800f0cbb30000c06000024070004e
:1041e800c5e2b700c5c2bf000080fb004700de0083
:1041f80000c0ea0061406000c700dd00c5c2bf0022
:104208000074a10001407000c5e2b7000080fa0008
:10421800000006000000fa00c4c2bf000080fb00d6
:104228004600de006140600000c0ea0061406000b6
:10423800614060004601dd00412c2000914078007b
:10424800f0cbb30000c0600002407000c4e2b700c9
:104258000080fa00000006000000fa00c4c2bf0097
:104268000080fb004700de0000c0ea0061406000fb
:10427800c700dd00c4c2bf000074a1000140700087
:10428800c4e2b7000080fa00000006000000fa004f
:10429800c5c2bf000080fb000000d1006140600083
:1042a80000c0ea00614060006140600000414000d9
:1042b800512c200091407800d0cfb30000c060009e
:1042c80002407000c5e2b7000080fa000000060056
:1042d8000000fa00c5c2bf000080fb004400de00f9
:1042e8006140600000c0ea00614060006140600019
:1042f8004401dd00512c200091407800f0ceb3003d
:1043080000c0600002407000c5e2b7000080fa00fb
:10431800000006000000fa00c5c2bf000080fb00d4
:104328004200de006140600000c0ea0061406000b9
:10433800614060004201dd00512c2000914078006e
:10434800b0cfb30000c0600002407000c5e2b70003
:104358000080fa00000006000000fa00c5c2bf0095
:104368000080fb004500de006140600000c0ea00fc
:1043780061406000614060004501dd00512c200073
:1043880091407800f0cdb30000c06000024070009a
:10439800c5e2b7000080fa00000006000000fa003d
:1043a800c5c2bf000080fb004600de00614060001f
:1043b80000c0ea0061406000614060004601dd0025
:1043c800512c200091407800f0cbb30000c0600071
:1043d80002407000c5e2b7000080fa000000060045
:1043e8000000fa00c5c2bf000080fb004700de00e5
:1043f80000c0ea0061406000c700dd00c5c2bf0020
:104408000074a10001407000c5e2b7000080fa0006
:10441800000006000200fa00000f78009e007800f5
:10442800800322004e490200000000000080fa00cc
:10443800000006000000fa0080032200b2490200d2
:10444800000000000080fa00000006000200fa00e8
:10445800000f78001e00e000040035009e00780080
:1044680080032200044a0200000000000080fa00d5
:10447800000006000000fa00f8debf000004e000bb
:104488000b003a008000eb00700020005afd070086
:10449800f8debf000080fb001100200056fd070079
:1044a800f8debf000040e800f8feb7001b00370048
:1044b800f8debf00e74f50000c003a00f8debf00fe
:1044c8000080fb000000e9008000eb004afd0700c7
:1044d800f8debf000080fb001100200046fd070049
:1044e8000040eb00f8feb7000c003700f8debf0014
:1044f8000080fb000000e9008000eb003efd0700a3
:10450800f8debf000080fb00110020003afd070024
:10451800f8debf000040e800f8feb7000080fa00af
:10452800000006000200fa00f9debf000080fb0070
:10453800000f78001e007800e20f50001c003200c7
:104548001e007800e20f500007003c001e007800b3
:104558000000e0000b0032001e007800e10f500060
:104568000c003200230037001e007800e30f5000d3
:10457800160032001e007800e40f50001a003200c6
:104588001c003700210020000000eb001afd070086
:1045980018003700210020001000200016fd070039
:1045a800210020007000200013fd070011003700d3
:1045b80021002000200020000ffd0700210020001e
:1045c800600020000cfd07000a00370021002000d1
:1045d8003000200008fd07002100200050002000c6
:1045e80005fd0700030037002100200040002000df
:1045f80001fd0700f9debf00e34f500004003e0054
:10460800f9debf000040e800f9feb70002003700fd
:104618000040eb00f9feb7000080fa000000060039
:104628000000fa00fadebf000004e0000f003a00c4
:1046380010dfbf000004e0000c00320010c0b3001f
:10464800fafeb7008000eb000000eb00eafc070070
:10465800fadebf000080fb0011002000e6fc070026
:104668000040eb0010ffb7002b003700fadebf0058
:104678000004e0000f003a0010dfbf000004e00073
:104688000c003a0070c0b300fafeb7008000eb00df
:104698000000eb00d8fc0700fadebf000080fb003a
:1046a80011002000d4fc070010c0b30010ffb700b1
:1046b80019003700fadebf00e74f50000a003a0041
:1046c8000040eb00fafeb7008000eb00700020000d
:1046d800c9fc0700fadebf000080fb0011002000c3
:1046e800c5fc07000c003700fadebf00e14f5000a0
:1046f80009003a000040eb00fafeb7008000eb002a
:1047080010002000bcfc0700fadebf000080fb00a0
:1047180011002000b8fc07000080fa000000060025
:104728000200fa00fbdebf000080fb00000f7800eb
:104738001e007800e10f5000150032001e007800be
:10474800e10f500004003c001e0078000000e0006b
:10475800080032001a0037001e007800e20f5000ef
:10476800120032001e007800e30f500013003200e0
:1047780013003700210020000000eb009efc07001a
:1047880021002000400020009bfc07000c0037009f
:10479800210020001000200097fc070021002000c5
:1047a8003000200094fc070005003700210020009d
:1047b8002000200090fc070001003700dffd070003
:1047c800fbdebf00e24f500004003e00fbdebf00ee
:1047d8000040e800fbfeb700020037000040eb0095
:1047e800fbfeb7000080fa00000006000200fa0095
:1047f800fcdebf000080fb00000f78001e00780080
:10480800e10f5000150032001e007800e10f500043
:1048180004003c001e0078000000e00008003200a0
:104828001a0037001e007800e20f50001200320014
:104838001e007800e30f5000130032001300370009
:10484800210020000000eb006bfc07002100200085
:104858004000200068fc07000c0037002100200001
:104868007000200064fc0700210020005000200098
:1048780061fc0700050037002100200060002000cf
:104888005dfc070001003700acfd0700fcdebf003f
:10489800e24f500004003e00fcdebf000040e8008c
:1048a800fcfeb700020037000040eb00fcfeb7003a
:1048b8000080fa00000006000600fa00000f7800e9
:1048c8001e007800200798002e009000e10f50008d
:1048d800140032002e009000e10f5000040039004f
:1048e8002e009000e20f50001b0032002700370016
:1048f8009e00780032e98000200320000088b9007b
:10490800020040008000400080bf2100008040007d
:104918009000780050f580008080500011079800c2
:104928001c0037009e00780032e980002003200038
:104938000088b900020040008000400080bf2100cc
:10494800008040009000780060f580008080500072
:10495800110798000f0037009e00780032e98000a8
:10496800200320000088b9000200400080004000b9
:1049780080bf2100008040009000780050f880003f
:10498800808050001107980002003700a0292000fd
:10499800100798001e0090000080fa000000060032
:1049a8000c00fa0040079800510798006000b80012
:1049b80020079800310798004e009000e20f500041
:1049c80030003e005e0090000000e0002d00320044
:1049d800de00900020032000808f500029003e0058
:1049e8000000eb001007980031e980005e0090009d
:1049f800008050003003b00022032000110009009d
:104a08000280d8008000fd00000f780019003700f0
:104a1800ce0090001e017800200320000088b90015
:104a2800020040008000400080bf2100008040005c
:104a3800100078006101b9002e009000be009000bf
:104a48000000410081804900200798003107980044
:104a58001e0090000000e800100798001e00e80003
:104a680022032000110009000200d8008000fd0088
:104a7800000f78009e0090005e009000808f50002c
:104a8800e3ff39005e0090006101b8002e0090003d
:104a9800be00900068020200000000000080fa00da
:104aa800000006000000fa00510020000000eb00a2
:104ab800bbff07008000780050f5800000805000a0
:104ac80070f588005100200010002000b4ff070096
:104ad8008000780060f580000080500080f5880034
:104ae8005100200020002000adff07008000780062
:104af80050f880000080500090f588000080fa008f
:104b0800000006000000fa00889fbe008a9fbe00d1
:104b1800e4ff070070f580006103b90070f58000bc
:104b28006101b9000235b80003b0b9000b02780082
:104b3800000242000790b900000242008405780094
:104b480080f580006104b90080f580006101b9003a
:104b58000243b80003c0b90007027800000242000f
:104b68000990b90000024200840378000a05430056
:104b78008b854b0090f580006104b90090f58000aa
:104b88006101b9000243b80003c0b9000702780008
:104b9800000242000990b900000242008403780034
:104ba8000a0043008b804b008602020000000000d0
:104bb8008c02020000000000a0f58800b1f5880012
:104bc80070f580006103b90070f580006101b900db
:104bd8000235b80003b0b9000b02780000024200a9
:104be8000790b900000242008405780080f5800033
:104bf8006104b90080f580006101b9000243b80082
:104c080003c0b90007027800000242000990b90009
:104c180000024200840378000a0043008b804b00a6
:104c280086020200000000008c0202000000000062
:104c38000004be0090f58000cf80de0086020200ee
:104c4800000000000801be00f6020200000000009b
:104c5800c209230053262c00300302000000000084
:104c680002002000432b24009a03020000000000e9
:104c7800e0f58800f1f58800e0f58000f1f58000a6
:104c880002002000030a240054040200000000006f
:104c98000000e00001003500040037006000b800a3
:104ca800c0f58800d1f588001600370080f580002f
:104cb800cf80de0086020200000000000004be0073
:104cc80070f58000cf80de00860202000000000040
:104cd8000801be00f602020000000000c20923001d
:104ce80053262400300302000000000002002000c8
:104cf800433324009a03020000000000c0f5880036
:104d0800d1f588004f05be004f04be000080fa00b0
:104d1800000006000000fa00210320000000eb005c
:104d28001fff070050f58800210320001000200015
:104d38001bff070060f588002103200020002000e9
:104d480017ff07008000780080d12f000080400006
:104d580050f888000080fa00000006000c00fa00f5
:104d6800881f78000004780066ff0700a0f580001f
:104d7800b1f58000008fbe00c0f58000d1f580003d
:104d88002007980031079800e0f58000f1f58000d1
:104d980040079800510798008e00780008007800b6
:104da8001101be000288be0064004000e48040009b
:104db8001101be000288be0064004000e48040008b
:104dc8001101be000288be00080078004f04780078
:104dd8000080fa00000006000000fa0049ff070002
:104de800e0f58000f1f580000080fa000000060080
:104df8000000fa0043ff0700c0f58000d1f58000ed
:104e08000080fa00000006000000fa003dff0700dd
:104e1800a0f58000b1f580000080fa0000000600cf
:104e28000600fa00881f7800000478001dff0700bc
:104e380070f58000000f780080f58000100798005a
:104e480090f58000200798001e00be00008cbe0070
:104e5800ae00900021049800080078004f04780004
:104e68000080fa00000006000000fa000dff0700ad
:104e780070f580000080fa00000006000000fa00cb
:104e880008ff070080f580000080fa000000060097
:104e98000000fa0003ff070090f580000080fa0088
:104ea800000006001600fa006000b800008fbe007f
:104eb800cfff0700008fbe0040f58000cf80de00e6
:104ec80086020200000000001e01be0098030200d6
:104ed800000000005804020000000000200f9800a5
:104ee8002e0890000000e00003003d00ae0890008e
:104ef8008100ea00210f98002e0990006110b90086
:104f0800860202000000000002002000030a2400bc
:104f18009a040200000000000000e00001003c00cc
:104f280061013700c5e2a900c5c2bf000080fb00cf
:104f38004700de00614060004601dd00512c200082
:104f480091407800f0cbb30000c0600002407000d0
:104f5800c5e2b700c5c2bf000080fb004600de0006
:104f680061406000614060004501dd00512c200077
:104f780091407800f0cdb30000c06000024070009e
:104f8800c5e2b700c5c2bf000080fb004500de00d7
:104f980061406000614060004201dd00512c20004a
:104fa80091407800b0cfb30000c0600002407000ac
:104fb800c5e2b700c5c2bf000080fb004200de00aa
:104fc80061406000614060004401dd00512c200018
:104fd80091407800f0ceb30000c06000024070003d
:104fe800c5e2b700c5c2bf000080fb004400de0078
:104ff800614060006140600000414000512c200089
:1050080091407800d0cfb30000c06000024070002b
:10501800c5e2b700c5c2bf000080fb000000d10098
:1050280061406000c700dd00c4c2bf000074a10079
:1050380001407000c4e2b700c4c2bf000080fb009a
:105048004700de00614060004601dd00412c200081
:1050580091407800f0cbb30000c0600002407000bf
:10506800c4e2b7000040eb002057980002002c0073
:10507800833a24001e00be009a04020000000000cb
:105088000000e00001003c000200370011c0b3003e
:10509800215798000041eb001257980002002000a9
:1050a800431b24001e00be00540402000000000040
:1050b8000000e000010034000200370010c0b30017
:1050c80010579800ae5090001e51900002c070001a
:1050d8000004a2000004e00012003a000040eb00c7
:1050e8000057980002002800634224001e00be00fa
:1050f8009e040200000000000000e00001003a00e9
:105108000200370011c0b300015798000e509000fc
:105118000004a2000004e00002003a00c4c2a80093
:10512800dd0037000041eb00724f980002002000bc
:10513800431b24001e00be009a0402000000000069
:105148000000e00001003c000200370010c0b3007e
:10515800704f98007e4890000004a2000004e00010
:1051680012003a008040eb00614f980002002000d6
:10517800732824001e00be00540402000000000032
:105188000000e000010034000200370012c0b30044
:10519800624f98006e4890000004a2000004e000ee
:1051a80002003a00c5e2a800bb0037000040eb004f
:1051b800504f980002002000732824001e00be00f3
:1051c8009a040200000000000000e00001003c001a
:1051d8000200370011c0b300514f98005e4890009c
:1051e8000004a2000004e00012003a000041eb00b5
:1051f800424f980002002000132e24001e00be001b
:1052080054040200000000000000e0000100340027
:105218000200370010c0b300404f98004e4890007d
:105228000004a2000004e00002003a00c5c2a80081
:10523800990037008040eb00314f980002002000b1
:10524800132e24001e00be009a0402000000000075
:105258000000e00001003c000200370012c0b3006b
:10526800324f98003e4890000004a2000004e0007d
:1052780012003a000040eb00204f9800020028007e
:10528800d33124001e00be005404020000000000b8
:105298000000e000010034000200370011c0b30034
:1052a800214f98002e4890000004a2000004e0005e
:1052b80002003a00c5a2a800770037000041eb00c1
:1052c800124f980002002800d33124001e00be00af
:1052d8009a040200000000000000e00001003c0009
:1052e8000200370010c0b300104f98001e4890000d
:1052f8000004a2000004e00012003a008040eb0025
:10530800014f980002002800a33424001e00be00ac
:1053180054040200000000000000e0000100340016
:105328000200370012c0b300024f98000e489000e8
:105338000004a2000004e00002003a00c542a800f0
:10534800550037000040eb00704798000200280025
:10535800a33424001e00be009a04020000000000ce
:105368000000e00001003c000200370011c0b3005b
:10537800714798007e4090000004a2000004e000fd
:1053880012003a000041eb00624798000200280032
:10539800733724001e00be00540402000000000001
:1053a8000000e000010034000200370010c0b30024
:1053b800604798006e4090000004a2000004e000de
:1053c80002003a00c582a800330037008040eb0095
:1053d8005147980002002800733724001e00be00c1
:1053e8009a040200000000000000e00001003c00f8
:1053f8000200370012c0b300524798005e40900088
:105408000004a2000004e00012003a000040eb0093
:105418004047980002002400233924001e00be00e3
:1054280054040200000000000000e0000100340005
:105438000200370011c0b300414798004e40900069
:105448000004a2000004e00002003a00c522a800ff
:105458001100370002002400233924001e00be007a
:105468009a040200000000000000e00001003c0077
:105478000900370002002c00833a24001e00be00f9
:1054880054040200000000000000e00001003400a5
:1054980001003700c4e2a8001e00be005804020044
:1054a8000000000040f588000080fa0000000600b7
:1054b8002000fa00881f78000082eb00540f980043
:1054c8000002eb00040f98007a0247001300200046
:1054d80004017800e1ff2f00f00720003a130700cd
:1054e80000027800040f98000e0a90006302620020
:1054f800040f98000002eb00140f98000e0a9000a9
:10550800e30f5200030032000e0a9000e00f520031
:1055180005003a0014002000040f7800c40320009e
:105528001407980004003700c4032000040f780013
:10553800140020001407980084002000240f98000d
:105548009e0278001e02900004aab90004027800a6
:10555800340f9800881207002e0c9000ae099000b6
:105568009e0290002e0a900004aab9000402780056
:10557800040178009e0278002e0a900004aab9005f
:1055880004027800640f98009e0290002e0a900092
:1055980004aab90004027800051e20008482520083
:1055a80024002000110009008402d80000027800bd
:1055b800740f98009e0278002e0a900004aab90081
:1055c800040278000528200084825200240020006c
:1055d800110009008402d8000002780084037800d2
:1055e8001e0b900088027800030278008201780080
:1055f8006e099000fe08900007007800121207005c
:1056080011002000100020003b1207005112070073
:1056180000802000ad11070048fa07000000eb00e9
:1056280051fa07000000eb006ffa070000000000c5
:105638000112070000027800e00f5200fcff320060
:1056480004802000340798000002eb0054079800fb
:105658000002eb00640798000002eb007407980052
:105668000042eb00044f98000002eb00240798006a
:10567800160037003e02900094427800055f9800bb
:105688003e0290000402e800340798000e5a900089
:105698000482fb00de029000048242005407980056
:1056a8008e5a90000e4a900084cf520004003600b3
:1056b8000e589000004f9800ae00900071079800b7
:1056c8002e0290000402e800240798002e029000a1
:1056d800fd0f5200e7ff3400160037003e0290002d
:1056e80094427800055f98003e0290000402e800aa
:1056f800340798000e5a90000482fb00ee029000d6
:1057080004824200640798008e5a90000e4a900066
:1057180084cf5200040036000e589000004f9800c5
:10572800ae009000710798002e0290000402e80075
:1057380024079800ae0290001e029000848f520049
:10574800e6ff35007e029000f30f520004003e0091
:105758001100200070002000a7f807000b00370098
:10576800fe02900074022000848f520004003e0064
:10577800110020000000eb009ff80700030037002d
:1057880011002000100020009bf807000e0a90006e
:10579800e30f5200030032000e0a9000e20f52009d
:1057a8000e003a007e0290006a22b90004027800d6
:1057b800c412b100040078000f050700fe02900033
:1057c80064ff2f0004aab90004027800c412b000d4
:1057d800040078004a0507000d003700fe0290001b
:1057e80064ff2f0004aab90004027800c412b000b4
:1057f80004007800000507007e0290006a22b900c4
:1058080004027800c412b100040078003c050700c7
:105818000e4a90000482fb00fe029000851f78006b
:10582800841f78006e009000801f7800de009000d2
:10583800811f780004422900841f7800008020001e
:10584800faee0700ea875700008020000def0700f6
:1058580000027800840078000080200066130700aa
:105868008038210001002000a113070068ff3700dd
:105878001600fa00881f78000002eb004407980021
:105888004401200054079800440120006407980050
:105898008400200074079800de0290006e029000d9
:1058a80004aab90004027800040f9800b211070096
:1058b8007e049000fe019000ee0290007e029000af
:1058c80004aab9000402780004017800de029000fe
:1058d8007e02900004aab90004027800140f980010
:1058e800ee0290007e02900004aab900040278003b
:1058f800051e2000848252002400200011000900a7
:105908008402d80000027800240f9800de0290007c
:105918007e02900004aab90004027800052820003d
:105928008482520024002000110009008402d8005b
:1059380000027800840378004e0390008802780003
:1059480003027800820178001e099000ae089000da
:10595800070078003c11070011002000100020000b
:10596800651107007b110700eafc07000080200092
:10597800d610070071f907000000eb007af907005c
:105988000000eb0098f907000000eb00880f070003
:1059980000027800fe0f52000a003c0010002000b0
:1059a800830f070000027800fe0f520005003c003c
:1059b800200020007e0f070000027800fe0f520032
:1059c800020034001000200067f907000000eb0017
:1059d8004e1007000002780005192000850f5200bc
:1059e80003003400110020000000eb0002f807005b
:1059f800100020004510070000027800051920005b
:105a0800850f520003003400110020001000200010
:105a1800f9f70700200020003c100700000278007a
:105a280005192000850f52000300340011002000e2
:105a380020002000f0f70700300020003310070096
:105a48000002780005192000850f52000300340079
:105a58001100200030002000e7f707004000200078
:105a68002a1007000002780005192000850f52004f
:105a7800030034001100200040002000def707007a
:105a880050002000211007000002780005192000ae
:105a9800850f520003003400110020005000200040
:105aa800d5f70700600020001810070000027800f2
