:020000040000fa
:080000000001040000000000f3
:020000040000fa
:10000800b8020000b8020000b8020000b802000000
:10001800b8020000b8020000b8020000b8020000f0
:10002800b8020000b8020000b8020000b8020000e0
:10003800b8020000b802000036370000b80200001d
:10004800b8020000fa3f0000403f0000ba19000063
:10005800b8020000b8020000262b0000b802000019
:10006800b8020000b8020000b8020000b8020000a0
:10007800b80200007a400000a6010000b8020000a3
:10008800b8020000b8020000b8020000b802000080
:10009800b8020000b8020000b8020000b802000070
:1000a800b8020000b8020000b8020000b802000060
:1000b800b8020000b8020000b8020000b802000050
:1000c800b8020000b8020000b8020000b802000040
:1000d800b8020000b8020000b8020000b802000030
:1000e800b8020000b8020000b8020000b802000020
:0800f800b8020000b80200008c
:020000040000fa
:10010800b8020000b8020000b8020000b8020000ff
:10011800b8020000b8020000b8020000b8020000ef
:10012800b8020000b8020000b8020000b8020000df
:10013800b8020000b802000036370000b80200001c
:10014800b8020000fa3f0000403f0000ba19000062
:10015800b8020000b8020000262b0000b802000018
:10016800b8020000b8020000b8020000b80200009f
:10017800b80200007a400000a6010000b8020000a2
:10018800b8020000b8020000b8020000b80200007f
:10019800b8020000b8020000b8020000b80200006f
:1001a800b8020000b8020000b8020000b80200005f
:1001b800b8020000b8020000b8020000b80200004f
:1001c800b8020000b8020000b8020000b80200003f
:1001d800b8020000b8020000b8020000b80200002f
:1001e800b8020000b8020000b8020000b80200001f
:0801f800b8020000b80200008b
:020000040000fa
:10020000cff820000e7f22000e01880000000000c1
:10021000000020000000e000020032000001200089
:10022000200288000c00070020c6230001002000e7
:1002300011000700000020000000e0000200320072
:100240000000020000000000e0400200000000008a
:100250000040da000000fe004440a9000000200039
:100260000000e0000300320000002000a001880030
:100270004440a8000000060091018800800078003a
:100280000000eb0015003700e280400032a0b4000f
:100290009101ba00e280400032a0b4009102ba009d
:1002a000e280400032a0b4000002eb00472bde00e9
:1002b000f507b200602ce10004003a000059eb00a1
:1002c0008301e900fdff3e00040037006128e100e2
:1002d000010032000082eb00040007001101ba00a7
:1002e0000200e000e8ff3a00000006003159ba00c1
:1002f0008301e9000c0032002159ba008301e900b2
:10030000080032000400e00003003a00e2804000f0
:1003100032a0b400f5ff370011d9ba008301e9001b
:10032000faff3a008100e800e180400032a0b4000a
:1003300000000600442b040000000000122c040002
:10034000000000006614040000000000801f780018
:100350003400f80000002000a00188000000fa002e
:1003600086c0a9001fe1a80021e1a9000080fa00d1
:100370003400f9004f007800004006000000fa0049
:1003800024002000040988000002eb00c408880053
:1003900014002000e408880086c0a9008ec0a800d0
:1003a00021e1a8000080fa00000006000000fa0029
:1003b00024002000f4088800045e8000a40888005f
:1003c000045e80000402e800d408880086a0a9002a
:1003d0001fe1a9008ea0a8000080fa00000006001e
:1003e0000200fa00000f78000002eb00145e8800a3
:1003f0001e027800e45d88000002eb00f45d8800d6
:10040000eaff0700ddff07000080fa000000060099
:100410001000fa0030079800410798005207980032
:1004200063079800740798000002eb001407980017
:10043000ce0290005e02900004aab9008402780007
:100440006e0290000402e80004aab90004027800d9
:100450000402e80084027800a4142000848f520073
:10046000020036000082eb00390037000002eb008a
:10047000040f7800280037000002eb0024079800e2
:100480000b0037009e02900064bc20008482420072
:1004900014c0b300844a78001e0290000402e800f1
:1004a000140798002e0290000402e8002407980028
:1004b000ae0290005e029000848f5200f1ff350082
:1004c0000002eb00240798000b0037009e0290000a
:1004d00064bc2000848242000042eb00844a780021
:1004e0001e0290000402e800140798002e029000fb
:1004f0000402e80024079800ee0290005e029000db
:1005000004aab900840278002e029000848f520061
:10051000eeff3c001e0fe8004e0290009e027800a5
:10052000848f5200d4ff35009e02900064bc2000ee
:100530008482420024c0b300844a78007e02900086
:10054000045e88003e029000245e88000002eb00fa
:10055000040078000080fa00000006000000fa00a5
:10056000f45d8000040078000080fa0000000600be
:100570000040da000000fe00889fbe008004780082
:10058000d07b8000e00f500004003a001900070003
:100590000084eb00e00f500008003500d87b80009d
:1005a000e08f5400050032000900440011000700ec
:1005b000e00f500001003d000084eb0008007800cf
:1005c0004f04be000000060064108000e00f5200df
:1005d00006003d0004402000751080000502620006
:1005e000020032000f02ab00feff32000040da00d2
:1005f000feff3700e00f500004003a00c4f720006f
:10060000d47b880000027800060037000082eb00ef
:10061000c5f82000850f500002003e00d07b880006
:100620000002eb0004007800000006004f89de00a5
:100630008201780008013700889fbe008a9fbe00b3
:100640008c1f7800140107001b01330003866c0027
:100650006450e1002e0032006420e10033003200db
:100660006150e1002f0032006120e10031003200d2
:1006700085855500eb07b000090020000804200024
:10068000050037000804440089844c000a0031004a
:100690000603430087834b000001530081815b0008
:1006a000f8ff33000203be000800a0000804440065
:1006b00089844c00f6ff3900c639dd0083017300e0
:1006c00001003200130020008904d1000884d30007
:1006d0000998a300050032000800a7000300a0004d
:1006e0008904d1000884d3008b05e8008904d10077
:1006f0000884d3000001eb000281d200fe00070055
:1007000001f0a1000cf0a70001f0a000f3003700f9
:100710006420e100f50032000801be000200be00c6
:10072000f7ff37006120e100f00032006000b80000
:10073000f3ff37000000200001f82700f0ff37002a
:100740000001be00120107000470a70003f0a10021
:100750006509b100160032000d0035006828e1007f
:1007600006003500f0ff2f00f1ff27000300e00036
:1007700013003b00010028000000050000004000bd
:10078000818048008502e900fcff3a00080037003c
:10079000f88f420002003c008000eb0000000500e2
:1007a0008100d1000080d3008502e800fcff3a0000
:1007b0000300e00002003b0060001000e080180031
:1007c00000000600839f68000100e00002003d0079
:1007d00060001000e08018000300e00002003d000f
:1007e00060011100e0811900fe0007004f00e000e9
:1007f00002003b0060001000e080180000000600ce
:10080000889fbe008a9fbe008c1f7800a200070050
:10081000a900330003866c006450e100240032001c
:100820006420e100270032006150e1002200320024
:100830006120e100210032008b854200eb07b1000e
:100840000134b800003ab8000804420089844a0024
:10085000013ab8000030b8008880400009014a0021
:10086000040033000000400081804800020149007c
:100870008b05e900c909dd00830170000100320029
:1008800013002000c814de004814dd004709de0014
:100890001200b200c808de0008847000960007004d
:1008a00001f0a1000cf0a70001f0a0008b003700c0
:1008b0006120e1008d0032000801be000200be0090
:1008c000f7ff37006150e100fcff3a008700370076
:1008d00003f0a200889fbe008a9fbe008c1f780094
:1008e0006d000700740033006450e1004f003200d7
:1008f0006420e1005200320003826c0007003b00dc
:100900000905d0000306d000820f54000c065d00dc
:1009100002003900020032008901780003067800e5
:100920008582550004003d000003fd008103fd00a9
:100930008502ea008b854200840f720002003b00b2
:1009400060001000e08018006011b8000005eb00a6
:100950007a28e1000a00390006007800c75ddd0052
:10096000f707b200878075002d0037008281710083
:100970000a017800610560008180d1000080d30009
:100980008502e900f9ff3b00060440008784480027
:1009900002003b0060041400e0841c000988a300ee
:1009a000070032008a817100828171006101640058
:1009b0008904d1000884d3008b05e80017003700b4
:1009c0000978a30013003a000b00e0001300340084
:1009d0008b05e9000804440089844c000a44740033
:1009e0000978a3000d003a000b00e0000700340076
:1009f0008b05e9000804440089844c0001003a009a
:100a00000b0020000978a300f7ff32000001eb0083
:100a100002003700828171000a0178003600070069
:100a20000cf0a70001f0a0002c0037006420e100ca
:100a300002003a00838f6c002c0033000801be00d6
:100a40000200be0025003700f4ff2f0075003700bc
:100a50001400200073003700881f7800030478001a
:100a60000300e00007003d0060001000e080180077
:100a700060011900e081190002003b0001f02d0027
:100a8000030037008200070008f0a70001f0a00073
:100a90004f047800000006000004be003c00070080
:100aa0000003be000405be000200be0038000700bf
:100ab000844f7500000006000200be006450e10093
:100ac000050036006420e100020036000968a3003a
:100ad00001003a000800be000160a0004f06780047
:100ae0004f05be004f04be0000000600f0ff2f00bf
:100af000f1ff2700f9ff37008100200061805500d9
:100b00000b003d000b00200061fe2f000100e10002
:100b10001d00340082817100610164008904d100ec
:100b20000884d3000000e800faff3a0071002000ba
:100b300061006400030070000200600009003200e0
:100b400061044400e0844c000988a50005003200df
:100b50008b05e8006808e10002003a008904d10032
:100b60000884d300f20f20000258e10005003d0088
:100b7000c75ddd00f907b2008980750008007800c4
:100b8000000006000bf827008b007800000005002d
:100b9000c70ade00f107b200f50fb200080032000c
:100ba000e1cf4200020032000170a00024000500e5
:100bb000810f7000010032000408050044000500a8
:100bc000810f700002003a00140005008502e90060
:100bd0000000400081c04800fcff3b000170a00005
:100be000240005006022b800060220000000d000aa
:100bf0008180d2000482d2008582d2000000a00051
:100c00000202520083825a000300310002024200b5
:100c100083824a000000a1000603e900f3ff3a00c6
:100c200000000600889fbe008a9fbe00841f7800d7
:100c300099ff07004f00780011003300f0ff2f00ec
:100c4000838f6c0006003b00040565000a00a700c6
:100c50000800370009f0a600100020000800370047
:100c6000820f5400838f5c000300390010002000c5
:100c700001003e000000200009f0a7000000ea008b
:100c80004f05be004f04be000000e000000006005b
:100c9000889fbe008a9fbe0000827000040271001f
:100ca00004827100260032000004be000200be0073
:100cb0006011b8006b092000950220000182cf006e
:100cc0000a0039000541b1000082cf000700390059
:100cd0000541b1000982cf00040039000541b1008f
:100ce0000882cf00010039000541b10005425200e1
:100cf000120032000a003b00828171006101640031
:100d00008100d1000080d3008984d3000884d300ff
:100d10008b05e8000442e800f7ff3a0007003700bf
:100d20000804440089844c00000048008180480089
:100d30008b05e9000442e900f9ff3a006eff070065
:100d40004f05be004f04be000000060084f62000e0
:100d5000e4874700457b8000889fbe008a9fbe00d5
:100d60008c9fbe008e1f7800e08f52000b003a006f
:100d700024029800e4024200847b8800457b8800be
:100d8000957b8800a44290000504a00025429800ad
:100d9000e44290000504a00065429800670440000a
:100da000c4f72000250020004244de00c9f82000de
:100db0004244dd008484540005074400110009000a
:100dc0008504d800fcf82000827b800004065600d1
:100dd00080bf9f000e0747000003eb00e4054400be
:100de0000806460002003700160020000d017800ba
:100df0002242900061026200020032000a003700c5
:100e00001509780092027800254290006102620084
:100e1000fbff320008024100848f520002003900bb
:100e2000e00f54003f003d00920678000d00a10045
:100e3000828f5600edff3e00e10f5300eaff3a00bb
:100e40000fba9700840f540002003600890f540037
:100e500010003900614ab900b0ff2f0001002000e6
:100e60006143b8000402500085825800840f53008b
:100e7000858f5b00020035000b0578000600370007
:100e8000110009000986d8000982b900040578001c
:100e9000010037000e0578000a007800b6fd070053
:100ea000e10f400005003a000b0578000b007800c8
:100eb000b1fd0700e10f40002b003200947b800061
:100ec000000a7800947b800064034200a4429000f2
:100ed000860f5000020032000504a0000100370018
:100ee0000504a100254298006405550084f6200001
:100ef0000a0540000a0878009a7b8800040d7800f3
:100f0000957b80000003eb00254290000404a000c4
:100f1000a4429800204290000404a10024409800bc
:100f2000b2ff3700847b8800848f520007003600b0
:100f30001403be008042eb00a67b8800b77b8800cc
:100f4000120a7800847b800025429800224290009b
:100f5000877b80000404a0000709780024419800e2
:100f600064004100010037000000eb004f077800eb
:100f70004f06be004f05be004f04be004f00b1003b
:100f800000000600e00f500008003200640050002e
:100f9000847b8000840f500001003100807b88003a
:100fa000204290000404a1002440980000000600a4
:100fb000889fbe00000478008a9fbe0081047800ec
:100fc000e08f540005003a00e00f54003200320078
:100fd00008007800ebff070030003700e00f5400f6
:100fe00004003a000900780058ff070080047800e8
:100ff0002a003700640254009405780068fa9700cc
:10100000610262000200320008007800ddff070084
:10101000090078004dff070080047800e08f54003d
:101020001e003200888f54001b00320069bd9700fb
:101030008885550009055500c2ddde0042d5de0079
:101040000a0178008b0f5500010036000b01780073
:101050004211dd00880078000900780018000700c0
:10106000888f54000d0031004255dd000a85440090
:10107000880f55000900360008045500a47b800045
:10108000b57b800042c4de004244dd000884440099
:10109000048cbe0001003700880478000900780045
:1010a0004f05be004f04be00000006000200fa001b
:1010b000f0bf9f00090007007fb8970042fd0700be
:1010c0000002780002003700315a78000201e9007e
:1010d000e00f5100fcff3a0000000600000006008f
:020000040000fa
:1010e0000200fa00a21a07000002eb00040f7800c9
:1010f0000d0037009e02e80004e020000482420058
:10110000144278008442780004e020001e0242006d
:10111000144278000541780084407800c0cdb300c7
:10112000cb1a07001e8fe8009e027800740d200085
:10113000848f5200efff3600911a07000080fa00fa
:10114000000006000200fa00881f7800881a0700d5
:101150000002eb00040f78000c0037001e04e800ca
:1011600004e020001e02420014427800844078000f
:10117000c0cdb300861a07000042780005e02000c9
:1011800085024400844a78001e8fe8009e027800a1
:10119000740d2000848f5200f0ff3600781a07008b
:1011a0004f0478000080fa00000006000200fa00f8
:1011b000000f78001e027800e10f52000900320093
:1011c000e20f52000c003200e00f52000f003a0014
:1011d000c4c0b3000002fd0043eeb7000002fd00f2
:1011e0000c00370084c0b3000002fd0043eeb700de
:1011f0000002fd000700370024c0b3000002fd001c
:1012000043eeb7000002fd00020037000082eb0051
:10121000010037000002eb00040078000080fa00b3
:10122000000006000200fa00000f780044042000cd
:101230009e027800848f5200070032001e02780060
:10124000f10f520004003200340320009e027800a7
:10125000848f520007003a001e0278000442780092
:101260000002fd0033eeb7000002fd000002eb00bb
:10127000010037000082eb00040078000080fa00d3
:10128000000006000200fa00000f78001e0278003d
:10129000e00f52001b003200040220009e02780082
:1012a000848f520017003200040320009e02780051
:1012b000848f520013003200040420009e02780044
:1012c000848f52000f003200040520009e02780037
:1012d000848f52000b003200040620009e0278002a
:1012e000848f520007003200040620009e0278001e
:1012f000848f5200030032001e027800f00f52006b
:1013000007003a001e027800044278000002fd0047
:101310002deeb7000002fd000002eb0001003700d7
:101320000082eb00040078000080fa000000060054
:101330000800fa002007980031079800ae029000dc
:101340003e029000848f5200020039000082eb00c0
:101350001c003700be02900034382000848f5200f9
:10136000020036000082eb00160037002e029000cb
:101370000402e900240798002e029000044f780030
:101380002e0290004822de00144798003e02900092
:10139000244798003e0290004822de00344798001f
:1013a0001e40900009eeb7001e4078000beeb7001b
:1013b0003e40900011eeb7002e40900013eeb700b3
:1013c0000002eb00040078000080fa000000060034
:1013d0000800fa002007980031079800ae0290003c
:1013e0003e029000848f5200020039000082eb0020
:1013f00019003700be029000341f2000848f520075
:10140000020036000082eb00130037002e0290002d
:10141000044f78002e0290004822de001447980006
:101420003e029000244798003e0290004822de00d1
:10143000344798001e4090000deeb7001e40780023
:101440000feeb7003e40900015eeb7002e40900022
:1014500017eeb7000002eb00040078000080fa00ed
:10146000000006000c00fa003007980041079800c1
:1014700052079800be0290004e029000848f5200e6
:10148000020039000082eb0028003700ce029000f5
:10149000341f2000848f5200020036000082eb00cf
:1014a00022003700de02900034382000848f520082
:1014b000020036000082eb001c0037003e02900064
:1014c000044f78003e0290004822de001447980046
:1014d0004e029000244798004e0290004822de0001
:1014e000344798005e029000444798005e029000e6
:1014f0004822de00544798001e40900091eeb7004d
:101500001e40780093eeb7003e40900095eeb70085
:101510002e40900097eeb7005e40900099eeb70025
:101520004e4090009beeb7000002eb0004007800f4
:101530000080fa00000006000600fa00100798007c
:10154000210798001e029000e00f520006003200b2
:101550002e029000e00f520003003200a4ccb30032
:10156000044f78000e0037001e029000e00f52007a
:1015700003003200a4c4b300044f78000800370011
:101580002e029000e00f520003003200a4c8b30006
:10159000044f780002003700a4c0b300044f780065
:1015a0001e427800040078002feeb7000080fa0099
:1015b000000006000400fa00204798003147980018
:1015c0000002eb00040f78000e00370004e020005a
:1015d0001e024200944278002e42900084cf5200b6
:1015e00007003a009e02e80004e020000482420066
:1015f000be429000054a78000002eb00060037006a
:101600001e8fe8009e027800740d2000848f520027
:10161000eeff36000082eb00040078000080fa0044
:10162000000006000600fa002047980021079800f5
:101630000002eb00040f78000f00370004e02000e8
:101640001e024200944278002e42900084cf520045
:1016500008003a009e02e80004e0200004824200f4
:1016600014427800ae029000844a78000002eb0039
:10167000060037001e8fe8009e027800740d2000df
:10168000848f5200edff36000082eb0004007800ea
:101690000080fa00000006000200fa00004f780007
:1016a000114798001e40900019eeb7001e407800c8
:1016b0001beeb7000080fa00000006000600fa00ea
:1016c000004f780011479800224798003347980050
:1016d00044479800f4c4b3009e42780084cf52007f
:1016e000020036000082eb000b0037001e4078003d
:1016f0001deeb7001e4090001feeb7002e40900078
:1017000021eeb7004e40900023eeb7003e4090001f
:1017100025eeb7000002eb00040078000080fa001c
:10172000000006000400fa00008fbe001e02be008a
:101730004a2bdd004622de0004027300c62ade00ca
:10174000044278000400780029eeb7001e02be00b3
:10175000422bdd004e22de0004027300ce2ade00a2
:10176000044278000400780027eeb7000042eb0046
:10177000040078002beeb7000080fa00000006009d
:101780000200fa00004f78001e40780035eeb700e6
:101790000080fa00000006000200fa00000f780046
:1017a0001e027800e00f52000800320055e42000cd
:1017b0009542780004c8b30004c272000002fd0024
:1017c00045eeb7000002fd000500370054e420009c
:1017d000144278000474a1000400780045eeb700bc
:1017e0000080fa00000006000400fa00004f7800b4
:1017f00011479800224798001e40780049eeb70034
:101800001e4090004beeb7002e4090004deeb7000a
:101810000080fa00000006000200fa00004f780085
:10182000114798001e4078007f4260000445b000d8
:10183000040078004feeb7001e40900051eeb70054
:101840000080fa00000006000600fa001007980069
:10185000414798004e4290006342620055002000cc
:101860008522dd0004c8b30004c242000002fd006e
:10187000d7eeb7000002fd000002eb00040f780075
:101880000c0037001e0278000402420036052000da
:10189000040343001e0278009e029000048242006e
:1018a0001442780005e0200085024300844a780055
:1018b0001e0fe8001e027800e10f5200f1ff360013
:1018c0000080fa00000006000000fa00a8180700d7
:1018d00074ed2000144278008442780064ed20000a
:1018e000144278000541780084407800c0cdb300f0
:1018f000d7180700a218070085e620009542780057
:1019000024e52000144278008540780004407800e7
:10191000020007000080fa00000006000600fa003e
:1019200040479800514798000002eb0014079800c8
:101930008f1807000002eb00040f78001c0037002e
:1019400004e020001e024200944278004e429000c3
:1019500084cf52001500390004e020001e0242002e
:10196000944278005e42900084cf52000f003e0007
:101970009e02e80004e02000048242001442780045
:101980008442780004e020001e02420014427800e5
:101990000541780084407800c0cdb300ac18070042
:1019a0001e0290000402e800140798001e8fe80051
:1019b0009e027800740d2000848f5200e0ff3600f4
:1019c0006f1807001e029000040078000080fa00e3
:1019d000000006000400fa00100798000002eb0067
:1019e000040f78000c0037001e0278000402420049
:1019f000b6062000040343001e0278009e029000f9
:101a0000048242001442780005e020008502430071
:101a1000844a78001e0fe8001e027800e10f520091
:101a2000f1ff36000080fa00000006000200fa0014
:101a3000004f7800114798001e4078007deeb700f7
:101a40001e4090007feeb7000080fa000000060004
:101a50000200fa00004f7800114798001e407800fd
:101a600081eeb7001e40900083eeb7000080fa00c0
:101a7000000006000200fa00004f780011479800ad
:101a80001e40780085eeb7001e40900087eeb7003c
:101a90000080fa00000006000200fa00004f780003
:101aa0001e427800450020000522dd006f42420002
:101ab000040078009deeb7000080fa0000000600e8
:101ac0000200fa00004f7800114798001e4278008b
:101ad000450020008522dd001e4290006f4262001a
:101ae00004c24200040078009feeb7000080fa00b4
:101af000000006000200fa00004f7800114798002d
:101b00001e429000450020008522dd001e43780023
:101b10006f42630004c2420004007800a1eeb700e7
:101b20000080fa00000006000400fa00008fbe00ea
:101b30001e02be0040aade00cfa2de0004427800f2
:101b400004007800a3eeb7001e02be00482bdd00a3
:101b50004822de0004027300c8aade0004427800b6
:101b600004007800a5eeb7001e0278000442780059
:101b700004007800a7eeb7000080fa00000006001d
:101b80000200fa00004f78001e407800a9eeb7006e
:101b90000080fa00000006000400fa00000f780040
:101ba000110798001e0278004822de0004427800e7
:101bb00004007800afeeb7001e02780004427800ff
:101bc00004007800b1eeb7001e0290004822de004b
:101bd0000442780004007800b3eeb7001e029000c3
:101be0000442780004007800b5eeb7000080fa00e7
:101bf000000006000600fa00004f78001147980028
:101c0000224798003347980044479800554798006a
:101c10002e409000b7eeb7003e409000b9eeb700fe
:101c20001e407800bbeeb7001e409000bdeeb7002e
:101c30004e409000bfeeb7005e409000c1eeb7008e
:101c40000080fa00000006000800fa00000f78008b
:101c5000110798002207980033079800240d2000f0
:101c60001e0f42001e029000240db00014079800c1
:101c70002e02900067024200240798003e02900066
:101c800067024200340798009e029000243520002d
:101c9000848f5200020036000082eb0047003700bc
:101ca000be029000741e2000848f52000200360095
:101cb0000082eb00410037001e0290009e02780077
:101cc000848f520004003100ae0290003e0290006a
:101cd000848f5200020039000082eb003700370089
:101ce000541a20009e027800848f52000c003600a7
:101cf0009e02900094272000848f520008003e002e
:101d0000ae029000740a2000848f52000400360056
:101d1000be02900064142000848f5200020036003e
:101d20000082eb00250037001e0278004822de000a
:101d30000442780004007800c3eeb7001e02780069
:101d40000442780004007800c5eeb7001e0290003f
:101d50004822de000442780004007800c7eeb70095
:101d60001e0290000442780004007800c9eeb7001b
:101d70002e0290004822de00044278000400780021
:101d8000cbeeb7002e0290000442780004007800e9
:101d9000cdeeb7003e0290004822de0004427800fb
:101da00004007800cfeeb7003e02900004427800b5
:101db00004007800d1eeb7000002eb0004007800c8
:101dc0000080fa00000006000600fa0010079800e4
:101dd000210798001e029000e00f5200060032001a
:101de0002e029000e00f520003003200c4c3b30083
:101df000044f78000e0037001e029000e00f5200e2
:101e000003003200c4c2b300044f7800080037005a
:101e10002e029000e00f520003003200c4c1b30054
:101e2000044f780002003700c4c0b300044f7800ac
:101e30001e42780004007800d3eeb7000080fa005c
:101e4000000006000200fa00000f78001e02780071
:101e5000e00f52000700320074e3200014427800c3
:101e60000474a1000002fd0037eeb7000002fd007f
:101e70000600370075e320009542780004c8b300df
:101e800004c272000400780037eeb7000080fa0048
:101e9000000006000400fa00000f78001107980007
:101ea0001e027800e00f52000800320075e32000a7
:101eb00095427800f4cbb30004c262000002fd003a
:101ec00037eeb7000002fd000700370075e3200081
:101ed0009542780004c4b30004c272000002fd0001
:101ee00037eeb7000002fd001e029000e00f520026
:101ef0000800320075e3200095427800f4cdb3006d
:101f000004c262000002fd0037eeb7000002fd00cf
:101f10000600370075e320009542780004c2b30044
:101f200004c272000400780037eeb7000080fa00a7
:101f3000000006000400fa00d4e2200014427800f9
:101f40000482fb0005032000850f520028003200a8
:101f500005032000850f520008003c00f00f5200de
:101f60001b00320005022000850f52001c003200c9
:101f7000e00f52001200320031003700050520004a
:101f8000850f52002200320005052000850f520007
:101f900004003c0005042000850f520018003200a8
:101fa0002700370005062000850f52001c00320074
:101fb00005072000850f52001d0032002000370069
:101fc0000400280005072000048fbe001e00370013
:101fd0000400200065092000048fbe001a003700ad
:101fe0000400240085032000048fbe001600370083
:101ff00004002200c5012000048fbe00120037003b
:1020000004002100e5002000048fbe000e00370010
:102010000480200075002000048fbe000a003700f5
:102020000440280035002000048fbe000600370061
:1020300004202c0015002000048fbe000200370091
:102040006022b8000900370034e420001442780010
:10205000ec4f520004003a001e02be00040242008f
:1020600085824a00048fbe001e02be000400be002e
:102070000080fa00000006000e00fa002007980019
:1020800031079800420798005307980064079800aa
:102090005e029000e00f5200030035005e029000e7
:1020a000e30f5200020034000082eb0067003700ab
:1020b0006e029000e00f5200030035006e029000a7
:1020c000e30f5200020034000082eb005f00370093
:1020d00098ff07000002be00666a200006abb90048
:1020e000060378006020b9008003780007034300ee
:1020f00084027800646a2000042ab80005034300c3
:10210000860278002e039000cfb3de000601be00e9
:102110000400be00abf907000002be00040f780007
:1021200084ff07000002be00666a200006abb9000b
:10213000060378006020b90080037800070343009d
:1021400084027800646a2000042ab8000503430072
:10215000860278003e039000cfb3de000601be0089
:102160000400be0097f907000002be0014079800a3
:102170001e0278004822de00044278000002fd00c2
:102180003beeb7000002fd001e027800044278001a
:102190000002fd003deeb7000002fd001e029000af
:1021a0004822de00044278000002fd003feeb70046
:1021b0000002fd001e029000044278000002fd00b3
:1021c00041eeb7000002fd004e029000e00f520009
:1021d0000700320074e32000144278000444a00099
:1021e0000002fd0037eeb7000002fd0006003700d8
:1021f00075e3200095427800f4ceb30004c262007b
:102200000400780037eeb7006e02900004427800b8
:10221000e34262005e029000044278006342620082
:10222000260020000622dd0084c2420076e3200062
:102230001643780004cfb3000442630004c2420096
:102240000400780037eeb7000002eb0004007800cd
:102250000080fa00000006000400fa00000f780079
:10226000110798001e02780005002000760020006b
:1022700007002000860f5200878f5a00ef003e00b3
:102280000460010007003700230037003f003700db
:102290005b0037007700370093003700af0037004e
:1022a000cb0037001e029000e10f52000e003600f6
:1022b000241680004622de00614262000404a2006f
:1022c000614262000482fb00610262004622dd007e
:1022d00026168000f5fb2f008502630005027200c0
:1022e000241688002c0137001e029000044278005a
:1022f000614262000482fb00610262004622dd004e
:1023000026168000f5fb2f0085026300050272008f
:1023100024168800200137001e029000e10f5200b1
:102320000e003600241680004722de006142620063
:102330000404a200614262000482fb0061026200a8
:102340004722dd0026168000f5f72f008502630086
:1023500005027200241688000f0137001e0290004b
:1023600004427800614262000482fb006102620064
:102370004722dd0026168000f5f72f008502630056
:102380000502720024168800030137001e02900027
:10239000e10f52000e003600241680004922de00b4
:1023a000614262000404a200614262000482fb00f8
:1023b000610262004922dd0026168000f5df2f0051
:1023c000850263000502720024168800f2003700bf
:1023d0001e02900004427800614262000482fb0009
:1023e000610262004922dd0026168000f5df2f0021
:1023f000850263000502720024168800e60037009b
:102400001e029000e10f52000e00360024168000dc
:102410004c22de00614262000404a20061426200bc
:102420000482fb00610262004c22dd00261680005f
:10243000f5ff2e0085026300050272002416880055
:10244000d50037001e02900004427800614262000d
:102450000482fb00610262004c22dd00261680002f
:10246000f5ff2e0085026300050272002416880025
:10247000c90037001e029000e10f52000e00360026
:10248000241680004a22de00614262000404a20099
:10249000614262000482fb00610262004a22dd00a8
:1024a00026168000f5bf2f0085026300050272002a
:1024b00024168800b80037001e02900004427800fd
:1024c000614262000482fb00610262004a22dd0078
:1024d00026168000f5bf2f008502630005027200fa
:1024e00024168800ac0037001e029000e10f520055
:1024f0000e003600241680004d22de00614262008c
:102500000404a200614262000482fb0061026200d6
:102510004d22dd0026168000f5ff2d0085026300a8
:1025200005027200241688009b0037001e029000ee
:1025300004427800614262000482fb006102620092
:102540004d22dd0026168000f5ff2d008502630078
:1025500005027200241688008f0037001e029000ca
:10256000e10f52000e003600241680004e22de00dd
:10257000614262000404a200614262000482fb0026
:10258000610262004e22dd0026168000f5ff2b005e
:102590008502630005027200241688007e00370061
:1025a0001e02900004427800614262000482fb0037
:1025b000610262004e22dd0026168000f5ff2b002e
:1025c000850263000502720024168800720037003d
:1025d0001e029000e10f52000d003600241680000c
:1025e0004f22de00044278000404a200614262002f
:1025f0000482fb004f22dd0026168000f5ff270035
:10260000850263000502720024168800620037000c
:102610001e02900004427800614262000482fb00c6
:102620004f22dd0026168000f5ff2700850263009b
:102630000502720024168800570037001e02900021
:1026400004427800614262000482fb004f22dd00f8
:1026500026168000f5ff2700850263000502720040
:1026600024168800241680004f22de0004427800e1
:102670000482fb00610262004e22dd00261680000b
:10268000f5ff2b0085026300050272002416880006
:10269000241680004e22de00614262000482fb00ac
:1026a000610262004d22dd0026168000f5ff2d003c
:1026b000850263000502720024168800241680003b
:1026c0004d22de00614262000482fb006102620072
:1026d0004a22dd0026168000f5bf2f008502630028
:1026e0000502720024168800241680004a22de00ab
:1026f000614262000482fb00610262004c22dd0044
:1027000026168000f5ff2e00850263000502720088
:1027100024168800241680004c22de0061426200ec
:102720000482fb00610262004922dd00261680005f
:10273000f5df2f0085026300050272002416880071
:10274000241680004922de00614262000482fb0000
:10275000610262004722dd0026168000f5f72f0097
:10276000850263000502720024168800241680008a
:102770004722de00614262000482fb0061026200c7
:102780004622dd0026168000f5fb2f00850263003f
:1027900005027200241688000080fa00000006007e
:1027a0000000fa00c4c2a900c4e2a900c522a90021
:1027b000c582a900c542a900c5a2a900c5c2a90039
:1027c000c5e2a9000080fa00000006000200fa003d
:1027d000000f78001e027800e10f52000e00360054
:1027e000841680004222de00614262000404a200de
:1027f000614262000482fb00610262004222dd004d
:1028000086168000b5ff2f00850263000502720066
:10281000841688000b0037001e02780004427800fe
:10282000614262000482fb00610262004222dd001c
:1028300086168000b5ff2f00850263000502720036
:10284000841688000080fa00000006000200fa00ea
:10285000000f78001e027800e10f52000e003600d3
:10286000841680000402d100614262000404a200c8
:10287000614262000482fb006102620004024200c5
:1028800086168000d5ff2f008502630005027200c6
:10289000841688000b0037001e027800044278007e
:1028a000614262000482fb00610262000402420095
:1028b00086168000d5ff2f00850263000502720096
:1028c000841688000080fa00000006000000fa006c
:1028d000241680004622de006142620004c2ea0043
:1028e000614262000482fb00610262004622dd0058
:1028f00026168000f5fb2f0085026300050272009a
:1029000024168800241680004722de0061426200ff
:1029100004c2ea00614262000482fb0061026200bc
:102920004722dd0026168000f5f72f0085026300a0
:102930000502720024168800241680004922de0059
:102940006142620004c2ea00614262000482fb004c
:10295000610262004922dd0026168000f5df2f00ab
:102960008502630005027200241688002416800088
:102970004c22de006142620004c2ea006142620051
:102980000482fb00610262004c22dd0026168000fa
:10299000f5ff2e00850263000502720024168800f0
:1029a000241680004a22de006142620004c2ea006e
:1029b000614262000482fb00610262004a22dd0083
:1029c00026168000f5bf2f00850263000502720005
:1029d00024168800241680004d22de006142620029
:1029e00004c2ea00614262000482fb0061026200ec
:1029f0004d22dd0026168000f5ff2d0085026300c4
:102a00000502720024168800241680004e22de0083
:102a10006142620004c2ea00614262000482fb007b
:102a2000610262004e22dd0026168000f5ff2b00b9
:102a300085026300050272002416880024168000b7
:102a40004f22de000442780004c2ea0061426200c4
:102a50000482fb004f22dd0026168000f5ff2700d0
:102a60008502630005027200241688000080fa00c7
:102a7000000006000000fa00241680004622de0056
:102a80006142620004c2ea00614262000482fb000b
:102a9000610262004622dd0026168000f5fb2f0051
:102aa0008502630005027200241688000080fa0087
:102ab000000006000000fa00241680004722de0015
:102ac0006142620004c2ea00614262000482fb00cb
:102ad000610262004722dd0026168000f5f72f0014
:102ae0008502630005027200241688000080fa0047
:102af000000006000000fa00241680004922de00d3
:102b00006142620004c2ea00614262000482fb008a
:102b1000610262004922dd0026168000f5df2f00e9
:102b20008502630005027200241688000080fa0006
:102b3000000006000000fa00241680004c22de008f
:102b40006142620004c2ea00614262000482fb004a
:102b5000610262004c22dd0026168000f5ff2e0087
:102b60008502630005027200241688000080fa00c6
:102b7000000006000000fa00241680004a22de0051
:102b80006142620004c2ea00614262000482fb000a
:102b9000610262004a22dd0026168000f5bf2f0088
:102ba0008502630005027200241688000080fa0086
:102bb000000006000000fa00241680004d22de000e
:102bc0006142620004c2ea00614262000482fb00ca
:102bd000610262004d22dd0026168000f5ff2d0007
:102be0008502630005027200241688000080fa0046
:102bf000000006000000fa00241680004e22de00cd
:102c00006142620004c2ea00614262000482fb0089
:102c1000610262004e22dd0026168000f5ff2b00c7
:102c20008502630005027200241688000080fa0005
:102c3000000006000000fa00241680004f22de008b
:102c40000442780004c2ea00614262000482fb0090
:102c50004f22dd0026168000f5ff27008502630065
:102c600005027200241688000080fa0000000600a9
:102c70000200fa00000f78009e00780060462100f4
:102c8000bd0f07000080fa00000006000000fa00f7
:102c900060462100e90f07000080fa0000000600ee
:102ca0000200fa00000f78001e027800e00f5200c8
:102cb000030035009e0078006046210006100700e2
:102cc0000080fa00000006000000fa0024f5200051
:102cd00014427800e04f520010003a008000eb00f0
:102ce000700020005cfd070024f5200014427800ed
:102cf0000482fb00110020000400780056fd07004c
:102d000024f52000144278000442e8000002fd008f
:102d100052efb7000002fd002800370024f5200024
:102d200014427800e74f520012003a0024f52000c8
:102d3000144278000482fb000402e9008000eb00ea
:102d40000400780044fd070024f5200014427800b8
:102d50000482fb0011002000040078003efd070003
:102d60000042eb000002fd0052efb7000002fd0040
:102d70001200370024f52000144278000482fb0082
:102d80000402e9008000eb000400780032fd070037
:102d900024f52000144278000482fb00110020007a
:102da000040078002cfd070024f520001442780070
:102db0000442e8000400780052efb7000080fa00f7
:102dc000000006000000fa0014f52000144278000c
:102dd0000482fb00cfa2de00460020000700200096
:102de000860f5200878f5a0023003e0004600100c6
:102df00004003700070037000d00370013003700cc
:102e000019003700210020000000eb0012fd070030
:102e10001900370021002000100020000efd0700df
:102e200021002000700020000bfd07001200370079
:102e3000210020002000200007fd070021002000c5
:102e40006000200004fd07000b0037002100200077
:102e50003000200000fd070021002000500020006d
:102e6000fdfc070004003700210020004000200086
:102e7000f9fc07000000000014f52000144278005f
:102e8000e34f520007003e0014f520001442780082
:102e90000442e8000002fd0051efb7000002fd000f
:102ea000030037000042eb000400780051efb70048
:102eb0000080fa00000006000000fa0004f520007f
:102ec00014427800e04f520015003a0044f620000a
:102ed00014427800e04f52001100320014c0b300d9
:102ee0000400780050efb7008000eb000000eb001a
:102ef000d9fc070004f52000144278000482fb008e
:102f00001100200004007800d3fc07000042eb0011
:102f10000002fd0064efb7000002fd003a00370038
:102f200004f5200014427800e04f520015003a00ea
:102f300044f6200014427800e04f520011003a009d
:102f400074c0b3000400780050efb7008000eb00bd
:102f50000000eb00c0fc070004f5200014427800dc
:102f60000482fb001100200004007800bafc070076
:102f700014c0b3000002fd0064efb7000002fd00c2
:102f80002100370004f5200014427800e74f52007a
:102f90000d003a000042eb000400780050efb7004b
:102fa0008000eb0070002000abfc070004f520005f
:102fb000144278000482fb00110020000400780015
:102fc000a5fc07001000370004f52000144278002b
:102fd000e14f52000c003a000042eb000400780080
:102fe00050efb7008000eb00100020009afc0700b3
:102ff00004f52000144278000482fb001100200038
:103000000400780094fc07000080fa00000006002d
:103010000000fa00f4f42000144278000482fb005f
:10302000cfa2de003600200007002000860f5200ed
:10303000878f5a0018003e0004600100030037002b
:10304000090037000f003700120037002100200070
:103050000000eb0080fc0700210020004000200061
:103060007dfc07000c00370021002000100020002c
:1030700079fc0700210020003000200076fc0700ca
:1030800005003700210020002000200072fc07000e
:1030900001003700c2fd0700f4f42000144278005c
:1030a000e24f520007003e00f4f420001442780082
:1030b0000442e8000002fd004fefb7000002fd00ef
:1030c000030037000042eb00040078004fefb70028
:1030d0000080fa00000006000000fa00e4f420007e
:1030e000144278000482fb00cfa2de0036002000ec
:1030f00007002000860f5200878f5a0018003e00fc
:103100000460010003003700090037000f0037009a
:1031100012003700210020000000eb004efc0700e9
:1031200021002000400020004bfc07000c0037006d
:10313000210020007000200047fc07002100200033
:103140005000200044fc070005003700210020004b
:103150006000200040fc07000100370090fd0700e0
:10316000e4f4200014427800e24f520007003e00d1
:10317000e4f42000144278000442e8000002fd005c
:103180004eefb7000002fd00030037000042eb00e5
:10319000040078004eefb7000080fa00000006003f
:1031a0000200fa00004f7800771307000002780051
:1031b000a45d88001e427800e14f520005003a00ed
:1031c00014c0b3000002fd00b2ebb7000002fd0026
:1031d000040037000042eb000002fd00b2ebb70034
:1031e0000002fd000002eb00041588000002eb0065
:1031f000141588000002eb00241588000002eb0083
:1032000034158800a45d8000ea0f520003003a00e4
:10321000a802a900a822a90002003700a802a8005d
:10322000a822a800a842a900a862a900a882a90013
:10323000a8a2a900a8c2a900a8e2a900a902a90001
:10324000a922a900a942a900a962a900a982a900ee
:10325000a9a2a900a9c2a900a9e2a900aa02a900dd
:10326000aa22a900aa42a800aa62a800aa82a800cd
:10327000aaa2a900aac2a900aae2a900ab02a900b9
:10328000ab22a900ab42a900ab62a900ab82a900a6
:10329000aba2a900abc2a900abe2a9000415800053
:1032a0000480a1000490a10004158800a042a80099
:1032b000041580000450a0000460a0000470a00069
:1032c00004158800141580000420a1000430a0001b
:1032d0000440a1000450a10014158800a342a800d6
:1032e00025158000f40f2e00848262000410200057
:1032f000050272002415880024bb200014427800c7
:10330000e04f5200060032002515800004fc2f001b
:10331000048262003401b3002415880006003700df
:103320002515800004fc2f008482620074022000b6
:1033300005027200241588008560a9008d60a80030
:10334000a1e2a80024bb200014427800e04f520004
:1033500005003a0000000000355c800004032000f6
:10336000848f5200fbff3600bf1207000080fa0076
:1033700000000600801f7800849fbe00869fbe006c
:103380003400f80000002000a00188000200fa00cc
:103390000042eb000002fd00b0ebb7000002fd00b0
:1033a0000042eb000002fd00b1ebb7000002fd009f
:1033b0008560a90065bb200095427800f4c3b30086
:1033c00084cf520006003e0064bb20001442780007
:1033d0000442e8000002fd00b6ebb7000002fd0069
:1033e000c45d8000e10f420003003200c45d800034
:1033f0000402e800c45d880024bb20001442780069
:10340000e04f52002a00320004282000040f780008
:10341000245c80009e02780095027800040342003c
:103420000480200004024300050a78001e8fe80093
:10343000245c80009e027800950278004406b0006b
:10344000040342000480200004024300050a7800bf
:103450001e8fe800245c80009e02780095027800b0
:10346000840cb000040342000480200004024300e6
:10347000050a78001e8fe800245c80000402e80042
:10348000245c8800255c800034062000848f520074
:10349000150236000002eb00245c880014c0b30063
:1034a0000002fd00b1ebb7000002fd000e02370084
:1034b000c401200054158800141580000420a100c8
:1034c0000430a0000440a1000450a100141588009d
:1034d0002515800004fc2f00848262007402200005
:1034e0000502720024158800a5bb200095427800d3
:1034f000d4c3b30084cf52000e003a00c40f2000a2
:1035000054158800141580000420a0000430a10088
:103510000440a0000450a100141588002515800067
:1035200004fc2f00048262003401b30024158800db
:10353000d5003700a5bb200095427800e4c3b30056
:1035400084cf520064003a00a45d8000ea0f52006c
:103550003b003a00b4bb200014427800e34f520015
:103560000c003e00141580000420a1000430a100ce
:103570000440a0000450a100141588002515800007
:1035800004fc2f00048262007401b300241588003b
:103590000c003700141580000420a1000430a000a6
:1035a0000440a1000450a1001415880025158000d6
:1035b00004fc2f0084826200740220000502720065
:1035c00024158800b4bb2000144278000482fb005c
:1035d000cfa2de004600200007002000860f520028
:1035e000878f5a00a3003e000460010004003700ea
:1035f00006003700080037000a0037000c003700cb
:10360000c4112100541588000c003700c421220089
:103610005415880009003700c4412400541588005f
:1036200006003700c48128005415880003003700c5
:10363000340020005415880000000000920037007c
:10364000141580000420a1000430a1000440a00053
:103650000450a100141588002515800004fc2f00db
:10366000048262007401b30024158800b4bb2000fa
:10367000144278000482fb00cfa2de003600200056
:1036800007002000860f5200878f5a007b003e0003
:103690000460010003003700050037000700370011
:1036a0000a003700c4112100541588007600370045
:1036b000c42122005415880073003700c44124003f
:1036c00054158800000000006f003700c4812800f6
:1036d000541588006c003700a4bb20001442780009
:1036e000e24f520068003a00a45d8000ea0f5200e9
:1036f0003b003a00b4bb200014427800e34f520074
:103700000c003e00141580000420a1000430a1002c
:103710000440a0000450a100141588002515800065
:1037200004fc2f00048262007401b3002415880099
:103730000c003700141580000420a1000430a00004
:103740000440a1000450a100141588002515800034
:1037500004fc2f00848262007402200005027200c3
:1037600024158800b4bb2000144278000482fb00ba
:10377000cfa2de004600200007002000860f520086
:10378000878f5a003f003e000460010004003700ac
:1037900006003700080037000a0037000d00370028
:1037a000c41121005415880037003700c4212200bd
:1037b0005415880034003700c44124005415880093
:1037c00031003700c4812800541588000000000033
:1037d0002d00370034002000541588002a003700df
:1037e000141580000420a1000430a1000440a000b2
:1037f0000450a100141588002515800004fc2f003a
:10380000048262007401b30024158800b4bb200058
:10381000144278000482fb00cfa2de0036002000b4
:1038200007002000860f5200878f5a0016003e00c6
:10383000046001000300370005003700070037006f
:1038400009003700c4112100541588000e0037000c
:10385000c4212200541588000b003700c441240005
:103860005415880008003700c481280054158800ca
:1038700005003700000000000300370000000000d2
:10388000010037000000000004282000040f780029
:10389000b4bb200014427800e34f5200d6003e0033
:1038a000245c80009e0278009502780004034200a8
:1038b0000480200004024300050a78001e8fe800ff
:1038c000245c80009e027800950278004406b000d7
:1038d000040342000480200004024300050a78002b
:1038e0001e8fe800245c80009e027800950278001c
:1038f000840cb00004034200048020000402430052
:10390000050a78001e8fe800245c80000402e800ad
:10391000245c8800255c800034062000848f5200df
:10392000060036000002eb00245c880014c0b300df
:103930000002fd00b1ebb7000002fd00a5bb2000b6
:1039400095427800e4c3b30084cf520023003a00cc
:10395000345c80000402e800345c8800355c800040
:1039600014032000848f5200020036000002eb0096
:10397000345c8800345c80009e02780095027800f8
:103980000403420084a5200004024300050a7800d5
:103990001e8fe800345c80009e027800950278005b
:1039a0002403b0000403420084a520000402430065
:1039b000050a78001e8fe800345c80009e027800c3
:1039c000950278004406b0000403420084a520005c
:1039d00004024300050a7800b2003700a5bb2000ae
:1039e00095427800f4c3b30084cf520033003a000c
:1039f000b4bb2000144278000482fb00cfa2de009a
:103a00003600200007002000860f5200878f5a00e2
:103a10009f003e0004600100030037000b003700e8
:103a2000130037001b0037001e02780014027800d4
:103a3000445c88001e8fe8001e02780014027800a3
:103a4000845c8800e2e2a8001b0037001e027800b8
:103a500014027800545c88001e8fe8001e02780073
:103a600014027800945c8800e302a800120037007a
:103a70001e02780014027800645c88001e8fe80043
:103a80001e02780014027800a45c8800e802a800f6
:103a9000090037001e02780014027800745c880068
:103aa0001e8fe8001e02780014027800b45c8800c3
:103ab000e822a800000000007a003700a4bb200024
:103ac00014427800e34f520073003a00b4bb200068
:103ad000144278000482fb00cfa2de0036002000f2
:103ae00007002000860f5200878f5a006c003e00ae
:103af00004600100030037000f0037001b0037008f
:103b0000280037001e02780014027800e45c880068
:103b10001e8fe8001e02780014027800245d8800e1
:103b2000e2e2a90014c0b3000002fd00bbebb70045
:103b30000002fd005b0037001e02780014027800ce
:103b4000f45c88001e8fe8001e02780014027800e2
:103b5000345d8800e302a90024c0b3000002fd0028
:103b6000bbebb7000002fd004e0037001e027800dc
:103b700014027800045d88001e8fe8001e027800a1
:103b800014027800445d8800e802a90034c0b30044
:103b90000002fd00bbebb7000002fd0000000000ca
:103ba000400037001e02780014027800145d88007f
:103bb0001e8fe8001e02780014027800545d880011
:103bc000e822a900a45d8000ea0f520005003a0037
:103bd00044c0b3000002fd00bbebb7000002fd00d3
:103be000300037000042eb000002fd00bbebb700e5
:103bf0000002fd002b0037001e027800140278003e
:103c00001e8fe800a5bb200095427800f4c3b300e6
:103c100084cf52000b003a001e0278001402780094
:103c2000d45c88001e8fe8001e0278001402780021
:103c3000c45c88001e8fe800d042a800d022a800f3
:103c400018003700a4bb200014427800e34f520054
:103c500014003a001e02780014027800745d880097
:103c60001e8fe8001e02780014027800645d880050
:103c70001e8fe800d042a900d022a9000042eb002c
:103c80000002fd00bbebb7000002fd00050037009d
:103c900000000000030037000000000001003700b2
:103ca00000000000a5bb2000954278008583fb0042
:103cb00014c0b300f6032000868f530001003c00bf
:103cc0000042eb008542e8008002fd00baebb7003d
:103cd0008002fd00e04f5200030032000042eb0082
:103ce00004007800baebb70014c0b30004007800f9
:103cf000b0ebb7000080fa003400f9004f03be00bb
:103d00004f02be004f007800004006000000fa009d
:103d100004bb200014427800044078000080fa00c0
:103d2000000006000000fa0014bb200014427800d6
:103d3000044078000080fa00000006000000fa004d
:103d4000a1e2a8000080fa00000006000000fa00ce
:103d5000a1e2a9000080fa00000006000a00fa00b3
:103d60002007980031079800420798000002eb00f6
:103d700014079800be0290004e029000848f5200fb
:103d800006003a003e029000ae029000048242001b
:103d9000144278000482fb001c0037003e009000b3
:103da000000f7800090037001e027800ae02900074
:103db00004824200144278000482fb009e029000bc
:103dc00004824200140798001e0fe8004e02900083
:103dd0009e027800848f5200f3ff35001e0290008f
:103de000e00f520002003a000002eb00070037002b
:103df000ce0290003e029000048252009e0290008b
:103e0000110009008402d800000278000400780044
:103e10000080fa00000006000e00fa00881f7800fb
:103e200030079800410798005207980063079800f0
:103e3000f47a8000040fe8000002eb0024079800e9
:103e40001f0037009e02e900f47a80001e02120073
:103e50000402e90005017800840078005e0090000b
:103e6000beff0700800278001e0278005e0390000b
:103e700004024300144278000483fb001e02780011
:103e80000402e800de03900004824300144278003c
:103e90000482fb00040343002400200011000900f9
:103ea0000403d8000002780004825200240798001e
:103eb0002e029000e30f520006003c001e0fe800a7
:103ec0006e0290000402e9009e0f5200ddff3c00ec
:103ed00001003700000000006e0290009e02780092
:103ee000848f520003003d002e029000e30f520029
:103ef00002003c000082eb004a0037001e02e8008e
:103f0000140798000002eb00240798001d003700fa
:103f10001e029000de0290000482420014427800eb
:103f20008482fb001e0290005e03900004024300a6
:103f3000144278000482fb008482420024002000a6
:103f4000110009008402d8000002780004047800ff
:103f50001e0190009e0078005e0090007fff070029
:103f60000002780004025400240798002e029000fa
:103f7000e30f520009003c001e0290000402e8001a
:103f8000140798006e0290008402e9001e0290005f
:103f9000848f5200deff3c0001003700000000006b
:103fa0001e0290009e0252003e029000050a780018
:103fb0009e0290006e029000848f5200090035002e
:103fc000ee02900024002000110009008402d800b5
:103fd00000027800840278004e029000050a780002
:103fe0000f0037001e0290009e02520024002000a5
:103ff000110009008402d800000278009e024200ed
:104000006e03900024002000110009000403d80072
:1040100000027800848252004e029000050a780067
:1040200014002000040078004f0478000080fa009b
:10403000000006000e00fa00881f78003007980084
:10404000410798005207980063079800e47a8000bf
:104050008482ea006e029000048f42000002eb00ae
:10406000240798001f003700e47a80001e024200f7
:104070008402e8001e02e800050178008400780050
:104080005e00900035ff0700800278001e02780075
:104090005e03900004024300144278000483fb0096
:1040a0001e0278000402e900de039000048243004f
:1040b000144278000482fb00040343002400200023
:1040c000110009000403d8000002780004825200a5
:1040d000240798002e029000e30f520005003c00d8
:1040e0001e0fe9001e027800e00f5200deff3c00c8
:1040f00001003700000000001e027800e00f5200af
:10410000030032002e029000e30f520002003c0038
:104110000082eb004d0037001e02e90014079800f2
:104120000002eb0024079800200037001e029000d8
:10413000de02900004824200144278008482fb0078
:104140001e0290000402e9005e0390000402430096
:10415000144278000482fb00848242002400200084
:10416000110009008402d8000002780004047800dd
:104170001e0290000402e8001e017800840078000e
:104180005e009000f5fe0700000278000402540073
:10419000240798002e029000e30f520007003c0015
:1041a0001e0290000402e900140798001e0290000d
:1041b000e00f5200ddff3c0001003700000000006e
:1041c0001e0290009e0212003e029000050a780036
:1041d0001e029000e00f52000a003c006e029000a8
:1041e0008402ea0024002000110009008402d800a3
:1041f00000027800840278004e029000050a7800e0
:10420000110037001e0290009e02120024002000c0
:10421000110009008402d8000002780084027800ae
:104220001e029000848242006e0390002400200051
:10423000110009000403d8000002780084825200b3
:104240004e029000050a7800140020000400780057
:104250004f0478000080fa00000006000200fa0017
:10426000000f78009e0278000042eb00844a78003c
:104270001e0278008082eb00150298001e02780072
:104280008082eb00250298001e0278008002eb007d
:10429000350298001e027800c512200045029800e1
:1042a0000080fa00000006000800fa0020079800cd
:1042b000310798003e0190008000eb002e00900036
:1042c000a6fe070000027800140798001e02900066
:1042d000e00f5200190032000002eb00040f7800da
:1042e000110037001e027800ae02900004834200e5
:1042f0001e027800ae029000048242001442780050
:104300000482fb006a22b900840278001e02900039
:10431000110009008402d8000002780004427800ed
:10432000044b78001e0fe8003e0290009e027800c9
:10433000848f5200ebff35000100370000000000c1
:104340000080fa00000006001000fa0050079800f4
:104350006107980072079800e60247000e82e800a5
:10436000fe0190006e019000850078000400780046
:10437000a9fe070000027800044f7800e802470019
:1043800064024700fe0190006e01900085007800f5
:104390000400780027ff0700000278001447980007
:1043a0001e427800e14f420005003a001e42900094
:1043b000e14f420002003a000082eb00310037007a
:1043c0001e427800e14f52000b003a001e4290005e
:1043d000e14f420008003a009e0290005e02900009
:1043e00015029800be0290005e029000250298001f
:1043f00014002000230037001e427800e14f4200e5
:104400000b003a001e429000e14f520008003a00b3
:10441000ae0290005e02900015029800ce0290005d
:104420005e0290002502980014002000150037005d
:104430009e0290002e029000848242002400200000
:10444000110009008402d80000027800840278007c
:104450005e02900015029800be0290004e0290008d
:104460008482420024002000110009008402d80048
:1044700000027800840278005e0290002502980015
:1044800014002000040078000080fa0000000600fc
:104490000a00fa00400798000002eb00040f7800c1
:1044a0000002eb0014079800340220002407980053
:1044b00064002000340798004e029000140290001f
:1044c000ae0090000400780014000700000278009d
:1044d000040f78004e02900024029000be0090006d
:1044e00004007800a3000700000278001407980079
:1044f0004e0290009e027800350298004e02900015
:104500009e029000450298009e0090001e007800d8
:10451000be0507000080fa00000006001000fa0047
:10452000889fbe0060079800710798002403200050
:1045300014079800d4cc2c00c5dc23002407980075
:104540003507980034002000440798009e02900030
:104550006e02900004825200540798005e029000a0
:10456000cfa2de000400be0030f007000002be0053
:104570002e019000be0190000400be00a0f00700d4
:104580000002be000404be004e029000cfa2de0076
:104590000400be0025f007000002be000401be00ba
:1045a0000800be0024f007000002be000403be00a5
:1045b000c47a8000d57a80000401be000600be00e7
:1045c000c4f007000002be00c47a8800d57a8800d3
:1045d0005e029000cfa2de000400be0013f00700d0
:1045e0000003be00c47a8000d57a80000401be00ba
:1045f0000600be00b7f007000002be000404be00c3
:104600007e029000cfa2de000400be0007f007008b
:104610000002be000401be000800be0078f00700e2
:104620000002be000400be0045f007000002be000c
:10463000040f7800743e20009e027800848f5200a0
:1046400022003400753e20007e0290001100090017
:104650008402d80000027800840278005e02900094
:1046600004825200cfa2de000400be00efef07007c
:104670000002be00c47a8800d57a8800c47a80001f
:10468000d57a800018c0b300020020000327240060
:104690000400be00ecf0070000027800e00f5200ba
:1046a00001003c000044eb00e04f540004003200e5
:1046b0000400200005272400c47a8800d57a8800e9
:1046c000743e2000040f78002500370094c12f00ad
:1046d0009e027800848f520021003d0095c12f007a
:1046e0007e029000110009008402d80000027800c8
:1046f000840278005e02900004824200cfa2de00b5
:104700000400be00c9ef07000002be00c47a8800a2
:10471000d57a8800c47a8000d57a800018c0b300aa
:104720000200200003122c000400be00c8f00700a5
:1047300000027800e00f5200010035000044eb0059
:10474000e04f5400040032000400200005122c0049
:10475000c47a8800d57a880094c12f00040f7800ad
:104760001e027800040078004f04be000080fa00aa
:10477000000006000a00fa00300798004107980080
:104780000002eb00140798000002eb00040f780011
:104790009e0290003e02900004825200240798007e
:1047a000ae0290004e02900004aab9000402780004
:1047b000040f7800743e20009e027800848f52001f
:1047c00003003400743e2000040f78000600370018
:1047d00094c12f009e027800848f520002003d0099
:1047e00094c12f00040f78001e02780004007800a6
:1047f0000080fa00000006000000fa006022b80005
:10480000c47a8800d57a88000080fa00000006008b
:104810000200fa00004f7800d50c07001e42780015
:104820000441780031c0b300c0cdb300080d0700cb
:10483000d30c07000080fa00000006000400fa0014
:10484000004f780011479800224798001e407800da
:10485000efff0700c60c0700ae4290001e4290001a
:104860000541780084407800c0cdb300f80c070003
:10487000c30c07000080fa00000006000400fa00e4
:1048800020479800314798002e409000e0ff070035
:10489000b70c07003e42900084407800c0cdb300c2
:1048a000bb0c070000427800044f7800b40c0700ee
:1048b0001e427800044078000080fa0000000600e4
:1048c0000200fa00004f78001e41780011c9b300c1
:1048d0000040eb00d9ff07000080fa00000006004e
:1048e0000200fa00004f78001e41780081c6b30034
:1048f00010c0b300d1ff07000080fa0000000600de
:104900000200fa00004f78009e4278000582fb000a
:1049100005042000850f5200160032000508200013
:10492000850f52002300320005022000850f52003f
:1049300030003a0010c0b300e9ff07001e417800c4
:1049400001c8b30010c0b300bcff07001e417800cf
:1049500011c8b30010c0b300b8ff070012c0b30005
:1049600021c8b30010c0b300b4ff07000002eb0081
:104970002100370030c0b300d9ff07001e41780086
:1049800001c8b30010c0b300acff07001e4178009f
:1049900011c8b30010c0b300a8ff070012c0b300d5
:1049a00021c8b30010c0b300a4ff07000002eb0051
:1049b0001100370070c0b300c9ff07001e41780026
:1049c00001c8b30010c0b3009cff07001e4178006f
:1049d00011c8b30010c0b30098ff070012c0b300a5
:1049e00021c8b30010c0b30094ff07000002eb0021
:1049f000010037000082eb00040078000080fa001c
:104a0000000006000200fa00004f78009e42780085
:104a10000582fb0005042000850f520016003200bd
:104a200005082000850f52002300320005022000f7
:104a3000850f520030003a000040eb00a8ff07004d
:104a40001e41780001c8b30010c0b3007bff07000f
:104a50001e41780011c8b30010c0b30077ff0700f3
:104a600012c0b30021c8b30010c0b30073ff070029
:104a70000002eb002100370010c0b30098ff0700d0
:104a80001e41780001c8b30010c0b3006bff0700df
:104a90001e41780011c8b30010c0b30067ff0700c3
:104aa00012c0b30021c8b30010c0b30063ff0700f9
:104ab0000002eb001100370030c0b30088ff070090
:104ac0001e41780001c8b30010c0b3005bff0700af
:104ad0001e41780011c8b30010c0b30057ff070093
:104ae00012c0b30021c8b30010c0b30053ff0700c9
:104af0000002eb00010037000082eb0004007800a8
:104b00000080fa00000006000200fa00004f780062
:104b1000114798009e4278000582fb00e10f520089
:104b20000c003200e20f520012003200e00f52007f
:104b300018003a00d2c0b30081c3b30010c0b30064
:104b40003eff07001e4090006dff07000002780046
:104b50001100370082c0b30081c3b30010c0b3009e
:104b600036ff07001e409000a6ff070000027800f5
:104b70000900370022c0b30081c3b30010c0b300e6
:104b80002eff07001e4090009eff070000027800e5
:104b9000010037000082eb00040078000080fa007a
:104ba000000006000800fa0020079800310798006e
:104bb000ae0290003e029000848f52000200390045
:104bc0000082eb001c003700be029000f431200090
:104bd000848f5200020036000082eb00160037007e
:104be0002e0290000402e900240798002e02900093
:104bf000044f78002e0290004822de0014479800ef
:104c00003e029000244798003e0290004822de00b9
:104c1000344798001e41780011c5b30010c0b3009e
:104c200006ff07001e41900001c5b30010c0b3008d
:104c300002ff07000002eb00040078000080fa0089
:104c4000000006000400fa00000f78001107980029
:104c50000002eb00040078000080fa00000006006b
:104c60000800fa002007980031079800ae02900073
:104c70003e029000848f5200020039000082eb0057
:104c800021003700be029000341f2000848f5200a4
:104c9000020036000082eb001b0037002e0290005d
:104ca000044f78002e0290004822de00144798003e
:104cb0003e029000244798003e0290004822de0009
:104cc000344798001e41900001c6b30010c0b300e5
:104cd000dafe07001e41780011c6b30010c0b30011
:104ce000d6fe07003e41900021c6b30010c0b300bd
:104cf000d2fe07002e41900031c6b30010c0b300b1
:104d0000cefe07000002eb00040078000080fa00ed
:104d1000000006000200fa00000f780012c0b30085
:104d2000a1c5b30020c0b300c4fe070012c4b30085
:104d300021c3b30010c0b300c0fe07001e027800fc
:104d4000e00f520011003a0000c1eb0081c8b3002f
:104d500010c0b300b9fe070000c1eb0091c8b3005a
:104d600010c0b300b5fe070082c0b300a1c8b300f5
:104d700010c0b300b1fe070000c1eb00b1c8b30022
:104d800010c0b300adfe07001000370002c2b30030
:104d900081c8b30010c0b300a8fe070002c8b3006a
:104da00091c8b30010c0b300a4fe070082c0b300d6
:104db000a1c8b30010c0b300a0fe070000c1eb0003
:104dc000b1c8b30010c0b3009cfe07000080fa0019
:104dd000000006000600fa0010079800210798005e
:104de00001c9b3000040eb00a4fe070000427800b8
:104df000044f78001e029000e00f520003003200c2
:104e000004c8b3001e4f7200010037001e74a100d9
:104e10002e029000e00f52000300320004c4b300e1
:104e20001e4f720002003700f4cbb3001e4f620029
:104e30001e41780001c9b3000040eb007ffe07006f
:104e40000080fa00000006000600fa001007980033
:104e50002107980084c9b300044f78001e02900017
:104e6000e00f520001003a001e24a0002e02900024
:104e7000e00f52000a003a001e04a0000041eb00bf
:104e800051c5b30020c0b3006cfe07000041eb0029
:104e900061c5b30020c0b30068fe070008003700fa
:104ea00082c0b30051c5b30020c0b30063fe070049
:104eb000c2c0b30061c5b30020c0b3005ffe0700ed
:104ec0001e41780041c0b30020c0b3005bfe070064
:104ed0000080fa00000006000400fa00004f78008d
:104ee00011479800224798001e41780041cab3003c
:104ef00020c0b30051fe07001e41900051cab3000c
:104f000020c0b3004dfe07002e41900061cab300df
:104f100020c0b30049fe07000080fa000000060030
:104f20000400fa00008fbe001e02be00482ade0008
:104f30000442780004417800c1c2b30020c0b3002d
:104f40003efe07001e02be00402ade00044278003a
:104f500004417800d1c2b30020c0b30037fe07007f
:104f60001e02be00482bdd004822de000402730052
:104f7000c82ade000442780004417800e1c2b30090
:104f800020c0b3002dfe07001e0278000442780006
:104f900004417800f1c2b30020c0b30027fe07002f
:104fa0000080fa00000006000000fa000000000087
:104fb0003410800061026200e00f5200fcff3a00f2
:104fc0003410800064026200e00f5200f8ff3a00e3
:104fd0003410800068026200e00f5200f4ff3a00d3
:104fe0003410800070026200e00f5200f0ff3a00bf
:104ff000451080000400240004826200e00f52008b
:10500000ebff3a000080fa00000006000400fa00fe
:10501000640920002410880007e2a90007e2a80024
:1050200085c0a90085a0a900d40480000480a00048
:105030000490a10004a0a000d40488008da0a900c1
:105040000471220005002000048fbe000400370018
:105050000082eb008082eb001e0f42005e974a0048
:105060001e02be00e00f5200e08f5a00f8ff3a0027
:1050700014c0b300044078000080fa00000006006d
:105080000000fa0007e2a90085c0a90085a0a900d8
:105090008dc0a9008da0a90014c0b3000440780001
:1050a0000080fa00000006000400fa006022b80048
:1050b000048fbe0007e2a90085c0a90085a0a90051
:1050c0008da0a9000002eb004410880004712200aa
:1050d00005002000048fbe00040037000082eb00b2
:1050e0008082eb001e0f42005e974a001e02be0047
:1050f000e00f5200e08f5a00f8ff3a00c3ff0700ac
:10510000100007000471220005002000048fbe007b
:10511000040037000082eb008082eb001e0f42008b
:105120005e974a001e02be00e00f5200e08f5a0058
:10513000f8ff3a0014c0b300044078000080fa0081
:10514000000006000000fa0085c0a9008dc0a8007c
:1051500014c0b300044078000080fa00000006008c
:105160000000fa0085c0a9008dc0a90014c0b300da
:10517000044078000080fa00000006000400fa00f5
:1051800014c0b3000002fd0040efb7000002fd00b4
:105190004410800070026200e00f520015003200df
:1051a0000602a8000471220005002000048fbe0042
:1051b0000a00370004f4200014427800e04f520047
:1051c00002003a0014c0b3000b0037000082eb006d
:1051d0008082eb001e0f42005e974a001e02be0056
:1051e000e00f5200e08f5a00f2ff3a000042eb005d
:1051f000010037000042eb00044078000080fa0014
:10520000000006000400fa0064c0b3000002fd00c4
:1052100040efb7000002fd00441080006802620009
:10522000e00f5200150032000622a800047122008f
:1052300005002000048fbe000a00370004f420009f
:1052400014427800e04f520002003a0014c0b3004c
:105250000b0037000082eb008082eb001e0f420043
:105260005e974a001e02be00e00f5200e08f5a0017
:10527000f2ff3a000042eb00010037000042eb0071
:10528000044078000080fa00000006000400fa00e4
:1052900054c0b3000002fd0040efb7000002fd0063
:1052a0000642a8000471220005002000048fbe0001
:1052b0000a00370004f4200014427800e04f520046
:1052c00002003a0014c0b300090037000082eb006e
:1052d0008082eb001e0f42005e974a001e02be0055
:1052e000e00f5200e08f5a00f2ff3a000042eb005c
:1052f000044078000080fa00000006000400fa0074
:1053000034c0b3000002fd0040efb7000002fd0012
:105310003410800061026200e00f520010003a0079
:105320003410800064026200e00f52000c003a006a
:105330003410800068026200e00f520008003a005a
:105340003410800070026200e00f520004003a0046
:105350003410800062026200e00f5200020032004e
:105360000042eb001500370006a2a9000682a80043
:105370000471220005002000048fbe000a003700df
:1053800004f4200014427800e04f520002003a007a
:1053900014c0b300090037000082eb008082eb00ec
:1053a0001e0f42005e974a001e02be00e00f520030
:1053b000e08f5a00f2ff3a000042eb000440780010
:1053c0000080fa00000006000400fa0034c0b300b8
:1053d0000002fd0040efb7000002fd003410800025
:1053e00061026200e00f520010003a0034108000a9
:1053f00064026200e00f52000c003a00341080009a
:1054000068026200e00f520008003a003410800089
:1054100070026200e00f520004003a003410800075
:1054200062026200e00f5200020032000042eb0014
:105430001500370006a2a8000682a8000471220009
:1054400005002000048fbe000a00370004f420008d
:1054500014427800e04f520002003a0014c0b3003a
:10546000090037000082eb008082eb001e0f420033
:105470005e974a001e02be00e00f5200e08f5a0005
:10548000f2ff3a000042eb00044078000080fa008e
:10549000000006000800fa0030079800047122009e
:1054a00005002000048fbe000042eb004447980036
:1054b00044c0b3000002fd0040efb7000002fd0051
:1054c0000471220005002000048fbe001c0037007c
:1054d0003410800061026200e00f520014003a00b4
:1054e0003410800064026200e00f520010003a00a5
:1054f0003410800068026200e00f52000c003a0095
:105500003410800070026200e00f520008003a0080
:10551000451080000400240004826200e00f520065
:1055200003003a0014c0b300444798000800370055
:105530000082eb008082eb001e0f42005e974a0063
:105540001e02be00e00f5200e08f5a00e0ff3a005a
:105550004e429000e04f520002003a000042eb0041
:10556000180037000662a800046a28001500200011
:10557000048fbe000e00370004f4200014427800af
:10558000e04f520006003a00041080000442780008
:10559000be029000844a780014c0b30009003700ae
:1055a0000082eb008082eb001e0f42005e974a00f3
:1055b0001e02be00e00f5200e08f5a00eeff3a00dc
:1055c0000042eb00044078000080fa000000060072
:1055d0000600fa004047980024c0b3000002fd0016
:1055e00040efb7000002fd004e4290000402fb00b5
:1055f000141088000471220005002000048fbe00f2
:105600000a00370004f4200014427800e04f5200f2
:1056100002003a0014c0b300090037000082eb001a
:105620008082eb001e0f42005e974a001e02be0001
:10563000e00f5200e08f5a00f2ff3a000042eb0008
:10564000044078000080fa0000000600801f780007
:10565000841f78003400f80000002000a0018800ba
:105660000000fa0085c0a9000042eb0004007800a9
:1056700040efb7000080fa003400f9004f027800d4
:105680004f007800004006000000fa00f479800026
:10569000e00f52001a0032008579800084da2f0072
:1056a000848f520016003500857980008425200003
:1056b000848f520012003c00d602a900d622a90015
:1056c000d642a900d662a9000002eb00f479880056
:1056d0008479800004f0a7000402ea00057122002a
:1056e000110009008402d800000278006f02520005
:1056f0008400780040b42200770507004700370097
:1057000084798000e00f52000c003400c4798000de
:105710000402e800c4798800a47980000402e9004a
:10572000a4798800a4798000e00f52000e003d00ab
:1057300034002000a47988000b003700c479800071
:105740000402e900c4798800a47980000402e8001a
:10575000a4798800a4798000e30f5200020034008d
:105760000002eb00a4798800a4798000cfa2de00bb
:105770003600200007002000860f5200878f5a0055
:1057800019003e00046001000300370007003700e5
:105790000b0037000f003700d602a900d622a80060
:1057a000d642a900d662a8000f003700d602a90091
:1057b000d622a800d642a800d662a9000a00370067
:1057c000d602a800d622a900d642a800d662a90017
:1057d00005003700d602a800d622a900d642a900ab
:1057e000d662a800000000008579800084da2f00ce
:1057f000848f5200090035008579800084252000bf
:10580000848f520005003c0014002000f4798800c9
:10581000f100200040b422002f0507000080fa00ac
:10582000000006000000fa00e4798000e00f52005a
:105830001a0032009579800084da2f00848f52009c
:10584000160035009579800084252000848f520051
:1058500012003c00d682a900d6a2a900d6c2a90097
:10586000d6e2a9000002eb00e47988009479800078
:1058700004f0a7000402ea000571220011000900eb
:105880008402d800000278006f0252008400780081
:1058900020c12200100507004700370094798000de
:1058a000e00f52000c003d00d47980000402e900b2
:1058b000d4798800b47980000402e900b4798800c2
:1058c000b4798000e00f52000e003d00340020004b
:1058d000b47988000b003700d47980000402e80016
:1058e000d4798800b47980000402e800b479880093
:1058f000b4798000e30f5200020034000002eb0094
:10590000b4798800b4798000cfa2de003600200090
:1059100007002000860f5200878f5a0019003e00b2
:105920000460010003003700070037000b00370058
:105930000f003700d682a900d6a2a800d6c2a900bf
:10594000d6e2a8000f003700d682a900d6a2a80090
:10595000d6c2a800d6e2a9000a003700d682a80065
:10596000d6a2a900d6c2a800d6e2a9000500370039
:10597000d682a800d6a2a900d6c2a900d6e2a80065
:10598000000000009579800084da2f00848f520097
:10599000090035009579800084252000848f52000d
:1059a00005003c0014002000e4798800f10020008c
:1059b00020c12200c80407000080fa000000060091
:1059c0000000fa008000eb0040b422006a040700e7
:1059d0008000eb0020c12200670407000080fa006d
:1059e000000006000200fa00000f78001e02780096
:1059f000e00f52000a003a000002eb0084798800b0
:105a00008000eb0040b42200b3040700d602a900d6
:105a1000d622a900d642a900d662a90034003700d8
:105a200084c12f009e027800848f52000b003d003d
:105a300084c12f008479880084798000058f2d002f
:105a4000110009008402d800000278008400780068
:105a500040b42200a004070025003700843e200047
:105a60009e027800848f52000b003400843e200098
:105a70008479880084798000057122001100090072
:105a80008402d800000278008400780040b422002c
:105a900091040700160037001e0278008479880000
:105aa0001e027800e00f520009003d00058f2d0016
:105ab0001e027800110009008402d800000278005c
