:020000040000fa
:080000000001040000000000f3
:020000040000fa
:100008009e0300009e0300009e0300009e03000064
:100018009e0300009e0300009e0300009e03000054
:100028009e0300009e0300009e0300009e03000044
:100038009e0300009e0300009e0300009e03000034
:100048009e0300007a1e00001a1e000060120000c5
:100058009e0300009e0300009e0300009e03000014
:100068009e0300009e0300009e0300009e03000004
:100078009e030000260200009a0100009e03000073
:100088009e0300009e0300009e0300009e030000e4
:100098009e0300009e0300009e0300009e030000d4
:1000a8009e0300009e0300009e0300009e030000c4
:1000b8009e0300009e0300009e0300009e030000b4
:1000c8009e0300009e0300009e0300009e030000a4
:1000d8009e0300009e0300009e0300009e03000094
:1000e8009e0300009e0300009e0300009e03000084
:0800f8009e0300009e030000be
:020000040000fa
:100108009e0300009e0300009e0300009e03000063
:100118009e0300009e0300009e0300009e03000053
:100128009e0300009e0300009e0300009e03000043
:100138009e0300009e0300009e0300009e03000033
:100148009e0300007a1e00001a1e000060120000c4
:100158009e0300009e0300009e0300009e03000013
:100168009e0300009e0300009e0300009e03000003
:100178009e030000260200009a0100009e03000072
:100188009e0300009e0300009e0300009e030000e3
:100198009e0300009e0300009e0300009e030000d3
:1001a8009e0300009e0300009e0300009e030000c3
:1001b8009e0300009e0300009e0300009e030000b3
:1001c8009e0300009e0300009e0300009e030000a3
:1001d8009e0300009e0300009e0300009e03000093
:1001e8009e0300009e0300009e0300009e03000083
:0801f8009e0300009e030000bd
:020000040000fa
:10020000cf1721000e7f22000e01880000000000a1
:10021000000020000000e000020032000001200089
:10022000200288000c00070020c8210001002000e7
:1002300011000700000020000000e0000200320072
:100240000000020000000000bc19020000000000d5
:100250000040da000000fe004440a900c003200076
:100260000000e0000300320000002000a001880030
:100270004440a8000000060091018800800078003a
:100280000000eb0015003700e280400032a0b4000f
:100290009101ba00e280400032a0b4009102ba009d
:1002a000e280400032a0b4000002eb00472bde00e9
:1002b000f507b200602ce10004003a000059eb00a1
:1002c0008301e900fdff3e00040037006128e100e2
:1002d000010032000082eb00040007001101ba00a7
:1002e0000200e000e8ff3a00000006003159ba00c1
:1002f0008301e9000c0032002159ba008301e900b2
:10030000080032000400e00003003a00e2804000f0
:1003100032a0b400f5ff370011d9ba008301e9001b
:10032000faff3a008100e800e180400032a0b4000a
:1003300000000600849fbe00869fbe003400f800c7
:1003400004002000a40188000000fa0086c0a90073
:1003500004858000e00f52000c00340024858000ea
:100360000402e80024858800548580000402e90026
:100370005485880054858000e00f52000e003d0037
:1003800034002000548588000b003700248580004d
:100390000402e90024858800548580000402e800f6
:1003a0005485880054858000e30f52000200340019
:1003b0000002eb005485880054858000cfa2de0047
:1003c0003600200007002000860f5200878f5a0059
:1003d00019003e00046001000300370007003700e9
:1003e0000b0037000f003700d602a900d622a80064
:1003f000d642a900d662a8000f003700d602a90095
:10040000d622a800d642a800d662a9000a0037006a
:10041000d602a800d622a900d642a800d662a9001a
:1004200005003700d602a800d622a900d642a900ae
:10043000d662a800000000000080fa003400f90035
:100440004f03be004f02be0000400600849fbe0066
:10045000869fbe003400f80004002000a40188003c
:100460000000fa0086a0a90014858000e00f520069
:100470000c003d00348580000402e90034858800ca
:10048000448580000402e90044858800448580009a
:10049000e00f52000e003d0034002000448588002b
:1004a0000b003700348580000402e80034858800a2
:1004b000448580000402e80044858800448580006b
:1004c000e30f5200020034000002eb004485880074
:1004d00044858000cfa2de00360020000700200007
:1004e000860f5200878f5a0019003e0004600100f9
:1004f00003003700070037000b0037000f003700fc
:10050000d682a900d6a2a800d6c2a900d6e2a80029
:100510000f003700d682a900d6a2a800d6c2a80034
:10052000d6e2a9000a003700d682a800d6a2a90008
:10053000d6c2a800d6e2a90005003700d682a800de
:10054000d6a2a900d6c2a900d6e2a80000000000e9
:100550000080fa003400f9004f03be004f02be00d5
:10056000004006000000fa006d0d07000080fa0050
:10057000000006000200fa00000f78001e0278005a
:10058000e00f520006003a0021e1a900d602a900be
:10059000d622a900d642a900d662a9001f003700c2
:1005a00021e1a9001e027800048588000002eb000a
:1005b00004098800040980000440a0000450a00041
:1005c000040988000002eb00c40888001e027800bd
:1005d00004f0a7000402ea00cfa2de000400be007f
:1005e000060107000002be000401be00000020005a
:1005f00011762400830007000002be000400be0044
:10060000e30007000002be0004027800e40888004e
:1006100086c0a9008ec0a80021e1a8000080fa00d1
:10062000000006000200fa00000f78001e027800a9
:10063000e00f520006003a001fe1a900d682a9008f
:10064000d6a2a900d6c2a900d6e2a9001f00370091
:100650001fe1a9001e027800148588000002eb004b
:10066000f4088800f40880000440a0000450a000b2
:10067000f40888000002eb00a40888001e0278003d
:1006800004f0a7000402ea00cfa2de000400be00ce
:10069000da0007000002be000401be0000002000d6
:1006a00011762400570007000002be000400be00bf
:1006b000b70007000002be0004027800d4088800da
:1006c00086a0a9008ea0a8001fe1a8000080fa0063
:1006d000000006000000fa00248580000400780075
:1006e0000080fa00000006000200fa00000f780007
:1006f0001027fc001e027800248588000200fc0000
:100700000080fa00000006000000fa003485800036
:10071000040078000080fa00000006000200fa00e1
:10072000000f78001027fc001e0278003485880036
:100730000200fc000080fa00000006000040da0021
:100740000000fe000a00fa00e20f500022003e0006
:1007500094858000e10f520006003200e72120005e
:10076000a62120008421200065212000e08f530075
:1007700004003a004721200006212000e420200048
:10078000c5202000000028001500600003003a008a
:10079000800b780007002800958a73000540200030
:1007a0009482620001003a0014a0a0008202780046
:1007b00006003700940378000710b200fdff3200f6
:1007c000b103fb00070b78008502e900e08f5200bf
:1007d000f8ff3a000800370034002000c0bf9f0037
:1007e000e2bf9f00b4bf9f00d1bf9f006a80570047
:1007f000350507006fb99700020078000080fa0005
:1008000000000600889fbe008a9fbe008c1f7800f3
:10081000b8000700bf00330003866c006450e1009d
:100820002e0032006420e100330032006150e1000c
:100830002f0032006120e100310032008585550033
:10084000eb07b00009002000080420000500370075
:100850000804440089844c000a0031000603430068
:1008600087834b000001530081815b00f8ff330058
:100870000203be000800a0000804440089844c0064
:10088000f6ff3900c639dd00830173000100320034
:10089000130020008904d1000884d3000998a30024
:1008a000050032000800a7000300a0008904d10061
:1008b0000884d3008b05e8008904d1000884d300a4
:1008c0000001eb000281d2004f00070001f0a100ff
:1008d0000cf0a70001f0a000970037006420e100b1
:1008e000990032000801be000200be00f7ff370089
:1008f0006120e100940032006000b800f3ff37008f
:100900000000200001f82700f0ff37000001be00c2
:10091000630007000470a70003f0a1006509b1009f
:10092000160032000d0035006828e1000600350091
:10093000f0ff2f00f1ff27000300e00013003b0051
:1009400001002800000005000000400081804800f0
:100950008502e900fcff3a0008003700f88f4200ea
:1009600002003c008000eb00000005008100d10087
:100970000080d3008502e800fcff3a000300e0009d
:1009800002003b0060001000e0801800000006003c
:100990000001be00420007000470a70003f0a100a0
:1009a00003f8a30013003a006509b10010003200fb
:1009b000090035006928e100020035000100280027
:1009c0000000050000004000818048008502e90029
:1009d000fcff3a0000000600f88f420005003500d9
:1009e0008100d1000080d3008502e800fcff3a00be
:1009f000000006008000eb00000005004f89de00cb
:100a0000820178005300370081002000618055008a
:100a10000b003d000b00200061fe2f000100e100f3
:100a20001d00340082817100610164008904d100dd
:100a30000884d3000000e800faff3a0071002000ab
:100a400061006400030070000200600009003200d1
:100a500061044400e0844c000988a50005003200d0
:100a60008b05e8006808e10002003a008904d10023
:100a70000884d300f20f20000258e10005003d0079
:100a8000c75ddd00f907b2008980750008007800b5
:100a9000000006000bf827008b007800000005001e
:100aa000c70ade00f107b200f50fb20008003200fd
:100ab000e1cf4200020032000170a00024000500d6
:100ac000810f700001003200040805004400050099
:100ad000810f700002003a00140005008502e90051
:100ae0000000400081c04800fcff3b000170a000f6
:100af000240005000004be00e9ff07000003be005b
:100b00000405be000200be00e5ff0700844f75002b
:100b1000000006000200be006450e100050036003f
:100b20006420e100020036000968a30001003a00d9
:100b30000800be000160a0004f0678004f05be000f
:100b40004f04be0000000600f0ff2f00f1ff270059
:100b5000f9ff3700881f7800030478000300e000e5
:100b600007003d0060001000e080180060011900df
:100b7000e081190002003b0001f02d000300370066
:100b80000400070008f0a70001f0a0004f0478005f
:100b900000000600889fbe008a9fbe000082700091
:100ba0000402710004827100260032000004be00bd
:100bb0000200be006011b8006b0920009502200001
:100bc0000182cf000a0039000541b1000082cf0048
:100bd000070039000541b1000982cf000400390047
:100be0000541b1000882cf00010039000541b10084
:100bf00005425200120032000a003b00828171005f
:100c0000610164008100d1000080d3008984d30099
:100c10000884d3008b05e8000442e800f7ff3a009f
:100c2000070037000804440089844c000000480095
:100c3000818048008b05e9000442e900f9ff3a0091
:100c400071ff07004f05be004f04be000000060004
:100c5000000278008042eb00b4cf1200fdff3a00a2
:100c60000080ea0000004200000006000c00fa00cc
:100c7000889fbe00f4ff270000047800d4bf9f00c7
:100c80008004eb0088bf9f0099bf9f00a8bf9f0012
:100c9000240c200078815700b4bf9f00cfb097008c
:100ca00070805700070007000fba9700094a7800c4
:100cb0000fba9700080052004f04be000080fa00ef
:100cc00000000600ef03b000889fbe008a9fbe00b0
:100cd0008c9fbe00800678008e1f78000007eb0016
:100ce000d1af9f00a2b79f0065033700dfa8970030
:100cf00054c2b3008100e800d1af9f00844f500080
:100d000006003a00010278000006eb0001c3b300c0
:100d100000c2b300b7c2b3000e0037003d0290001e
:100d20000404b200040032001d027800004a78007a
:100d3000840ee800050037000000fb008d007800fd
:100d40005b030700e10f40004d0332000e07e8008f
:100d50004b03370084027800d2c2b30034437800da
:100d6000824f53000900320005003c00804f5300c1
:100d700008003200874f53000c003a00070037008c
:100d8000814f530009003a00060037000c30a000e4
:100d9000f0ff37000c00a000eeff37000c10a000a1
:100da000ecff37000c20a000eaff3700620266006b
:100db000010032000c00a100680266000100320050
:100dc0000c20a1000602fb000403b100e90f520051
:100dd0000c003e00050378000002eb00b603fb00a8
:100de0006a22b9000703b10086027800048243003a
:100df0009603fb000703b100e98f5300f7ff3600ad
:100e0000080037000002eb00a7c2b300874f530071
:100e100004003a00afb197008502e8004302780071
:100e2000a3b79f000003eb0096b79f00e6c2b30094
:100e3000954f13000c003a000ce0a00064435300ef
:100e4000d54f130003003200050378000000eb00cb
:100e500009003700afb397008502e8004704780027
:100e6000a7b79f0098b79f000503780009003700d7
:100e70006a00b9000080430086027800b603fb00d8
:100e80000703b100e98f5300f9ff360090b79f00c8
:100e9000f5ff3700b6427800cac6b300d6af9f0050
:100ea0008acf5200250032000f003c0036c6b30046
:100eb00086cf52009d00320004003c00e0cf52007b
:100ec000f40232006b4353000f00370046c6b300f4
:100ed00086cf5200170032006543430086cf520090
:100ee000b1003a001300370036c7b30086cf520076
:100ef0002000320007003c006443530086cf5200bc
:100f0000150032000643e80086cf5200a6003a00e2
:100f10001400370056c7b30086cf5200a900320034
:100f20006343430086cf52009f003a00e5779f005d
:100f30000e003700e5779f00a4003700f00366003d
:100f40000501200001003200050028008c8272009b
:100f500005067800cfff3700e5779f000c60a00002
:100f60009a003700e5779f000c50a0000c70a0009d
:100f700096003700afb59700e5779f00cb02780069
:100f8000abb79f00b5b79f00e08f520002003a0058
:100f900021fc2000b1b79f003fb397008002eb0017
:100fa000010037008502e800e6c37a00e0cf530075
:100fb000fcff3a00c5b79f001fb19700e00f51003a
:100fc00005003200cfb19700830f510002003100bd
:100fd00082027800c5b79f00cfb297000004eb00f3
:100fe000850f5200010036000504520068066600b5
:100ff00009c2b3000f003200290037003d02900003
:101000000404b200040032001d027800094a78008e
:10101000840ee800050037008d00780000022000f3
:10102000a3020700e10f4000010032000e07e800b4
:101030000804e900e00f5400f0ff3a000084eb00e0
:1010400017003700bd0290000504b200090032000d
:10105000880278009d03780035437800864b78003d
:1010600005047800870ee800e04f53000a003a00bc
:1010700010003700880278008d0078003500fb00f2
:1010800084bf9f0005047800890207000fba97000b
:10109000e10f4000070032000e07e80005003700ae
:1010a000080278003fb49700cfb497005fb597006f
:1010b000efb59700890278008504e900e08f5200bf
:1010c000e0ff3a00b8b79f00c9b79f00dab79f00aa
:1010d000ebb79f000404780009c2b300e00f56008c
:1010e0000f003a00660237003d0290000404b2008f
:1010f000040032001d027800094a7800840ee800de
:10110000050037008d00780000022000680207000b
:10111000e10f4000010032000e07e8000804e9007a
:10112000e00f5400f0ff3a0055023700afb09700cf
:101130007003660041047800a1b79f00cfc4de00b1
:10114000090578008a0578000800be000a01be0083
:101150004800de00c80add0000807200e0779f00d2
:10116000e00f530009003200e04f5000070032004a
:10117000e14f40000500320026002000f0779f007c
:10118000887f9f00c6b79f0003003700170020002c
:10119000c7b79f00f8779f0078fb2f0008844700af
:1011a000b8b79f0084ff370069fb2f001a002000aa
:1011b00089844700e5779f00b9b79f00cab79f00b1
:1011c0007dff3700e5779f000c0cb3008c027800a0
:1011d000050cb2003b003a00e00f560005003d0050
:1011e000afb297004501be004500be00a5b79f0005
:1011f0000f003700f0026600120032002fb4970093
:101200004803be00f69f9f0087a79f00a8b79f00d6
:1012100098029000cfaade0095a79f00a5a79f0087
:101220007f9897008fa097001fa19700afa197000c
:10123000b0b79f00c1b79f00d2b79f00e3b79f0030
:101240000b003700afb09700c102780005047800aa
:10125000cfc4de00090578008a057800a1b79f0099
:10126000b8b79f00c9b79f00dab79f00ebb79f00e0
:101270003fb09700cfb097005fb19700efb19700f4
:10128000e00f5000e08f5800e00f5900e08f590048
:1012900032003d006000b8006011b8003fb4970014
:1012a000cfb497005fb59700efb597003c00b3004f
:1012b00008045000898458000a0559008b8559009c
:1012c00022003700e00f560005003d00afb2970046
:1012d0004501be004500be00a5b79f000f003700c6
:1012e000f0026600120032002fb497008004eb0079
:1012f0004803be000005eb0096af9f00a7af9f001c
:10130000b9af9f00caaf9f001fa89700afa8970072
:101310003fa99700cfa99700a8b79f00b0b79f003b
:10132000c1b79f00d2b79f00e3b79f000b00370003
:10133000afb09700c1027800a1b79f000504780004
:10134000090020000a0020000b002000b8b79f0011
:10135000c9b79f00dab79f00ebb79f009fb4970013
:10136000e08f54000d003a001a0020003fb09700b3
:10137000cfb097005fb19700efb197009ab79f0089
:10138000e00f5000e08f5800e00f5900e08f590047
:10139000020032008000eb0091b79f000c01780042
:1013a00005042000020cb20082b79f00850f510097
:1013b0003400320003003c00e00f5100080032000e
:1013c00048003700050820008fb19700858f510035
:1013d00014003200050c2000858f510041003a00b6
:1013e00026fd200015c0b3003600be003601be0049
:1013f0003fb49700cfb497005fb59700efb5970063
:101400000040e10001c8e10002d0e10003d8e100a2
:10141000330039008542e800f4cf5200f2ff3a0071
:101420002f00370015c0b30000012000010020008c
:101430006011b8003fb49700cfb497005fb5970034
:10144000efb597000040e10001c8e10002d0e100e3
:1014500003d8e10022003900490020000000d0003c
:101460008180d2000281d2008381d2008904e90008
:10147000faff3a008542e800f0cf5200edff3a0053
:101480001700370015c0b3008000200001002000c5
:101490006011b8003fb49700cfb497005fb59700d4
:1014a000efb597000040e10001c8e10002d0e10083
:1014b00003d8e1000a003900390020000000d00004
:1014c0008180d2000281d2008381d2008904e900a8
:1014d000faff3a008542e800f5cf5200edff3a00ee
:1014e000e5779f006f7597009fb597008a02fb0014
:1014f0008b8f520002003d00eb779f000400370005
:101500001fb09700850f500001003d0095b79f0068
:10151000e00f520003003200e302660001003200d7
:101520000402e9000500240085026600060032007e
:101530009fb09700810f5200020034000102520058
:10154000010037000002eb006f7197008001eb0093
:101550008202fb00f3af9f00850f520002003400af
:1015600085025200f5af9f00640266003b00320026
:10157000e202660061026600e08f52001100320054
:10158000bd0290000504b200080032009d02780000
:10159000b6c2b300e00f52000100320006c3e800fb
:1015a000864a7800850ee80015003700b00220005a
:1015b000e00f5200010032000080e8008d0078004a
:1015c0000c003700e00f52000e0032003d02900088
:1015d0000404b200050032001d02780005c2b30009
:1015e000054a7800840ee800050037008d00780079
:1015f000000220002e010700e10f40000100320030
:101600000e07e8007faa9700e00f52004f0032005b
:1016100008c3b300840478003d0290000404b200c3
:10162000040032001d027800084a7800840ee800a9
:10163000050037008d007800000320001c01070022
:10164000e10f4000010032000e07e8008904e900c4
:10165000f1ff3a00f9af9f003c003700ffaa970066
:10166000e08f5200140032006802660012003a0057
:1016700008c2b300850478003d0290000404b20063
:10168000040032001d027800084a7800840ee80049
:10169000050037008d0078000002200004010700db
:1016a000e10f4000010032000e07e8008904e90064
:1016b000f1ff3a00f9af9f00e202660061026600a6
:1016c000e08f520011003200bd0290000504b2000c
:1016d000080032009d027800b6c2b300e00f52004d
:1016e0000100320006c3e800864a7800850ee80053
:1016f00015003700b0022000e00f52000100320058
:101700000080e8008d0078000c003700e00f5200e8
:101710000e0032003d0290000404b20005003200c9
:101720001d02780005c2b300054a7800840ee80067
:10173000050037008d00780000022000dc00070063
:10174000e10f4000010032000e07e8001fb39700d0
:10175000a5fc20000602e900f0046600c223dd00bb
:101760000c057800c7a79f000a02b2006323b900e6
:10177000e99f9f00060478004322dd00b8a79f0080
:1017800085024200da9f9f00e5af9f00a30037006b
:101790009fb597000fb097008b05e900010420006a
:1017a0009bb79f00810f50007300320003003c0084
:1017b000e00f5000080032007e00370004082000cf
:1017c0000fb19700840f510056003200040c200026
:1017d000840f510077003a00e00f56001f003d00d3
:1017e000efa997003304be002305be003fb0970069
:1017f000cfb097005fb19700efb197000802be002d
:101800000a03be00f30107000802be000a03be007f
:10181000e0779f000000fb00cf80de000101780030
:1018200082017800540207003fb29700cfb29700c0
:101830005fb39700efb397000002520081825a0015
:1018400002035b0083835b00b4b79f00c5b79f00b2
:10185000d6b79f00e7b79f002e003700ef9a97009a
:10186000e08f5200220032006fab97003fb297002a
:10187000cfb297003604be002605be000400be00ad
:101880000801be0084bf9f00f5b79f000005eb0074
:101890000f0107000801be00e0779f000000fb0079
:1018a000cf80de001a0107000fba9700ffb2970041
:1018b0008aaf9f000004520081845a00d8a79f007d
:1018c000e9a79f008004eb00f9a79f005fa09700a5
:1018d000efa097007fa197008fa99700b0b79f0056
:1018e000c1b79f00d2b79f00e3b79f000900370040
:1018f000efa897003fb1970011027800110009008e
:101900000481d800a4002000110009000480d80040
:10191000e1779f00ef7197000343b000e3779f00ea
:101920002400370014fb2000df9a9700e08f52005c
:101930000100320004fa20003fb09700cfb09700ba
:101940005fb19700efb197004fa397000603e9003e
:10195000050033008301d1000281d3008180d300d0
:101960000080d300f9ff37006f006000644078000a
:10197000e0779f000f0037003fb29700cfb297008b
:101980005fb39700efb397003fa497000804e90006
:10199000050033008703d1000683d3008582d3007e
:1019a0000482d300f9ff3700674262000443b000ad
:1019b000e4779f003d0290000404b200070032006b
:1019c0009d0278006f729700844a7800850ee800c7
:1019d000e04f520007003a0007003700ef7497000d
:1019e0008d0078000900fb0031000700e10f400086
:1019f000010032000e07e8004fa59700bfa5970031
:101a00006fa8970064055500e385550068005000f5
:101a1000caa79f00bba79f00e0af9f009fb09700a1
:101a2000e08f50005aff3a0068066600140032004a
:101a30007fa99700e00f51001100340008c2b300e5
:101a4000820478003d0290000404b20004003200d9
:101a50001d027800084a7800840ee800050037006f
:101a60008d0078000002200011000700e10f400007
:101a7000010032000e07e8008904e900f1ff3a0096
:101a8000dfa9970013407800e0779f00e04f5000f7
:101a900096fc3a000e0078004f0778004f06be0013
:101aa0004f05be004f04be00ef03b100000006006a
:101ab000889fbe00010478008084eb00380290000b
:101ac000e20262003b0032000403780098029000ba
:101ad0000620b20002003a00e08f520035003a00c2
:101ae0000490a0008004780034049800f90fb2003c
:101af000e08f520002003a00a8029000050c780026
:101b0000ea8f540005003a000408b20003003a00ce
:101b100088007800d0002000e5ff07001802900040
:101b2000d8029000850f52000b0032000402e8003a
:101b300015c0b3001404980018027800094a780010
:101b4000040ce800c40a2100054a7800ea8f54001a
:101b500018003a0005003700094078008800780036
:101b60001700070080047800120037003802900048
:101b70000410b2000f00320018019000a80090007d
:101b800048009000effa070018029000840f500000
:101b900004003200380290000403b30034049800bb
:101ba0008084eb000002eb001404980028029000ef
:101bb000040c7800090078004f04be000000060005
:101bc0000200fa00889fbe0001047800a0ff9f0079
:101bd00038029000840278000504b200020032004e
:101be0000000fb0035003700e202620005003a0009
:101bf0000403b30015049800340498000080eb003f
:101c00002e003700d8049000e08f540006003a0000
:101c100012002000e680570048009000c9fa070033
:101c20001904980023003700a8029000e08f5200aa
:101c300008003a00f50a21000430a00025049800ad
:101c4000050c780034049800250020005504980005
:101c50001504980018019000a8009000480090001a
:101c6000b8fa0700280290008082eb001504980063
:101c7000affa9700054a7800040ce8002ffa9700a5
:101c8000ea4f52000b003a00380290000410b200f4
:101c90000800320018019000a80090004800900051
:101ca000a8fa07000002eb00a802900014049800b4
:101cb000050c78002ffa97000400fb004f04be00cb
:101cc0000080fa000000060000c0da0000000600f4
:101cd0006022b800060220000000d0008180d200ff
:101ce0000482d2008582d2000000a00002025200cd
:101cf00083825a00030031000202420083824a00bc
:101d00000000a1000603e900f3ff3a00000006000e
:101d1000020ab900001bb9000200b80081004200ad
:101d20008100430000000600889fbe008a9fbe001d
:101d30003004be002005be000404440085844c002d
:101d400006054d0087854d000898be000a90be002c
:101d50000440e10005c8e10006d0e10007d8e10039
:101d600002003100680040001008e8004f05be0086
:101d70004f04be00000006001000fa00889fbe005d
:101d80008a9fbe00110020000605be000404be00ac
:101d90003002be002003be00c4b79f00d5b79f002d
:101da000e6b79f00f7b79f000802520089825a00e9
:101db0000a035b008b835b0084bf9f0095bf9f007d
:101dc000a6bf9f00b7bf9f000498be000698be0044
:101dd0004fb29700dfb297006fb39700ffb3970041
:101de0000820e10009a8e1000ab0e1000bb8e10019
:101df000010039008000eb004f05be001088100084
:101e00004f04be000080fa00000006001400fa0033
:101e1000889fbe008a9fbe008c9fbe000006eb001c
:101e20003e000700ccb79f00bcb79f00acb79f0037
:101e30009cb79f008cb79f000605be000404be003f
:101e40000d0420004fb39700bfb2970086034300f4
:101e50002fb29700e00f530004003d003d00070043
:101e60000f004000b0ff07000300370039000700f3
:101e70000f004000c0ff0700cfb2970095bf9f0042
:101e8000e08f5200090035002b00070014002000ed
:101e9000050020006033b8000000720081807200ed
:101ea00002017300838173001c0007000c06e80028
:101eb0008d0f5600e3ff3a001fba9700e00f520063
:101ec00005003d000802be000a03be0000fe2f0010
:101ed0000f00400094ff07004faa9700e00f520048
:101ee00008003a000fb497009fb497002fb59700f1
:101ef000bfb59700d8b79f00e9b79f00fab79f001a
:101f00008bbf9f000c0007004f06be004f05be00b0
:101f10004f04be000080fa00000006000100070028
:101f20000000060090b79f00a1b79f00b2b79f00c6
:101f3000c3b79f0000000600010007000000060074
:101f40001fb09700afb097003fb19700cfb1970097
:101f5000000006004f2bde00f9ff070086837300a8
:101f6000858242004f23de00a7b79f008682720061
:101f70000402420095b79f00ffaa97004f2bde0096
:101f8000858242000602720084b79f006faa970004
:101f90004f23de000402420086827200f5af9f00ec
:101fa0004f18de0000027200e5ff0700e4af9f005b
:101fb00000004000818048000201490083814900ff
:101fc0000802be000a03be00d6ff070000fe2f0075
:101fd00000000600881f780018002000881f780085
:101fe0008aff07008f87e9004f0478000000060091
:101ff000801feb0085ff07008f87e90000000600c7
:10200000889fbe008a9fbe00e00f5000e08f5800fe
:10201000e00f5900e08f59000c003d006044b8000b
:102020006055b8000000540081805c0002015d0032
:1020300083815d00180020001500070008003d00a6
:10204000180007000004eb00050037000004eb0057
:102050000f00070002003d001200070018002000da
:10206000dcff0700e00f5400060032006022b800d9
:102070006033b8000000520081805a0002015b000a
:1020800083815b004f05be004f04be0000000600c8
:10209000e00f5200e08f5a00e00f5b00e08f5b0022
:1020a000000006006044b8006055b8000402540007
:1020b00085825c0006035d0087835d0000000600ea
:1020c000889fbe008a9fbe008c1f7800e00f5000e2
:1020d000e08f5800e00f5900e08f59000d003d00df
:1020e0006044b8006055b8001c0020000000540097
:1020f00081805c0002015d0083815d000820e100b9
:1021000009a8e1000ab0e1000bb8e1000d003d00b4
:10211000080037000006eb00e00f5200e08f5a0085
:10212000e00f5b00e08f5b0006003d006044b800fc
:102130006055b8000402540085825c0006035d000f
:1021400087835d00aaff0700e00f560006003200fb
:102150006022b8006033b8000000520081805a004d
:1021600002015b0083815b004f0678004f05be00d3
:102170004f04be0000000600889fbe008a9fbe007c
:102180008c1f78000006eb00e00f5000e08f580035
:10219000e00f5900e08f590007003d006044b8008f
:1021a0006055b8001c0020000000540081805c00d5
:1021b00002015d0083815d00e00f5200e08f5a0054
:1021c000e00f5b00e08f5b0007003d006044b8005b
:1021d0006055b8000c00a2000402540085825c0027
:1021e00006035d0087835d000c000700e00f5600ca
:1021f000060032006022b8006033b80000005200d0
:1022000081805a0002015b0083815b004f067800e9
:102210004f05be004f04be0000000600889fbe00b0
:102220008a9fbe008c9fbe000404b8000506b8005b
:102230008904460060854e000606b8000a0546007f
:10224000e0854e000706b8008b054600040eb80076
:10225000890446000a854e00e0854d00050eb80051
:102260000a0546008b854e00060eb8008b05460019
:102270000416b8000a0546008b854e000516b80006
:102280008b054600041eb8008b0546000800be0002
:102290000a01be004f06be004f05be004f04be003f
:0422a0000000060034
:020000040000fa
:1022a40049520000303d0000256400002c49000024
:1022b400523100003d250000642c0000495200000a
:1022c400323d0000256400002c4900005233000018
:1022d4003d250000642c000049520000343d0000fc
:1022e400256400002c490000523500003d25000003
:1022f400642c000049520000363d000025640000b3
:102304002c490000523700003d250000640a0000fb
:082314000d00000000000000b4
:020000040000fa
:10231c000200fa00004f78001e427800e14f520094
:10232c0004003a00c5f9200014c0b300844a7800b8
:10233c0003003700c5f920000042eb00844a780006
:10234c000002eb00041588000002eb001415880055
:10235c000002eb00241588000002eb003415880005
:10236c00a802a800a822a800a842a900a862a90057
:10237c00a882a900a8a2a900a8c2a900a8e2a90045
:10238c00a902a900a922a900a942a900a962a90031
:10239c00a982a900a9a2a900a9c2a900a9e2a90021
:1023ac00aa02a900aa22a900aa42a800aa62a8000f
:1023bc00aa82a800aaa2a900aac2a900aae2a900fe
:1023cc00ab02a900ab22a900ab42a900ab62a900e9
:1023dc00ab82a900aba2a900abc2a900abe2a900d9
:1023ec00041580000480a1000490a100041588004d
:1023fc00a042a800041580000450a0000460a000b6
:10240c000470a00004158800141580000420a1009d
:10241c000430a0000440a1000450a1001415880051
:10242c00a342a80025158000f40f2e0084826200c0
:10243c00041020000502720024158800c4f9200045
:10244c0014427800e04f520006003200251580003f
:10245c0004fc2f00048262003401b30024158800b0
:10246c00060037002515800004fc2f0084826200d2
:10247c007402200005027200241588008560a900f2
:10248c008d60a800a1e2a800c4f9200014427800d5
:10249c00e04f520005003a0000000000c57b8000b0
:1024ac0004032000848f5200fbff36000080fa00ea
:1024bc0000000600801f7800849fbe00869fbe002f
:1024cc003400f80000002000a00188000200fa008f
:1024dc00a5f920000042eb00844a7800b5f92000f1
:1024ec000042eb00844a78008560a900c4f9200002
:1024fc0014427800e04f52002900320004282000da
:10250c00040f7800b47b80009e027800950278005e
:10251c0004034200a484200004024300050a78004e
:10252c001e8fe800b47b80009e0278009502780034
:10253c000410b00004034200a484200004024300f1
:10254c00050a78001e8fe800b47b80009e0278009c
:10255c00950278000420b00004034200a4842000fb
:10256c0004024300050a78001e8fe800b47b80004b
:10257c000402e800b47b8800b57b8000f40f2000d7
:10258c00848f5200540136000002eb00b47b8800ab
:10259c00b5f9200014c0b300844a78004e0137000e
:1025ac00c401200054158800141580000420a100db
:1025bc000430a0000440a1000450a10014158800b0
:1025cc002515800004fc2f00848262007402200018
:1025dc000502720024158800d4f92000944278007a
:1025ec00d4c3b30084cf52000e003a00c40f2000b5
:1025fc0054158800141580000420a0000430a1009c
:10260c000440a0000450a10014158800251580007a
:10261c0004fc2f00048262003401b30024158800ee
:10262c0055003700d4f9200094427800e4c3b3007d
:10263c0084cf520026003a00141580000420a1001b
:10264c000430a1000440a0000450a100141588001f
:10265c002515800004fc2f00048262007401b30075
:10266c0024158800e4f92000144278000482fb0051
:10267c00cfa2de003600200007002000860f52009b
:10268c00878f5a003b003e000460010003003700b6
:10269c0005003700070037000a003700c41121007d
:1026ac005415880034003700c421220054158800ca
:1026bc0031003700c441240054158800000000008c
:1026cc002d003700c4812800541588002a003700db
:1026dc00d4f9200014427800e24f520026003a0050
:1026ec00141580000420a1000430a1000440a000b7
:1026fc000450a100141588002515800004fc2f003f
:10270c00048262007401b30024158800e4f92000ef
:10271c00144278000482fb00cfa2de0036002000b9
:10272c0007002000860f5200878f5a0012003e00cf
:10273c000460010003003700050037000700370074
:10274c0009003700c4112100541588000a00370015
:10275c00c42122005415880007003700c44124000e
:10276c005415880004003700c481280054158800d3
:10277c00010037000000000004282000040f78003e
:10278c00b47b80009e02780095027800040342001e
:10279c00a484200004024300050a78001e8fe80080
:1027ac00b47b80009e027800950278000410b00083
:1027bc0004034200a484200004024300050a7800ac
:1027cc001e8fe800b47b80009e0278009502780092
:1027dc000420b00004034200a4842000040243003f
:1027ec00050a78001e8fe800b47b80000402e80024
:1027fc00b47b8800b57b8000f40f2000848f5200de
:10280c00020036000002eb00b47b8800d4f92000f3
:10281c0094427800e4c3b30084cf520023003a0002
:10282c00c47b80000402e800c47b8800c57b800068
:10283c0014032000848f5200020036000002eb00cb
:10284c00c47b8800c47b80009e02780095027800cf
:10285c0004034200a4e4200004024300050a7800ab
:10286c001e8fe800c47b80009e02780095027800e1
:10287c002403b00004034200a4e42000040243003b
:10288c00050a78001e8fe800c47b80009e02780049
:10289c00950278004406b00004034200a4e4200032
:1028ac0004024300050a78007b003700d4f92000ad
:1028bc0094427800f4c3b30084cf520033003a0042
:1028cc00e4f92000144278000482fb00cfa2de0061
:1028dc003600200007002000860f5200878f5a0018
:1028ec006c003e0004600100030037000b00370051
:1028fc00130037001c0037001e0278001402780009
:10290c00d47b88001e8fe8001e0278001402780029
:10291c00147c8800e2e2a8005f0037001e027800f9
:10292c0014027800e47b88001e8fe8001e027800f9
:10293c0014027800247c8800e302a80056003700bb
:10294c001e02780014027800f47b88001e8fe800c9
:10295c001e02780014027800347c8800e802a8007b
:10296c00000000004c0037001e02780014027800b2
:10297c00047c88001e8fe8001e0278001402780088
:10298c00447c8800e822a80043003700d4f92000da
:10299c0014427800e34f52003f003a00e4f9200063
:1029ac00144278000482fb00cfa2de003600200027
:1029bc0007002000860f5200878f5a0036003e0019
:1029cc0004600100030037000e00370019003700c7
:1029dc00240037001e02780014027800547c880012
:1029ec001e8fe8001e02780014027800947c880088
:1029fc00e2e2a900e5f9200014c0b300844a780093
:102a0c00250037001e02780014027800647c8800d0
:102a1c001e8fe8001e02780014027800a47c880047
:102a2c00e302a900e5f9200024c0b300844a780031
:102a3c00190037001e02780014027800747c88009c
:102a4c001e8fe8001e02780014027800b47c880007
:102a5c00e802a900e5f9200034c0b300844a7800ec
:102a6c000d0037001e02780014027800847c880068
:102a7c001e8fe8001e02780014027800c47c8800c7
:102a8c00e822a900e5f920000042eb00844a780016
:102a9c000100370000000000d4f9200094427800b7
:102aac008583fb0014c0b300f6032000868f53000f
:102abc0001003c000042eb008542e800d6f9200002
:102acc00054b7800e04f520003003200d5f920008e
:102adc000042eb00844a7800a5f9200014c0b30032
:102aec00844a78000080fa003400f9004f03be00dd
:102afc004f02be004f007800004006000000fa00b4
:102b0c00a4f9200014427800044078000080fa00f8
:102b1c00000006000000fa00b4f92000144278000e
:102b2c00044078000080fa00000006000000fa0063
:102b3c00a1e2a8000080fa00000006000000fa00e4
:102b4c00a1e2a9000080fa00000006000400fa00cf
:102b5c00000f7800110798001e0278000500200075
:102b6c007600200007002000860f5200878f5a0045
:102b7c00ef003e000460010007003700230037001f
:102b8c003f0037005b0037007700370093003700b9
:102b9c00af003700cb0037001e029000e10f52004f
:102bac000e003600241680004622de0061426200d0
:102bbc000404a200614262000482fb006102620014
:102bcc004622dd0026168000f5fb2f0085026300ef
:102bdc000502720024168800970137001e0290002f
:102bec0004427800614262000482fb0061026200d0
:102bfc004622dd0026168000f5fb2f0085026300bf
:102c0c0005027200241688008b0137001e0290000a
:102c1c00e10f52000e003600241680004722de0021
:102c2c00614262000404a200614262000482fb0063
:102c3c00610262004722dd0026168000f5f72f00a6
:102c4c008502630005027200241688007a013700a1
:102c5c001e02900004427800614262000482fb0074
:102c6c00610262004722dd0026168000f5f72f0076
:102c7c008502630005027200241688006e0137007d
:102c8c001e029000e10f52000e0036002416800048
:102c9c004922de00614262000404a200614262002b
:102cac000482fb00610262004922dd0026168000ce
:102cbc00f5df2f00850263000502720024168800e0
:102ccc005d0137001e0290000442780061426200f0
:102cdc000482fb00610262004922dd00261680009e
:102cec00f5df2f00850263000502720024168800b0
:102cfc00510137001e029000e10f52000e00360009
:102d0c00241680004c22de00614262000404a20002
:102d1c00614262000482fb00610262004c22dd0011
:102d2c0026168000f5ff2e00850263000502720056
:102d3c0024168800400137001e02900004427800df
:102d4c00614262000482fb00610262004c22dd00e1
:102d5c0026168000f5ff2e00850263000502720026
:102d6c0024168800340137001e029000e10f520037
:102d7c000e003600241680004a22de0061426200fa
:102d8c000404a200614262000482fb006102620042
:102d9c004a22dd0026168000f5bf2f008502630055
:102dac000502720024168800230137001e029000d1
:102dbc0004427800614262000482fb0061026200fe
:102dcc004a22dd0026168000f5bf2f008502630025
:102ddc000502720024168800170137001e029000ad
:102dec00e10f52000e003600241680004d22de004a
:102dfc00614262000404a200614262000482fb0092
:102e0c00610262004d22dd0026168000f5ff2d00c8
:102e1c008502630005027200241688000601370043
:102e2c001e02900004427800614262000482fb00a2
:102e3c00610262004d22dd0026168000f5ff2d0098
:102e4c00850263000502720024168800fa00370020
:102e5c001e029000e10f52000e0036002416800076
:102e6c004e22de00614262000404a2006142620054
:102e7c000482fb00610262004e22dd0026168000f7
:102e8c00f5ff2b00850263000502720024168800f2
:102e9c00e90037001e029000044278006142620093
:102eac000482fb00610262004e22dd0026168000c7
:102ebc00f5ff2b00850263000502720024168800c2
:102ecc00dd0037001e029000e10f52000d003600ad
:102edc00241680004f22de00044278000404a20075
:102eec00614262000482fb004f22dd002616800046
:102efc00f5ff270085026300050272002416880086
:102f0c00cd0037001e02900004427800614262003e
:102f1c000482fb004f22dd0026168000f5ff2700ff
:102f2c00850263000502720024168800c200370077
:102f3c001e029000e10f520068003600241680003b
:102f4c004622de00614262000404a200614262007b
:102f5c000482fb00610262004622dd00261680001e
:102f6c00f5fb2f0085026300050272002416880011
:102f7c00241680004722de00614262000404a20095
:102f8c00614262000482fb00610262004722dd00a4
:102f9c0026168000f5f72f008502630005027200eb
:102fac0024168800241680004922de00614262004b
:102fbc000404a200614262000482fb006102620010
:102fcc004922dd0026168000f5df2f008502630004
:102fdc000502720024168800241680004c22de00a4
:102fec00614262000404a200614262000482fb00a0
:102ffc00610262004c22dd0026168000f5ff2e00d7
:10300c0085026300050272002416880024168000d5
:10301c004a22de00614262000404a20061426200a6
:10302c000482fb00610262004a22dd002616800049
:10303c00f5bf2f008502630005027200241688007c
:10304c00241680004d22de00614262000404a200be
:10305c00614262000482fb00610262004d22dd00cd
:10306c0026168000f5ff2d00850263000502720014
:10307c0024168800241680004e22de006142620075
:10308c000404a200614262000482fb00610262003f
:10309c004e22dd0026168000f5ff2b008502630012
:1030ac000502720024168800241680004f22de00d0
:1030bc00044278000404a200614262000482fb0016
:1030cc004f22dd0026168000f5ff270085026300e5
:1030dc000502720024168800570037001e0290006b
:1030ec0004427800614262000482fb004f22dd0042
:1030fc0026168000f5ff270085026300050272008a
:10310c0024168800241680004f22de00044278002a
:10311c000482fb00610262004e22dd002616800054
:10312c00f5ff2b008502630005027200241688004f
:10313c00241680004e22de00614262000482fb00f5
:10314c00610262004d22dd0026168000f5ff2d0085
:10315c008502630005027200241688002416800084
:10316c004d22de00614262000482fb0061026200bb
:10317c004a22dd0026168000f5bf2f008502630071
:10318c000502720024168800241680004a22de00f4
:10319c00614262000482fb00610262004c22dd008d
:1031ac0026168000f5ff2e008502630005027200d2
:1031bc0024168800241680004c22de006142620036
:1031cc000482fb00610262004922dd0026168000a9
:1031dc00f5df2f00850263000502720024168800bb
:1031ec00241680004922de00614262000482fb004a
:1031fc00610262004722dd0026168000f5f72f00e1
:10320c0085026300050272002416880024168000d3
:10321c004722de00614262000482fb006102620010
:10322c004622dd0026168000f5fb2f008502630088
:10323c0005027200241688000080fa0000000600c7
:10324c000200fa00000f78001e027800e10f520015
:10325c000e003600841680004222de0061426200bd
:10326c000404a200614262000482fb00610262005d
:10327c004222dd0086168000b5ff2f008502630018
:10328c0005027200841688000b0037001e027800bd
:10329c0004427800614262000482fb006102620019
:1032ac004222dd0086168000b5ff2f0085026300e8
:1032bc0005027200841688000080fa0000000600e7
:1032cc000200fa00000f78001e027800e10f520095
:1032dc000e003600841680000402d10061426200a8
:1032ec000404a200614262000482fb0061026200dd
:1032fc000402420086168000d5ff2f008502630071
:10330c0005027200841688000b0037001e0278003c
:10331c0004427800614262000482fb006102620098
:10332c000402420086168000d5ff2f008502630040
:10333c0005027200841688000080fa000000060066
:10334c000000fa00c4c2a900c4e2a900c522a90069
:10335c00c582a900c542a900c5a2a900c5c2a90081
:10336c00c5e2a9000080fa00000006006a00fa001d
:10337c00889fbe008a9fbe008c9fbe00e50107009f
:10338c000040eb00e2fb070075020700ecff0700b2
:10339c000000eb00aaff07000000eb00c8ff0700cd
:1033ac000000eb000f010700000278000519200057
:1033bc00850f520003003400110020000000eb00c8
:1033cc00e2fd070010002000060107000002780053
:1033dc0005192000850f5200030034001100200055
:1033ec0010002000d9fd070020002000fd00070080
:1033fc000002780005192000850f520003003400ec
:10340c001100200020002000d0fd0700300020001b
:10341c00f40007000002780005192000850f520007
:10342c00030034001100200030002000c7fd07000d
:10343c0040002000eb000700000278000519200076
:10344c00850f5200030034001100200040002000c2
:10345c00befd070050002000e200070000027800cb
:10346c0005192000850f52000300340011002000c4
:10347c0050002000b5fd070060002000d9000700b7
:10348c000002780005192000850f5200030034005b
:10349c001100200060002000acfd0700700020002f
:1034ac00d00007000002780005192000850f52009b
:1034bc00030034001100200070002000a3fd070061
:1034cc0070002000c7000700403798006000200003
:1034dc00c40007008006780050002000c1000700df
:1034ec000006780040002000be0007008005780030
:1034fc0030002000bb0007000005780020002000f1
:10350c00b80007008004780010002000b500070008
:10351c00000478000000eb00b20007008002780085
:10352c00640247004e339000861f78008d1f780090
:10353c008c1f78008b1f78008a1f7800891f7800f9
:10354c00881f7800851f780025152900851f7800b5
:10355c0004007800c2f50700f287570064024700a8
:10356c0004007800b7f507000002780084027800a8
:10357c00640247008500780004007800cc01070045
:10358c0000000000d601070000027800e00f520096
:10359c00fcff3a000000eb009200070000027800ec
:1035ac00451f2000850f520005003400c0f92f0084
:1035bc00edf30700c0f92f0017f407000f003700d8
:1035cc000000eb0087000700000278004506200091
:1035dc00850f52000500340040062000e2f307007e
:1035ec00400620000cf40700040037000000eb003c
:1035fc00ddf307000000eb0007f407006022b800c1
:10360c00048fbe00040037001400200005002000c9
:10361c001e0f42005e974a00f4342c000500200077
:10362c001e03be00840f5300858f5b00f6ff340031
:10363c0056ff37002800fa00889fbe000002eb00fe
:10364c00040f78000002eb00140798000d003700ff
:10365c001e02780084024200040921000482420008
:10366c008002eb00050a78001e0278004222dd0081
:10367c0004024700680342006022b800048bbe00bd
:10368c001e0fe8001e027800e70f5200f0ff340016
:10369c002c0037000002eb00040f780023003700e9
:1036ac001e0278004222dd00e8024700048242003c
:1036bc001404be001e0278000400780049000700c4
:1036cc0000027800cfa2de000802420089824a0084
:1036dc001e0378004233dd000603470068034300f5
:1036ec00048bbe006022b8002407980035079800b0
:1036fc00060037002e029000be02900061024200cc
:10370c00e0824a0024079800350798002e039000a9
:10371c00be039000743e200005002000840f53006f
:10372c00858f5b00f3ff34001e0fe8001e0278004b
:10373c00e70f5200daff34001e0290000402e8008a
:10374c00140798009e02900034062000848f5200cb
:10375c00d0ff34000002eb00040f78001b00370090
:10376c001e0278004222dd00e8024700048242007b
:10377c001402be000400be009df407000004be004d
:10378c001e029000cfa2de000400be0098f40700d9
:10379c000002be000401be000800be0016f40700c3
:1037ac000002be000400be0055f407000002be007b
:1037bc00840278001e0278000403420004092100f0
:1037cc0004024300050a78001e0fe8001e02780070
:1037dc00e70f5200e2ff34004f04be000080fa00f5
:1037ec00000006000200fa00000f78001e027800ac
:1037fc00e70f5200020036000002eb000b0037000e
:10380c001e02780084024200a4f7200004824200c9
:10381c00940278001e02780004034200a4f82000f1
:10382c000402430014027800048252000400780061
:10383c000080fa00000006000400fa00100798004f
:10384c001e029000e70f5200020036000002eb004f
:10385c00170037001e02900084024200a4f72000db
:10386c0004824200940278001e029000040342007d
:10387c00a4f8200004024300140278008482520051
:10388c001e029000040342000409210004024300bc
:10389c0014027800048f52001e027800e00f5200d0
:1038ac00020034001e027800010037000002eb0019
:1038bc00040078000080fa00000006000200fa0004
:1038cc00000f78001e027800e70f5200020036004d
:1038dc000002eb00050037001e0278008402420053
:1038ec00a4f720000482420014027800040078003f
:0838fc000080fa000000060044
:020000040000fa
:103904009010000010000000000000004a080000b1
:1039140056070000000000004408000006000000f4
:103924000200000000000000000000000008000089
:10393400440000000200000000000000000000003d
:103944000000000000000000000000000000000073
:103954000000000000000000000000000000000063
:103964000000000000000000000000000000000053
:103974000000000000000000000000000000000043
:103984000000000000000000000000000000000033
:1039940000000000a01000000c0000000000000067
:1039a400a00f0000ca000000020000003031320005
:1039b400333435003637380039414200434445003a
:1039c40046003000313233003435360037383900a0
:1039d400616263006465660000286e00756c6c00ab
:1039e40029000000010000000000000000000a009f
:1039f400000000000000000000640000000000005f
:103a040000000000e80300000000000000001000b7
:103a1400270000000000000000a086000100000054
:103a24000000000040420f00000000000000800081
:103a340096980000000000000000e100f505000079
:103a44000000000000ca9a003b00000000000000d3
:103a5400e40b5400020000000000e8007648170060
:103a6400000000000010a500d4e8000000000000e1
:103a7400a0724e0018090000000040007a10f30004
:103a84005a0000000080c600a47e8d0003000000e0
:103a940000c16f00f2862300000000008a5d7800f8
:103aa4004563010000006400a7b3b600e00d000008
:103ab40000e889000423c7008a0000006a1000009f
:103ac4002600000002000000ad10000000ad100050
:103ad4000900000000020000af10000000af100059
:103ae4000e020100000000000000000000000000c1
:103af40006020200000000006a100000ac10000082
:103b04000600000000000000b210000002000000e7
:0c3b1400020000000100000000000000a2
:020000040000fa
:103b20000000fa00c4c2a900c4e2a900c522a9008d
:103b3000c582a900c542a900c5a2a900c5c2a900a5
:103b4000c5e2a900c0c2a900c0e2a900c122a90023
:103b5000c182a900c142a900c1a2a900c1c2a90095
:103b6000c1e2a900d022a900cc22a900d042a9001c
:103b7000cc42a900e2e2a900e302a900e802a90000
:103b8000e822a900dee2a900df02a900e402a90000
:103b9000e422a900e202a900de02a900d602a900df
:103ba000d622a900d642a900d662a900d682a900d1
:103bb000d6a2a900d6c2a900d6e2a900d202a900c5
:103bc000d222a900d242a900d262a900d282a900c1
:103bd000d2a2a900d2c2a900d2e2a900d1a2a90012
:103be000cda2a900e842a900e862a900e442a90028
:103bf000e462a900de22a800dec2a800e4c2a80098
:103c0000e4e2a800e502a800e522a800d302a8008b
:103c1000d322a800d342a800d362a800d382a80070
:103c2000d3a2a800d3c2a800d3e2a8000080fa0063
:103c3000000006008540a900809fbe00821f78001a
:103c40004808e200150032004408e2001600320085
:103c50004608e200140032002142800042002000a9
:103c60000f22af00feff3700304280000000e0006e
:103c7000070032000000e90046a8b7003140780094
:103c800010e2b7000201e900f5ff3a000200370038
:103c90004428ef0001003700214288004f017800de
:103ca0004f00be0000400600000020004042880097
:103cb0004f0178004f00be00004006004808e200b7
:103cc000feff3a008d40a9008100e90031428800e2
:103cd000b040780081108800204288001100200048
:103ce000414288008d40a80000000600404280004c
:103cf00000000600809fbe008520a90000428000d1
:103d0000f003b20001802000810040000000eb00c1
:103d100012c2bf00804878004028ec004f00be006f
:103d20000040060000428000114280000100500067
:103d30000000060001428000124280000208e100fb
:103d400008003200f203b20001802000028140002e
:103d500092407800014878004228ec0010002000d2
:103d6000000006000000eb00000006000c22ef003f
:103d70000e22ef000ee2a9000ec2a9008520a900c4
:103d80008d20a8000de2a80070002000a01088007f
:103d90008540a9008d40a80081e0a900c0048000f2
:103da000f1002f00008060000155200000804000dd
:103db000c00488000fe2a8000f42a8004028ef00ce
:083dc0004228ef00000006009c
:020000040000fa
:0200000401f009
:04000000e6bf000057
:020000040000fa
:0200000401f009
:04000400ff7f00007a
:020000040000fa
:0200000401f009
:040008007fff000076
:020000040000fa
:0200000401f009
:04001400ffff0000ea
:00000001FF
