:020000040000fa
:080000000001040000000000f3
:020000040000fa
:100008009e0300009e0300009e0300009e03000064
:100018009e0300009e0300009e0300009e03000054
:100028009e0300009e0300009e0300009e03000044
:100038009e0300009e0300009e0300009e03000034
:100048009e0300009e0300009e0300009a06000025
:100058009e0300009e0300009e0300009e03000014
:100068009e0300009e0300009e0300009e03000004
:100078009e030000260200009a0100009e03000073
:100088009e0300009e0300009e0300009e030000e4
:100098009e0300009e0300009e0300009e030000d4
:1000a8009e0300009e0300009e0300009e030000c4
:1000b8009e0300009e0300009e0300009e030000b4
:1000c8009e0300009e0300009e0300009e030000a4
:1000d8009e0300009e0300009e0300009e03000094
:1000e8009e0300009e0300009e0300009e03000084
:0800f8009e0300009e030000be
:020000040000fa
:100108009e0300009e0300009e0300009e03000063
:100118009e0300009e0300009e0300009e03000053
:100128009e0300009e0300009e0300009e03000043
:100138009e0300009e0300009e0300009e03000033
:100148009e0300009e0300009e0300009a06000024
:100158009e0300009e0300009e0300009e03000013
:100168009e0300009e0300009e0300009e03000003
:100178009e030000260200009a0100009e03000072
:100188009e0300009e0300009e0300009e030000e3
:100198009e0300009e0300009e0300009e030000d3
:1001a8009e0300009e0300009e0300009e030000c3
:1001b8009e0300009e0300009e0300009e030000b3
:1001c8009e0300009e0300009e0300009e030000a3
:1001d8009e0300009e0300009e0300009e03000093
:1001e8009e0300009e0300009e0300009e03000083
:0801f8009e0300009e030000bd
:020000040000fa
:10020000af0321000e7f22000e01880000000000d5
:10021000000020000000e000020032000001200089
:10022000200288000c00070060c3200001002000ad
:1002300011000700000020000000e0000200320072
:100240000000020000000000d20b020000000000cd
:100250000040da000000fe004440a9000000200039
:100260000000e0000300320000002000a001880030
:100270004440a8000000060091018800800078003a
:100280000000eb0015003700e280400032a0b4000f
:100290009101ba00e280400032a0b4009102ba009d
:1002a000e280400032a0b4000002eb00472bde00e9
:1002b000f507b200602ce10004003a000059eb00a1
:1002c0008301e900fdff3e00040037006128e100e2
:1002d000010032000082eb00040007001101ba00a7
:1002e0000200e000e8ff3a00000006003159ba00c1
:1002f0008301e9000c0032002159ba008301e900b2
:10030000080032000400e00003003a00e2804000f0
:1003100032a0b400f5ff370011d9ba008301e9001b
:10032000faff3a008100e800e180400032a0b4000a
:1003300000000600849fbe00869fbe003400f800c7
:1003400004002000a40188000000fa0086c0a90073
:10035000347b8000e00f52000c003400547b80009e
:100360000402e800547b8800847b80000402e900da
:10037000847b8800847b8000e00f52000e003d00eb
:1003800034002000847b88000b003700547b800001
:100390000402e900547b8800847b80000402e800aa
:1003a000847b8800847b8000e30f520002003400cd
:1003b0000002eb00847b8800847b8000cfa2de00fb
:1003c0003600200007002000860f5200878f5a0059
:1003d00019003e00046001000300370007003700e9
:1003e0000b0037000f003700d602a900d622a80064
:1003f000d642a900d662a8000f003700d602a90095
:10040000d622a800d642a800d662a9000a0037006a
:10041000d602a800d622a900d642a800d662a9001a
:1004200005003700d602a800d622a900d642a900ae
:10043000d662a800000000000080fa003400f90035
:100440004f03be004f02be0000400600849fbe0066
:10045000869fbe003400f80004002000a40188003c
:100460000000fa0086a0a900447b8000e00f520043
:100470000c003d00647b80000402e900647b88007e
:10048000747b80000402e900747b8800747b800028
:10049000e00f52000e003d0034002000747b880005
:1004a0000b003700647b80000402e800647b880056
:1004b000747b80000402e800747b8800747b8000f9
:1004c000e30f5200020034000002eb00747b88004e
:1004d000747b8000cfa2de003600200007002000e1
:1004e000860f5200878f5a0019003e0004600100f9
:1004f00003003700070037000b0037000f003700fc
:10050000d682a900d6a2a800d6c2a900d6e2a80029
:100510000f003700d682a900d6a2a800d6c2a80034
:10052000d6e2a9000a003700d682a800d6a2a90008
:10053000d6c2a800d6e2a90005003700d682a800de
:10054000d6a2a900d6c2a900d6e2a80000000000e9
:100550000080fa003400f9004f03be004f02be00d5
:10056000004006000000fa00490407000080fa007d
:10057000000006000200fa00000f78001e0278005a
:10058000e00f520006003a0021e1a900d602a900be
:10059000d622a900d642a900d662a9001f003700c2
:1005a00021e1a9001e027800347b88000002eb00e4
:1005b00004098800040980000440a0000450a00041
:1005c000040988000002eb00c40888001e027800bd
:1005d00004f0a7000402ea00cfa2de000400be007f
:1005e000d60007000002be000401be00000020008b
:1005f00011762400530007000002be000400be0074
:10060000b30007000002be0004027800e40888007e
:1006100086c0a9008ec0a80021e1a8000080fa00d1
:10062000000006000200fa00000f78001e027800a9
:10063000e00f520006003a001fe1a900d682a9008f
:10064000d6a2a900d6c2a900d6e2a9001f00370091
:100650001fe1a9001e027800447b88000002eb0025
:10066000f4088800f40880000440a0000450a000b2
:10067000f40888000002eb00a40888001e0278003d
:1006800004f0a7000402ea00cfa2de000400be00ce
:10069000aa0007000002be000401be000000200006
:1006a00011762400270007000002be000400be00ef
:1006b000870007000002be0004027800d40888000a
:1006c00086a0a9008ea0a8001fe1a8000080fa0063
:1006d000000006000000fa00547b8000040078004f
:1006e0000080fa00000006000200fa00000f780007
:1006f0001027fc001e027800547b88000200fc00da
:100700000080fa00000006000000fa00647b800010
:10071000040078000080fa00000006000200fa00e1
:10072000000f78001027fc001e027800647b880010
:100730000200fc000080fa00000006000040da0021
:100740000000fe00889fbe008a9fbe008c1f7800bc
:10075000b8000700bf00330003866c006450e1005e
:100760002e0032006420e100330032006150e100cd
:100770002f0032006120e1003100320085855500f4
:10078000eb07b00009002000080420000500370036
:100790000804440089844c000a0031000603430029
:1007a00087834b000001530081815b00f8ff330019
:1007b0000203be000800a0000804440089844c0025
:1007c000f6ff3900c639dd008301730001003200f5
:1007d000130020008904d1000884d3000998a300e5
:1007e000050032000800a7000300a0008904d10022
:1007f0000884d3008b05e8008904d1000884d30065
:100800000001eb000281d2004f00070001f0a100bf
:100810000cf0a70001f0a000970037006420e10071
:10082000990032000801be000200be00f7ff370049
:100830006120e100940032006000b800f3ff37004f
:100840000000200001f82700f0ff37000001be0083
:10085000630007000470a70003f0a1006509b10060
:10086000160032000d0035006828e1000600350052
:10087000f0ff2f00f1ff27000300e00013003b0012
:1008800001002800000005000000400081804800b1
:100890008502e900fcff3a0008003700f88f4200ab
:1008a00002003c008000eb00000005008100d10048
:1008b0000080d3008502e800fcff3a000300e0005e
:1008c00002003b0060001000e080180000000600fd
:1008d0000001be00420007000470a70003f0a10061
:1008e00003f8a30013003a006509b10010003200bc
:1008f000090035006928e1000200350001002800e8
:100900000000050000004000818048008502e900e9
:10091000fcff3a0000000600f88f42000500350099
:100920008100d1000080d3008502e800fcff3a007e
:10093000000006008000eb00000005004f89de008b
:10094000820178005300370081002000618055004b
:100950000b003d000b00200061fe2f000100e100b4
:100960001d00340082817100610164008904d1009e
:100970000884d3000000e800faff3a00710020006c
:100980006100640003007000020060000900320092
:1009900061044400e0844c000988a5000500320091
:1009a0008b05e8006808e10002003a008904d100e4
:1009b0000884d300f20f20000258e10005003d003a
:1009c000c75ddd00f907b200898075000800780076
:1009d000000006000bf827008b00780000000500df
:1009e000c70ade00f107b200f50fb20008003200be
:1009f000e1cf4200020032000170a0002400050097
:100a0000810f700001003200040805004400050059
:100a1000810f700002003a00140005008502e90011
:100a20000000400081c04800fcff3b000170a000b6
:100a3000240005000004be00e9ff07000003be001b
:100a40000405be000200be00e5ff0700844f7500ec
:100a5000000006000200be006450e1000500360000
:100a60006420e100020036000968a30001003a009a
:100a70000800be000160a0004f0678004f05be00d0
:100a80004f04be0000000600f0ff2f00f1ff27001a
:100a9000f9ff3700881f7800030478000300e000a6
:100aa00007003d0060001000e080180060011900a0
:100ab000e081190002003b0001f02d000300370027
:100ac0000400070008f0a70001f0a0004f04780020
:100ad00000000600889fbe008a9fbe000082700052
:100ae0000402710004827100260032000004be007e
:100af0000200be006011b8006b09200095022000c2
:100b00000182cf000a0039000541b1000082cf0008
:100b1000070039000541b1000982cf000400390007
:100b20000541b1000882cf00010039000541b10044
:100b300005425200120032000a003b00828171001f
:100b4000610164008100d1000080d3008984d3005a
:100b50000884d3008b05e8000442e800f7ff3a0060
:100b6000070037000804440089844c000000480056
:100b7000818048008b05e9000442e900f9ff3a0052
:100b800071ff07004f05be004f04be0000000600c5
:020000040000fa
:100b90000200fa00004f78001e427800e14f520038
:100ba00004003a0025f5200014c0b300844a780000
:100bb0000300370025f520000042eb00844a78004e
:100bc0000002eb00041588000002eb0014158800f9
:100bd0000002eb00241588000002eb0034158800a9
:100be000a802a800a822a800a842a900a862a900fb
:100bf000a882a900a8a2a900a8c2a900a8e2a900e9
:100c0000a902a900a922a900a942a900a962a900d4
:100c1000a982a900a9a2a900a9c2a900a9e2a900c4
:100c2000aa02a900aa22a900aa42a800aa62a800b2
:100c3000aa82a800aaa2a900aac2a900aae2a900a1
:100c4000ab02a900ab22a900ab42a900ab62a9008c
:100c5000ab82a900aba2a900abc2a900abe2a9007c
:100c6000041580000480a1000490a10004158800f0
:100c7000a042a800041580000450a0000460a00059
:100c80000470a00004158800141580000420a10041
:100c90000430a0000440a1000450a10014158800f5
:100ca000a342a80025158000f40f2e008482620064
:100cb00004102000050272002415880024f520008d
:100cc00014427800e04f52000600320025158000e3
:100cd00004fc2f00048262003401b3002415880054
:100ce000060037002515800004fc2f008482620076
:100cf0007402200005027200241588008560a90096
:100d00008d60a800a1e2a80024f52000144278001c
:100d1000e04f520005003a000000000075798000a5
:100d200004032000848f5200fbff36000080fa008d
:100d300000000600801f7800849fbe00869fbe00d2
:100d40003400f80000002000a00188000200fa0032
:100d500005f520000042eb00844a780015f52000dc
:100d60000042eb00844a78008560a90024f5200049
:100d700014427800e04f520029003200042820007d
:100d8000040f7800647980009e0278009502780054
:100d9000040342000480200004024300050a780096
:100da0001e8fe800647980009e027800950278002a
:100db0000410b00004034200048020000402430039
:100dc000050a78001e8fe800647980009e02780092
:100dd000950278000420b000040342000480200043
:100de00004024300050a78001e8fe8006479800041
:100df0000402e8006479880065798000f40f20001f
:100e0000848f5200540136000002eb0064798800a0
:100e100015f5200014c0b300844a78004e01370055
:100e2000c401200054158800141580000420a1007e
:100e30000430a0000440a1000450a1001415880053
:100e40002515800004fc2f008482620074022000bb
:100e5000050272002415880034f5200094427800c1
:100e6000d4c3b30084cf52000e003a00c40f200058
:100e700054158800141580000420a0000430a1003f
:100e80000440a0000450a10014158800251580001e
:100e900004fc2f00048262003401b3002415880092
:100ea0005500370034f5200094427800e4c3b300c5
:100eb00084cf520026003a00141580000420a100bf
:100ec0000430a1000440a0000450a10014158800c3
:100ed0002515800004fc2f00048262007401b30019
:100ee0002415880044f52000144278000482fb0099
:100ef000cfa2de003600200007002000860f52003f
:100f0000878f5a003b003e00046001000300370059
:100f100005003700070037000a003700c411210020
:100f20005415880034003700c4212200541588006d
:100f300031003700c441240054158800000000002f
:100f40002d003700c4812800541588002a0037007e
:100f500034f5200014427800e24f520026003a0097
:100f6000141580000420a1000430a1000440a0005a
:100f70000450a100141588002515800004fc2f00e2
:100f8000048262007401b3002415880044f5200037
:100f9000144278000482fb00cfa2de00360020005d
:100fa00007002000860f5200878f5a0012003e0073
:100fb0000460010003003700050037000700370018
:100fc00009003700c4112100541588000a003700b9
:100fd000c42122005415880007003700c4412400b2
:100fe0005415880004003700c48128005415880077
:100ff000010037000000000004282000040f7800e2
:10100000647980009e027800950278000403420013
:101010000480200004024300050a78001e8fe800c7
:10102000647980009e027800950278000410b00078
:10103000040342000480200004024300050a7800f3
:101040001e8fe800647980009e0278009502780087
:101050000420b00004034200048020000402430086
:10106000050a78001e8fe800647980000402e80019
:101070006479880065798000f40f2000848f520025
:10108000020036000002eb006479880034f520008d
:1010900094427800e4c3b30084cf520023003a00a6
:1010a000747980000402e800747988007579800002
:1010b00014032000848f5200020036000002eb006f
:1010c00074798800747980009e0278009502780017
:1010d0000403420004e0200004024300050a7800f3
:1010e0001e8fe800747980009e02780095027800d7
:1010f0002403b0000403420004e020000402430083
:10110000050a78001e8fe800747980009e0278003e
:10111000950278004406b0000403420004e0200079
:1011200004024300050a78007b00370034f52000f4
:1011300094427800f4c3b30084cf520033003a00e5
:1011400044f52000144278000482fb00cfa2de00a8
:101150003600200007002000860f5200878f5a00bb
:101160006c003e0004600100030037000b003700f4
:10117000130037001c0037001e02780014027800ac
:10118000847988001e8fe8001e027800140278001f
:10119000c4798800e2e2a8005f0037001e027800f0
:1011a00014027800947988001e8fe8001e027800ef
:1011b00014027800d4798800e302a80056003700b2
:1011c0001e02780014027800a47988001e8fe800bf
:1011d0001e02780014027800e4798800e802a80072
:1011e000000000004c0037001e0278001402780056
:1011f000b47988001e8fe8001e027800140278007f
:10120000f4798800e822a8004300370034f5200074
:1012100014427800e34f52003f003a0044f52000aa
:10122000144278000482fb00cfa2de0036002000ca
:1012300007002000860f5200878f5a0036003e00bc
:1012400004600100030037000e003700190037006a
:10125000240037001e02780014027800047a880007
:101260001e8fe8001e02780014027800447a88007d
:10127000e2e2a90045f5200014c0b300844a7800da
:10128000250037001e02780014027800147a8800c6
:101290001e8fe8001e02780014027800547a88003d
:1012a000e302a90045f5200024c0b300844a780079
:1012b000190037001e02780014027800247a880092
:1012c0001e8fe8001e02780014027800647a8800fd
:1012d000e802a90045f5200034c0b300844a780034
:1012e0000d0037001e02780014027800347a88005e
:1012f0001e8fe8001e02780014027800747a8800bd
:10130000e822a90045f520000042eb00844a78005d
:10131000010037000000000034f5200094427800fe
:101320008583fb0014c0b300f6032000868f5300b2
:1013300001003c000042eb008542e80036f5200049
:10134000054b7800e04f52000300320035f52000d5
:101350000042eb00844a780005f5200014c0b30079
:10136000844a78000080fa003400f9004f03be0080
:101370004f02be004f007800004006000000fa0057
:1013800004f5200014427800044078000080fa0040
:10139000000006000000fa0014f520001442780056
:1013a000044078000080fa00000006000000fa0007
:1013b000a1e2a8000080fa00000006000000fa0088
:1013c000a1e2a9000080fa00000006002800fa004f
:1013d000889fbe000002eb00040f78000002eb00c3
:1013e000140798000d0037001e02780084024200a6
:1013f00064f52000048242008002eb00050a7800b8
:101400001e0278004222dd00040247006803420009
:101410006022b800048bbe001e0fe8001e02780098
:10142000e70f5200f0ff34002c0037000002eb0001
:10143000040f7800230037001e0278004222dd00ee
:10144000e8024700048242001404be001e02780035
:10145000040078004900070000027800cfa2de00f7
:101460000802420089824a001e0378004233dd00f0
:101470000603470068034300048bbe006022b800e7
:101480002407980035079800060037002e029000c8
:10149000be02900061024200e0824a0024079800e8
:1014a000350798002e039000be039000743e200084
:1014b00005002000840f5300858f5b00f3ff34008c
:1014c0001e0fe8001e027800e70f5200daff34001a
:1014d0001e0290000402e800140798009e0290008b
:1014e00034062000848f5200d0ff34000002eb004d
:1014f000040f78001b0037001e0278004222dd0036
:10150000e8024700048242001402be000400be004c
:101510000afd07000004be001e029000cfa2de00fc
:101520000400be0005fd07000002be000401be006d
:101530000800be0083fc07000002be000400be00dd
:10154000c2fc07000002be00840278001e02780080
:101550000403420064f5200004024300050a7800f9
:101560001e0fe8001e027800e70f5200e2ff340071
:101570004f04be000080fa00000006000200fa00de
:10158000000f78001e027800e70f520002003600bc
:101590000002eb000b0037001e02780084024200bc
:1015a00004f3200004824200940278001e027800b6
:1015b0000403420004f420000402430014027800f3
:1015c00004825200040078000080fa000000060047
:1015d0000400fa00100798001e029000e70f520066
:1015e000020036000002eb00170037001e029000d8
:1015f0008402420004f32000048242009402780036
:101600001e0290000403420004f420000402430080
:1016100014027800848252001e02900004034200eb
:1016200064f520000402430014027800048f520085
:101630001e027800e00f5200020034001e02780003
:10164000010037000002eb00040078000080fa007f
:10165000000006000200fa00000f78001e02780069
:10166000e70f5200020036000002eb0005003700d1
:101670001e0278008402420004f32000048242002b
:1016800014027800040078000080fa0000000600d0
:101690000000fa00c4c2a900c4e2a900c522a90042
:1016a000c582a900c542a900c5a2a900c5c2a9005a
:1016b000c5e2a900c0c2a900c0e2a900c122a900d8
:1016c000c182a900c142a900c1a2a900c1c2a9004a
:1016d000c1e2a900d022a900cc22a900d042a900d1
:1016e000cc42a900e2e2a900e302a900e802a900b5
:1016f000e822a900dee2a900df02a900e402a900b5
:10170000e422a900e202a900de02a900d602a90093
:10171000d622a900d642a900d662a900d682a90085
:10172000d6a2a900d6c2a900d6e2a900d202a90079
:10173000d222a900d242a900d262a900d282a90075
:10174000d2a2a900d2c2a900d2e2a900d1a2a900c6
:10175000cda2a900e842a900e862a900e442a900dc
:10176000e462a900de22a800dec2a800e4c2a8004c
:10177000e4e2a800e502a800e522a800d302a80040
:10178000d322a800d342a800d362a800d382a80025
:10179000d3a2a800d3c2a800d3e2a8000080fa0018
:1017a000000006000800fa006022b800048fbe00a6
:1017b000e44e2100c56a24002407980035079800ec
:1017c000b3ff07000040eb00f1fc07000000eb0056
:1017d0006aff070000027800451f2000850f5200b5
:1017e00005003400c0f92f0062fb0700c0f92f008c
:1017f0008cfb07000f0037000000eb005fff0700c5
:101800000002780045062000850f520005003400d4
:101810004006200057fb07004006200081fb070020
:10182000040037000000eb0052fb07000000eb0053
:101830007cfb07006022b800048fbe000400370064
:1018400014002000050020001e0f42005e974a0091
:10185000f4342c00050020001e03be00840f53004a
:0c186000858f5b00f6ff3400d8ff3700d6
:020000040000fa
:10186c00560f0000100000000000000000080000ef
:10187c005607000000000000660f00000c0000007e
:08188c00000000000000000054
:020000040000fa
:0200000401f009
:04000000e6bf000057
:020000040000fa
:0200000401f009
:04000400ff7f00007a
:020000040000fa
:0200000401f009
:040008007fff000076
:020000040000fa
:0200000401f009
:04001400ffff0000ea
:00000001FF
