:020000040000fa
:080000000001040000000000f3
:020000040000fa
:10000800c0020000c0020000c0020000c0020000e0
:10001800c0020000c0020000c0020000c0020000d0
:10002800c0020000c0020000c0020000c0020000c0
:10003800c0020000c00200006e440000c0020000c0
:10004800c0020000c24d0000624d0000442a0000ba
:10005800c0020000c00200007e380000c00200009c
:10006800c0020000c0020000c0020000c002000080
:10007800c0020000fe4d0000ae010000c0020000fa
:10008800c0020000c0020000c0020000c002000060
:10009800c0020000c0020000c0020000c002000050
:1000a800c0020000c0020000c0020000c002000040
:1000b800c0020000c0020000c0020000c002000030
:1000c800c0020000c0020000c0020000c002000020
:1000d800c0020000c0020000c0020000c002000010
:1000e800c0020000c0020000c0020000c002000000
:0800f800c0020000c00200007c
:020000040000fa
:10010800c0020000c0020000c0020000c0020000df
:10011800c0020000c0020000c0020000c0020000cf
:10012800c0020000c0020000c0020000c0020000bf
:10013800c0020000c00200006e440000c0020000bf
:10014800c0020000c24d0000624d0000442a0000b9
:10015800c0020000c00200007e380000c00200009b
:10016800c0020000c0020000c0020000c00200007f
:10017800c0020000fe4d0000ae010000c0020000f9
:10018800c0020000c0020000c0020000c00200005f
:10019800c0020000c0020000c0020000c00200004f
:1001a800c0020000c0020000c0020000c00200003f
:1001b800c0020000c0020000c0020000c00200002f
:1001c800c0020000c0020000c0020000c00200001f
:1001d800c0020000c0020000c0020000c00200000f
:1001e800c0020000c0020000c0020000c0020000ff
:0801f800c0020000c00200007b
:020000040000fa
:100200006f3721000e7f22000e01880000000000e1
:10021000000020000000e000020032000001200089
:10022000200288000c000700208924000100200023
:1002300011000700000020000000e0000200320072
:100240000000020000000000a20b020000000000fd
:100250000040da000000fe004440a9000020200019
:100260000000e0000300320000002000a001880030
:100270004440a8000000060091018800800078003a
:100280000000eb0015003700e280400032a0b4000f
:100290009101ba00e280400032a0b4009102ba009d
:1002a000e280400032a0b4000002eb00472bde00e9
:1002b000f507b200602ce10004003a000059eb00a1
:1002c0008301e900fdff3e00040037006128e100e2
:1002d000010032000082eb00040007001101ba00a7
:1002e0000200e000e8ff3a00000006003159ba00c1
:1002f0008301e9000c0032002159ba008301e900b2
:10030000080032000400e00003003a00e2804000f0
:1003100032a0b400f5ff370011d9ba008301e9001b
:10032000faff3a008100e800e180400032a0b4000a
:1003300000000600fc1d040000000000981d0400e1
:10034000000000009c380400000000006a3904002e
:1003500000000000f619040000000000801f780073
:100360003400f80000002000a00188000000fa001e
:1003700086c0a9001fe1a80021e1a9000080fa00c1
:100380003400f9004f007800004006000000fa0039
:1003900024002000040988000002eb00c408880043
:1003a00014002000e408880086c0a9008ec0a800c0
:1003b00021e1a8000080fa00000006000000fa0019
:1003c00024002000f4088800d47a8000a408880063
:1003d000d47a80000402e800d408880086a0a9002e
:1003e0001fe1a9008ea0a8000080fa00000006000e
:1003f0000200fa00000f78000002eb00e47a8800a7
:100400001e027800b47a88000002eb00c47a8800eb
:10041000eaff0700ddff07000080fa000000060089
:100420001000fa0030079800410798005207980022
:1004300063079800740798000002eb001407980007
:10044000ce0290005e02900004aab90084027800f7
:100450006e0290000402e80004aab90004027800c9
:100460000402e80084027800a4142000848f520063
:10047000020036000082eb00390037000002eb007a
:10048000040f7800280037000002eb0024079800d2
:100490000b0037009e02900004f620008482420088
:1004a00014c0b300844a78001e0290000402e800e1
:1004b000140798002e0290000402e8002407980018
:1004c000ae0290005e029000848f5200f1ff350072
:1004d0000002eb00240798000b0037009e029000fa
:1004e00004f62000848242000042eb00844a780037
:1004f0001e0290000402e800140798002e029000eb
:100500000402e80024079800ee0290005e029000ca
:1005100004aab900840278002e029000848f520051
:10052000eeff3c001e0fe8004e0290009e02780095
:10053000848f5200d4ff35009e02900004f6200004
:100540008482420024c0b300844a78007e02900076
:10055000d47a88003e029000f47a88000002eb0012
:10056000040078000080fa00000006000000fa0095
:10057000c47a8000040078000080fa0000000600c1
:100580000040da000000fe00889fbe008004780072
:10059000209b8000e00f500004003a001900070083
:1005a0000084eb00e00f500008003500289b80001d
:1005b000e08f5400050032000900440011000700dc
:1005c000e00f500001003d000084eb0008007800bf
:1005d0004f04be000000060064108000e00f5200cf
:1005e00006003d00044020007510800005026200f6
:1005f000020032000f02ab00feff32000040da00c2
:10060000feff3700e00f500004003a00643621007e
:10061000249b880000027800060037000082eb006f
:1006200065372100850f500002003e00209b8800a6
:100630000002eb0004007800000006004f89de0095
:10064000820178005c013700889fbe008a9fbe004f
:100650008c1f7800680107006f01330003866c006f
:100660006450e1002e0032006420e10033003200cb
:100670006150e1002f0032006120e10031003200c2
:1006800085855500eb07b000090020000804200014
:10069000050037000804440089844c000a0031003a
:1006a0000603430087834b000001530081815b00f8
:1006b000f8ff33000203be000800a0000804440055
:1006c00089844c00f6ff3900c639dd0083017300d0
:1006d00001003200130020008904d1000884d300f7
:1006e0000998a300050032000800a7000300a0003d
:1006f0008904d1000884d3008b05e8008904d10067
:100700000884d3000001eb000281d20052010700ef
:1007100001f0a1000cf0a70001f0a0004701370094
:100720006420e100490132000801be000200be0061
:10073000f7ff37006120e100440132006000b8009b
:10074000f3ff37000000200001f82700f0ff37001a
:1007500003f0a200889fbe008a9fbe008c1f780015
:10076000250107002c0133006450e1004f003200e6
:100770006420e1005200320003826c0007003b005d
:100780000905d0000306d000820f54000c065d005e
:100790000200390002003200890178000306780067
:1007a0008582550004003d000003fd008103fd002b
:1007b0008502ea008b854200840f720002003b0034
:1007c00060001000e08018006011b8000005eb0028
:1007d0007a28e1000a00390006007800c75ddd00d4
:1007e000f707b200878075002d0037008281710005
:1007f0000a017800610560008180d1000080d3008b
:100800008502e900f9ff3b000604400087844800a8
:1008100002003b0060041400e0841c000988a3006f
:10082000070032008a8171008281710061016400d9
:100830008904d1000884d3008b05e8001700370035
:100840000978a30013003a000b00e0001300340005
:100850008b05e9000804440089844c000a447400b4
:100860000978a3000d003a000b00e00007003400f7
:100870008b05e9000804440089844c0001003a001b
:100880000b0020000978a300f7ff32000001eb0005
:1008900002003700828171000a017800ee00070033
:1008a0000cf0a70001f0a000e40037006420e10094
:1008b00002003a00838f6c00e40033000801be00a0
:1008c0000200be00dd003700889fbe008a9fbe0088
:1008d0008c1f7800c8000700cf00330003866c002f
:1008e0006450e100240032006420e100270032005f
:1008f0006150e100220032006120e100210032005d
:100900008b854200eb07b1000134b800003ab80013
:100910000804420089844a00013ab8000030b80057
:100920008880400009014a000400330000004000b4
:1009300081804800020149008b05e900c909dd00fa
:10094000830170000100320013002000c814de0093
:100950004814dd004709de001200b200c808de00be
:1009600008847000bc00070001f0a1000cf0a70093
:1009700001f0a000b10037006120e100b3003200b7
:100980000801be000200be00f7ff37006150e10021
:10099000fcff3a00ad0037000001be00d4000700a4
:1009a0000470a70003f0a1006509b1001600320031
:1009b0000d0035006828e10006003500f0ff2f002b
:1009c000f1ff27000300e00013003b0001002800b6
:1009d0000000050000004000818048008502e90019
:1009e000fcff3a0008003700f88f420002003c008c
:1009f0008000eb00000005008100d1000080d300e2
:100a00008502e800fcff3a000300e00002003b0022
:100a100060001000e080180000000600f4ff2f00c6
:100a2000c800370014002000c6003700839f68000c
:100a30000100e00002003d0060001000e0801800ae
:100a40000300e00002003d0060011100e081190098
:100a5000d70007004f00e00002003b0060001000dc
:100a6000e080180000000600889fbe008a9fbe003c
:100a70008c1f78000004be009d0007000478a300ce
:100a800026003a006120e1002500320009f8a300a9
:100a900025003a006420e10021003200f507b10092
:100aa0000508a300020032000000400081804800d9
:100ab0006044b80003102000020020000000400045
:100ac000818048000805440089854c000a054100e2
:100ad0008b8549000a0550008b85580003003300c0
:100ae0000a00be0002047400838474008301d100f4
:100af0000281d300830f7100f0ff3a008904d10016
:100b00000884d3006001490082017800c1adde0095
:100b1000fb07b00050000700480037000960a00044
:100b20000800be004500370012022000529a8800db
:100b3000f0ff2f00f1ff270040003700889fbe0024
:100b40008a9fbe008c1f78002b0007001002200037
:100b500002003b00509a88002f0037008a00620094
:100b60006408e10002003a00509a8800370037001c
:100b70006108e100fcff32000800be0003047800b9
:100b8000b1fe070001f0a1009900070008f0a600df
:100b9000040037000001be0091042400b0fd2000d5
:100ba000ebfe070009f0a70001f0a20023003700c8
:100bb0000400200063003700881f780003047800d9
:100bc0000300e00007003d0060001000e080180016
:100bd00060011900e081190002003b0001f02d00c6
:100be00003003700e700070008f0a70001f0a000ad
:100bf0004f047800000006000004be003c0007001f
:100c00000003be000405be000200be00380007005d
:100c1000844f7500000006000200be006450e10031
:100c2000050036006420e100020036000968a300d8
:100c300001003a000800be000160a0004f067800e5
:100c40004f05be004f04be0000000600f0ff2f005d
:100c5000f1ff2700f9ff3700810020006180550077
:100c60000b003d000b00200061fe2f000100e100a1
:100c70001d00340082817100610164008904d1008b
:100c80000884d3000000e800faff3a007100200059
:100c9000610064000300700002006000090032007f
:100ca00061044400e0844c000988a500050032007e
:100cb0008b05e8006808e10002003a008904d100d1
:100cc0000884d300f20f20000258e10005003d0027
:100cd000c75ddd00f907b200898075000800780063
:100ce000000006000bf827008b00780000000500cc
:100cf000c70ade00f107b200f50fb20008003200ab
:100d0000e1cf4200020032000170a0002400050083
:100d1000810f700001003200040805004400050046
:100d2000810f700002003a00140005008502e900fe
:100d30000000400081c04800fcff3b000170a000a3
:100d400024000500889fbe008a9fbe00841f780093
:100d5000a9ff07004f00780011003300f0ff2f00bb
:100d6000838f6c0006003b00040565000a00a700a5
:100d70000800370009f0a600100020000800370026
:100d8000820f5400838f5c000300390010002000a4
:100d900001003e000000200009f0a7000000ea006a
:100da0004f05be004f04be000000e000000006003a
:100db0006022b800060220000000d0008180d2002e
:100dc0000482d2008582d2000000a00002025200fc
:100dd00083825a00030031000202420083824a00eb
:100de0000000a1000603e900f3ff3a00000006003e
:100df000889fbe008a9fbe008c9fbe000004be007c
:100e0000bbff07000800be00890678006420e100ef
:100e100008003900040032000160a0001202200026
:100e2000529a88005300370091fc2300b0fd200047
:100e30004e0037000006eb0009f0a10003f8230084
:100e4000020020000800be00f6fe07000600340085
:100e500001f82300000020000801be00fafd070091
:100e60000004be002c0020000800be0093e8230010
:100e7000320a2300ebfe0700120034000801be0016
:100e8000d1fd2300703d2b0032fe07000005be009f
:100e9000b3f32300f27a26000800be008afe0700a2
:100ea00003f823000200200029fe07000801be000d
:100eb00028fe07000a01be00e3fd07000004be0093
:100ec0000c06e8000800be0001f0a10002002000ae
:100ed00003982300d3fe07000800be00160035006b
:100ee0000801be0078fe07000005be0032cd2c00d0
:100ef00043fb230017fe0700809fbe0012692800f5
:100f000003d52b000a00be006ffe0700620f210010
:100f100013ef2b000ffe07000a01be006afe070058
:100f20004f01be00c8fd07000801be0066fe0700b5
:100f30000801be0007fe07000c00e0000b003200b5
:100f40000c10a70001f0a200b2fd200093fc2300ca
:100f50006260e1000400320022a9200063f0230057
:100f60000c10a70063f82300fafd07000df0a7009e
:100f700001f0a2004f06be004f05be004f04be00a8
:100f800000000600889fbe008a9fbe00008270009d
:100f90000402710004827100260032000004be00c9
:100fa0000200be006011b8006b092000950220000d
:100fb0000182cf000a0039000541b1000082cf0054
:100fc000070039000541b1000982cf000400390053
:100fd0000541b1000882cf00010039000541b10090
:100fe00005425200120032000a003b00828171006b
:100ff000610164008100d1000080d3008984d300a6
:101000000884d3008b05e8000442e800f7ff3a00ab
:10101000070037000804440089844c0000004800a1
:10102000818048008b05e9000442e900f9ff3a009d
:1010300009ff07004f05be004f04be000000060078
:10104000020ab900001bb9000200b800810042008a
:101050008100430000000600889fbe008a9fbe00fa
:101060008c9fbe004400f800070f20002702880074
:101070003400f80007f02f000338e10004003200cc
:10108000270280004700b30027028800a3018800e0
:10109000811f780019002000804cdd001300200023
:1010a00002047800800678008904d100424edd00f9
:1010b000010578000302e900048008001700000021
:1010c0008a0546004218dd000902e9000480080094
:1010d00010000000000000004620c3003b02520048
:1010e000df35c100080440001381c200ab8252000a
:1010f000264dc5003e85c400bb00cd00bb80cd00a1
:101100003a00ca002a80ca000700c9000580c90049
:10111000ba00cd00ba80cd000a054600020478006e
:101120008301d0008d06e900dfff3c004f0078000e
:101130003400f9004400f9004f06be004f05be0020
:101140004f04be00000006004600f8005000f80002
:101150000220200032028800020028001300200034
:101160008019dd0002817100820288000100780090
:101170000101780026002000470020008301e900db
:1011800003800800070000000110e10004003400a3
:101190001102be0092087800e2307b000489be0094
:1011a00087804000121978005000f9004600f900cd
:1011b0000000060015c0b30001002000c435210066
:1011c000f09a8800019b8800054a7800000006001c
:1011d000c43521008042eb0094cf120002003a0097
:1011e00010002000f3ff0700f09a8000019b8000b0
:1011f000d2e62400631c240091ff0700940323001f
:10120000050020000002420081824a00f49a880012
:10121000059b88000500780000f0a1000000060092
:10122000c4342100e4874700659a8000889fbe008f
:101230008a9fbe008c9fbe008e1f7800e08f5200f8
:101240000b003a0024029800e4024200a49a8800ad
:10125000659a8800b59a8800a44290000504a00011
:1012600025429800e44290000504a00065429800e1
:101270006704400064362100250020004244de005f
:10128000693721004244dd0084845400050744008e
:10129000110009008504d8009c372100a29a800023
:1012a0000406560080bf9f000e0747000003eb00b6
:1012b000e40544000806460002003700160020003e
:1012c0000d017800224290006102620002003200ab
:1012d0000a00370015097800920278002542900034
:1012e00061026200fbff320008024100848f52005d
:1012f00002003900e00f54003f003d0092067800e4
:101300000d00a100828f5600edff3e00e10f53005b
:10131000eaff3a000fba9700840f5400020036002b
:10132000890f540010003900614ab900b0ff2f0046
:10133000010020006143b80004025000858258007b
:10134000840f5300858f5b00020035000b05780089
:1013500006003700110009000986d8000982b9008b
:1013600004057800010037000e0578000a007800b7
:1013700085fc0700e10f400005003a000b057800ee
:101380000b00780080fc0700e10f40002b003200ca
:10139000b49a8000000a7800b49a80006403420086
:1013a000a4429000860f5000020032000504a00005
:1013b000010037000504a10025429800640555008e
:1013c000c43421000a0540000a087800ba9a88004f
:1013d000040d7800b59a80000003eb0025429000d0
:1013e0000404a000a4429800204290000404a1003c
:1013f00024409800b2ff3700a49a8800848f5200de
:10140000070036001403be008042eb00c69a880035
:10141000d79a8800120a7800a49a80002542980082
:1014200022429000a79a80000404a00007097800d7
:101430002441980064004100010037000000eb00e7
:101440004f0778004f06be004f05be004f04be0098
:101450004f00b10000000600e00f5000080032000d
:1014600064005000a49a8000840f500001003100f5
:10147000a09a8800204290000404a1002440980013
:1014800000000600889fbe00000478008a9fbe000e
:1014900081047800e08f540005003a00e00f54000a
:1014a0003200320008007800ebff07003000370000
:1014b000e00f540004003a000900780058ff0700cc
:1014c000800478002a0037006402540094057800f4
:1014d00068fa97006102620002003200080078009a
:1014e000ddff0700090078004dff07008004780049
:1014f000e08f54001e003200888f54001b00320021
:1015000069bd97008885550009055500c2ddde00dc
:1015100042d5de000a0178008b0f5500010036002d
:101520000b0178004211dd00880078000900780086
:1015300018000700888f54000d0031004255dd006f
:101540000a854400880f550009003600080455003c
:10155000c49a8000d59a800042c4de004244dd0077
:1015600008844400048cbe00010037008804780021
:10157000090078004f05be004f04be0000000600c1
:101580000200fa00f0bf9f00090007007fb8970033
:1015900011fc07000002780002003700315a780081
:1015a0000201e900e00f5100fcff3a0000000600d4
:0415b0000000060031
:020000040000fa
:1015b4000000fa004c1507000080fa000000060045
:1015c4000000fa008a1507000080fa0000000600f7
:1015d4000000fa008d1507000080fa0000000600e4
:1015e4000400fa0020479800314798000042eb00bd
:1015f400044f78002100370014c0b300044f780072
:1016040089150700004278001e4f62002e409000aa
:101614009a160700004278001e4f62003e40900078
:1016240096160700004278001e4f6200a0150700be
:10163400004278001e4f62002e4290000442e800ef
:10164400044078008d160700004278001e4f6200a7
:101654000e02e80004007800391607000042780002
:101664001e4f620003160700b31507001e427800e0
:10167400e04f520005003a00381507001e4278007a
:10168400e04f5200dcff3200010037000000000090
:101694001e429000044078000080fa00000006001a
:1016a4000600fa0020479800314798004247980006
:1016b4000042eb00044f78001800370014c0b30058
:1016c400044f780058150700004278001e4f62004e
:1016d4002e40900069160700004278001e4f6200f9
:1016e4003e40900065160700004278001e4f6200dd
:1016f4004e40900061160700004278001e4f6200c1
:101704008d150700004278001e4f62001e427800cb
:10171400e04f520005003a00101507001e42780001
:10172400e04f5200e5ff32000100370000000000e6
:101734001e427800044078000080fa000000060091
:020000040000fa
:101744000000fa00401f20000100200011110700d2
:10175400962007002b11070000027800f4998800f6
:1017640041210700f4998000e00f520007003a007d
:101774008000eb00c02b2000b711070050002000b0
:101784000100200003110700f9ff3700f4998000dd
:10179400e10f520007003a0061042000c02b200032
:1017a400ad1107005000200001002000f9100700cf
:1017b400f9ff3700f4998000e20f520007003a0065
:1017c400c1082000c02b2000a311070050002000f6
:1017d40001002000ef100700f9ff3700f4998000a2
:1017e400ec0f520002003a0000000000feff370038
:0817f40000000000feff3700b9
:020000040000fa
:10180000ff7f000000000000f67f0000dcfc00000d
:10181000d97f0000b8f90000a77f000095f600000e
:10182000627f000074f300000a7f000055f00000a2
:101830009d7e000038ed00001e7e00001eea0000c4
:101840008a7d000007e70000e47c0000f4e300006c
:101850002a7c0000e6e000005d7b0000dcdd00008b
:101860007d7a0000d8da00008a790000d9d700001c
:1018700084780000e1d400006c770000efd1000014
:101880004276000004cf00000575000021cc000066
:10189000b673000046c900005572000073c6000010
:1018a000e3700000a9c300005f6f0000e9c0000002
:1018b000ca6d000032be0000246c000085bb000031
:1018c0006e6a0000e3b80000a76800004cb6000094
:1018d000cf660000c0b30000e864000040b1000023
:1018e000f2620000ccae0000ec60000065ac0000cd
:1018f000d75e00000aaa0000b45c0000bda700008b
:10190000825a00007ea50000435800004ca300004e
:10191000f655000029a100009b530000149f000011
:10192000345100000e9d0000c04e0000189b0000c6
:10193000404c000031990000b44900005997000064
:101940001d470000929500007b440000dc930000de
:10195000ce41000036920000173f0000a190000029
:10196000573c00001d8f00008d390000ab8d00003a
:10197000ba3600004a8c0000df330000fb8a00000a
:10198000fc300000be890000112e00009488000089
:101990001f2b00007c8700002728000076860000af
:1019a000282500008385000024220000a384000075
:1019b0001a1f0000d68300000b1c00001c830000cf
:1019c000f918000076820000e2150000e3810000b3
:1019d000c812000063810000ab0f0000f780000018
:1019e0008c0c00009e8000006b09000059800000f4
:1019f0004806000028800000240300000a80000040
:101a00000000000000800000dcfc00000a800000f4
:101a1000b8f900002880000095f600005980000009
:101a200074f300009e80000055f00000f780000075
:101a300038ed0000638100001eea0000e381000031
:101a400007e7000076820000f5e300001c83000039
:101a5000e6e00000d6830000dcdd0000a384000087
:101a6000d8da000083850000d9d700007686000010
:101a7000e1d400007c870000efd1000094880000d2
:101a800004cf0000be89000021cc0000fb8a0000ca
:101a900046c900004a8c000073c60000ab8d0000f0
:101aa000a9c300001d8f0000e9c00000a190000044
:101ab00032be00003692000085bb0000dc930000bf
:101ac000e3b80000939500004cb600005a97000060
:101ad000c0b300003199000040b10000189b000025
:101ae000ccae00000e9d000065ac0000149f00000d
:101af0000aaa000029a10000bda700004ca3000015
:101b00007ea500007ea500004ca30000bda700003c
:101b100029a100000aaa0000149f000065ac000083
:101b20000e9d0000ccae0000189b000040b10000ec
:101b300031990000c0b300005a9700004cb6000075
:101b400093950000e3b80000dc93000085bb000023
:101b50003692000032be0000a1900000e9c00000f3
:101b60001d8f0000a9c30000ab8d000073c60000ec
:101b70004a8c000046c90000fb8a000021cc00000e
:101b8000bf89000004cf000094880000efd100005e
:101b90007c870000e1d4000076860000d9d70000e1
:101ba00083850000d8da0000a3840000dcdd00009b
:101bb000d6830000e6e000001c830000f5e300008f
:101bc0007682000007e70000e38100001eea0000c3
:101bd0006381000038ed0000f780000055f0000040
:101be0009e80000074f300005980000095f600000c
:101bf00028800000b8f900000a800000dcfc00002a
:020000040000fa
:101c00000200fa006ffe07000002eb00040f7800ec
:101c10000d0037009e02e800a41921000482420052
:101c20001442780084427800a41921001e02420068
:101c3000144278000541780084407800c0cdb3009c
:101c400098fe07001e8fe8009e027800740d2000a9
:101c5000848f5200efff36005efe07000080fa001e
:101c6000000006000200fa00881f780055fe0700f9
:101c70000002eb00040f78000c0037001e04e8009f
:101c8000a41921001e02420014427800844078000a
:101c9000c0cdb30053fe070000427800a519210013
:101ca00085024400844a78001e8fe8009e02780076
:101cb000740d2000848f5200f0ff360045fe0700af
:101cc0004f0478000080fa00000006000200fa00cd
:101cd000000f78001e027800e10f52000900320068
:101ce000e20f52000c003200e00f52000f003a00e9
:101cf000c4c0b3000002fd00ddf1b7000002fd002a
:101d00000c00370084c0b3000002fd00ddf1b70015
:101d10000002fd000700370024c0b3000002fd00f0
:101d2000ddf1b7000002fd00020037000082eb0089
:101d3000010037000002eb00040078000080fa0088
:101d4000000006000200fa00000f780044042000a2
:101d50009e027800848f5200070032001e02780035
:101d6000f10f520004003200340320009e0278007c
:101d7000848f520007003a001e0278000442780067
:101d80000002fd00cdf1b7000002fd000002eb00f3
:101d9000010037000082eb00040078000080fa00a8
:101da000000006000200fa00000f78001e02780012
:101db000e00f52001b003200040220009e02780057
:101dc000848f520017003200040320009e02780026
:101dd000848f520013003200040420009e02780019
:101de000848f52000f003200040520009e0278000c
:101df000848f52000b003200040620009e027800ff
:101e0000848f520007003200040620009e027800f2
:101e1000848f5200030032001e027800f00f52003f
:101e200007003a001e027800044278000002fd001c
:101e3000c7f1b7000002fd000002eb00010037000f
:101e40000082eb00040078000080fa000000060029
:101e50000800fa002007980031079800ae029000b1
:101e60003e029000848f5200020039000082eb0095
:101e70001c003700be02900034382000848f5200ce
:101e8000020036000082eb00160037002e029000a0
:101e90000402e900240798002e029000044f780005
:101ea0002e0290004822de00144798003e02900067
:101eb000244798003e0290004822de0034479800f4
:101ec0001e409000a3f1b7001e407800a5f1b700b6
:101ed0003e409000abf1b7002e409000adf1b7004e
:101ee0000002eb00040078000080fa000000060009
:101ef0000800fa002007980031079800ae02900011
:101f00003e029000848f5200020039000082eb00f4
:101f100019003700be029000341f2000848f520049
:101f2000020036000082eb00130037002e02900002
:101f3000044f78002e0290004822de0014479800db
:101f40003e029000244798003e0290004822de00a6
:101f5000344798001e409000a7f1b7001e4078005b
:101f6000a9f1b7003e409000aff1b7002e409000bd
:101f7000b1f1b7000002eb00040078000080fa0025
:101f8000000006000c00fa00300798004107980096
:101f900052079800be0290004e029000848f5200bb
:101fa000020039000082eb0028003700ce029000ca
:101fb000341f2000848f5200020036000082eb00a4
:101fc00022003700de02900034382000848f520057
:101fd000020036000082eb001c0037003e02900039
:101fe000044f78003e0290004822de00144798001b
:101ff0004e029000244798004e0290004822de00d6
:10200000344798005e029000444798005e029000ba
:102010004822de00544798001e4090002bf2b70083
:102020001e4078002df2b7003e4090002ff2b7001e
:102030002e40900031f2b7005e40900033f2b700be
:102040004e40900035f2b7000002eb00040078002b
:102050000080fa00000006000600fa001007980051
:10206000210798001e029000e00f52000600320087
:102070002e029000e00f520003003200a4ccb30007
:10208000044f78000e0037001e029000e00f52004f
:1020900003003200a4c4b300044f780008003700e6
:1020a0002e029000e00f520003003200a4c8b300db
:1020b000044f780002003700a4c0b300044f78003a
:1020c0001e42780004007800c9f1b7000080fa00d1
:1020d000000006000400fa002047980031479800ed
:1020e0000002eb00040f78000e003700a419210055
:1020f0001e024200944278002e42900084cf52008b
:1021000007003a009e02e800a41921000482420060
:10211000be429000054a78000002eb00060037003e
:102120001e8fe8009e027800740d2000848f5200fc
:10213000eeff36000082eb00040078000080fa0019
:10214000000006000600fa002047980021079800ca
:102150000002eb00040f78000f003700a4192100e3
:102160001e024200944278002e42900084cf52001a
:1021700008003a009e02e800a419210004824200ef
:1021800014427800ae029000844a78000002eb000e
:10219000060037001e8fe8009e027800740d2000b4
:1021a000848f5200edff36000082eb0004007800bf
:1021b0000080fa00000006000200fa00004f7800dc
:1021c000114798001e409000b3f1b7001e40780000
:1021d000b5f1b7000080fa00000006000600fa0022
:1021e000004f780011479800224798003347980025
:1021f00044479800f4c4b3009e42780084cf520054
:10220000020036000082eb000b0037001e40780011
:10221000b7f1b7001e409000b9f1b7002e40900012
:10222000bbf1b7004e409000bdf1b7003e409000ba
:10223000bff1b7000002eb00040078000080fa0054
:10224000000006000400fa00008fbe001e02be005f
:102250004a2bdd004622de0004027300c62ade009f
:102260000442780004007800c3f1b7001e02be00eb
:10227000422bdd004e22de0004027300ce2ade0077
:102280000442780004007800c1f1b7000042eb007e
:1022900004007800c5f1b7000080fa0000000600d5
:1022a0000200fa00004f78001e407800cff1b7001e
:1022b0000080fa00000006000200fa00000f78001b
:1022c0001e027800e00f520008003200f51d2100c8
:1022d0009542780004c8b30004c272000002fd00f9
:1022e000dff1b7000002fd0005003700f41d2100fa
:1022f000144278000474a10004007800dff1b700f4
:102300000080fa00000006000400fa00004f780088
:1023100011479800224798001e407800e3f1b7006b
:102320001e409000e5f1b7002e409000e7f1b700a5
:102330000080fa00000006000200fa00004f78005a
:10234000114798001e4078007f4260000445b000ad
:1023500004007800e9f1b7001e409000ebf1b700ef
:102360000080fa00000006000600fa00100798003e
:10237000414798004e4290006342620055002000a1
:102380008522dd0004c8b30004c242000002fd0043
:1023900071f2b7000002fd000002eb00040f7800ac
:1023a0000c0037001e0278000402420036052000af
:1023b000040343001e0278009e0290000482420043
:1023c00014427800a519210085024300844a780050
:1023d0001e0fe8001e027800e10f5200f1ff3600e8
:1023e0000080fa00000006000000fa0075fc0700fb
:1023f0001427210014427800844278000427210029
:10240000144278000541780084407800c0cdb300c4
:10241000a4fc07006ffc07002520210095427800ee
:10242000c41e2100144278008540780004407800e2
:10243000020007000080fa00000006000600fa0013
:1024400040479800514798000002eb00140798009d
:102450005cfc07000002eb00040f78001c00370052
:10246000a41921001e024200944278004e429000be
:1024700084cf520015003900a41921001e02420029
:10248000944278005e42900084cf52000f003e00dc
:102490009e02e800a4192100048242001442780040
:1024a00084427800a41921001e02420014427800e0
:1024b0000541780084407800c0cdb30079fc070066
:1024c0001e0290000402e800140798001e8fe80026
:1024d0009e027800740d2000848f5200e0ff3600c9
:1024e0003cfc07001e029000040078000080fa0007
:1024f000000006000400fa00100798000002eb003c
:10250000040f78000c0037001e027800040242001d
:10251000b6062000040343001e0278009e029000cd
:102520000482420014427800a5192100850243006c
:10253000844a78001e0fe8001e027800e10f520066
:10254000f1ff36000080fa00000006000200fa00e9
:10255000004f7800114798001e40780017f2b7002e
:102560001e40900019f2b7000080fa00000006003b
:102570000200fa00004f7800114798001e407800d2
:102580001bf2b7001e4090001df2b7000080fa0059
:10259000000006000200fa00004f78001147980082
:1025a0001e4078001ff2b7001e40900021f2b700d5
:1025b0000080fa00000006000200fa00004f7800d8
:1025c0001e427800450020000522dd006f424200d7
:1025d0000400780037f2b7000080fa00000006001f
:1025e0000200fa00004f7800114798001e42780060
:1025f000450020008522dd001e4290006f426200ef
:1026000004c242000400780039f2b7000080fa00ea
:10261000000006000200fa00004f78001147980001
:102620001e429000450020008522dd001e437800f8
:102630006f42630004c24200040078003bf2b7001e
:102640000080fa00000006000400fa00008fbe00bf
:102650001e02be0040aade00cfa2de0004427800c7
:10266000040078003df2b7001e02be00482bdd00da
:102670004822de0004027300c8aade00044278008b
:10268000040078003ff2b7001e0278000442780090
:102690000400780041f2b7000080fa000000060054
:1026a0000200fa00004f78001e40780043f2b700a5
:1026b0000080fa00000006000400fa00000f780015
:1026c000110798001e0278004822de0004427800bc
:1026d0000400780049f2b7001e0278000442780036
:1026e000040078004bf2b7001e0290004822de0082
:1026f00004427800040078004df2b7001e029000fa
:1027000004427800040078004ff2b7000080fa001d
:10271000000006000600fa00004f780011479800fc
:10272000224798003347980044479800554798003f
:102730002e40900051f2b7003e40900053f2b70097
:102740001e40780055f2b7001e40900057f2b700c7
:102750004e40900059f2b7005e4090005bf2b70027
:102760000080fa00000006000800fa00000f780060
:10277000110798002207980033079800240d2000c5
:102780001e0f42001e029000240db0001407980096
:102790002e02900067024200240798003e0290003b
:1027a00067024200340798009e0290002435200002
:1027b000848f5200020036000082eb004700370091
:1027c000be029000741e2000848f5200020036006a
:1027d0000082eb00410037001e0290009e0278004c
:1027e000848f520004003100ae0290003e0290003f
:1027f000848f5200020039000082eb00370037005e
:10280000541a20009e027800848f52000c0036007b
:102810009e02900094272000848f520008003e0002
:10282000ae029000740a2000848f5200040036002b
:10283000be02900064142000848f52000200360013
:102840000082eb00250037001e0278004822de00df
:1028500004427800040078005df2b7001e027800a0
:1028600004427800040078005ff2b7001e02900076
:102870004822de00044278000400780061f2b700cc
:102880001e029000044278000400780063f2b70052
:102890002e0290004822de000442780004007800f6
:1028a00065f2b7002e029000044278000400780020
:1028b00067f2b7003e0290004822de000442780032
:1028c0000400780069f2b7003e02900004427800ec
:1028d000040078006bf2b7000002eb0004007800ff
:1028e0000080fa00000006000600fa0010079800b9
:1028f000210798001e029000e00f520006003200ef
:102900002e029000e00f520003003200c4c3b30057
:10291000044f78000e0037001e029000e00f5200b6
:1029200003003200c4c2b300044f7800080037002f
:102930002e029000e00f520003003200c4c1b30029
:10294000044f780002003700c4c0b300044f780081
:102950001e427800040078006df2b7000080fa0093
:10296000000006000200fa00000f78001e02780046
:10297000e00f520007003200141d210014427800bd
:102980000474a1000002fd00d1f1b7000002fd00b7
:1029900006003700151d21009542780004c8b300d9
:1029a00004c2720004007800d1f1b7000080fa0080
:1029b000000006000400fa00000f780011079800dc
:1029c0001e027800e00f520008003200151d2100a1
:1029d00095427800f4cbb30004c262000002fd000f
:1029e000d1f1b7000002fd0007003700151d2100de
:1029f0009542780004c4b30004c272000002fd00d6
:102a0000d1f1b7000002fd001e029000e00f52005d
:102a100008003200151d210095427800f4cdb30066
:102a200004c262000002fd00d1f1b7000002fd0007
:102a300006003700151d21009542780004c2b3003e
:102a400004c2720004007800d1f1b7000080fa00df
:102a5000000006000400fa00741c210014427800f3
:102a60000482fb0005032000850f5200280032007d
:102a700005032000850f520008003c00f00f5200b3
:102a80001b00320005022000850f52001c0032009e
:102a9000e00f52001200320031003700050520001f
:102aa000850f52002200320005052000850f5200dc
:102ab00004003c0005042000850f5200180032007d
:102ac0002700370005062000850f52001c00320049
:102ad00005072000850f52001d003200200037003e
:102ae0000400280005072000048fbe001e003700e8
:102af0000400200065092000048fbe001a00370082
:102b00000400240085032000048fbe001600370057
:102b100004002200c5012000048fbe00120037000f
:102b200004002100e5002000048fbe000e003700e5
:102b30000480200075002000048fbe000a003700ca
:102b40000440280035002000048fbe000600370036
:102b500004202c0015002000048fbe000200370066
:102b60006022b80009003700d41d2100144278000b
:102b7000ec4f520004003a001e02be000402420064
:102b800085824a00048fbe001e02be000400be0003
:102b90000080fa00000006000e00fa0020079800ee
:102ba000310798004207980053079800640798007f
:102bb0005e029000e00f5200030035005e029000bc
:102bc000e30f5200020034000082eb006700370080
:102bd0006e029000e00f5200030035006e0290007c
:102be000e30f5200020034000082eb005f00370068
:102bf00098ff07000002be00666a200006abb9001d
:102c0000060378006020b9008003780007034300c2
:102c100084027800646a2000042ab8000503430097
:102c2000860278002e039000cfb3de000601be00be
:102c30000400be007df707000002be00040f78000c
:102c400084ff07000002be00666a200006abb900e0
:102c5000060378006020b900800378000703430072
:102c600084027800646a2000042ab8000503430047
:102c7000860278003e039000cfb3de000601be005e
:102c80000400be0069f707000002be0014079800a8
:102c90001e0278004822de00044278000002fd0097
:102ca000d5f1b7000002fd001e0278000442780052
:102cb0000002fd00d7f1b7000002fd001e029000e7
:102cc0004822de00044278000002fd00d9f1b7007e
:102cd0000002fd001e029000044278000002fd0088
:102ce000dbf1b7000002fd004e029000e00f520041
:102cf00007003200141d2100144278000444a00093
:102d00000002fd00d1f1b7000002fd00060037000f
:102d1000151d210095427800f4ceb30004c2620074
:102d200004007800d1f1b7006e02900004427800f0
:102d3000e34262005e029000044278006342620057
:102d4000260020000622dd0084c24200161d21005c
:102d50001643780004cfb3000442630004c242006b
:102d600004007800d1f1b7000002eb000400780005
:102d70000080fa00000006000400fa00000f78004e
:102d8000110798001e027800050020007600200040
:102d900007002000860f5200878f5a00ef003e0088
:102da0000460010007003700230037003f003700b0
:102db0005b0037007700370093003700af00370023
:102dc000cb0037001e029000e10f52000e003600cb
:102dd000241680004622de00614262000404a20044
:102de000614262000482fb00610262004622dd0053
:102df00026168000f5fb2f00850263000502720095
:102e0000241688002c0137001e029000044278002e
:102e1000614262000482fb00610262004622dd0022
:102e200026168000f5fb2f00850263000502720064
:102e300024168800200137001e029000e10f520086
:102e40000e003600241680004722de006142620038
:102e50000404a200614262000482fb00610262007d
:102e60004722dd0026168000f5f72f00850263005b
:102e700005027200241688000f0137001e02900020
:102e800004427800614262000482fb006102620039
:102e90004722dd0026168000f5f72f00850263002b
:102ea0000502720024168800030137001e029000fc
:102eb000e10f52000e003600241680004922de0089
:102ec000614262000404a200614262000482fb00cd
:102ed000610262004922dd0026168000f5df2f0026
:102ee000850263000502720024168800f200370094
:102ef0001e02900004427800614262000482fb00de
:102f0000610262004922dd0026168000f5df2f00f5
:102f1000850263000502720024168800e60037006f
:102f20001e029000e10f52000e00360024168000b1
:102f30004c22de00614262000404a2006142620091
:102f40000482fb00610262004c22dd002616800034
:102f5000f5ff2e008502630005027200241688002a
:102f6000d50037001e0290000442780061426200e2
:102f70000482fb00610262004c22dd002616800004
:102f8000f5ff2e00850263000502720024168800fa
:102f9000c90037001e029000e10f52000e003600fb
:102fa000241680004a22de00614262000404a2006e
:102fb000614262000482fb00610262004a22dd007d
:102fc00026168000f5bf2f008502630005027200ff
:102fd00024168800b80037001e02900004427800d2
:102fe000614262000482fb00610262004a22dd004d
:102ff00026168000f5bf2f008502630005027200cf
:1030000024168800ac0037001e029000e10f520029
:103010000e003600241680004d22de006142620060
:103020000404a200614262000482fb0061026200ab
:103030004d22dd0026168000f5ff2d00850263007d
:1030400005027200241688009b0037001e029000c3
:1030500004427800614262000482fb006102620067
:103060004d22dd0026168000f5ff2d00850263004d
:1030700005027200241688008f0037001e0290009f
:10308000e10f52000e003600241680004e22de00b2
:10309000614262000404a200614262000482fb00fb
:1030a000610262004e22dd0026168000f5ff2b0033
:1030b0008502630005027200241688007e00370036
:1030c0001e02900004427800614262000482fb000c
:1030d000610262004e22dd0026168000f5ff2b0003
:1030e0008502630005027200241688007200370012
:1030f0001e029000e10f52000d00360024168000e1
:103100004f22de00044278000404a2006142620003
:103110000482fb004f22dd0026168000f5ff270009
:1031200085026300050272002416880062003700e1
:103130001e02900004427800614262000482fb009b
:103140004f22dd0026168000f5ff27008502630070
:103150000502720024168800570037001e029000f6
:1031600004427800614262000482fb004f22dd00cd
:1031700026168000f5ff2700850263000502720015
:1031800024168800241680004f22de0004427800b6
:103190000482fb00610262004e22dd0026168000e0
:1031a000f5ff2b00850263000502720024168800db
:1031b000241680004e22de00614262000482fb0081
:1031c000610262004d22dd0026168000f5ff2d0011
:1031d0008502630005027200241688002416800010
:1031e0004d22de00614262000482fb006102620047
:1031f0004a22dd0026168000f5bf2f0085026300fd
:103200000502720024168800241680004a22de007f
:10321000614262000482fb00610262004c22dd0018
:1032200026168000f5ff2e0085026300050272005d
:1032300024168800241680004c22de0061426200c1
:103240000482fb00610262004922dd002616800034
:10325000f5df2f0085026300050272002416880046
:10326000241680004922de00614262000482fb00d5
:10327000610262004722dd0026168000f5f72f006c
:10328000850263000502720024168800241680005f
:103290004722de00614262000482fb00610262009c
:1032a0004622dd0026168000f5fb2f008502630014
:1032b00005027200241688000080fa000000060053
:1032c0000000fa00c4c2a900c4e2a900c522a900f6
:1032d000c582a900c542a900c5a2a900c5c2a9000e
:1032e000c5e2a9000080fa00000006000200fa0012
:1032f000000f78001e027800e10f52000e00360029
:10330000841680004222de00614262000404a200b2
:10331000614262000482fb00610262004222dd0021
:1033200086168000b5ff2f0085026300050272003b
:10333000841688000b0037001e02780004427800d3
:10334000614262000482fb00610262004222dd00f1
:1033500086168000b5ff2f0085026300050272000b
:10336000841688000080fa00000006000200fa00bf
:10337000000f78001e027800e10f52000e003600a8
:10338000841680000402d100614262000404a2009d
:10339000614262000482fb0061026200040242009a
:1033a00086168000d5ff2f0085026300050272009b
:1033b000841688000b0037001e0278000442780053
:1033c000614262000482fb0061026200040242006a
:1033d00086168000d5ff2f0085026300050272006b
:1033e000841688000080fa00000006000000fa0041
:1033f000241680004622de006142620004c2ea0018
:10340000614262000482fb00610262004622dd002c
:1034100026168000f5fb2f0085026300050272006e
:1034200024168800241680004722de0061426200d4
:1034300004c2ea00614262000482fb006102620091
:103440004722dd0026168000f5f72f008502630075
:103450000502720024168800241680004922de002e
:103460006142620004c2ea00614262000482fb0021
:10347000610262004922dd0026168000f5df2f0080
:10348000850263000502720024168800241680005d
:103490004c22de006142620004c2ea006142620026
:1034a0000482fb00610262004c22dd0026168000cf
:1034b000f5ff2e00850263000502720024168800c5
:1034c000241680004a22de006142620004c2ea0043
:1034d000614262000482fb00610262004a22dd0058
:1034e00026168000f5bf2f008502630005027200da
:1034f00024168800241680004d22de0061426200fe
:1035000004c2ea00614262000482fb0061026200c0
:103510004d22dd0026168000f5ff2d008502630098
:103520000502720024168800241680004e22de0058
:103530006142620004c2ea00614262000482fb0050
:10354000610262004e22dd0026168000f5ff2b008e
:10355000850263000502720024168800241680008c
:103560004f22de000442780004c2ea006142620099
:103570000482fb004f22dd0026168000f5ff2700a5
:103580008502630005027200241688000080fa009c
:10359000000006000000fa00241680004622de002b
:1035a0006142620004c2ea00614262000482fb00e0
:1035b000610262004622dd0026168000f5fb2f0026
:1035c0008502630005027200241688000080fa005c
:1035d000000006000000fa00241680004722de00ea
:1035e0006142620004c2ea00614262000482fb00a0
:1035f000610262004722dd0026168000f5f72f00e9
:103600008502630005027200241688000080fa001b
:10361000000006000000fa00241680004922de00a7
:103620006142620004c2ea00614262000482fb005f
:10363000610262004922dd0026168000f5df2f00be
:103640008502630005027200241688000080fa00db
:10365000000006000000fa00241680004c22de0064
:103660006142620004c2ea00614262000482fb001f
:10367000610262004c22dd0026168000f5ff2e005c
:103680008502630005027200241688000080fa009b
:10369000000006000000fa00241680004a22de0026
:1036a0006142620004c2ea00614262000482fb00df
:1036b000610262004a22dd0026168000f5bf2f005d
:1036c0008502630005027200241688000080fa005b
:1036d000000006000000fa00241680004d22de00e3
:1036e0006142620004c2ea00614262000482fb009f
:1036f000610262004d22dd0026168000f5ff2d00dc
:103700008502630005027200241688000080fa001a
:10371000000006000000fa00241680004e22de00a1
:103720006142620004c2ea00614262000482fb005e
:10373000610262004e22dd0026168000f5ff2b009c
:103740008502630005027200241688000080fa00da
:10375000000006000000fa00241680004f22de0060
:103760000442780004c2ea00614262000482fb0065
:103770004f22dd0026168000f5ff2700850263003a
:1037800005027200241688000080fa00000006007e
:103790000200fa00000f78009e007800609f210070
:1037a000911307000080fa00000006000000fa00f4
:1037b000609f2100bd1307000080fa000000060092
:1037c0000200fa00000f78001e027800e00f52009d
:1037d000030035009e007800609f2100da13070087
:1037e0000080fa00000006000000fa00a432210068
:1037f00014427800e04f520010003a008000eb00c5
:10380000700020005cfd0700a43221001442780003
:103810000482fb00110020000400780056fd070020
:10382000a4322100144278000442e8000002fd00a6
:103830002af3b7000002fd0028003700a43221005f
:1038400014427800e74f520012003a00a4322100df
:10385000144278000482fb000402e9008000eb00bf
:103860000400780044fd0700a432210014427800cf
:103870000482fb0011002000040078003efd0700d8
:103880000042eb000002fd002af3b7000002fd0039
:1038900012003700a4322100144278000482fb0099
:1038a0000402e9008000eb000400780032fd07000c
:1038b000a4322100144278000482fb001100200091
:1038c000040078002cfd0700a43221001442780087
:1038d0000442e800040078002af3b7000080fa00f0
:1038e000000006000000fa00943221001442780023
:1038f0000482fb00cfa2de0046002000070020006b
:10390000860f5200878f5a0023003e00046001009a
:1039100004003700070037000d00370013003700a0
:1039200019003700210020000000eb0012fd070005
:103930001900370021002000100020000efd0700b4
:1039400021002000700020000bfd0700120037004e
:10395000210020002000200007fd0700210020009a
:103960006000200004fd07000b003700210020004c
:103970003000200000fd0700210020005000200042
:10398000fdfc07000400370021002000400020005b
:10399000f9fc070000000000943221001442780076
:1039a000e34f520007003e00943221001442780099
:1039b0000442e8000002fd0029f3b7000002fd0008
:1039c000030037000042eb000400780029f3b70041
:1039d0000080fa00000006000000fa008432210096
:1039e00014427800e04f520015003a006434210080
:1039f00014427800e04f52001100320014c0b300ae
:103a00000400780028f3b7008000eb000000eb0012
:103a1000d9fc070084322100144278000482fb00a4
:103a20001100200004007800d3fc07000042eb00e6
:103a30000002fd0046f3b7000002fd003a00370027
:103a40008432210014427800e04f520015003a0001
:103a50006434210014427800e04f520011003a0013
:103a600074c0b3000400780028f3b7008000eb00b6
:103a70000000eb00c0fc07008432210014427800f3
:103a80000482fb001100200004007800bafc07004b
:103a900014c0b3000002fd0046f3b7000002fd00b1
:103aa000210037008432210014427800e74f520091
:103ab0000d003a000042eb000400780028f3b70044
:103ac0008000eb0070002000abfc07008432210076
:103ad000144278000482fb001100200004007800ea
:103ae000a5fc070010003700843221001442780042
:103af000e14f52000c003a000042eb000400780055
:103b000028f3b7008000eb00100020009afc0700ab
:103b100084322100144278000482fb00110020004e
:103b20000400780094fc07000080fa000000060002
:103b30000000fa0074322100144278000482fb0075
:103b4000cfa2de003600200007002000860f5200c2
:103b5000878f5a0018003e00046001000300370000
:103b6000090037000f003700120037002100200045
:103b70000000eb0080fc0700210020004000200036
:103b80007dfc07000c003700210020001000200001
:103b900079fc0700210020003000200076fc07009f
:103ba00005003700210020002000200072fc0700e3
:103bb00001003700c2fd0700743221001442780072
:103bc000e24f520007003e00743221001442780098
:103bd0000442e8000002fd0027f3b7000002fd00e8
:103be000030037000042eb000400780027f3b70021
:103bf0000080fa00000006000000fa006432210094
:103c0000144278000482fb00cfa2de0036002000c0
:103c100007002000860f5200878f5a0018003e00d0
:103c20000460010003003700090037000f0037006f
:103c300012003700210020000000eb004efc0700be
:103c400021002000400020004bfc07000c00370042
:103c5000210020007000200047fc07002100200008
:103c60005000200044fc0700050037002100200020
:103c70006000200040fc07000100370090fd0700b5
:103c80006432210014427800e24f520007003e00e7
:103c900064322100144278000442e8000002fd0072
:103ca00026f3b7000002fd00030037000042eb00de
:103cb0000400780026f3b7000080fa000000060038
:103cc0000200fa00000f78001e027800e10f520097
:103cd00012003200e10f520003003900e20f5200df
:103ce0001b00320027003700767980009e027800a2
:103cf0002403200004aab90004027800060242004e
:103d00008402420004e02000048242009402780011
:103d1000c4968000048252001b0037007679800030
:103d20009e0278002403200004aab900040278004f
:103d3000060242008402420004e0200004824200a5
:103d400094027800d4968000048252000e0037005e
:103d5000767980009e0278002403200004aab9002e
:103d600004027800060242008402420004e02000bf
:103d70000482420094027800149a80000482520067
:103d800001003700a4292000040078000080fa0018
:103d9000000006000c00fa00400798005107980048
:103da0006022b800048fbe004e029000e20f520065
:103db0002f003e005e029000e00f52002c00320007
:103dc000de02900024032000848f520028003e0071
:103dd0000002eb0024079800757980005e029000d5
:103de0000482520035032000848242002403200014
:103df000110009008482d80001027800340798007d
:103e000017003700ce0290002403200004aab90056
:103e1000840278003e029000048242008402420044
:103e200004e020000482420014027800cfa2de00e9
:103e30001e0f42005e974a002e0290000402e80026
:103e4000240798003e0290008402e800240320002a
:103e5000110009008402d80001027800340798009c
:103e6000ae0290005e029000848f5200e5ff3900a0
:103e70005e029000050020000401be001e00be008e
:103e8000eaf207000002be00040278000400780095
:103e90000080fa00000006000000fa005100200037
:103ea0000000eb00bbff070000027800c596800011
:103eb00005025200e4968800510020001000200006
:103ec000b4ff070000027800d5968000050252007a
:103ed000f49688005100200020002000adff07006c
:103ee00000027800159a80000502520004978800ad
:103ef0000080fa00000006000000fa00889fbe0063
:103f0000e5ff0700e49680006123b900e496800095
:103f1000cfa2de0004b8b9000000780006a9b900fd
:103f20008200780001004000060378000402780057
:103f30000433b8000700400080037800f496800046
:103f40006120b900f4968000cfa2de000489b90098
:103f50000201780000acb90088017800030141003b
:103f600000007800040278000402b8000501410056
:103f7000820278000601420087814a00049780008f
:103f80006123b90004978000cfa2de0004b8b90015
:103f90000000780006acb9008800780001004000fd
:103fa00006037800040278000432b80005004000df
:103fb000800278000202420083824a000400be00b0
:103fc0009ef107000002be000400be00a6f207003a
:103fd0000002be001497880025978800e4968000b0
:103fe0006123b900e4968000cfa2de0004b8b900d6
:103ff0000000780006a9b9008200780001004000a6
:1040000006037800040278000433b800070040007b
:1040100080037800f49680006120b900f496800057
:10402000cfa2de000489b9000201780000acb9001b
:104030008801780003014100000078000402780044
:104040000402b80005014100820278000602420025
:1040500087824a000400be0078f107000002be001b
:104060000400be0080f207000004be000497800038
:10407000cfa2de000400be0070f107000002be0007
:104080000801be000400be00acf207000002be0042
:10409000c2092300532624000400be000af20700d0
:1040a0000002be000401be0000002000412b2400dd
:1040b000a7f107000002be005497880065978800aa
:1040c000549780006597800018c0b300020020005c
:1040d000030a24000400be0052f207000002780028
:1040e000e00f5200010035000044eb00e04f5400a7
:1040f000040032006022b800349788004597880099
:104100001a003700f4968000cfa2de000400be0043
:104110004af107000004be00e4968000cfa2de0052
:104120000400be0045f107000002be000801be0009
:104130000400be0081f207000002be00c209230095
:10414000532624000400be00dff107000002be0079
:1041500002002000433324000400be007df107006c
:104160000002be0034978800459788004f04be00c7
:104170000080fa00000006000000fa002103200081
:104180000000eb0003ff070000027800c4968800df
:104190002103200010002000fefe0700000278002e
:1041a000d49688002103200020002000f9fe07009b
:1041b00000027800149a88000080fa0000000600cf
:1041c0000c00fa00881f7800000478004aff0700fe
:1041d0001497800025978000048fbe0034978000dc
:1041e0004597800024079800350798005497800071
:1041f0006597800044079800550798000e027800e4
:1042000088027800b41a7800a4127800e482420090
:1042100064024200b41a7800a4127800e4824200da
:1042200064024200b41a7800a4127800e4824200ca
:1042300064024200080078004f0478000080fa0011
:10424000000006000000fa002bff070054978000d2
:10425000659780000400be000080fa0000000600a0
:104260000000fa0024ff0700349780004597800083
:104270000400be000080fa00000006000000fa0002
:104280001dff070014978000259780000400be00e2
:104290000080fa00000006000600fa00881f78007f
:1042a00000047800fcfe0700e4968000040f78000c
:1042b000f496800014079800049780002407980063
:1042c0003e1c78002e1478002e02900024049800e2
:1042d000080078004f0478000080fa000000060013
:1042e0000000fa00ecfe0700e4968000040078006d
:1042f0000080fa00000006000000fa00e6fe070059
:10430000f4968000040078000080fa0000000600a7
:104310000000fa00e0fe0700049780000400780027
:104320000080fa00000006000400fa00889fbe002a
:104330006022b800048fbe00c9ff07000002be0063
:10434000048fbe00b4968000cfa2de000400be0041
:10435000baf007000002be001e01be000400be004d
:10436000fbf007000002be000400be008af1070057
:104370000002be000402780004f0a7000402ea0074
:10438000cfa2de000400be00acf007000002be00b9
:1043900018c0b30002002000030a24000400be007d
:1043a0009ef1070000027800e00f520001003c007f
:1043b0000044eb00e04f540018013200c5e2a900b0
:1043c000241680004f22de00044278000482fb00a5
:1043d000610262004e22dd0026168000f5ff2b00f0
:1043e00085026300050272002416880024168000ee
:1043f0004e22de00614262000482fb006102620024
:104400004d22dd0026168000f5ff2d008502630099
:104410000502720024168800241680004d22de005a
:10442000614262000482fb00610262004a22dd00f8
:1044300026168000f5bf2f0085026300050272007a
:1044400024168800241680004a22de0061426200a1
:104450000482fb00610262004c22dd00261680000f
:10446000f5ff2e0085026300050272002416880005
:10447000241680004c22de00614262000482fb00b0
:10448000610262004922dd0026168000f5df2f0060
:10449000850263000502720024168800241680003d
:1044a0004922de00614262000482fb006102620078
:1044b0004722dd0026168000f5f72f0085026300f5
:1044c0000502720024168800241680004722de00b0
:1044d000614262000482fb00610262004622dd004c
:1044e00026168000f5fb2f0085026300050272008e
:1044f0002416880019c0b30002002c00833a24005f
:104500001e00be0045f1070000027800e00f5200d7
:1045100001003c008044eb0018c0b3000200200002
:10452000431b24001e00be003ef10700000278007d
:10453000e00f5200010034000044eb0008c2740098
:10454000e04f5200090032000200280063422400bc
:104550001e00be0096f1070000027800e00f520036
:1045600002003200c4c2a800a700370018c0b30080
:1045700002002000431b24001e00be0027f107009c
:1045800000027800e00f520001003c000044eb0004
:10459000e04f54000d00320018c0b30002002000ac
:1045a000732824001e00be001ef1070000027800e0
:1045b000e00f5200010034000044eb00e04f5400d3
:1045c00002003200c5e2a8008f00370018c0b30017
:1045d00002002000732824001e00be000ff1070017
:1045e00000027800e00f520001003c000044eb00a4
:1045f000e04f54000d00320018c0b300020020004c
:10460000132e24001e00be0006f1070000027800f1
:10461000e00f5200010034000044eb00e04f540072
:1046200002003200c5c2a8007700370018c0b300ee
:1046300002002000132e24001e00be00f7f0070029
:1046400000027800e00f520001003c000044eb0043
:10465000e04f54000d00320018c0b30002002800e3
:10466000d33124001e00be00eef0070000027800e7
:10467000e00f5200010034000044eb00e04f540012
:1046800002003200c5a2a8005f00370018c0b300c6
:1046900002002800d33124001e00be00dff0070016
:1046a00000027800e00f520001003c000044eb00e3
:1046b000e04f54000d00320018c0b3000200280083
:1046c000a33424001e00be00d6f0070000027800cc
:1046d000e00f5200010034000044eb00e04f5400b2
:1046e00002003200c542a8004700370018c0b300de
:1046f00002002800a33424001e00be00c7f00700fb
:1047000000027800e00f520001003c000044eb0082
:10471000e04f54000d00320018c0b3000200280022
:10472000733724001e00be00bef0070000027800b0
:10473000e00f5200010034000044eb00e04f540051
:1047400002003200c582a8002f00370018c0b30055
:1047500002002800733724001e00be00aff00700df
:1047600000027800e00f520001003c000044eb0022
:10477000e04f54000d00320018c0b30002002400c6
:10478000233924001e00be00a6f0070000027800b6
:10479000e00f5200010034000044eb00e04f5400f1
:1047a00002003200c522a8001700370018c0b3006d
:1047b00002002400233924001e00be0097f00700e9
:1047c00000027800e00f520001003c000044eb00c2
:1047d000e04f54000c00320018c0b30002002c005f
:1047e000833a24001e00be008ef00700000278000d
:1047f000e00f5200010034000044eb00e04f540091
:1048000001003200c4e2a8001e00be0062f00700f2
:104810000002be0004027800b49688004f04be0077
:104820000080fa00000006000a00fa002007980045
:1048300031079800420798000002eb001407980027
:10484000be0290004e029000848f520006003a0093
:104850003e029000ae0290000482420014427800b2
:104860000482fb001c0037003e009000000f78001f
:10487000090037001e027800ae0290000482420058
:10488000144278000482fb009e02900004824200e1
:10489000140798001e0fe8004e0290009e02780058
:1048a000848f5200f3ff35001e029000e00f52008b
:1048b00002003a000002eb0007003700ce02900031
:1048c0003e029000048252009e02900011000900f6
:1048d0008402d80000027800040078000080fa000a
:1048e000000006000e00fa00881f780030079800cc
:1048f000410798005207980063079800e4998000e8
:10490000040fe8000002eb00240798001f003700a6
:104910009e02e900e49980001e0212000402e900f0
:1049200005017800840078005e009000beff07005b
:10493000800278001e0278005e03900004024300ab
:10494000144278000483fb001e0278000402e80091
:10495000de03900004824300144278000482fb00ce
:104960000403430024002000110009000403d800c0
:104970000002780004825200240798002e02900062
:10498000e30f520006003c001e0fe8006e0290008c
:104990000402e9009e0f5200ddff3c0001003700d9
:1049a000000000006e0290009e027800848f52008a
:1049b00003003d002e029000e30f520002003c0075
:1049c0000082eb004a0037001e02e800140798003e
:1049d0000002eb00240798001d0037001e02900023
:1049e000de02900004824200144278008482fb00c0
:1049f0001e0290005e0390000402430014427800ff
:104a00000482fb008482420024002000110009007f
:104a10008402d80000027800040478001e0190008f
:104a20009e0078005e0090007fff07000002780083
:104a300004025400240798002e029000e30f520055
:104a400009003c001e0290000402e80014079800d0
:104a50006e0290008402e9001e029000848f5200d2
:104a6000deff3c0001003700000000001e02900045
:104a70009e0252003e029000050a78009e029000bd
:104a80006e029000848f520009003500ee02900003
:104a900024002000110009008402d80000027800e0
:104aa000840278004e029000050a78000f0037005b
:104ab0001e0290009e0252002400200011000900f6
:104ac0008402d800000278009e0242006e0390002b
:104ad00024002000110009000403d800000278001f
:104ae000848252004e029000050a780014002000d3
:104af000040078004f0478000080fa0000000600ef
:104b00000e00fa00881f78003007980041079800cf
:104b10005207980063079800d49980008482ea00c5
:104b20006e029000048f42000002eb002407980000
:104b30001f003700d49980001e0242008402e80062
:104b40001e02e80005017800840078005e009000f5
:104b500035ff0700800278001e0278005e03900097
:104b600004024300144278000483fb001e02780014
:104b70000402e900de03900004824300144278003e
:104b80000482fb00040343002400200011000900fc
:104b90000403d80000027800048252002407980021
:104ba0002e029000e30f520005003c001e0fe900aa
:104bb0001e027800e00f5200deff3c0001003700cb
:104bc000000000001e027800e00f520003003200d7
:104bd0002e029000e30f520002003c000082eb0026
:104be0004d0037001e02e900140798000002eb0098
:104bf00024079800200037001e029000de0290007b
:104c000004824200144278008482fb001e0290005d
:104c10000402e9005e03900004024300144278009d
:104c20000482fb008482420024002000110009005d
:104c30008402d80000027800040478001e0290006c
:104c40000402e8001e017800840078005e009000f5
:104c5000f5fe0700000278000402540024079800c3
:104c60002e029000e30f520007003c001e0290004d
:104c70000402e900140798001e029000e00f5200a1
:104c8000ddff3c0001003700000000001e02900024
:104c90009e0212003e029000050a78001e0290005b
:104ca000e00f52000a003c006e0290008402ea000d
:104cb00024002000110009008402d80000027800be
:104cc000840278004e029000050a78001100370037
:104cd0001e0290009e021200240020001100090014
:104ce0008402d80000027800840278001e0290003e
:104cf000848242006e03900024002000110009000d
:104d00000403d80000027800848252004e02900012
:104d1000050a780014002000040078004f04780091
:104d20000080fa00000006000200fa00000f780080
:104d30009e0278000042eb00844a78001e02780050
:104d40008082eb00150298001e0278008082eb0042
:104d5000250298001e0278008002eb0035029800c0
:104d60001e027800c5122000450298000080fa005b
:104d7000000006000800fa0020079800310798009c
:104d80003e0190008000eb002e009000a6fe070080
:104d900000027800140798001e029000e00f5200f5
:104da000190032000002eb00040f780011003700f8
:104db0001e027800ae029000048342001e027800ba
:104dc000ae02900004824200144278000482fb008c
:104dd0006a22b900840278001e02900011000900c6
:104de0008402d8000002780004427800044b780066
:104df0001e0fe8003e0290009e027800848f520051
:104e0000ebff350001003700000000000080fa00d1
:104e1000000006001000fa00500798006107980093
:104e200072079800e60247000e82e800fe0190003b
:104e30006e0190008500780004007800a9fe07004c
:104e400000027800044f7800e8024700640247003f
:104e5000fe0190006e01900085007800040078004b
:104e600027ff070000027800144798001e427800d0
:104e7000e14f420005003a001e429000e14f42001f
:104e800002003a000082eb00310037001e42780039
:104e9000e14f52000b003a001e429000e14f4200e9
:104ea00008003a009e0290005e02900015029800f1
:104eb000be0290005e0290002502980014002000bf
:104ec000230037001e427800e14f42000b003a00f9
:104ed0001e429000e14f520008003a00ae029000de
:104ee0005e02900015029800ce0290005e029000d3
:104ef0002502980014002000150037009e02900043
:104f00002e0290008482420024002000110009003b
:104f10008402d80000027800840278005e029000cb
:104f200015029800be0290004e029000848242005a
:104f300024002000110009008402d800000278003b
:104f4000840278005e029000250298001400200080
:104f5000040078000080fa00000006000a00fa0051
:104f6000400798000002eb00040f78000002eb00fd
:104f700014079800340220002407980064002000e1
:104f8000340798004e02900014029000ae0090008a
:104f9000040078001400070000027800040f780075
:104fa0004e02900024029000be00900004007800a1
:104fb000a300070000027800140798004e0290003a
:104fc0009e027800350298004e0290009e029000ea
:104fd000450298009e0090001e007800b709070067
:104fe0000080fa00000006001000fa00889fbe0052
:104ff00060079800710798002403200014079800a8
:10500000d4cc2c00c5dc2300240798003507980079
:1050100034002000440798009e0290006e02900029
:1050200004825200540798005e029000cfa2de0076
:105030000400be0081ed07000002be002e019000ba
:10504000be0190000400be001fee07000002be007b
:105050000404be004e029000cfa2de000400be0099
:1050600076ed07000002be000401be000800be008d
:1050700075ed07000002be000403be00b499800075
:10508000c59980000401be000600be00b1ed070016
:105090000002be00b4998800c59988005e029000a5
:1050a000cfa2de000400be0064ed07000003be00d6
:1050b000b4998000c59980000401be000600be00be
:1050c000a4ed07000002be000404be007e029000b2
:1050d000cfa2de000400be0058ed07000002be00b3
:1050e0000401be000800be00f7ed07000002be008c
:1050f0000400be0028ee07000002be00040f780086
:10510000743e20009e027800848f520022003400fa
:10511000753e20007e029000110009008402d80034
:1051200000027800840278005e029000048252003f
:10513000cfa2de000400be0040ed07000002be006a
:10514000b4998800c5998800b4998000c5998000f9
:1051500018c0b30002002000032724000400be0092
:105160002eee070000027800e00f520001003c0024
:105170000044eb00e04f5400040032000400200023
:1051800005272400b4998800c5998800743e200042
:10519000040f78002500370094c12f009e0278008c
:1051a000848f520021003d0095c12f007e029000a7
:1051b000110009008402d8000002780084027800ff
:1051c0005e02900004824200cfa2de000400be0016
:1051d0001aed07000002be00b4998800c599880046
:1051e000b4998000c599800018c0b3000200200067
:1051f00003122c000400be000aee07000002780033
:10520000e00f5200010035000044eb00e04f540075
:10521000040032000400200005122c00b49988001c
:10522000c599880094c12f00040f78001e027800f1
:10523000040078004f04be000080fa000000060061
:105240000a00fa0030079800410798000002eb00be
:10525000140798000002eb00040f78009e029000f3
:105260003e0290000482520024079800ae02900093
:105270004e02900004aab90004027800040f7800de
:10528000743e20009e027800848f52000300340098
:10529000743e2000040f78000600370094c12f00f0
:1052a0009e027800848f520002003d0094c12f00be
:1052b000040f78001e027800040078000080fa00d5
:1052c000000006000000fa006022b800b4998800cf
:1052d000c59988000080fa00000006000200fa006c
:1052e000004f78001e427800e14f520005003a005e
:1052f00014c0b3000002fd0052efb7000002fd0031
:10530000040037000042eb000002fd0052efb7003e
:105310000002fd000002eb00041588000002eb0013
:10532000141588000002eb00241588000002eb0031
:1053300034158800a802a800a822a800a842a90045
:10534000a862a900a882a900a8a2a900a8c2a900d1
:10535000a8e2a900a902a900a922a900a942a900be
:10536000a962a900a982a900a9a2a900a9c2a900ad
:10537000a9e2a900aa02a900aa22a900aa42a8009b
:10538000aa62a800aa82a800aaa2a900aac2a9008b
:10539000aae2a900ab02a900ab22a900ab42a90076
:1053a000ab62a900ab82a900aba2a900abc2a90065
:1053b000abe2a900041580000480a1000490a100c4
:1053c00004158800a042a800041580000450a00025
:1053d0000460a0000470a00004158800141580006b
:1053e0000420a1000430a0000440a1000450a1004a
:1053f00014158800a342a80025158000f40f2e0084
:1054000084826200041020000502720024158800c6
:1054100024f5200014427800e04f520006003200cc
:105420002515800004fc2f00048262003401b300c3
:1054300024158800060037002515800004fc2f0085
:105440008482620074022000050272002415880024
:105450008560a9008d60a800a1e2a80024f52000c5
:1054600014427800e04f520005003a0000000000ae
:105470007579800004032000848f5200fbff360002
:105480000080fa0000000600801f7800849fbe00a4
:10549000869fbe003400f80000002000a0018800b4
:1054a0000200fa000042eb000002fd0050efb700de
:1054b0000002fd000042eb000002fd0051efb700ca
:1054c0000002fd008560a90024f520001442780048
:1054d000e04f52002a00320004282000040f780018
:1054e000647980009e0278009502780004034200ef
:1054f0000480200004024300050a78001e8fe800a3
:10550000647980009e027800950278000410b00053
:10551000040342000480200004024300050a7800ce
:105520001e8fe800647980009e0278009502780062
:105530000420b00004034200048020000402430061
:10554000050a78001e8fe800647980000402e800f4
:105550006479880065798000f40f2000848f520000
:105560005e0136000002eb006479880014c0b300cd
:105570000002fd0051efb7000002fd0057013700a7
:10558000c401200054158800141580000420a100d7
:105590000430a0000440a1000450a10014158800ac
:1055a0002515800004fc2f00848262007402200014
:1055b000050272002415880035f520009542780018
:1055c000d4c3b30084cf52000e003a00c40f2000b1
:1055d00054158800141580000420a0000430a10098
:1055e0000440a0000450a100141588002515800077
:1055f00004fc2f00048262003401b30024158800eb
:105600005500370035f5200095427800e4c3b3001b
:1056100084cf520026003a00141580000420a10017
:105620000430a1000440a0000450a100141588001b
:105630002515800004fc2f00048262007401b30071
:105640002415880044f52000144278000482fb00f1
:10565000cfa2de003600200007002000860f520097
:10566000878f5a003b003e000460010003003700b2
:1056700005003700070037000a003700c411210079
:105680005415880034003700c421220054158800c6
:1056900031003700c4412400541588000000000088
:1056a0002d003700c4812800541588002a003700d7
:1056b00034f5200014427800e24f520026003a00f0
:1056c000141580000420a1000430a1000440a000b3
:1056d0000450a100141588002515800004fc2f003b
:1056e000048262007401b3002415880044f5200090
:1056f000144278000482fb00cfa2de0036002000b6
:1057000007002000860f5200878f5a0012003e00cb
:105710000460010003003700050037000700370070
:1057200009003700c4112100541588000a00370011
:10573000c42122005415880007003700c44124000a
:105740005415880004003700c481280054158800cf
:10575000010037000000000004282000040f78003a
:10576000647980009e02780095027800040342006c
:105770000480200004024300050a78001e8fe80020
:10578000647980009e027800950278000410b000d1
:10579000040342000480200004024300050a78004c
:1057a0001e8fe800647980009e02780095027800e0
:1057b0000420b000040342000480200004024300df
:1057c000050a78001e8fe800647980000402e80072
:1057d0006479880065798000f40f2000848f52007e
:1057e000060036000002eb006479880014c0b300a4
:1057f0000002fd0051efb7000002fd0035f520006a
:1058000095427800e4c3b30084cf520023003a00ed
:10581000747980000402e80074798800757980004a
:1058200014032000848f5200020036000002eb00b7
:1058300074798800747980009e027800950278005f
:105840000403420004e0200004024300050a78003b
:105850001e8fe800747980009e027800950278001f
:105860002403b0000403420004e0200004024300cb
:10587000050a78001e8fe800747980009e02780087
:10588000950278004406b0000403420004e02000c2
:1058900004024300050a78007f00370035f5200038
:1058a00095427800f4c3b30084cf520033003a002d
:1058b00044f52000144278000482fb00cfa2de00f1
:1058c0003600200007002000860f5200878f5a0004
:1058d00070003e0004600100030037000b00370039
:1058e000130037001c0037001e02780014027800f5
:1058f000847988001e8fe8001e0278001402780068
:10590000c4798800e2e2a800630037001e02780034
:1059100014027800947988001e8fe8001e02780037
:1059200014027800d4798800e302a8005a003700f6
:105930001e02780014027800a47988001e8fe80007
:105940001e02780014027800e4798800e802a800ba
:1059500000000000500037001e027800140278009a
:10596000b47988001e8fe8001e02780014027800c7
:10597000f4798800e822a8004700370034f52000b9
:1059800014427800e34f520043003a0044f52000ef
:10599000144278000482fb00cfa2de003600200013
:1059a00007002000860f5200878f5a003a003e0001
:1059b00004600100030037000f0037001b003700b0
:1059c000270037001e02780014027800047a88004d
:1059d0001e8fe8001e02780014027800447a8800c6
:1059e000e2e2a90014c0b3000002fd0054efb700ca
:1059f0000002fd00280037001e0278001402780023
:105a0000147a88001e8fe8001e02780014027800c5
:105a1000547a8800e302a90024c0b3000002fd000c
:105a200054efb7000002fd001b0037001e02780093
:105a300014027800247a88001e8fe8001e02780085
:105a400014027800647a8800e802a90034c0b30028
:105a50000002fd0054efb7000002fd000e00370009
:105a60001e02780014027800347a88001e8fe80045
:105a70001e02780014027800747a8800e822a900d7
:105a80000042eb000002fd0054efb7000002fd00f1
:105a9000010037000000000035f520009542780035
:105aa0008583fb0014c0b300f6032000868f5300eb
